:105FB20053B1FB43B204124ABC1257B8123F6C12DF
:105FC200477F1249611256E912593D125520123D7E
:035FD2002A80E63C
:10142B00D6D0BEB0D4B0B0E6C8A8CBF9D3D000D6D6
:10143B00D0BEB0D4B0B5E7D7D3D7DBBACFB2E2CA00
:10144B00D4B3CCD0F200D6D0BEB0D4B0B5E7D7D39E
:10145B0000D7DBBACFB2E2CAD4B3CCD0F200332E72
:10146B0032272053543737383920323430583332FF
:10147B003000D6D0BEB0D4B020323031342D303223
:10148B002D323500B2E2CAD4313AB4BFC9ABCCEE7F
:10149B00B3E4B2E2CAD400576869746500426C6168
:1014AB00636B0052656400477265656E00426C7534
:1014BB006500B2E2CAD4323A475549BED8D0CECC39
:1014CB00EEB3E4B2E2CAD400B2E2CAD4333A47551F
:1014DB0049BBADD4B2CCEEB3E4B2E2CAD400B2E2B3
:1014EB00CAD4343AD3A2CEC4CFD4CABEB2E2CAD481
:1014FB0000365831323A6162636465666768696ABF
:10150B006B6C6D6E6F707172737475767778797AA8
:10151B0000365831323A4142434445464748494ADE
:10152B004B4C4D4E4F5030313233343536373839D2
:10153B0000365831323A7E21402324255E262A2854
:10154B00295F2B7B7D3A3C3E3F2F7C2D2B2E003889
:10155B005831363A6162636465666768696A6B6CB9
:10156B006D6E6F7071727374757677003858313693
:10157B003A4142434445464748494A4B4C4D4E300D
:10158B003132333435363700385831363A7E2140D4
:10159B002324255E262A28295F2B7B7D3A3C3E3F60
:1015AB002F7C00B2E2CAD4353AD6D0CEC4CFD4CA3F
:1015BB00BEB2E2CAD40031365831363AD6D0BEB0BC
:1015CB00D4B0B5E7D7D3BCBCCAF5D3D0CFDEB9AB5B
:1015DB00CBBEBBB6D3ADC4FA0031365831363A5711
:1015EB00656C636F6D65D6D0BEB0D4B0B5E7D7D39D
:1015FB000032345832343AD6D0BEB0D4B0D6D0CE76
:10160B00C4B2E2CAD40033325833323AD7D6CCE51F
:10161B00B2E2CAD400B2E2CAD4363ACDBCC6ACCF21
:10162B00D4CABEB2E2CAD400515100B2E2CAD43716
:10163B003A546F756368B2E2CAD40052535400FF38
:10164B00FFFFFFFFFFFFFFFFFFFFFFFFFFFFFFFF9F
:10165B00FFFFFFFFFFFFFFFFFFFFFFFFFFBEF7FFD8
:10166B00FFDEFF38C6928C8E6B6E6B107C96AD3C9A
:10167B00E7FFFFFFFFFFFFFFFFFFFFFFFFFFFFFF87
:10168B00FFFFFFFFFFFFFFFFFFFFFFFFFFFFFFFF5F
:10169B00FFFFFFFFFFFFFFFFFFFFFFFFFFFFFFFF4F
:1016AB00FFFFFFFFFFFFFFFFFFFFFFFFFF5DEF15DB
:1016BB009D4F636C420A328829461925194521E84A
:1016CB00318E6B38C6FFFFFFFFFFFFFFFFFFFFFFF2
:1016DB00FFFFFFFFFFFFFFFFFFFFFFFFFFFFFFFF0F
:1016EB00FFFFFFFFFFFFFFFFFFFFFFFFFFFFFFFFFF
:1016FB00FFFFFFFFFFFFFFFFFFFFFF36A51053109C
:10170B004B51530F4B6C3AE93167212519E410A368
:10171B000862008308CB529AD6FFFFFFFFFFFFFF43
:10172B00FFFFFFFFFFFFFFFFFFFFFFFFFFFFFFFFBE
:10173B00FFFFFFFFFFFFFFFFFFFFFFFFFFFFFFFFAE
:10174B00FFFFFFFFFFFFFF3CE77063B363B87CF560
:10175B006311434D32EA298821261905190519040D
:10176B00110411E4108300A308728CFFFFFFFFFF2D
:10177B00FFFFFFFFFFFFFFFFFFFFFFFFFFFFFFFF6E
:10178B00FFFFFFFFFFFFFFFFFFFFFFFFFFFFFFFF5E
:10179B00FFFFFFFFFFDBDE4B3AF042356C544BB1E2
:1017AB00322E2AEB21A92167190519041104110402
:1017BB0011041104110519E4104200AF73FFFFFF70
:1017CB00FFFFFFFFFFFFFFFFFFFFFFFFFFFFFFFF1E
:1017DB00FFFFFFFFFFFFFFFFFFFFFFFFFFFFFFFF0E
:1017EB00FFFFFF5DEF09324C32104B8F324F2A2E29
:1017FB002ACC19891989214719051904110411C417
:10180B0010C410041104110411E41042003184FFC0
:10181B00FFFFFFFFFFFFFFFFFFFFFFFFFFFFFFFFCD
:10182B00FFFFFFFFFFFFFFFFFFFFFFFFFFFFFFFFBD
:10183B00FFFFFFEC5247194C320B2AEC21EC210C29
:10184B0022915BEE4A061126190419E410E410A745
:10185B00296621A308051904110411E4108200F76D
:10186B00BDFFFFFFFFFFFFFFFFFFFFFFFFFFFFFFBF
:10187B00FFFFFFFFFFFFFFFFFFFFFFFFFFFFFFFF6D
:10188B00FF35A58308882188218921AA218A216B0C
:10189B0042718CFFFF728C83080411C4082942FB30
:1018AB00DE5DEFEC5A83080411041104118308E880
:1018BB0031DFFFFFFFFFFFFFFFFFFFFFFFFFFFFF1B
:1018CB00FFFFFFFFFFFFFFFFFFFFFFFFFFFFFFBE5E
:1018DB00F7C731C4102519261947194719A8298AA2
:1018EB0052284A55ADFFFFE831A30805194D6B4D42
:1018FB006BFFFF7DEF4521C410041104110411622D
:10190B000076ADFFFFFFFFFFFFFFFFFFFFFFFFFFB6
:10191B00FFFFFFFFFFFFFFFFFFFFFFFFFFFFFF9635
:10192B00B562000411041905110519C4088B4AB6D8
:10193B00B55DEFF7BDFFFF8E6B62002942AA5A0817
:10194B0042FFFFFFFFCC528308041104110411A3C3
:10195B0008AD52FFFFFFFFFFFFFFFFFFFFFFFFFF82
:10196B00FFFFFFFFFF1CE7FFFFFFFFFFFFFFFF4E28
:10197B00636200041104110411E41062008E63FF12
:10198B00FFFFFFFFFFFFFFCF730100F39C2C63965C
:10199B00B5FFFFFFFF2D5B8300041104110411E45D
:1019AB001067213DEFFFFFFFFFFFFFFFFFFFFFF87A
:1019BB00BDB7B59EEFCB52B394FFFFFFFFDFFFE840
:1019CB0031A3080411041104110411A3084942FFA7
:1019DB00F7FFF7FFFFFFFF6A4A01007284FFFFFF6B
:1019EB00FFFFF7DFEF093AA30804110411041104F8
:1019FB0011051118BEFFFFFFFFFFFFFFFFFFFFF0F9
:101A0B007B6200E831C731410035A5FFFF5DEF4632
:101A1B0021C4100411041104110411E410A308765D
:101A2B009DFFF7FFFFB7ADA308A308C7319EE7FFE4
:101A3B00F7FFF776A5A308E41004110411041105B0
:101A4B0011051135A5FFFFFFFFFFFFFFFFFFFFDBB9
:101A5B00DEA7298300C410C410C4101CE79EEF0539
:101A6B0011E41004110411041104110419C408E544
:101A7B0010D16BD16BC5086400A50843002B3277DE
:101A8B009DB3842519C410041104110411041125EC
:101A9B00192609359DFFFFFFFFFFFFFFFFFFFFFF2C
:101AAB00FFAF7362000419051982000D5B8E9B62F8
:101ABB00100511041104110419E41085000511C45B
:101ACB0039815A407B229C43AC03A4839B82728254
:101ADB0049C218A400C500E41004190411051947E4
:101AEB00196711EC5ABEFFFFFFFFFFFFFFFFFFDF80
:101AFB00FFDBDEC410E41004110511A41801C08330
:101B0B0088E40005190419C5084421438323D542F1
:101B1B00FEE4FE27FF07FFA4FE64FE03FEA3FDE227
:101B2B00FC42EC83B32462E510C40804192619A8FF
:101B3B001987210090D3BCFFFFFFFFFFFFFFFFDFE3
:101B4B00FFFFFF107C420005190511832801D044CB
:101B5B00F8A348E400C508445A02EDE2FD02FE6614
:101B6B00FE74FFB8FF73FFE7F6A6F645F6A4F5C3C0
:101B7B00FC62FCC2FCC2FCE3CBC44906118819878A
:101B8B0001A49001F8EC9AFFFFFFFFFFFFFFFFFF9F
:101B9B00FFFFFFBEF7E83183000509824001C02338
:101BAB00F885F0A348A400445A02FD23CCC2DC0400
:101BBB00FE28FE48F646F624F6E4F564FDE3FC62E7
:101BCB00FCC2FC02E402DCE2FCA47A48016701C41B
:101BDB007824F802F884B07DE7FFFFFFFFFFFFFFDB
:101BEB00FFFFFFFFFFDBDE2519A300C43802E02255
:101BFB00D844F8A6F8A47863004321837283398212
:101C0B009B21F561FD22FDE2FCA2FC42FC42FC4261
:101C1B00FC22AB8341C392045226012519A498449C
:101C2B00F823F802F8A4D09EEFFFFFFFFFFFFFFFA2
:101C3B00FFFFFFFFFFFFFF9AD68729A50043B822BE
:101C4B00F823E065F8E8F807C983484200A300844D
:101C5B00006329A27A62B3A2CB62D302BB828A83CE
:101C6B0039A400E500E500E508C46064D844F82415
:101C7B00F823F802F88388DBC6FFFFFFFFFFFFFFA7
:101C8B00FFFFFFFFFFFFFFFFFF3DE7505B08312327
:101C9B00E843F844F065F809F9ABF989D10689A353
:101CAB004842180200420061008200620062008319
:101CBB0000A320C450A58885D865F844F844F823C0
:101CCB00F823F803D08210C7295DEFFFFFFFFFFF5A
:101CDB00FFFFFFFFFFFFFFFFFFFFFFFFFF6C32A5C3
:101CEB003802D823F865F866F8A7F84AF90CFA4DCC
:101CFB00FA4CEA0BD2A9B968B147A927B107B907C2
:101D0B00D1E7E8C7F8A7F865F865F844F823F803B6
:101D1B00F802D0A3280509C408EC5AFFFFFFFFFF08
:101D2B00FFFFFFFFFFFFFFFFFFFFFFFBDE0519C4F8
:101D3B0000A741E6C003F886F8A7F887F886F8C72E
:101D4B00F829F98AF9ABF9ABF98BF96AF929F90892
:101D5B00F9C7F8A6F886F865F864F823F802F006D8
:101D6B00B12529E400E41025192519149DFFFFFF67
:101D7B00FFFFFFFFFFFFFFFFFFFFFF96AD6200823C
:101D8B00083595BACE8BA244D025F887F8A7F8C7AB
:101D9B00F8A7F887F886F886F886F887F8A7F8A7E3
:101DAB00F8A6F885F865F864F824F064B80D93BBD1
:101DBB00B6CF6383080411E4106621493A5DEFFF47
:101DCB00FFFFFFFFFFFFFFFFFFFFFFD3944200E486
:101DDB0010BBCEFFFFBEE776B5CCAA07C145E045E9
:101DEB00F846F866F886F886F886F886F865F845BA
:101DFB00F865F865E844D043A8018882903CD7FF8A
:101E0B00EF559583080411041105194619B394FF76
:101E1B00FFFFFFFFFFFFFFFFFFFFFFB394410086B4
:101E2B00215DDFFFFFFFFFFFFFDFE77AC6D3B44E75
:101E3B00B32AC268D1E6E0A6E8A5E8A5E8E6D8880B
:101E4B00C906A922A802A800A000C800D8F7E5FF80
:101E5B00E7F8ADC410E4100411E41005118B4AFF30
:101E6B00FFFFFFFFFFFFFFFFFFFFFF55A54100A790
:101E7B00295DDFFFF7FFFFFFFFFFFFFFFFFFFFFF07
:101E8B00EF7DDFDBCE59CEF8CDD7CDF7C579CEFBC5
:101E9B00BEABA203F045F842D043E800F072D4FF8A
:101EAB00DF39AEE410E4100411E41005118729FFAB
:101EBB00FFFFFFFFFFFFFFFFFFFFFF59CE8308462A
:101ECB00211CD7FFF7FFFFFFFFFFFFFFFFFFFFFF08
:101EDB00FFFFFFFFFFFFFFFFFFFFFFFFFFFFFFFF07
:101EEB00EF8BBA04F845F862E044F000F88EDBFFA4
:101EFB00DFF8A5C410E410E4100411E4102519FF59
:101F0B00FFFFFFFFFFFFFFFFFFFFFFBEF7872983E9
:101F1B000839B6FFF7DFF7FFFFFFFFFFFFFFFFFFFC
:101F2B00FFFFFFFFFFFFFFFFFFFFFFFFFFFFFFBEF7
:101F3B00E74ABA03F845F864F844F800F86EE3FF93
:101F4B00D7F48C83080411E410E410E4100519FF96
:101F5B00FFFFFFFFFFFFFFFFFFFFFFFFFFEF730021
:101F6B00007284FFEFBEEFDFFFFFFFFFFFFFFFFFFE
:101F7B00FFFFFFFFFFFFFFFFFFFFFFFFFFFFFFDF86
:101F8B00E78BBA03F845F845F823F800F8D3D4FFEC
:101F9B00D74E5B2100293A55A58308C4102519FF9C
:101FAB00FFFFFFFFFFFFFFFFFFFFFFFFFFFBDEA3B7
:101FBB0008E8319EDF9EE7BFEFFFFFFFFFFFFFFF4C
:101FCB00FFFFFFFFFFFFFFFFFFFFFFFFFFFFFFFF16
:101FDB00F751BC02E003F803F043E0ECC27ECFFC08
:101FEB00BE46212100D394FFFF518400008729FFB7
:101FFB00FFFFFFFFFFFFFFFFFFFFFFFFFFFFFF5194
:10200B00840000F48CFFEF9EE7BFEFDFFFFFFFFFC5
:10201B00FFFFFFFFFFFFFFFFFFFFFFFFFFFFFFFFC5
:10202B00FF3DDF55BD52BC72BCB7B55DC7FFDFF0DE
:10203B006B0000093ABFF7FFFFFFFF149D55A5FF8B
:10204B00FFFFFFFFFFFFFFFFFFFFFFFFFFFFFFFF95
:10205B00FFAC4AA408BBBEDFE77EE7BEEFDFF7DFCE
:10206B00FFFFFFFFFFFFFFFFFFFFFFFFFFFFFFDF95
:10207B00FFDFF7FFEFDFDFBFD79ED7DFDFD8A5830B
:10208B00082611DBD6FFFFFFFFFFFFFFFFFFFFFF60
:10209B00FFFFFFFFFFFFFFFFFFFFFFFFFFFFFF79CB
:1020AB00EE8BDC2131A9213DCFBFDF7EDF9EE7BE6A
:1020BB00EFBFEFDFF7DFF7DFF7DFF7DFF7BFEFBEDE
:1020CB00EF9EE77EDF5ED75ED7DFDF9AB62619423B
:1020DB0008EDA3BFFFFFFFFFFFFFFFFFFFFFFFFFAA
:1020EB00FFFFFFFFFFFFFFFFFFFFFFFFFF74DDC0E1
:1020FB00DB00FE42EE024289217BB6DFDF7ED77E1C
:10210B00DF7EDF9EE79EE79EE79EE79EE77EDF7E14
:10211B00DF5DD75DD79EDFFFE7F8A50711E3180258
:10212B00C560FDE6D3DBEEFFFFFFFFFFFFFFFFFF09
:10213B00FFFFFFFFFFFFFFFFFFFFFF9EF784BAC10B
:10214B00FC42FE82FEA2FE8183452174745EC7DFD2
:10215B00DF7ED75ED75DD75ED75ED75DD75DD75EA7
:10216B00D79EDFFFE73DC7F1638408425226E6297D
:10217B00FF86FEE0F36AC3FFFFFFFFFFFFFFFFFFDA
:10218B00FFFFFFFFFFFFFFFFFFFFFF18DEC1D2A224
:10219B00FD22FE42FE42FE62FEE2D4416A494253F8
:1021AB00743BA63EC7BFD7BFD7BFD7BFDFBFD73E96
:1021BB00C71AA6F263A729824122B462FE83FEAA44
:1021CB00FE0FFF67FD63BA3CEFFFFFFFFFFFFFFF53
:1021DB00FFFFFFFFFFFFFFFFFFFFFF9AE680D2210C
:1021EB00FDC2FDE2F5C2F582F582FD62FD61DC21E7
:1021FB009B846AE96A2C63AF6311746E632C6389E9
:10220B005A0452817AC2CBE2FC62FD82FDC2FDC24E
:10221B00FDE4FD24FD62CA1CE7FFFFFFFFFFFFFF8C
:10222B00FFFFFFFFFFFFFFFFFFFFFFFFFFB1CC81B2
:10223B00D2C0F3C1FC02FD02FDE2FCC2FCC2FC8178
:10224B00FC80FBC0C9A48135AD59CE719C218100A6
:10225B00DAA1FB82FCA2FC82FCA2FC02FD22FDE2C5
:10226B00FC00FC60DA90CCFFFFFFFFFFFFFFFFFFDE
:10227B00FFFFFFFFFFFFFFFFFFFFFFFFFFFFFF5909
:10228B00DE0DC406CBE4D203DB03DBE3DAC3D2A45B
:10229B00C209B3D2BC9EF7FFFFFFFFFFFFFBE60EA9
:1022AB00B4A6BA83D2E3E202EB22EB22E303DBE434
:0F22BB00D26AC3B6D5FFFFFFFFFFFFFFFFFFFF94
:0D5EBF004A00ACF81FFFE0F80007E0001FEC
:065429007BFF7A167936C4
:10542F00900005EBF0A3EAF0A3E9F0900082E0FA18
:10543F00A3E0FB90000FE4F0A37414F0A3E4F0A337
:10544F00741FF0E4FDFCFFFE125323900084E0FE76
:10545F00A3E0FF24ECFDEE34FFFC900082E0FAA302
:10546F00E0FB90000FEEF0A3EFF0A3E4F0A3741FA6
:10547F00F0E4FFFE12532374FF90007EF0A3F09030
:10548F00000EE4F0A3741FF0900005E0F9A3E0FA1A
:10549F00A3E0900010C9F0A3EAF0A3E9F0A3741001
:1054AF00F0A37401F074FFFBFA7D027C00E4FFFEB1
:1054BF00125AA7900085E024EEFD900084E034FF9F
:1054CF00FC90000EE4F0A3741FF0A374FFF0A3741C
:1054DF0014F0A3742BF0A37410F0A37401F074FFF5
:1054EF00FBFAE4FFFE125AA7900082E0FAA3E0FB5A
:1054FF00900085E024ECFE900084E034FF90000FD4
:10550F00F0A3CEF0E4A3F0A3F07D14FCFFFE025352
:01551F002368
:1057B8007BFF7A14793A12542F90000EE4F0A37408
:1057C8001FF0A374FFF0A37414F0A37451F0A37432
:1057D80010F0A37401F07B007AF87D1E7C00E4FFD2
:1057E800FE125AA790000EE4F0A3741FF0A374FFF2
:1057F800F0A37414F0A3745CF0A37410F0A3740104
:10580800F07B007AF87D3C7C00E4FFFE125AA790FA
:10581800000EE4F0A3741FF0A374FFF0A37414F057
:10582800A37469F0A37410F0A37401F07BE07AFF0D
:105838007D5A7C00E4FFFE125AA790000EE4F0A304
:10584800741FF0A374FFF0A37414F0A3747DF0A385
:105858007410F0A37401F07B1F7A007D787C00E45B
:10586800FFFE125AA77FDC7E05125F417FDC7E05B2
:03587800025F418B
:103F6C007BFF7A14798F12542F900082E0FAA3E031
:103F7C00FB900085E024ECFE900084E034FF900080
:103F8C000FF0A3CEF074FFA3F0A3F07D147C00E43B
:103F9C00FFFE125323900083E024CEFF900082E0BA
:103FAC0034FFFE90001B74FFF0A374E0F0A374FFC9
:103FBC00F0A37414F0A374A2F0A37410F0A3740112
:103FCC00F07B1F7A007D1E7C001233C07FF47E01D3
:103FDC00125F41900082E0FAA3E0FB900085E024A0
:103FEC00ECFE900084E034FF90000FF0A3CEF0E4E0
:103FFC00A3F0A3F07D14FCFFFE125323900083E08A
:10400C0024CEFF900082E034FFFE90001B74FFF082
:10401C00A374E0F0A374FFF0A37414F0A374A8F0DD
:10402C00A37410F0A37401F07B1F7A007D1E7C003A
:10403C001233C07FF47E01125F41900082E0FAA33C
:10404C00E0FB900085E024ECFE900084E034FF90CF
:10405C00000FF0A3CEF0A374F8F0A3E4F07D14FCF1
:10406C00FFFE125323900083E024CEFF900082E0E9
:10407C0034FFFE90001B74FFF0A374E0F0A374FFF8
:10408C00F0A37414F0A374AEF0A37410F0A3740135
:10409C00F07B1F7A007D1E7C001233C07FF47E0102
:1040AC00125F41900082E0FAA3E0FB900085E024CF
:1040BC00ECFE900084E034FF90000FF0A3CEF0A350
:1040CC007407F0A374E0F07D147C00E4FFFE12533F
:1040DC0023900083E024CEFF900082E034FFFE901A
:1040EC00001B74FFF0A374E0F0A374FFF0A374142E
:1040FC00F0A374B2F0A37410F0A37401F07B1F7AD8
:10410C00007D1E7C001233C07FF47E01125F419053
:10411C000082E0FAA3E0FB900085E024ECFE900026
:10412C0084E034FF90000FF0A3CEF0A3E4F0A3746E
:10413C001FF07D147C00E4FFFE125323900083E0FB
:10414C0024CEFF900082E034FFFE90001B74FFF041
:10415C00A374E0F0A374FFF0A37414F0A374B8F08C
:10416C00A37410F0A37401F074FFFBFA7D1E7C00A5
:0A417C001233C07FF47E01025F41A0
:10477F00E4900000F07BFF7A1479BD12542F900063
:10478F0082E0FAA3E0FB900085E024ECFE90008429
:10479F00E034FF90000FF0A3CEF074FFA3F0A3F06E
:1047AF007D147C00E4FFFE125323E4900000F09090
:1047BF000082E0C313FEA3E01324B0FDEE34FFFC30
:1047CF00900000E0F975F00FA4FBAAF02DFFEA3C72
:1047DF00FEC006C007900084E0C313FEA3E01324BD
:1047EF00B0FFEE34FFCF2BFDEF3AFCC004C00590B5
:1047FF000082E0C313FCA3E013FDE975F00FA42DB5
:10480F00FFE5F03CCF24ECFBEF34FFFAA3E0C3133A
:10481F00FCA3E013FDE975F00FA42DFFE5F03CCFED
:10482F0024ECCF34FF900007F0A3EFF0D005D004B5
:10483F00D007D0061259FD900000E025E024ACF51A
:10484F0082E43400F583E0FFA3E090007ECFF0A375
:10485F00EFF0900000E004F0E0C39405500302472E
:10486F00BE7FDC7E05125F41900082E0FAA3E0FB81
:10487F00900085E024ECFE900084E034FF90000F60
:10488F00F0A3CEF074FFA3F0A3F07D147C00E4FF3F
:10489F00FE125323E4900000F0900082E0C313FE59
:1048AF00A3E01324B0FDEE34FFFC900000E0F97597
:1048BF00F00FA4FBAAF02DFFEA3CFEC006C0079044
:1048CF000084E0C313FEA3E01324B0FFEE34FFCF48
:1048DF002BFDEF3AFCC004C005900082E0C313FC2F
:1048EF00A3E013FDE975F00FA42DFFE5F03CCF24F5
:1048FF00ECFBEF34FFFAA3E0C313FCA3E013FDE9D5
:10490F0075F00FA42DFFE5F03CCF24ECCF34FF90D2
:10491F000007F0A3EFF0D005D004D007D006125F48
:10492F008D900000E025E024ACF582E43400F5839F
:10493F00E0FFA3E090007ECFF0A3EFF0900000E047
:10494F0004F0E0C3940550030248A87FDC7E050203
:02495F005F41B6
:10496100E4900000F07BFF7A1479D312542F900069
:1049710082E0FAA3E0FB900085E024ECFE90008445
:10498100E034FF90000FF0A3CEF074FFA3F0A3F08A
:104991007D147C00E4FFFE125323E4900000F090AC
:1049A1000082E0C313FEA3E01324B0FDEE34FFFC4C
:1049B100900000E0F975F019A4FBAAF02DFFEA3C84
:1049C100FEC006C007900084E0C313FEA3E01324D9
:1049D100CEFFEE34FFCF2BFDEF3AFCE925E024AC0E
:1049E100F582E43400F583E0FAA3E0FB900007E4EC
:1049F100F0A3741EF0E4A3F0A3F0D007D006124395
:104A01009E900000E004F0E0C3940540927FDC7EBC
:104A110005125F41900082E0FAA3E0FB900085E07F
:104A210024ECFE900084E034FF90000FF0A3CEF060
:104A310074FFA3F0A3F07D147C00E4FFFE12532366
:104A4100E4900000F0900082E0C313FEA3E0132481
:104A5100B0FDEE34FFFC900000E0F975F019A4FB05
:104A6100AAF02DFFEA3CFEC006C007900084E0C317
:104A710013FEA3E01324CEFFEE34FFCF2BFDEF3A5C
:104A8100FCE925E024ACF582E43400F583E0FAA3E7
:104A9100E0FB900007E4F0A3741EF0A3E4F0A3048C
:104AA100F0D007D00612439E900000E004F0E0C36E
:0B4AB100940540917FDC7E05025F4110
:1056E9007BFF7A1479E912542F90007E74F8F0A3A5
:1056F900E4F0900080F0A3741FF090000A74FFF0AA
:10570900A37414F0A374FCF0E4A3F07B0C7D1EFCDD
:105719007F0AFE12587B90000A74FFF0A37415F0FB
:10572900A3741CF0A37401F07B0C7D2D7C007F0A0F
:105739007E0012587B90000A74FFF0A37415F0A341
:10574900743CF0E4A3F07B0C7D3CFC7F0AFE12580C
:105759007B90000A74FFF0A37415F0A3745AF0E467
:10576900A3F07B107D50FC7F0AFE12587B90000A43
:1057790074FFF0A37415F0A37477F0A37401F07BA0
:10578900107D647C007F0A7E0012587B90000A74A9
:10579900FFF0A37415F0A37493F0E4A3F07B107DDC
:0F57A90078FC7F0AFE12587B7FB07E04025F41BE
:10593D007BFF7A1579AE12542F90001B74FFF0A3E4
:10594D0074E0F0A374FFF0A37415F0A374C1F0A379
:10595D007410F0E4A3F07B1FFA7D1EFC7F0AFE128B
:10596D0033C090001B74FFF0A374E0F0A374FFF03C
:10597D00A37415F0A374E4F0A37410F0A37401F0F4
:10598D007B1F7A007D327C007F0A7E001233C0902F
:10599D00001B74FFF0A374E0F0A374FFF0A3741563
:1059AD00F0A374FCF0A37418F0A37401F07B1F7ABC
:1059BD00007D467C007F0A7E001233C090001B7470
:1059CD00FFF0A374E0F0A374FFF0A37416F0A374BA
:1059DD0011F0A37420F0A37401F07B1F7A007D6495
:1059ED007C007F0A7E001233C07FB07E04025F41CF
:105520007BFF7A16792012542F900082E0FAA3E0D4
:10553000FB900085E024ECFE900084E034FF9000B6
:105540000FF0A3CEF074FFA3F0A3F07D147C00E471
:10555000FFFE1253237BFF7A16794A7D1E7C007F63
:105560001E7E0012561690001B74FFF0A374E0F02C
:10557000A374FFF0A37416F0A37433F0A37410F0B7
:10558000A37401F07B1F7A007D4B7C007F2A7E0094
:105590001233C07BFF7A16794A7D1E7C007F5A7ECB
:1055A0000012561690001B74FFF0A374E0F0A37471
:1055B000FFF0A37416F0A37433F0A37410F0A37477
:1055C00001F07B1F7A007D4B7C007F667E001233EA
:1055D000C07BFF7A16794A7D1E7C007F967E001282
:1055E000561690001B74FFF0A374E0F0A374FFF054
:1055F000A37416F0A37433F0A37410F0A37401F035
:105600007B1F7A007D4B7C007FA27E001233C07F1F
:06561000B07E04025F41C0
:103D2A00E4900000F0A3F0A3F0A3F0A3F01254294A
:103D3A00900083E024E8FF900082E034FFFE9000C8
:103D4A000A74FFF0A37416F0A37446F0A37401F08A
:103D5A007B10E4FDFC12587B900082E0FCA3E0FD9E
:103D6A0024CCFFEC34FFFEED24E2FBEC34FFFA90A6
:103D7A00000FE4F0A37412F0A374F8F0A3E4F07D4A
:103D8A0002FC12532390007E74F8F0A3E4F0124F61
:103D9A00DCEF7003023F62900082E0FEA3E0FF9036
:103DAA000093E0FCA3E0FDC39FEC9E50E1900084E9
:103DBA00E0FEA3E0FF900095E0FAA3E0FBC39FEAD0
:103DCA009E50CB900083E024E8FF900082E034FF0D
:103DDA00FED3ED9FEC9E407BEB9410EA9400507367
:103DEA00125429900003E0FFA3E090007ECFF0A3D5
:103DFA00EFF0900083E024E8FF900082E034FFFEB9
:103E0A0090000A74FFF0A37416F0A37446F0A3742A
:103E1A0001F07B10E4FDFC12587B900082E0FCA3C9
:103E2A00E0FD24CCFFEC34FFFEED24E2FBEC34FF92
:103E3A00FA90000FE4F0A37412F090007EE0FDA364
:103E4A00E0900011CDF0A3EDF07D027C0012532327
:103E5A00023D98900082E0FEA3E0FF24C4FDEE3408
:103E6A00FFFC900093E0FAA3E0FBD39DEA9C500389
:103E7A00023F46EF24E2FFEE34FFFEC3EB9FEA9EC9
:103E8A004003023F46C3900096E09414900095E0E8
:103E9A0094004003023F46900082E0FCA3E0FD2428
:103EAA00CCFFEC34FFFEC006C007ED24E2FBEC3485
:103EBA00FFFA90000FE4F0A37412F0900001E0FE04
:103ECA00A3E0FF7C007D0512319BED25E0FFEC337A
:103EDA00FE74AC2FF58274003EF583E0FFA3E090F8
:103EEA000011CFF0A3EFF0D007D0067D027C0012BC
:103EFA005323900001E475F001123206AFF0FE7C04
:103F0A00007D0512319BED25E0FFEC33FE74AC2FEA
:103F1A00F58274003EF583E0FFA3E090007ECFF0C7
:103F2A00A3EFF090007EE0FFA3E0900003CFF0A3A0
:103F3A00EFF07F0A7E00125F41023D98900093E005
:103F4A00FEA3E0FFA3E0FCA3E0FD90007EE0FAA35D
:103F5A00E0FB125CC1023D987F0A7E00125F4102BB
:023F6A003D9880
:1000030000000000000000000000000000000404E5
:10001300040404040004000000140A0A00000000A1
:1000230000000000000014143F140A3F0A0A0000F5
:1000330000041E1505060C14150F0400000012150C
:100043000D0A142C2A1200000000040A0A1E1515BA
:100053000936000000020201000000000000000059
:1000630000201008080808080810200000020408EF
:10007300080808080804020000000004150E0E1505
:100083000400000000000404041F04040400000032
:100093000000000000000000000202010000000058
:1000A300001F00000000000000000000000000002E
:1000B3000002000000100808080404020202010004
:1000C30000000E1111111111110E000000000406A1
:1000D30004040404040E000000000E1111080402BD
:1000E300011F000000000E11100C1010110E000073
:1000F3000000080C0A0A091E0818000000001F016E
:10010300010F1010110E000000000E09010F111154
:10011300110E000000001F09080404040404000079
:1001230000000E11110E1111110E000000000E112E
:1001330011111E10120E0000000000000400000048
:10014300000400000000000000040000000404009C
:100153000020100804020408102000000000000022
:100163001F00001F000000000002040810201008F8
:100173000402000000000E11110804040004000032
:1001830000000E111915151D011E000000000404C6
:100193000C0A0A1E1233000000000F12120E121274
:1001A300120F000000001E1101010101110E0000D9
:1001B30000000F1212121212120F000000001F1281
:1001C3000A0E0A02121F000000001F120A0E0A0282
:1001D3000207000000001C1201013911120C00007B
:1001E30000003312121E12121233000000001F040B
:1001F30004040404041F000000003E080808080863
:1002030008090700000037120A060A0A123700001D
:100213000000070202020202223F000000001B1B33
:100223001B1B15151515000000003B1216161A1A94
:100233001217000000000E1111111111110E000010
:1002430000000F12120E02020207000000000E113E
:1002530011111117190E180000000F12120E0A12B5
:100263001237000000001E1101060810110F0000D4
:1002730000001F1504040404040E000000003312E0
:1002830012121212120C000000003312120A0A0C8E
:100293000404000000001515150E0A0A0A0A0000DE
:1002A30000001B0A0A04040A0A1B000000001B0AC0
:1002B3000A040404040E000000001F0908040402D9
:1002C300121F0000001C04040404040404041C00A2
:1002D300000202020404080808100000000E0808C7
:1002E3000808080808080E0000040A0000000000BF
:1002F3000000000000000000000000000000003FBC
:1003030000040000000000000000000000000000E6
:10031300000C121C123C000000000302020E121219
:10032300120E000000000000001C1202021C00005C
:1003330000001810101C1212123C000000000000F4
:10034300000C121E021C000000003804041E0404EA
:10035300041E000000000000003C120C021E221CC0
:1003630000000302020E1212123700000000040004
:1003730000060404040E000000000800000C080836
:100383000808080700000302023A0A0E12370000A9
:100393000000070404040404041F0000000000001C
:1003A300000F15151515000000000000000F1212B4
:1003B3001237000000000000000C1212120C0000A3
:1003C30000000000000F1212120E020700000000CE
:1003D300001C1212121C103800000000001B060241
:1003E3000207000000000000001E020C101E0000A7
:1003F30000000004040E04040418000000000000C0
:10040300001B1212123C0000000000000037120A09
:100413000C040000000000000015150E0A0A00007D
:1004230000000000001B0A040A1B0000000000007B
:100433000037120A0C04040300000000001E080425
:10044300041E00000018080808040808080818001B
:10045300080808080808080808080808000604042B
:100463000408040404040600022518000000000028
:100473000000000000000000000000000000000079
:100483000000000000000008080808080808000031
:100493001818000000486C2412000000000000003F
:1004A300000000000000002424247F1212127F1297
:1004B300121200000000081C2A2A0A0C1828282AF5
:1004C3002A1C080800000022251515152A58545423
:1004D300542200000000000C1212120A7625291182
:1004E300916E0000000606040300000000000000F7
:1004F3000000000000402010100808080808081039
:1005030010204000000204080810101010101008FA
:10051300080402000000000008086B1C1C6B08089C
:100523000000000000000000080808087F08080811
:1005330008000000000000000000000000000000B0
:10054300060604030000000000000000FE00000097
:100553000000000000000000000000000000000098
:100563000606000000008040402020101008080408
:100573000402020000000018244242424242424266
:1005830024180000000000080E08080808080808DE
:10059300083E00000000003C4242422020100804B4
:1005A300427E00000000003C4242201820404042AE
:1005B300221C0000000000203028242422227E2058
:1005C300207800000000007E0202021A264040420A
:1005D300221C0000000000382402021A2642424274
:1005E300241800000000007E2222101008080808CA
:1005F300080800000000003C424242241824424202
:10060300423C00000000001824424242645840402B
:10061300241C000000000000000018180000000067
:10062300181800000000000000000008000000008F
:100633000008080400000040201008040204081009
:10064300204000000000000000007F0000007F0049
:1006530000000000000000020408102040201008E1
:10066300040200000000003C4242464020101000FB
:10067300181800000000001C225A555555552D42EC
:10068300221C00000000000808181414243C224215
:1006930042E700000000001F2222221E22424242A3
:1006A300221F00000000007C4242010101010142BF
:1006B300221C00000000001F2242424242424242EA
:1006C300221F00000000003F4212121E12120242BB
:1006D300423F00000000003F4212121E12120202AB
:1006E300020700000000003C2222010101712122C7
:1006F300221C0000000000E7424242427E42424286
:1007030042E700000000003E08080808080808083F
:10071300083E00000000007C101010101010101094
:100723001010110F0000007722120A0E0A12122273
:100733002277000000000007020202020202020206
:10074300427F000000000077363636362A2A2A2AEE
:100753002A6B0000000000E346464A4A52525262A6
:10076300624700000000001C2241414141414141D8
:10077300221C00000000003F424242423E020202AD
:10078300020700000000001C2241414141414D533A
:10079300321C60000000003F4242423E12122222FD
:1007A30042C700000000007C42420204182040427D
:1007B300423E00000000007F4908080808080808B6
:1007C300081C0000000000E742424242424242420B
:1007D300423C0000000000E7424222242414141883
:1007E300080800000000006B494949495555362265
:1007F30022220000000000E74224241818182424B1
:1008030042E70000000000772222141408080808B9
:10081300081C00000000007E212010100804044280
:10082300423F00000078080808080808080808087C
:1008330008087800000002020404080808101020C9
:1008430020204040001E1010101010101010101027
:1008530010101E00003844000000000000000000DB
:100863000000000000000000000000000000000085
:10087300000000FF00060800000000000000000068
:1008830000000000000000000000003C42784442E9
:1008930042FC0000000000030202021A2642424208
:1008A300261A000000000000000000384402020283
:1008B3004438000000000060404040784442424217
:1008C30064D80000000000000000003C427E0202E9
:1008D300423C0000000000F08808087E0808080871
:1008E300083E0000000000000000007C22221C02E1
:1008F3003C42423C000000030202023A46424242AA
:1009030042E700000000000C0C00000E0808080875
:10091300083E000000000030300000382020202076
:100923002020221E0000000302020272120A161285
:10093300227700000000000E0808080808080808CD
:10094300083E0000000000000000007F9292929297
:1009530092B70000000000000000003B4642424204
:1009630042E70000000000000000003C4242424217
:10097300423C0000000000000000001B26424242EF
:10098300221E020700000000000000784442424299
:10099300447840E000000000000000774C040404A9
:1009A300041F0000000000000000007C42023C40E5
:1009B300423E0000000000000008083E0808080846
:1009C3000830000000000000000000634242424281
:1009D30062DC000000000000000000E74224241451
:1009E3000808000000000000000000EB49495555CD
:1009F30022220000000000000000007624181818CE
:100A0300246E000000000000000000E742242414CC
:100A130018080807000000000000007E22100808E4
:100A2300447E000000C02020202020102020202011
:100A33002020C000101010101010101010101010F3
:100A43001010101000060808080808100808080805
:100A5300080806000C32C20000000000000000007D
:100A630000000000D6D001000100010001003FF8A2
:100A7300210821082108210821083FF82108010045
:100A8300010001000100BEB01FF010101FF0101094
:100A93001FF00100FFFE00001FF0101010101FF0E8
:100AA3000100210845040200D4B000007FFC40048B
:100AB3004FE4400440045FF44484448444844894F1
:100AC3004894507440047FFC4004B5E701000100E2
:100AD30001003FF82108210821083FF821082108D7
:100AE30021083FF8210A0102010200FED7D30000CA
:100AF3007FF800100020004001800100FFFE01008C
:100B03000100010001000100010005000200BCBC5E
:100B130010201020102013FEFC201020102015FCA4
:100B230018843088D0481050102010505188260661
:100B3300CAF501000120011001107FFC038005406C
:100B43000540092011102108410481020100010020
:100B53000100D3D002000200FFFE040004000FF0E6
:100B6300081018102FF0481088100FF00810081004
:100B730008500820CFDE00007BF84A08520853F8DB
:100B8300620852084BF84A444A486A3052204210DD
:100B9300428843064200B9AB0080048004800840C9
:100BA3000840102020104208820604000440082058
:100BB30010203FF010100000CBBE00003FF80008EB
:100BC30000087FE8000800081F8810881088108834
:100BD30010881F88108800280010BBB60080008092
:100BE300FC8004FC050449082A401440104028A056
:100BF30024A045108110020804040802D3AD0000AC
:100C03002080133C122402240224F22412241224EE
:100C130012B4132812201020282047FE0000C4FA23
:100C23000900090011FC3204544899501148124438
:100C330014441140108002005104511290120FF01D
:100C4300B4BF00000020102013FE202026244A24D5
:100C53007A241224222423FC7C20002204227822DA
:100C6300003CC9AB0000000004000FF0102020205E
:100C73007FFC20842084208420843FF820002002ED
:100C830020021FFECCEE00000000204023FE204087
:100C930079FC220423FC220423FC220423FC3A04CF
:100CA30065FA01980204B3E40000010001007FFE2D
:100CB30002200410040808043FFC044204400440DA
:100CC300044208421042607EBED800000000207E2D
:100CD3003E804880488048FE48827F8208820C829A
:100CE30014FA12842280218040FED0CE000000003E
:100CF3007F842208223022C0220222047FC82230AD
:100D030022C222022204220822304040BBAD00004E
:100D130000007FFE00000FF011101110111051128E
:100D23005FF25112511251124FF240027FFCD4B2C2
:100D3300000000007FFE47E24812481247E24FF2EC
:100D4300501250125112511242924472580A3FFCEF
:100D5300CDBC000000003FFE440247F24C22536228
:100D6300408243625E1A41824062430240C2402293
:100D73003FFCC6AC000000402040204020403FFE26
:100D83002000200020003FE0201020102010201021
:100D930040104010CFD4000000003FFC200420048A
:100DA3003FFC200420041FF824441448144814482A
:100DB3000C5004407FFECABE000000003FFC000050
:100DC300000000007FFE00800890088810881084CF
:100DD3002084208240820780B2CB000000200820BC
:100DE3007FFE002000783F881108089009207FFECD
:100DF300018003400D30310C4002B5A50000001006
:100E0300081004203FF8210421043FFC210421049D
:100E13003FF801007FFE010001000100D3A20000A2
:100E2300000008207FFE0820092001003FF8210868
:100E3300210821081FF4014002200C10700ECEC4BB
:100E430000000100010000803F7C0810081004101E
:100E53000420022002400180018002601C18E00689
:100E6300D7DB00000000102011FE2202220249FC01
:100E73005800300013FE2528792401240D24722202
:100E830002A2BACF0000000001800240043018081B
:100E930060061FF800001FF820042004200420042B
:100EA30020041FF8C1C10000010001007FFE000003
:100EB3003FF820083FF83FF8400647C2482408207F
:100EC30008221022603EB6C80000000000803FFEEA
:100ED30044105FFC4410441043F040005FF84408A2
:100EE300423041C04360BC1EB2E20000000067C252
:100EF300145205520552C552255205520552155238
:100F03001752228222424442483ECAD400000000C3
:100F13002014101417FE00120010601013F010902C
:100F230010901090149214EA1F0A0006B3CC00002C
:100F3300000019FE7202120212027DFC18001BFE51
:100F43003420502053FE10201020102013FED0F226
:100F53000000000000803FFE400047FC4208413093
:100F630040C05FFE4042404240444048404044400D
:100F7300B5F70000000023FE122202FA0222E22249
:100F830012FE1272128A128A128A16BA1A421202B6
:100F9300040EB9E200000100010411080908091058
:100FA30009207FFE044004400440044008420842F4
:100FB3001042607CB0E60000000048FE4900490092
:100FC30049007EFE41824144794445284528451025
:100FD300452846440382C8A800001000100013FCF3
:100FE3007D0411041904188434885048505010208B
:100FF3001050108813041402CBF9000000003F7C4A
:10100300204020403E40227E2244224422443E840B
:1010130020842084408441044204C9EE000000007F
:1010230000001000000800080C7FFC04401001C8F9
:10103300A002186042301832231812C300140300B0
:1010430004030C047FF0080F80080B40781360182A
:10105300332018631818831C1903081803000003AE
:1010630000000000DBDA00000000000004100C04A4
:10107300180C04108C04108C04108C04108C04D0F5
:101083008C3F108C04108C04108C04108C04108C76
:1010930004108C04108C05F08C0E208C78208C208E
:1010A300408C00808C01000C02000C000000CAD0B0
:1010B30000000000000000300000180000180800C5
:1010C300001C1FFFE000180000182007FFF00418A1
:1010D30020041820041820041820041820041820C1
:1010E3000418200418200418200418E004184000F1
:1010F3001800001800000000D6D000000000000017
:101103000000000000000018000018000018000094
:1011130018003FFFFE301806301806301806301846
:10112300063018063FFFFE301806001800001800AE
:101133000018000018000018000000000000000064
:101143000000CEC4000000000000000000003800D2
:10115300001C00000600FFFFFF06003006003003FE
:1011630000600300600180C000C18000E30000361E
:1011730000001C0000770003C1E01E003C60000774
:10118300000000000000000000000000B2E20000C8
:101193000000000000000000000040000321FF33B6
:1011A300398333118333019B33C19B33719B3319D0
:1011B3009B33019B33019B33119B3319B333303082
:1011C30033306C0330C6036383032E01BE0000007B
:1011D300000000000000CAD400000000000000006E
:1011E300000000004000D83000CE1800C21C00C030
:1011F30001FFFF0000C0F800C01800C019FFC018AD
:1012030018401818601918601B18611E18311C1F2C
:10121300B139F01910000F000000000000000000B9
:10122300D7D6000000000006000000030000000005
:10123300C0000001C0C0000107C00001FF00021F81
:10124300FE0007F01C0007C070000F00E0000E0353
:10125300F0001C0FF0003C0F70003C00E000180091
:10126300C0000000C0000000C000000060000000DB
:101273002000000037000001FF00007FF80007F89E
:1012830030001F8030000080300000C0300000605C
:1012930060000018E000000FC0000006000000001E
:1012A3000000CCE50000000000000000000000C0CA
:1012B300000000E0002001B800703FF80061FFC0AB
:1012C30000C3030001C60600038C060003080C00DC
:1012D30006080C000E18183F1E101BF31F903F0743
:1012E30000803C1C0190707C019060FE01A0C3F85B
:1012F30001A00FD803A008180360001803400018CA
:1013030003C0001803800018030000180000001831
:10131300000000100000003000000030000000005A
:1013230000000000B2E20000000000000000000026
:10133300000000000000020C1008071FF80403BFA0
:10134300F00201BC300303EC3003015C600300D8FE
:10135300600300D860038098620361B8430771B1EA
:101363004306313243063376C3063A64C7063EEC7E
:10137300C0063E78C0063C3040067C70000678E02C
:1013830060067BFFF006F7C00006E400000640009D
:101393000006000000060000007C00008FF0000043
:1013A3007C0000000000CAD4000000000000000020
:1013B3000000000000003F0000007F80000001806B
:1013C300000000C0000000C0000000CE038000CF7A
:1013D300FFC000DD41800FFE0007FFFC000C00F0A2
:1013E30000180FC03E19FF40F311BC6083307FE04B
:1013F30003B1FE200333802003700030036000102C
:101403000360001807C0000C07C000040780000237
:1014130001000003000000010000000000000000C4
:081423000000000000000000C1
:105E8C00900017FEE0FCA3E0FD900016E02DFD90C5
:0D5E9C000015E03CFC90001BE0FAA3E0FBC9
:105EA90090001DEAF0A3EBF0125EEB90001DE0FEFE
:065EB900A3E0FF0260837C
:0E532300900009EEF0A3EFF0A3ECF0A3EDF084
:10533100900009E0FEA3E0FFC3EB9FFFEA9ECF24AC
:1053410001CF3400900017F0A3EFF090000BE0FEC6
:10535100A3E0FFC3900010E09FFF90000FE09ECFFD
:105361002401CF3400900019F0A3EFF090000BE07E
:10537100FCA3E0FDEB24FFFBEA34FFFA90000FE011
:10538100FEA3E024FFFFEE34FF90003FF0A3EFF017
:10539100900009E0FEA3E0FF125DE1E4900013F04C
:1053A100A3F0900019E0FEA3E0FFC3900014E09F7A
:1053B100900013E09E5047E4900015F0A3F0900098
:1053C10017E0FEA3E0FFC3900016E09F900015E0F8
:1053D1009E501B900011E0FEA3E0FF12608390003D
:1053E10016E004F070D8900015E004F080D0900031
:1053F10014E004F070AC900013E004F080A490007D
:1054010083E024FFFB900082E034FFFA900085E006
:1054110024FFFE900084E034FF90003FF0A3CEF023
:08542100E4FDFCFFFE025DE169
:0E459400900009EEF0A3EFF0A3ECF0A3EDF021
:1045A200E4900013F0A3F0A3F0A3F0900009E0FE62
:1045B200A3E0FFC3EB9FFFEA9E900017F0A3EFF08A
:1045C20090000BE0FAA3E0FBC3900010E09BFE908A
:1045D200000FE09A900019F0A3CEF0900009E0FFDE
:1045E200A3E0900021CFF0A3EFF0A3EAF0A3EBF059
:1045F200900017E0FEA3E0FFD39400EE6480948065
:10460200400A90001DE4F0A304F08021EF4E7008F0
:1046120090001DF0A3F0801574FF90001DF0A3F030
:10462200C3E49FFFE49E900017F0A3EFF0900019FF
:10463200E0FEA3E0FFD39400EE64809480400A90F1
:10464200001FE4F0A304F08021EF4E700890001FD9
:10465200F0A3F0801574FF90001FF0A3F0C3E49F55
:10466200FFE49E900019F0A3EFF0900019E0FEA382
:10467200E0FF900017E0FCA3E0FDD39FEE6480F81A
:10468200EC64809890001B4007ECF0A3EDF08005ED
:10469200EEF0A3EFF0E4900011F0A3F090001CE024
:1046A2002401FF90001BE03400FED3900012E09F33
:1046B200900011E09E400302477E900021E0FEA39D
:1046C200E0FFA3E0FCA3E0FD125F17900017E0FEFD
:1046D200A3E0FF900014E02FF0900013E03EF09072
:1046E2000019E0FEA3E0FF900016E02FF090001505
:1046F200E03EF090001BE0FEA3E0FF900013E0FC20
:10470200A3E0FDD39FEE6480F8EC6480984020ED36
:104712009FFFEC9E900013F0A3EFF090001DE0FECF
:10472200A3E0FF900022E02FF0900021E03EF09005
:10473200001BE0FEA3E0FF900015E0FCA3E0FDD328
:104742009FEE6480F8EC6480984020ED9FFFEC9E21
:10475200900015F0A3EFF090001FE0FEA3E0FF90A1
:104762000024E02FF0900023E03EF0900012E004DD
:0C477200F07006900011E004F002469E7A
:01477E002218
:1059FD00900005EAF0A3EBF0900001EEF0A3EFF0BC
:105A0D00A3ECF0A3EDF0C007A3E0FAA3E0FB900038
:105A1D0003E0FFA3E090000FCFF0A3EFF0D007124B
:105A2D004594900001E0FAA3E0FBFFAE02C007A38E
:105A3D00E0FCA3E0FD900007E0FFA3E090000FCF96
:105A4D00F0A3EFF0D007124594900007E0FCA3E01F
:105A5D00FD900005E0FAA3E0FBA3E0FFA3E09000BA
:105A6D000FCFF0A3EFF0900001E0FEA3E0FF124591
:105A7D0094900005E0FAA3E0FBFFAE02C007900092
:105A8D0003E0FCA3E0FD900007E0FFA3E090000F12
:0A5A9D00CFF0A3EFF0D0070245940C
:105F8D00C007900007E0FFA3E090000FCFF0A3EF54
:105F9D00F090007EE0FFA3E0900011CFF0A3EFF0B2
:055FAD00D007025323A0
:104D6E00900019F0A3EFF0900005E0FFA3E0900093
:0E4D7E001BCFF0A3EFF0900001E0FEA3E0FFDA
:104D8C00900015ECF0A3EDF0900013EEF0A3EFF013
:104D9C00900017EAF0A3EBF02FFFEE3AA3125E8F10
:104DAC00900017E0FEA3E0FFC3900014E09FFF907B
:104DBC000013E09EFE900019125E90900017E0FE2A
:104DCC00A3E0FF900014E02FFF900013E03EFE9054
:104DDC000019E0FCA3E0FDC3900016E09DFD9000DF
:104DEC0015E09C125EA0900017E0FEA3E0FFC390BC
:104DFC000014E09FFF900013E09EFE900019E0FC71
:104E0C00A3E0FDC3900016E09DFD900015E09C1200
:104E1C005EA0900019E0FEA3E0FF900014E02FFFCD
:104E2C00900013E03E125E8C900019E0FEA3E0FFB0
:104E3C00C3900014E09FFF900013E09E125E8C90D4
:104E4C000019E0FEA3E0FF900014E02FFF90001388
:104E5C00E03EFE900017E0FCA3E0FDC3900016E0DE
:104E6C009DFD900015E09C125EA0900019E0FEA341
:104E7C00E0FFC3900014E09FFF900013E09EFE90B3
:104E8C000017E0FCA3E0FDC3900016E09DFD900030
:0F4E9C0015E09CFC90001BE0FAA3E0FB025EA96E
:10439E00900001EEF0A3EFF0A3ECF0A3EDF0A3EA92
:0443AE00F0A3EBF09D
:1043B200E490000BF0A3F0900007E0FEA3E0FF9072
:1043C200000DEEF0A3EFF025E0FFEE33FEC3740321
:1043D2009F900012F0E49E900011F0900009E070AE
:1043E20002A3E070030244E190000DE0FEA3E0FFAF
:1043F20090000BE0FCA3E0FDD39FEE6480F8EC6438
:104402008098400302459390000FECF0A3EDF090EA
:10441200000DE0FEA3E0FFD3900010E09FEE648069
:10442200F890000FE0648098502B900003E0FCA30A
:10443200E0FD90000BE0FAA3E0FB90000FE0FFA389
:10444200E0CF124D6E900010E004F070C290000FA9
:10445200E004F080BA900011E0FCA3E0FDC3EC643C
:10446200809480502390000BE0FEA3E07802C333D7
:10447200CE33CED8F92DFFEC3ECF2406CF340090B8
:104482000011F0A3EFF0804390000DE0FEA3E0FFE7
:10449200C390000CE09FFF90000BE09EFEEF7802BD
:1044A200C333CE33CED8F9FF900012E02FFF900035
:1044B20011E03ECF240ACF3400F0A3EFF090000EBB
:1044C200E024FFF090000DE034FFF090000CE004D7
:1044D200F060030243EA90000BE004F00243EA902A
:1044E200000DE0FEA3E0FF90000BE0FAA3E0FBD397
:1044F2009FEE6480F8EA648098400302459390003E
:1045020003E0FCA3E0FDEE124D6E900011E0FCA36F
:10451200E0FDC3EC64809480502390000BE0FEA386
:10452200E07802C333CE33CED8F92DFFEC3ECF2450
:1045320006CF3400900011F0A3EFF0804390000DFD
:10454200E0FEA3E0FFC390000CE09FFF90000BE0B1
:104552009EFEEF7802C333CE33CED8F9FF9000121D
:10456200E02FFF900011E03ECF240ACF3400F0A3E9
:10457200EFF090000EE024FFF090000DE034FFF029
:1045820090000CE004F0700690000BE004F002448E
:01459200E147
:014593002205
:10418600F0900021E090002FF0900019E0FAA3E0F3
:01419600FB2D
:10419700900025EEF0A3EFF0900029EAF0A3EBF0F2
:0841A700900027ECF0A3EDF0FD
:1041AF0090007EE0FFA3E0900033CFF0A3EFF090FC
:1041BF00002DE024E0F0A3E0F9C313FF7E00900090
:1041CF0025E0FAA3E02FFFEE3ACF24FFFBEF34FFF9
:1041DF00FAE9FFA3E0F8A3E02FFFEE38CF24FFCFDB
:1041EF0034FF90003FF0A3EFF0900025E0FEA3E036
:1041FF00FF125DE190002FE060030242A6900031B4
:10420F00F090002EE0FF900031E0FEC39F400302CC
:10421F004365EFB40C1790002DE075F00CA4240348
:10422F00F582E5F03400F583E5822E801A90003197
:10423F00E0FF90002DE075F010A42477F582E5F0F3
:10424F003404F583E5822FF582E43583F583E49317
:10425F00900030F0E4900032F090002EE0C313FF96
:10426F00900032E0C39F5026900030E030E0059080
:10427F000029800390002BE0FEA3E0FF12608390E3
:10428F000030E0C313F0900032E004F080CB9000D8
:10429F0031E004F0024210E4900031F090002EE083
:1042AF00FF900031E0FEC39F4003024365EFB40C63
:1042BF001790002DE075F00CA42403F582E5F0347F
:1042CF0000F583E5822E801A900031E0FF90002DDB
:1042DF00E075F010A42477F582E5F03404F583E55A
:1042EF00822FF582E43583F583E493900030F0E478
:1042FF00900032F090002EE0C313FF900032E0FEEA
:10430F00C39F5049900029E0FDA3E090007ECDF0BF
:10431F00A3EDF0900030E030E024EEFF900026E0B7
:10432F002FFF900025E03400FE900031E0FD90005B
:10433F0028E02DFD900027E03400FC125F1790005D
:10434F0030E0C313F0900032E004F080A79000310A
:10435F00E004F00242AB900033E0FFA3E090007E58
:10436F00CFF0A3EFF0900083E024FFFB900082E0FA
:10437F0034FFFA900085E024FFFE900084E034FFC4
:0F438F0090003FF0A3CEF0E4FDFCFFFE025DE1E5
:10587B00900005EEF0A3EFF0A3ECF0A3EDF0A3EB9B
:10588B00F090000AE0FBA3E0FAA3E0F9123155FF18
:10589B00D3947E400302593CEFC39420500302592A
:1058AB003C900083E024FFFD900082E034FFFC90ED
:1058BB000005E0FEA3E0FFD39DEE9C5074900085A5
:1058CB00E024FFFB900084E034FFFA900007E0FC3B
:1058DB00A3E0FDD39BEC9A5058900080E0FBA3E033
:1058EB0090002BCBF0A3EBF090000AE0FBA3E0FAC7
:1058FB00A3E0F912315590002DF0900009E09000D3
:10590B002EF090000DE090002FF090007E1241924F
:10591B00900009E0C313FF900006E02FF090000504
:10592B00E03400F090000BE475F0011231F00258F6
:02593B008C22BC
:085D98009000B6EFF0A3EDF05E
:105DA000A3123383000000019000B7E0FF14F0EF6E
:105DB0006020A3E0F8A3E0F9A3E0FAA3E0FB9000E1
:105DC000B6E0FFE4FCFDFE12323B9000B8123377E0
:105DD00080D69000B8E0FCA3E0FDA3E0FEA3E0FFC6
:015DE00022A0
:0E52120090009FEEF0A3EFF0A3ECF0A3EDF000
:10522000E49000ABF09000A9F09000A7E0FF9000A0
:10523000A9E0FEC39F4003025322C3EF9E14FD7FEB
:105240000A125D98A804A905AA06AB079000A3E07E
:10525000FCA3E0FDA3E0FEA3E0FF1232C6E47B0A5C
:10526000FAF9F81232C69000AAEBF0A3E07057905A
:1052700000A7E014FF9000A9E0FEC39F5048A3E000
:10528000703E9000A8E0F9C3138EF0A4FF9000A038
:10529000E02FFF90009FE035F0FEC0079000A1E0F6
:1052A000FCA3E0FD90007EE0FAA3E0FB900080E02C
:1052B000FFA3E090002BCFF0A3EFF0A37420804D6C
:1052C0009000AB7401F09000A8E0F9C313FFA3E0D5
:1052D000FEEF8EF0A4FF9000A0E02FFF90009FE073
:1052E00035F0FEC0079000A1E0FCA3E0FD90007E39
:1052F000E0FAA3E0FB900080E0FFA3E090002BCF5A
:10530000F0A3EFF09000AAE0243090002DF0A3E984
:10531000F0E4A3F0D0071241979000A9E004F00256
:02532000522910
:015322002268
:10366100900027ECF0A3EDF0A3EAF0A3EBF09000BB
:0636710025EEF0A3EFF0CE
:10367700900037EEF0A3EFF0900035E4F0A3742B41
:10368700F0E4900033F0A3F0900035E0FEA3E0FFF4
:10369700900033E0FCA3E0FDC39FEC9E400302389B
:1036A7007A90002DE0FBA3E0FAA3E0F9123155FF71
:1036B700900A6775F022ED1233B4EC75F022A42559
:1036C70083F583E4936F6003023869900001123138
:1036D7006EFF900033A3E0900A6875F0221233B4AE
:1036E700EC75F022A42583F583E4936F6003023819
:1036F70069900025E0FAA3E0FBFFAE02C006C00711
:10370700A3E0FCA3E0FDEB240FFBE43AFA900027CB
:10371700E0FEA3E0240FFFE43E90003FF0A3EFF0AC
:10372700D007D006125DE1E4900031F0E49000325A
:10373700F0900032E0FFC39408400302385A90002B
:1037470030E0705AA3E0FE900033E0FCA3E0900A5B
:103757006975F0221233B4EC75F022A42583F58342
:10376700E5822EF582E43583F583E493FD3395E016
:10377700FC74807E00A807088006CEA2E713CE134C
:10378700D8F8FFEE5CFEEF5D4E60059000298003E0
:1037970090002BE0FEA3E0FF1260830238519000F7
:1037A70029E0FFA3E090007ECFF0A3EFF090003177
:1037B700E0FF900033E0FCA3E0900A6975F0221265
:1037C70033B4EC75F022A42583F583E5822FF582C7
:1037D700E43583F583E493FD3395E0FC900032E014
:1037E700FF74807E00A807088006CEA2E713CE13D9
:1037F700D8F8FFEE5CFEEF5D4E6011900025E0FE0D
:10380700A3E0FFA3E0FCA3E0FD125F17900026E012
:1038170004F07006900025E004F0900037E0FEA366
:10382700E0FFC3900026E09FFD900025E09EFCEDA1
:1038370064104C7015EEF0A3EFF0900028E004F050
:103847007011900027E004F08009900032E004F046
:10385700023738900031E004F0E0C39420500302AF
:103867003733900034E004F07006900033E004F042
:1038770002368F900083E024FFFB900082E034FF44
:10388700FA900085E024FFFE900084E034FF90006A
:0D3897003FF0A3CEF0E4FDFCFFFE025DE17A
:1038A400900027ECF0A3EDF0A3EAF0A3EBF0900076
:0638B40025EEF0A3EFF089
:1038BA00900037EEF0A3EFF0900035E4F0A3740720
:1038CA00F0E4900033F0A3F0900035E0FEA3E0FFAF
:1038DA00900033E0FCA3E0FDC39FEC9E4003023A54
:1038EA00BD90002DE0FBA3E0FAA3E0F9123155FFE9
:1038FA0090101D75F04AED1233B4EC75F04AA42508
:10390A0083F583E4936F6003023AAC9000011231AD
:10391A006EFF900033A3E090101E75F04A1233B484
:10392A00EC75F04AA42583F583E4936F6003023AA9
:10393A00AC900025E0FAA3E0FBFFAE02C006C00788
:10394A00A3E0FCA3E0FDEB2417FBE43AFA9000277E
:10395A00E0FEA3E02417FFE43E90003FF0A3EFF05F
:10396A00D007D006125DE1E4900031F0E490003215
:10397A00F0900032E0FFC394084003023A9D9000A1
:10398A0030E0705AA3E0FE900033E0FCA3E0901010
:10399A001F75F04A1233B4EC75F04AA42583F583F7
:1039AA00E5822EF582E43583F583E493FD3395E0D1
:1039BA00FC74807E00A807088006CEA2E713CE1307
:1039CA00D8F8FFEE5CFEEF5D4E600590002980039B
:1039DA0090002BE0FEA3E0FF126083023A9490006D
:1039EA0029E0FFA3E090007ECFF0A3EFF090003132
:1039FA00E0FF900033E0FCA3E090101F75F04A123C
:103A0A0033B4EC75F04AA42583F583E5822FF58259
:103A1A00E43583F583E493FD3395E0FC900032E0CE
:103A2A00FF74807E00A807088006CEA2E713CE1393
:103A3A00D8F8FFEE5CFEEF5D4E6011900025E0FEC7
:103A4A00A3E0FFA3E0FCA3E0FD125F17900026E0CD
:103A5A0004F07006900025E004F0900037E0FEA321
:103A6A00E0FFC3900026E09FFD900025E09EFCED5C
:103A7A0064184C7015EEF0A3EFF0900028E004F003
:103A8A007011900027E004F08009900032E004F001
:103A9A0002397B900031E004F0E0C39448500302FD
:103AAA003976900034E004F07006900033E004F0B8
:103ABA000238D2900083E024FFFB900082E034FFBA
:103ACA00FA900085E024FFFE900084E034FF900025
:0D3ADA003FF0A3CEF0E4FDFCFFFE025DE135
:103AE700900027ECF0A3EDF0A3EAF0A3EBF0900031
:063AF70025EEF0A3EFF044
:103AFD00900037EEF0A3EFF0900035E4F0A37404DE
:103B0D00F0E4900033F0A3F0900035E0FEA3E0FF69
:103B1D00900033E0FCA3E0FDC39FEC9E4003023D0B
:103B2D000090002DE0FBA3E0FAA3E0F9123155FF60
:103B3D0090122375F082ED1233B4EC75F082A4254A
:103B4D0083F583E4936F6003023CEF900001123123
:103B5D006EFF900033A3E090122475F0821233B4FF
:103B6D00EC75F082A42583F583E4936F6003023C2A
:103B7D00EF900025E0FAA3E0FBFFAE02C006C00700
:103B8D00A3E0FCA3E0FDEB241FFBE43AFA90002731
:103B9D00E0FEA3E0241FFFE43E90003FF0A3EFF012
:103BAD00D007D006125DE1E4900031F0E4900032D0
:103BBD00F0900032E0FFC394084003023CE0900017
:103BCD0030E0705AA3E0FE900033E0FCA3E09012C9
:103BDD002575F0821233B4EC75F082A42583F5833C
:103BED00E5822EF582E43583F583E493FD3395E08C
:103BFD00FC74807E00A807088006CEA2E713CE13C2
:103C0D00D8F8FFEE5CFEEF5D4E6005900029800355
:103C1D0090002BE0FEA3E0FF126083023CD79000E2
:103C2D0029E0FFA3E090007ECFF0A3EFF0900031EC
:103C3D00E0FF900033E0FCA3E090122575F08212B6
:103C4D0033B4EC75F082A42583F583E5822FF582DC
:103C5D00E43583F583E493FD3395E0FC900032E089
:103C6D00FF74807E00A807088006CEA2E713CE134E
:103C7D00D8F8FFEE5CFEEF5D4E6011900025E0FE82
:103C8D00A3E0FFA3E0FCA3E0FD125F17900026E088
:103C9D0004F07006900025E004F0900037E0FEA3DC
:103CAD00E0FFC3900026E09FFD900025E09EFCED17
:103CBD0064204C7015EEF0A3EFF0900028E004F0B6
:103CCD007011900027E004F08009900032E004F0BC
:103CDD00023BBE900031E004F0E0C394805003023B
:103CED003BB9900034E004F07006900033E004F02E
:103CFD00023B15900083E024FFFB900082E034FF2F
:103D0D00FA900085E024FFFE900084E034FF9000DF
:0D3D1D003FF0A3CEF0E4FDFCFFFE025DE1EF
:1033C000900017ECF0A3EDF0A3EAF0A3EBF090006F
:0633D00015EEF0A3EFF082
:1033D600900022EEF0A3EFF0E4A3F090001DE0FBD6
:1033E600A3E0FAA3E0F912315570030236609000AB
:1033F60024E06003023522900020E0FFC313FDC3E2
:10340600900083E09DFD900082E09400FCD3900044
:1034160016E09D900015E09C4003023660C39000C4
:1034260085E09FFF900084E09400FE900017E0FC8A
:10343600A3E0FDD39FEC9E400302366090001DE0A2
:10344600FBA3E0FAA3E0F9123155FFD394804008BC
:103456009000247401F08083EFB40D2E900020E0DC
:10346600FF900018E02FF0900017E03400F0900075
:1034760022E0FFA3E0900015CFF0A3EFF090001E2E
:10348600E475F0011231F0023515900020E0D39476
:1034960010900015E0FEA3E0FF402F90001BE0FB1C
:1034A600A3E090002BCBF0A3EBF090001DE0FBA374
:1034B600E0FAA3E0F912315590002DF0A374101232
:1034C6004186900016E02408803DA3E0FCA3E0FDC1
:1034D60090001BE0FBA3E090002BCBF0A3EBF09059
:1034E600001DE0FBA3E0FAA3E0F912315590002D90
:1034F600F0900020E090002E124186900020E0C35C
:1035060013FF900016E02FF0900015E03400F090C5
:10351600001EE475F0011231F00233E1900020E064
:10352600F9FF7E00C3900083E09FFD900082E09E3D
:10353600FCD3900016E09D900015E09C40030236F7
:1035460060C3900085E09FFF900084E09EFE90009F
:1035560017E0FCA3E0FDD39FEC9E4003023660E437
:10356600900024F0E9B42042900015E0FEA3E0FFAD
:1035760090001BE0FBA3E090002BCBF0A3EBF090B8
:10358600001DE0F9A3E0FAA3E090002DC9F0A3EA3C
:10359600F0A3E9F0900021E0900030F0900019E0EF
:1035A600FAA3E0FB123AE7023641900020E06418E5
:1035B6009000157044E0FEA3E0FFA3E0FCA3E0FD4D
:1035C60090001BE0FBA3E090002BCBF0A3EBF09068
:1035D600001DE0F9A3E0FAA3E090002DC9F0A3EAEC
:1035E600F0A3E9F0900021E0900030F0900019E09F
:1035F600FAA3E0FB1238A48042E0FEA3E0FFA3E0BA
:10360600FCA3E0FD90001BE0FBA3E090002BCBF0B9
:10361600A3EBF090001DE0F9A3E0FAA3E090002DE3
:10362600C9F0A3EAF0A3E9F0900021E0900030F0A1
:10363600900019E0FAA3E0FB12366190001EE475D3
:10364600F0021231F0900020E0FF900016E02FF01B
:0A365600900015E03400F00233E1AB
:013660002247
:105AA700900008EEF0A3EFF0A3ECF0A3EDF0A3EA6B
:045AB700F0A3EBF07D
:105ABB00900010E0FBA3E0FAA3E0F912609AEF78F4
:105ACB0003C333CE33CED8F9FFC3900083E09FFFDF
:105ADB00900082E09EC313FEEF13FF900009E02FAE
:105AEB00FF900008E03EFE90000AE0FCA3E0FD9072
:105AFB00000EE0FBA3E090001BCBF0A3EBF09000BB
:105B0B0010E0F9A3E0FAA3E090001DC9F0A3EAF0BE
:105B1B00A3E9F0900013E0900020F0900014E090C7
:0E5B2B000021F090000CE0FAA3E0FB0233C072
:10561600900000EEF0A3EFF0900004EBF0A3EAF0A8
:0B562600A3E9F0900002ECF0A3EDF00F
:10563100900000E0FAA3E0FFAE02C006C0072427F5
:10564100FBE43AFAA3E0FEA3E02427FFE43E900046
:105651003FF0A3EFF0D007D006125DE1E490000720
:10566100F0A3F0900008E025E0FF900007E033FE92
:10567100900004E0FBA3E0FAA3E0F98F828E83128D
:10568100316E90000AF0E92FF9EA3EFA900001121A
:10569100316E900009F0FEA3E0FDEDFF12608390F2
:1056A1000008E004F07006900007E004F0C39000E9
:1056B10008E09440900007E06480948640A5900043
:1056C10083E024FFFB900082E034FFFA900085E044
:1056D10024FFFE900084E034FF90003FF0A3CEF061
:0856E100E4FDFCFFFE025DE1A7
:105F4100E4FDFCC3ED9FEE6480F8EC64809850158D
:105F5100E4FBFA0BBB00010ABA03F8BBE8F50DBD7F
:055F610000010C80DED0
:015F66002218
:105F6700E4FDFCC3ED9FEE6480F8EC648098501567
:105F7700E4FBFA0BBB00010AEB64014A70F50DBDA7
:055F870000010C80DEAA
:015F8C0022F2
:03000000025B3967
:0C5B3900787FE4F6D8FD758107025B80E0
:105E540056583A0056793A004348583A004348594C
:105E64003A0041646A757374204F4B2100546F7576
:105E7400636820416E79776865726520546F2043AA
:085E84006F6E74696E75650014
:105ECC0042009B3C4742009D2D3D42008F0F2042DB
:045EDC0000910F4AD8
:0660D100A2C0E433FF222F
:0960C800D2B7D2B6D2B4D2B6228E
:10605200E4FEC2B6EF25E0FF92B4C2B6000000D261
:09606200B60000000EEEB408EBDC
:01606B002212
:105FD500E4FDFFFEEF25E0FFEE33FED2B600000044
:105FE500C2B600000030B504EF4401FF0DEDB40C5E
:015FF500E3C8
:015FF6002288
:10606C00C2B7126052D2B600000000C2B6000000E7
:06607C0000125FD5D2B74F
:0160820022FB
:024C1700A907EB
:104C1900E490003CF0A3F0FBFAAF0112606CAC0623
:104C2900AD07EB25E0FFEA33FE741E2FF582740011
:104C39003EF583ECF0A3EDF00BBB00010AEB640F2A
:104C49004A70D6E4FAFBEB2401FEE43A90001CF02A
:104C5900A3CEF090001CE0FEA3E0FFC3940FEE94F6
:104C6900004003024D13EF25E0FFEE33FE741E2FC3
:104C7900F58274003EF583E0FCA3E0FDEB25E0FF3F
:104C8900EA33FE741E2FF58274003EF583E0FEA31D
:104C9900E0FFD39DEE9C405E90003EEEF0A3EFF066
:104CA90090001DE025E0FF90001CE033FE741E2FEC
:104CB900F58274003EF583E0FCA3E0FDEB25E0FFFF
:104CC900EA33FE741E2FF58274003EF583ECF0A3DF
:104CD900EDF090003EE0FCA3E0FD90001DE025E032
:104CE900FF90001CE033FE741E2FF58274003EF520
:104CF90083ECF0A3EDF090001DE004F06003024C9A
:104D09005C90001CE004F0024C5C0BBB00010AEB58
:104D1900640E4A6003024C4FE490003CF0A3F0FAA1
:104D29007B05EB25E0FFEA33FE741E2FF582740044
:104D39003EF583E0FEA3E0FF90003DE02FF09000F8
:104D49003CE03EF00BBB00010AEB640A4A70D390C9
:104D5900003CE0FEA3E0FF7C007D0512319BA3EE41
:044D6900F0A3EFF0D4
:014D6D002223
:0B5D3500900014EBF0A3EAF0A3E9F0EB
:105D40007FD0124C1790001AEEF0A3EFF07F901264
:105D50004C17C390001BE0946490001AE09400403C
:105D600008EF9464EE940050037F002290001AE044
:105D7000F9A3E0FD900014E0FBA3E0FAA3E0C98DD5
:105D8000F012321C900017E0FBA3E0FAA3E0F9EE5A
:075D90008FF012321C7F01AD
:015D970022E9
:0B4EAB00900006EBF0A3EAF0A3E9F092
:104EB6009000177401F0A37400F0A3740EF07B0148
:104EC6007A00790C125D35EF7002FF22900017749C
:104ED60001F0A37400F0A37412F07B017A0079103C
:104EE600125D35EF7002FF2290000CE0FEA3E0FF9A
:104EF600900010E0FCA3E0FDD39FEC9E500EED2445
:104F060014FDE43CFCC3EF9DEE9C402A900010E0AB
:104F1600FEA3E0FF90000CE0FCA3E0FDD39FEC9E17
:104F26004003024FD9ED2414FDE43CFCC3EF9DEE93
:104F36009C4003024FD990000EE0FEA3E0FF9000D4
:104F460012E0FCA3E0FDD39FEC9E500EED2414FD71
:104F5600E43CFCC3EF9DEE9C4024900012E0FEA3CF
:104F6600E0FF90000EE0FCA3E0FDD39FEC9E5063B3
:104F7600ED2414FDE43CFCC3EF9DEE9C50559000DF
:104F860010E0FEA3E0FF90000DE02FFF90000CE084
:104F96003EC313F9EF13FF900006E0FBA3E0FAA36C
:104FA600E0C98FF012321C900012E0FEA3E0FF90E1
:104FB600000FE02FFF90000EE03EC313F9EF13FF42
:104FC600900009E0FBA3E0FAA3E0C98FF012321CBF
:054FD6007F01227F00B5
:014FDB0022B3
:105C4600E49000BCF09000BCE0706A90000974011A
:105C5600F0A37400F0A37499F07B017A007997128F
:105C66004EABEF60E67F0A7E00125F41900009743A
:105C760001F0A37400F0A374BFF07B017A0079BD34
:105C8600124EABEF60E69000BDE0FEA3E0FF900091
:105C960097E0B506B0A3E0B507AB9000BFE0FEA362
:105CA600E0FF900099E06E7003A3E06F709790009C
:0A5CB600BC04F080909000BCE0FFF9
:015CC00022C1
:1050FA009000C1EEF0A3EFF0A3ECF0A3EDF0900066
:10510A007E74F8F0A3E4F09000C1E0FAA3E0FB2477
:10511A00F4FFEA34FFFEC007EB240DFBE43AFAA3DE
:10512A00E0FFA3E090000FCFF0A3EFF0D007124505
:10513A00949000C1E0FAA3E0FBFFAE02C006C007EC
:10514A009000C4E024F4FD9000C3E034FFFCE0FECC
:10515A00A3E0240DFFE43E90000FF0A3EFF0D00788
:10516A00D0061245949000C2E02401FF9000C1E0ED
:10517A003400FE9000C4E02401FD9000C3E0340036
:10518A00FC125F179000C2E024FFFF9000C1E034D8
:10519A00FFFE9000C4E02401FD9000C3E03400FC4F
:1051AA00125F179000C2E02401FF9000C1E03400B2
:1051BA00FE9000C4E024FFFD9000C3E034FFFC121F
:1051CA005F179000C2E024FFFF9000C1E034FFFEA9
:1051DA009000C4E024FFFD9000C3E034FFFC125F9E
:1051EA00179000C1E0FEA3E0FFA3E0FCA3E0FD905E
:1051FA00007EE0FAA3E0FB900007E4F0A37406F057
:08520A00E4A3F0A3F002439EAF
:105CC100900005EEF0A3EFF0A3ECF0A3EDF0AF032D
:105CD10090007EEAF0A3EFF0900005E0FEA3E0FF64
:105CE100125F17900006E02401FF900005E03400E8
:105CF100FE900007E0FCA3E0FD125F17900005E0B5
:105D0100FEA3E0FF900008E02401FD900007E034CD
:105D110000FC125F17900006E02401FF900005E0EF
:105D21003400FE900008E02401FD900007E03400FB
:045D3100FC025F17FA
:104FDC00E4900005F07B0190000904F0A37400F04C
:104FEC00A37499F07A007997124EABEF70030250CC
:104FFC00D99000057401F090008FE0FEA3E0FFD380
:10500C00900098E09F900097E09E400BAB07AA069B
:10501C00E0FEA3E0FF8013900097E0FEA3E0FBAA64
:10502C000690008FE0FEA3E0FFC3EF9BFFEE9AFE1D
:10503C00E49400FDE49400FCE47BE87A03F9F812B4
:10504C00323BC006C00790009BE0FEA3E0FBAA0623
:10505C00E4F9F8D007D0061232C6900093EEF0A314
:10506C00EFF0900091E0FEA3E0FFD390009AE09F58
:10507C00900099E09E400BAB07AA06E0FEA3E0FF70
:10508C008013900099E0FEA3E0FBAA06900091E04B
:10509C00FEA3E0FFC3EF9BFFEE9AFEE49400FDE459
:1050AC009400FCE47BE87A03F9F812323BC006C0AA
:1050BC000790009DE0FEA3E0FBAA06E4F9F8D007F8
:1050CC00D0061232C6900095EEF0A3EFF09000934C
:1050DC00E0FEA3E0FFC3900083E09FFF900082E01E
:0D50EC009E900093F0A3EFF0900005E0FF10
:0150F9002294
:1022CA00E490007DF0F090007EF0A3741FF074FF9C
:1022DA00900080F0A3F0FFFE125BC590007E74F8B8
:1022EA00F0A3E4022A6E20C0FD125C46EF60429021
:1022FA000097E0FEA3E0FFE4FCFD90007DE0FB75A3
:10230A00F008A4245DF582E43400F5831233779053
:10231A000099E0FEA3E0FFE4FCFDEB75F008A424BD
:10232A0061F582E43400F58312337790007DE0048E
:10233A00F090007DE024FE602914604514606B244F
:10234A000370A374FFFFFE125BC530C0FD900083CB
:10235A00E024CDFF900082E034FFFE7D327C000253
:10236A002A7E74FFFFFE125BC530C0FD900085E037
:10237A0024CDFD900084E034FFFC7F327E00022AE7
:10238A007E74FFFFFE125BC530C0FD900083E0241F
:10239A00CDFF900082E034FFFE900085E024CDFD61
:1023AA00900084E034FFFC022A7E74FFFFFE125B79
:1023BA00C530C0FD90005DE0FCA3E0FDA3E0FEA3F4
:1023CA00E0FF900065E0F8A3E0F9A3E0FAA3E0FBE0
:1023DA00D3123366403490005DE0F8A3E0F9A3E03D
:1023EA00FAA3E0FB900065E0FCA3E0FDA3E0FEA3F6
:1023FA00E09BFFEE9AFEED99FDEC98FCEF2401FFBD
:10240A00E43EFEE43DFDE43C8036900065E0F8A33E
:10241A00E0F9A3E0FAA3E0FB90005DE0FCA3E0FD95
:10242A00A3E0FEA3E0C39BFFEE9AFEED99FDEC98B4
:10243A00FCEF24FFFFEE34FFFEED34FFFDEC34FF2A
:10244A00FCE47BE87A03F9F812323BC006C0079035
:10245A000083E0249CFF900082E034FFAB07FAE49B
:10246A00F9F8D007D0061232C6E41230969000412D
:10247A0012337790005DE0FCA3E0FDA3E0FEA3E049
:10248A00FF900065E0F8A3E0F9A3E0FAA3E0FBD32C
:10249A00123366E4FFFE7D487C42900041E0F8A3D7
:1024AA00E0F9A3E0FAA3E0FB4034122E77E4FBFA4A
:1024BA00797A7844122F80C004C005C006C00790FC
:1024CA00005DE0FCA3E0FDA3E0FEA3E0FFE4123020
:1024DA0096D003D002D001D000122D828032122E63
:1024EA0077E4FBFA797A7844122F80C004C005C0D9
:1024FA0006C00790005DE0FCA3E0FDA3E0FEA3E0B8
:10250A00FFE4123096D003D002D001D000122D86FB
:10251A001230D4900051EEF0A3EFF0900061E0FC8D
:10252A00A3E0FDA3E0FEA3E0FF900071E0F8A3E0C2
:10253A00F9A3E0FAA3E0FBD3123366401D900061D1
:10254A00E0F8A3E0F9A3E0FAA3E0FB900071E0FC55
:10255A00A3E0FDA3E0FEA3E0801C900071E0F8A3D5
:10256A00E0F9A3E0FAA3E0FB900061E0FCA3E0FD40
:10257A00A3E0FEA3E0C39BFFEE9AFEED99FDEC9863
:10258A00FCEF24FFFFEE34FFFEED34FFFDEC34FFD9
:10259A00FCE47BE87A03F9F812323BC006C00790E4
:1025AA000085E0249CFF900084E034FFAB07FAE446
:1025BA00F9F8D007D0061232C6E4123096900049D4
:1025CA00123377900061E0FCA3E0FDA3E0FEA3E0F4
:1025DA00FF900071E0F8A3E0F9A3E0FAA3E0FBD3CF
:1025EA00123366E4FFFE7D487C42900049E0F8A37E
:1025FA00E0F9A3E0FAA3E0FB4034122E77E4FBFAF9
:10260A00797A7844122F80C004C005C006C00790AA
:10261A000061E0FCA3E0FDA3E0FEA3E0FFE41230CA
:10262A0096D003D002D001D000122D828032122E11
:10263A0077E4FBFA797A7844122F80C004C005C087
:10264A0006C007900061E0FCA3E0FDA3E0FEA3E062
:10265A00FFE4123096D003D002D001D000122D86AA
:10266A001230D4900055EEF0A3EFF090006DE0FC2C
:10267A00A3E0FDA3E0FEA3E0FF900075E0F8A3E06D
:10268A00F9A3E0FAA3E0FBD3123366403490006D5D
:10269A00E0F8A3E0F9A3E0FAA3E0FB900075E0FC00
:1026AA00A3E0FDA3E0FEA3E09BFFEE9AFEED99FDF9
:1026BA00EC98FCEF2401FFE43EFEE43DFDE43C809F
:1026CA0036900075E0F8A3E0F9A3E0FAA3E0FB90E6
:1026DA00006DE0FCA3E0FDA3E0FEA3E0C39BFFEED8
:1026EA009AFEED99FDEC98FCEF24FFFFEE34FFFE15
:1026FA00ED34FFFDEC34FFFCE47BE87A03F9F812D1
:10270A00323BC006C007900083E0249CFF90008201
:10271A00E034FFAB07FAE4F9F8D007D0061232C664
:10272A00E412309690004512337790006DE0FCA3D6
:10273A00E0FDA3E0FEA3E0FF900075E0F8A3E0F956
:10274A00A3E0FAA3E0FBD3123366E4FFFE7D487CE4
:10275A0042900045E0F8A3E0F9A3E0FAA3E0FB40C9
:10276A0034122E77E4FBFA797A7844122F80C00467
:10277A00C005C006C00790006DE0FCA3E0FDA3E021
:10278A00FEA3E0FFE4123096D003D002D001D000BD
:10279A00122D828032122E77E4FBFA797A7844126B
:1027AA002F80C004C005C006C00790006DE0FCA3DE
:1027BA00E0FDA3E0FEA3E0FFE4123096D003D002CE
:1027CA00D001D000122D861230D4900053EEF0A31F
:1027DA00EFF0900069E0FCA3E0FDA3E0FEA3E0FFB8
:1027EA00900079E0F8A3E0F9A3E0FAA3E0FBD312A2
:1027FA003366401D900069E0F8A3E0F9A3E0FAA36C
:10280A00E0FB900079E0FCA3E0FDA3E0FEA3E080FA
:10281A001C900079E0F8A3E0F9A3E0FAA3E0FB90AA
:10282A000069E0FCA3E0FDA3E0FEA3E0C39BFFEE8A
:10283A009AFEED99FDEC98FCEF24FFFFEE34FFFEC3
:10284A00ED34FFFDEC34FFFCE47BE87A03F9F8127F
:10285A00323BC006C007900085E0249CFF900084AC
:10286A00E034FFAB07FAE4F9F8D007D0061232C613
:10287A00E412309690004D123377900069E0FCA381
:10288A00E0FDA3E0FEA3E0FF900079E0F8A3E0F901
:10289A00A3E0FAA3E0FBD3123366E4FFFE7D487C93
:1028AA004290004DE0F8A3E0F9A3E0FAA3E0FB4070
:1028BA0034122E77E4FBFA797A7844122F80C00416
:1028CA00C005C006C007900069E0FCA3E0FDA3E0D4
:1028DA00FEA3E0FFE4123096D003D002D001D0006C
:1028EA00122D828032122E77E4FBFA797A7844121A
:1028FA002F80C004C005C006C007900069E0FCA391
:10290A00E0FDA3E0FEA3E0FFE4123096D003D0027C
:10291A00D001D000122D861230D4900057EEF0A3C9
:10292A00EFF0900045E0FCA3E0FDA3E0FEA3E0FF8A
:10293A00900041E0F8A3E0F9A3E0FAA3E0FB12302B
:10294A001D60324030E4FFFE7D7A7C44900045E011
:10295A00F8A3E0F9A3E0FAA3E0FB122D8690004168
:10296A00E0F8A3E0F9A3E0FAA3E0FB12301D60054A
:10297A004003022A6A900045E0FCA3E0FDA3E0FEC2
:10298A00A3E0FF900041E0F8A3E0F9A3E0FAA3E096
:10299A00FB12301D502EE4FFFE7D7A7CC490004568
:1029AA00E0F8A3E0F9A3E0FAA3E0FB122D86900079
:1029BA0041E0F8A3E0F9A3E0FAA3E0FB12301D50CE
:1029CA0003022A6A90004DE0FCA3E0FDA3E0FEA307
:1029DA00E0FF900049E0F8A3E0F9A3E0FAA3E0FBE6
:1029EA0012301D602F402DE4FFFE7D7A7C4490005A
:1029FA004DE0F8A3E0F9A3E0FAA3E0FB122D8690DC
:102A0A000049E0F8A3E0F9A3E0FAA3E0FB12301DC5
:102A1A006002504C90004DE0FCA3E0FDA3E0FEA351
:102A2A00E0FF900049E0F8A3E0F9A3E0FAA3E0FB95
:102A3A0012301D5045E4FFFE7D7A7CC490004DE0C3
:102A4A00F8A3E0F9A3E0FAA3E0FB122D869000496F
:102A5A00E0F8A3E0F9A3E0FAA3E0FB12301D501A54
:102A6A00E490007DF074FFFFFE125BC57D327C00AE
:102A7A007F327E001250FA0222F0900045E0FCA359
:102A8A00E0FDA3E0FEA3E0FF900041E0F8A3E0F937
:102A9A00A3E0FAA3E0FB122D86E4FBFAF9784012D0
:102AAA002F801230D490009BEEF0A3EFF090004DEF
:102ABA00E0FCA3E0FDA3E0FEA3E0FF900049E0F8FC
:102ACA00A3E0F9A3E0FAA3E0FB122D86E4FBFAF9EE
:102ADA007840122F801230D490009DEEF0A3EFF0D0
:102AEA00900053E0FEA3E0FF900052E02FFF900019
:102AFA0051E03EC313FEEF13FF90008FEEF0A3EFF9
:102B0A00F0900057E0FEA3E0FF900056E02FFF9000
:102B1A000055E03EC313FEEF13FF900091EEF0A3C1
:102B2A00EFF074FFFFFE125BC5E490007EF0A3F0A5
:102B3A00900080F0A3741FF0900059E4F0A374325F
:102B4A00F0A3E4F0A37496F090000A74FFF0A37463
:102B5A005EF0A37454F0A37401F07B107D967C00A0
:102B6A007F327E0012587B90005AE02428F09000B1
:102B7A0059E03400F090009BE0FEA3E0FFE4FCFD86
:102B8A009000A31233779000A77406F0A37410F094
:102B9A0090005BE0FCA3E0FD900059E0FEA3E0FF9B
:102BAA00125212900059E4F0A37432F090005CE0E3
:102BBA002414F090005BE03400F0E0FCA3E0FD9008
:102BCA00000A74FFF0A3745EF0A37458F0A37401B2
:102BDA00F07B107F327E0012587B90005AE0242846
:102BEA00F0900059E03400F090009DE0FEA3E0FF71
:102BFA00E4FCFD9000A31233779000A77406F0A3BB
:102C0A007410F090005BE0FCA3E0FD900059E0FE38
:102C1A00A3E0FF125212900059E4F0A37432F0902C
:102C2A00005CE02414F090005BE03400F0E0FCA3C8
:102C3A00E0FD90000A74FFF0A3745EF0A3745CF0E8
:102C4A00A37401F07B107F327E0012587B90005AE9
:102C5A00E02428F0900059E03400F090008FE0FE64
:102C6A00A3E0FFE4FCFD9000A31233779000A77461
:102C7A0006F0A37410F090005BE0FCA3E0FD900066
:102C8A0059E0FEA3E0FF125212900059E4F0A37437
:102C9A0032F090005CE02414F090005BE03400F025
:102CAA00E0FCA3E0FD90000A74FFF0A3745EF0A3B9
:102CBA007461F0A37401F07B107F327E0012587B9E
:102CCA0090005AE02428F0900059E03400F0900077
:102CDA0091E0FEA3E0FFE4FCFD9000A3123377909D
:102CEA0000A77406F0A37410F090005BE0FCA3E068
:102CFA00FD900059E0FEA3E0FF125212900059E441
:102D0A00F0A3741EF090005CE0241EF090005BE0DB
:102D1A003400F0E0FCA3E0FD90000A74FFF0A37415
:102D2A005EF0A37466F0A37401F07B107F1E7E0030
:102D3A0012587B900059E4F0A3741EF090005CE0F6
:102D4A00241EF090005BE03400F0E0FCA3E0FD906C
:102D5A00000A74FFF0A3745EF0A37471F0A3740107
:102D6A00F07B107F1E7E0012587B125C4674FFFFB8
:042D7A00FE125BC525
:012D7E002232
:0A5EE00042007E0000420080FFFF38
:0860180090008BE0FEA3E0FF05
:10602000AD07AC06C292C293ECFF8FA0AF058F8084
:07603000C291D291D293222C
:0A5FF700E0FF7E00126001A3E0FF4E
:10600100AD07AC06D292C293ECFF8FA0AF058F8093
:07601100C291D291D293224B
:10608300AD07AC06D292C293ECFF8FA0AF058F8011
:07609300C291D291D29322C9
:0E60AF00AB05AA04126020AE02AF030260012E
:0B60BD00900089E0FEA3E0FF026020DD
:085BC5009000C5EEF0A3EFF023
:105BCD00900083E024FFFB900082E034FFFA900008
:105BDD0085E024FFFE900084E034FF90003FF0A3A9
:105BED00CEF0E4FDFCFFFE125DE1E49000C7F0A3F2
:105BFD00F0900082E0FEA3E0FFC39000C8E09F900C
:105C0D0000C7E09E5032E4FBFAD3900085E09B90F4
:105C1D000084E09A40129000C5E0FEA3E0FF126000
:105C2D00830BBB00010A80E19000C8E004F070C155
:085C3D009000C7E004F080B9FB
:015C4500223C
:105F1700AB07AA068D828C83C006C007AE83AF820B
:105F270090003FEEF0A3EFF0D007D006125DE190AE
:0A5F3700007EE0FEA3E0FF0260839D
:10603700D2B37F327E00125F41C2B37F327E00123D
:0B6047005F41D2B37F327E00025F4158
:104ABC00126037D2907F117E001260207F64125FEB
:104ACC00417F367E00126020E4FF1260017F3A7E47
:104ADC00001260207F051260017FB21260207F0CF3
:104AEC001260017F0C126001E4FF1260017F33122F
:104AFC0060017F331260017FB71260207F35126036
:104B0C00017FBB1260207F351260017FC0126020D4
:104B1C007F2C1260017FC21260207F011260017F26
:104B2C00C31260207F131260017FC41260207F20AB
:104B3C001260017FC61260207F0F1260017FCA12C3
:104B4C0060207F0F1260017FC81260207F08126006
:104B5C00017F551260207F901260017FD01260207F
:104B6C007FA41260017FA11260017FE01260207FA0
:104B7C00D0126001E4FF1260017F061260017F0910
:104B8C001260017F0B1260017F2A1260017F3C12C0
:104B9C0060017F551260017F4B1260017F0812602B
:104BAC00017F161260017F141260017F19126001DF
:104BBC007F201260017FE11260207FD0126001E43F
:104BCC00FF1260017F061260017F091260017F0BEA
:104BDC001260017F291260017F361260017F54122E
:104BEC0060017F4B1260017F0D1260017F16126015
:104BFC00017F141260017F211260017F201260017D
:0B4C0C007F29126020125E1BD2B22232
:105DE100900039EEF0A3EFF0A3ECF0A3EDF0126018
:105DF10018900039125FF7EAFF126001AF037E00CD
:105E010012600190008D12601B90003B125FF790B1
:0A5E1100003FE0FF125FFB0260BDDE
:105EEB0090001FEEF0A3EFF0AB05AA041260189020
:105EFB00001F125FF790008D12601BEAFF7E0012ED
:0C5F0B006001AF037E001260010260BD67
:105E1B00900089E4F0A3742CF0E4900088F09000DB
:105E2B0082F0A374F0F0A37401F0A37440F090001F
