:020000040800F2
:1000000078070020CD010008211300081D06000814
:100010001D1300087D0200082317000800000000DF
:10002000000000000000000000000000C7140008ED
:100030006D0400080000000023130008D915000813
:10004000E7010008E7010008E7010008E7010008F0
:10005000E7010008E7010008E7010008E7010008E0
:10006000E7010008E7010008E7010008E7010008D0
:10007000E7010008E7010008E7010008E7010008C0
:10008000E7010008E7010008E7010008E7010008B0
:10009000E7010008E7010008E7010008E7010008A0
:1000A000E7010008E7010008E7010008E701000890
:1000B000E7010008E7010008E7010008E701000880
:1000C000E7010008E7010008E7010008E701000870
:1000D000E70100083D160008E7010008E7010008F5
:1000E000E7010008E7010008E7010008E701000850
:1000F000E7010008E7010008E7010008E701000840
:10010000E7010008E7010008E7010008E70100082F
:10011000E7010008E7010008E7010008E70100081F
:10012000E7010008E7010008E7010008E70100080F
:1001300000F002F800F03AF80AA090E8000C8244BF
:100140008344AAF10107DA4501D100F02FF8AFF29C
:10015000090EBAE80F0013F0010F18BFFB1A43F0A5
:100160000103184794720700B4720700103A24BFC5
:1001700078C878C1FAD8520724BF30C830C144BF0C
:1001800004680C607047000000230024002500264E
:10019000103A28BF78C1FBD8520728BF30C148BFEA
:1001A0000B6070471FB51FBD10B510BD00F033F8D0
:1001B0001146FFF7F7FF01F001FB00F051F803B41F
:1001C000FFF7F2FF03BC01F0AEFA000009488047D8
:1001D00009480047FEE7FEE7FEE7FEE7FEE7FEE729
:1001E000FEE7FEE7FEE7FEE704480549054A064B41
:1001F00070470000DD15000831010008780100207B
:1002000078070020780300207803002070477047AB
:10021000704770477047754600F02CF8AE460500F1
:100220006946534620F00700854618B020B5FFF711
:10023000DBFFBDE820404FF000064FF000074FF015
:1002400000084FF0000B21F00701AC46ACE8C009F4
:10025000ACE8C009ACE8C009ACE8C0098D467047FD
:1002600010B50446AFF300802046BDE81040FFF70C
:10027000A6BF0000004870471801002000BFFEE73D
:1002800000F0805111B10349086001E00249486063
:1002900070470000040402400000024021B10268DF
:1002A00042F00102026004E002684FF6FE731A4059
:1002B0000260704701684FF6FE7211400160002134
:1002C000016041608160C1604B49884208D14A4960
:1002D0000839496841F00F01474A083A51608AE0FD
:1002E00045491431884208D143490839496841F0E9
:1002F000F001414A083A51607DE03F492831884287
:1003000008D13D490839496841F470613A4A083AD0
:10031000516070E038493C31884208D1364908398B
:10032000496841F47041344A083A516063E0324907
:100330005031884208D130490839496841F4702168
:100340002D4A083A516056E02B496431884208D161
:1003500029490839496841F47001274A083A51602F
:1003600049E025497831884208D12349083949684C
:1003700041F07061204A083A51603CE01F498842D0
:1003800006D1011F096841F00F01021F116032E020
:100390001A491431884208D11849091F096841F0E7
:1003A000F001164A121F116025E0144928318842D5
:1003B00008D11249091F096841F470610F4A121FE0
:1003C000116018E00D493C31884208D10B49091FE2
:1003D000096841F47041094A121F11600BE0074996
:1003E0005031884207D10549091F096841F470213D
:1003F000024A121F116070470800024008040240C0
:1004000001460020002201F0805313B1054B1A6809
:1004100001E0054B1A6802EA01030BB1012000E07C
:1004200000207047000402400000024010B5002286
:10043000026847F6F0739A430C6A8B6823430C6991
:1004400023434C6923438C692343CC6923434C6A7F
:1004500023438C6A23431A430260CB6843600B68D2
:1004600083604B68C36010BD4160704770472DE9E1
:10047000F04102460025002600200023002400272A
:1004800091F803C00CF00F0591F803C00CF0100CAC
:10049000BCF1000F03D091F802C04CEA050591F8B9
:1004A00000C0BCF1000F31D0146800202BE04FF0E9
:1004B000010C0CFA00F3B1F800C00CEA03069E42EE
:1004C00020D183004FF00F0C0CFA03F7BC4305FA60
:1004D00003FC4CEA040491F803C0BCF1280F06D1D8
:1004E0004FF0010C0CFA00FCC2F814C00AE091F8BD
:1004F00003C0BCF1480F05D14FF0010C0CFA00FC11
:10050000C2F810C0401C0828D1D31460B1F800C054
:10051000BCF1FF0F34DD546800202EE000F1080C20
:100520004FF0010808FA0CF3B1F800C00CEA03061A
:100530009E4221D183004FF00F0C0CFA03F7BC430D
:1005400005FA03FC4CEA040491F803C0BCF1280F3F
:1005500005D100F1080C08FA0CF8C2F8148091F8E3
:1005600003C0BCF1480F07D100F1080C4FF001089F
:1005700008FA0CF8C2F81080401C0828CED354604A
:10058000BDE8F081F0B50A460023002400210025D3
:1005900000F00046B6F1004F02D11D4EF16901E0B6
:1005A0001B4E7168C0F3034583B200F44016B6F5E4
:1005B000401F08D121F07061154E766826F07066F4
:1005C000134F7E6012E000F48016B6F5801F06D14E
:1005D000032606FA05F4A14341F0706106E0460DDA
:1005E000360103FA06F6B14341F0706122B1460DBF
:1005F000360103FA06F6314300F00046B6F1004F2B
:1006000002D1034EF16101E0014E7160F0BD0000C6
:1006100000000140416170470161704700BFFEE783
:100620002DE9F04104460D4616461F462A2000F0EB
:10063000F1FD201200F0E7FDE0B200F0E4FD301221
:1006400000F0E1FDF0B200F0DEFD2B2000F0E2FD55
:10065000281200F0D8FDE8B200F0D5FD381200F005
:10066000D2FDF8B200F0CFFD2C2000F0D3FDBDE8A4
:10067000F08170B504460D4616462B4622462946A3
:100680002046FFF7CDFF304600F0AFFD70BD2DE9ED
:10069000F04706460F4614461D46DDF820A0681EAA
:1006A00083B2601E82B239463046FFF7B9FFB846C2
:1006B0000EE0B14606E0504600F097FD09F101005A
:1006C0001FFA80F9A145F6DB08F101001FFA80F856
:1006D000A845EEDBBDE8F08708B50121042000F055
:1006E00031FE1E20ADF8000010208DF8030003201D
:1006F0008DF8020069460448FFF7B9FE1E21024842
:10070000FFF78AFF08BD00000008014010B500F0A7
:1007100029FEFFF7E1FF02216E48FFF77BFF64200F
:1007200001F026F802216B48FFF776FF642001F004
:100730001FF810216748FFF76FFF642001F018F8D9
:10074000E02000F067FD002000F05DFD072000F0D4
:100750005AFD0F2000F057FD0D2000F054FD1B2026
:1007600000F051FD0A2000F04EFD3C2000F04BFD52
:10077000782000F048FD4A2000F045FD072000F0F9
:1007800042FD0E2000F03FFD092000F03CFD1B2043
:1007900000F039FD1E2000F036FD0F2000F033FD83
:1007A000E12000F037FD002000F02DFD222000F0B8
:1007B0002AFD242000F027FD062000F024FD122051
:1007C00000F021FD072000F01EFD362000F01BFD8B
:1007D000472000F018FD472000F015FD062000F02E
:1007E00012FD0A2000F00FFD072000F00CFD302064
:1007F00000F009FD372000F006FD0F2000F003FD9A
:10080000C02000F007FD102000F0FDFC102000F0DB
:10081000FAFCC12000F0FEFC412000F0F4FCC520F1
:1008200000F0F8FC002000F0EEFC222000F0EBFCD1
:10083000802000F0E8FC362000F0ECFC482000F0BE
:10084000E2FC3A2000F0E6FC662000F0DCFCB02080
:1008500000F0E0FC002000F0D6FCB12000F0DAFC53
:10086000B02000F0D0FC112000F0CDFCB42000F04E
:10087000D1FC022000F0C7FCB62000F0CBFC022027
:1008800000F0C1FC022000F0BEFCB72000F0C2FC6A
:10089000C62000F0B8FCE92000F0BCFC002000F00D
:1008A000B2FCF72000F0B6FCA92000F0ACFC51200F
:1008B00000F0A9FC2C2000F0A6FC822000F0A3FC94
:1008C000112000F0A7FC782000F052FF292000F052
:1008D000A1FC10BD000801402DE9FF5F80468A465B
:1008E00017469B460F9D00200290CDF800802846B9
:1008F00005EBD071C1F347042046E21704EB5272B6
:10090000D2102146E31704EB5373DB10A4EBC303AF
:100910000BB1012300E000231A446A4392B2019212
:10092000A7F12000C7B20AEB0500401E83B208EB16
:100930000400401E82B251464046FFF771FE002679
:1009400069E00C2D07D107EB4700354901EB80002A
:10095000805D03901BE0102D05D1324800EB07109D
:10096000805D039013E0182D07D107EB47002E4957
:1009700001EB0010805D039009E0202D05D12B488C
:1009800000EB8710805D039001E0BDE8FF9F4FF012
:1009900000093AE01098C8B9012000FA09F003995B
:1009A000084018B1584600F020FC02E00E9800F014
:1009B0001CFC0298401CC0B20290029890FBF4F11B
:1009C00004FB1100E8B90020029021E0012000FAA8
:1009D00009F00399084020B15A4651464046FFF7B6
:1009E00048FE08F101001FFA80F80098A8EB00000B
:1009F000A04206D1DDF800800AF101001FFA80FA5A
:100A000006E009F1010000F0FF09B9F1080FC1DBB0
:100A100000BF701C86B20198864292DB00BFB4E72B
:100A2000DC3A0708503F07084045070810570708F9
:100A30002DE9FE4F8046894617469A46DDE90D4668
:100A40000C9D36E00C2C09D153463A4649464046A7
:100A5000CDE90146009500F031F825E0102C09D1D0
:100A600053463A4649464046CDE90146009500F0D6
:100A7000C9F819E0182C09D153463A464946404670
:100A8000CDE90146009500F059F90DE0202C09D17F
:100A900053463A4649464046CDE90146009500F0A6
:100AA000F1F901E0BDE8FE8FBF1C08EB04001FFA5E
:100AB00080F838780028C5D100BFF3E72DE9FF5F43
:100AC0000646894692469B460F9C0020039000965E
:100AD0002046E21704EB5272D2102146E31704EBD2
:100AE0005373DB10A4EBC3030BB1012300E000231D
:100AF0001A44624392B2019205200290002579E0E7
:100B000005EB850000EBC5003D4911F810009AF88F
:100B1000001088426BD105EB850000EBC500384919
:100B200001EB400040789AF8011088425FD109EB50
:100B30000400401E83B23019401E82B2494630463E
:100B4000FFF76EFD00274FE04FF0000846E01098D9
:100B500008BB05EB850000EBC500294901EB40000F
:100B6000801CC05D012101FA08F1084018B1584607
:100B700000F03BFB02E00E9800F037FB0398401CAE
:100B8000C0B20390039890FBF4F104FB110008BB82
:100B90000020039025E005EB850000EBC500184917
:100BA00001EB4000801CC05D012101FA08F1084002
:100BB00020B15A4649463046FFF75BFD701C86B2AD
:100BC0000098301AA04205D1009E09F101001FFAD9
:100BD00080F906E008F1010000F0FF08B8F1080F05
:100BE000B5DB00BF781CC7B201988742ACDB00BF01
:100BF000681C85B20298854282DBBDE8FF9F000039
:100C0000D06E07082DE9FF5F0646894692469B464F
:100C10000F9C0020039000962046E21704EB5272CE
:100C2000D2102146E31704EB5373DB10A4EBC3038C
:100C30000BB1012300E000231A44624392B20192F7
:100C400005200290002571E005EB05103A4911F8E6
:100C500010009AF80010884265D105EB051036495E
:100C600001EB400040789AF8011088425BD109EB13
:100C70000400401E83B23019401E82B249463046FD
:100C8000FFF7CEFC00274BE04FF0000842E0109841
:100C9000F8B905EB0510284901EB4000801CC05D48
:100CA000012101FA08F1084018B1584600F09DFAF8
:100CB00002E00E9800F099FA0398401CC0B203902D
:100CC000039890FBF4F104FB1100F8B900200390A5
:100CD00023E005EB0510184901EB4000801CC05DC6
:100CE000012101FA08F1084020B15A464946304630
:100CF000FFF7BFFC701C86B20098301AA04205D1E5
:100D0000009E09F101001FFA80F906E008F10100D8
:100D100000F0FF08B8F1080FB9DB00BF781CC7B2BC
:100D200001988742B0DB00BF681C85B202988542FB
:100D30008ADBBDE8FF9F0000526F07082DE9FF5FC7
:100D40000646894692469B460F9C002003900096DB
:100D50002046E21704EB5272D2102146E31704EB4F
:100D60005373DB10A4EBC3030BB1012300E000239A
:100D70001A44624392B2019205200290002579E064
:100D800005EB850000EB45103D4911F810009AF87D
:100D9000001088426BD105EB850000EB4510384907
:100DA00001EB400040789AF8011088425FD109EBCE
:100DB0000400401E83B23019401E82B249463046BC
:100DC000FFF72EFC00274FE04FF0000846E0109898
:100DD00008BB05EB850000EB4510294901EB4000FD
:100DE000801CC05D012101FA08F1084018B1584685
:100DF00000F0FBF902E00E9800F0F7F90398401CB0
:100E0000C0B20390039890FBF4F104FB110008BBFF
:100E10000020039025E005EB850000EB4510184904
:100E200001EB4000801CC05D012101FA08F108407F
:100E300020B15A4649463046FFF71BFC701C86B26B
:100E40000098301AA04205D1009E09F101001FFA56
:100E500080F906E008F1010000F0FF08B8F1080F82
:100E6000B5DB00BF781CC7B201988742ACDB00BF7E
:100E7000681C85B20298854282DBBDE8FF9F0000B6
:100E8000FC6F07082DE9FF5F0646894692469B46A0
:100E90000F9C0020039000962046E21704EB52724C
:100EA000D2102146E31704EB5373DB10A4EBC3030A
:100EB0000BB1012300E000231A44624392B2019275
:100EC00005200290002571E005EB85103A4911F8E4
:100ED00010009AF80010884265D105EB851036495C
:100EE00001EB400040789AF8011088425BD109EB91
:100EF0000400401E83B23019401E82B2494630467B
:100F0000FFF78EFB00274BE04FF0000842E01098FF
:100F1000F8B905EB8510284901EB4000801CC05D45
:100F2000012101FA08F1084018B1584600F05DF9B6
:100F300002E00E9800F059F90398401CC0B20390EB
:100F4000039890FBF4F104FB1100F8B90020039022
:100F500023E005EB8510184901EB4000801CC05DC3
:100F6000012101FA08F1084020B15A4649463046AD
:100F7000FFF77FFB701C86B20098301AA04205D1A3
:100F8000009E09F101001FFA80F906E008F1010056
:100F900000F0FF08B8F1080FB9DB00BF781CC7B23A
:100FA00001988742B0DB00BF681C85B20298854279
:100FB0008ADBBDE8FF9F00006E7107082DE9FF4F37
:100FC00085B0074690461C46DDE91396304606EB91
:100FD000D071C1F3470B2149404600F053FF039005
:100FE00000F030FF80B20490002531E0601B401E0D
:100FF000C1B20A2000F0D6FC0499B1FBF0F00A213E
:10100000B0FBF1F201FB120AA01EA84210D1002091
:10101000A11E01FB0B71CDE90096029088B22E2231
:10102000129B0699FFF758FC681CC5B2601CC4B23D
:1010300000200AF13001CAB205FB0B71CDE9009620
:10104000029088B2129B0699FFF746FC681CC5B255
:10105000A542CBDB09B0BDE8F08F00000000C8421C
:101060002DE9FF4F85B0074691461D46DDE913A6E1
:1010700000200490304606EBD071C1F3470B0024EA
:1010800034E0281B401EC1B20A2000F08BFCB9FBE3
:10109000F0F00A21B0FBF1F201FB12080498A0B9AC
:1010A000681EA04211DDB8F1000F0CD1002004FB36
:1010B0000B71CDE900A6029088B22022129B0699FE
:1010C000FFF70AFC10E001200490002008F1300135
:1010D000CAB204FB0B71CDE900A6029088B2129B44
:1010E0000699FFF7F9FB00BF601CC4B2AC42C8DB35
:1010F00009B0BDE8F08F00002DE9F05F0746884693
:1011000014461D46DDF828904FF0010A04FB05F057
:1011100000EB400608EB0500401E83B23819401E64
:1011200082B241463846FFF77BFA08211B48FFF799
:1011300071FA29E04FF6FC70864202D9361A8346CE
:1011400002E04FF0000AB3461FFA8BF34A461449F7
:10115000144800F0A1F80122022111480C3800F0D7
:101160007DF9104800F0C6F809E04FF40070FFF771
:1011700047F920B14FF40070FFF782F800E0F4E780
:1011800000BF4FF6FC708144BAF1000FD2D10821A4
:101190000248FFF741FABDE8F09F00000008014057
:1011A0000C300140300002402DE9FE4F06460F464C
:1011B00014469846DDE90D5ADDF8309010E0CDE98F
:1011C000015ACDF800902278434639463046FFF761
:1011D00083FB284605EBD07106EB61018EB2641CDF
:1011E00020780028EBD1BDE8FE8F10B50446C4F38B
:1011F000074000F01FF8C4F3072000F01BF8E0B22E
:1012000000F018F810BD10B50446204600F012F8A2
:1012100010BD000010B5044604210548FFF7FAF997
:10122000204600F007F804210148FFF7F5F910BD4A
:101230000008014010B5044608210548FFF7EAF907
:10124000204600F0D5F808210148FFF7E5F910BD68
:101250000008014008B50121052000F073F80121C4
:101260000B48FFF78FF94FF40040ADF80000102055
:101270008DF8030003208DF8020069460548FFF74A
:10128000F6F84FF400410348FFF7C6F908BD000027
:1012900000023000000801402DE9F04107460D46EC
:1012A00016461C460121084600F03CF83846FFF778
:1012B00001F80E4804800E480560466010200C4975
:1012C00088600846C46000200861802048610020D2
:1012D0008861C86108624FF48050486200208862CB
:1012E0003846FFF7A3F8BDE8F081000014000020A5
:1012F0002400002010B5044600212046FEF7CEFF52
:10130000044801880448FFF7AFF801212046FEF7A2
:10131000C5FF10BD140000203000024000BFFEE7F2
:101320007047704729B1064A52690243044B5A611B
:1013300004E0034A52698243014B5A61704700003E
:101340000010024029B1064A92690243044B9A6197
:1013500004E0034A92698243014B9A61704700009E
:101360000010024000B587B001210803FFF7EAFF33
:1013700001210420FFF7E6FFE020ADF8180003206C
:101380008DF81A0018208DF81B0006A91648FFF7E3
:101390006EF8E0211448FFF73FF90020ADF8040093
:1013A0004FF48270ADF806000020ADF8080002206E
:1013B000ADF80A000120ADF80C004002ADF80E00B7
:1013C0000820ADF810000020ADF812000720ADF89D
:1013D000140001A9054800F058F80121034800F065
:1013E00031F807B000BD00000008014000300140A6
:1013F00070B50546002405E0601CC4B2C82C01DDB0
:10140000002070BD02210E4800F031F80028F3D012
:1014100029460B4800F037F8002405E0601CC4B2F0
:10142000C82C01DD0020ECE70121054800F01FF881
:101430000028F3D0024800F023F8C0B2E1E7000032
:101440000030014021B1028842F04002028004E0F5
:1014500002884FF6BF731A40028070471AB1838822
:101460000B43838002E083888B438380704702466E
:10147000002013890B400BB1012000E000207047D1
:101480000146888970478181704710B50022028823
:1014900002F441520B884C8823438C882343CC8828
:1014A00023430C8923434C8923438C892343CC89D0
:1014B00023431A430280838B4FF2FF7423408383BC
:1014C0000B8A038210BD704710B500F001F810BD03
:1014D0000CB50020019000903348006840F4803043
:1014E0003149086000BF3048006800F400300090C7
:1014F0000198401C0190009818B90198B0F5A06FB0
:10150000F1D12948006800F4003010B101200090AA
:1015100001E0002000900098012843D12348006892
:1015200040F01000214908600846006820F00300E0
:1015300008600846006840F0020008601A484068E9
:10154000194948600846406848600846406840F4C9
:10155000806048600846406820F47C104860084677
:10156000406840F4E81048600846006840F0807029
:10157000086000BF0C48006800F000700028F9D037
:101580000948406820F00300074948600846406861
:1015900040F00200486000BF0348406800F00C00C3
:1015A0000828F9D10CBD00000010024000200240C4
:1015B000042808D14FF0E021096941F004014FF0FF
:1015C000E022116107E04FF0E021096921F00401F8
:1015D0004FF0E022116170477047000010B51348CA
:1015E000006840F001001149086008464068104951
:1015F00008400E494860084600680E4908400B49FB
:1016000008600846006820F48020086008464068AA
:1016100020F4FE0048604FF41F008860FFF754FF7D
:101620004FF000600449086010BD00000010024047
:101630000000FFF8FFFFF6FE08ED00E010B540F2F5
:1016400025511D4800F03EF810B31B4800F064F827
:10165000C4B21A48008800F40040C8B9174800888E
:1016600000F4804060B10A2C03D0002013490880A8
:1016700020E01248008840F400401049088019E03A
:101680000D2C06D10D48008840F480400B4908809D
:1016900010E00A480088C0F30D0009490C540748BF
:1016A0000088401C0549088008460088C72801DDDD
:1016B0000020088010BD00000038014020000020FC
:1016C0005000002070B502460024002300250020B1
:1016D00040F66A16B14200D100BFC1F3421501F0D5
:1016E0001F03012606FA03F3012D02D19689334028
:1016F00006E0022D02D1168A334001E0968A33407B
:101700000C12012606FA04F41688344013B10CB109
:10171000012000E0002070BD01468888C0F3080069
:10172000704700BFFEE700BF7047000010B56FF0C4
:101730000400FFF73DFF0A4800680A49B0FBF1F0DA
:10174000094908700846007800EB4001C1EBC01061
:101750004FF6FF7101EAC0000449088010BD000087
:101760000000002000127A0016000020180000205F
:101770000146114A12884A434FF0E0235A61002281
:101780009A611A46126942F001021A6100BF4FF0D5
:10179000E022106900F001021AB100F48032002A40
:1017A000F5D04FF0E022126922F001024FF0E02361
:1017B0001A6100229A617047180000200EB54FF0A0
:1017C000000AFFF7B3FFFFF745FDFEF79FFF6348F1
:1017D0004FF4F0734FF4A072002100900846FEF71A
:1017E00056FF00205E490860B6E05E484FF4F07393
:1017F0004FF4A072002100900846FFF77DFC4FF4E3
:101800007A70FFF7B5FF55484FF4F0734FF4A072AC
:10181000002100900846FEF73AFF002020214F4AA1
:101820004FF47C03CDE9002102904FA20146FFF75F
:10183000FFF800201021494A4FF47C03CDE9002134
:1018400002904CA22821FFF7AFFC102043494FF42F
:101850007C020323CDE9002102904FF4A0722821DD
:101860003020FFF7FDFB002010213C4A4FF47C03A1
:10187000CDE90021029041A228215020FFF794FCDD
:10188000102036494FF47C020323CDE90021029059
:101890004FF4F07228218020FFF7E2FB0020102196
:1018A0002E4A4FF47C03CDE90021029033A2282177
:1018B0005020FFF779FC00201021284A4FF47C03C8
:1018C000CDE9002102902FA24621FFF76DFC1020E8
:1018D00022494FF47C020423CDE9002102905246B4
:1018E00046218020FFF76AFB504600F07FFA07464A
:1018F000294A2A4B00F094F8054600F05FF882462A
:101900004FF0000917E000240FE0254809EB890299
:10191000C82303EBC20104EB84020090D00028230B
:101920001A46FFF7E9FB601CC4B2082CEDDB09F195
:10193000010000F0FF09B9F1070FE4DB4FF47A7002
:10194000FFF716FF05484FF4F0734FF4A072002123
:1019500000900846FEF79BFE47E70000FCFCFC00F9
:10196000BC012142DC320008D6D0BEB0D4B0B5E70D
:10197000D7D300004C43445F573A00004C43445FC8
:10198000483A0000496E637265617365696E67204D
:101990004E756E3A00000000295C8FC2F528BC3FEE
:1019A0001C20000810B50246012000E050430B1E29
:1019B000A1F10104E1B2F9D110BD000021F0004213
:1019C000A2F16052B2F5801F01F0004328BFD2F1AE
:1019D0007F6C0BD95FEA001C43EAC20242EB5070F5
:1019E00018BF704728BF20F001007047B2F5801F74
:1019F000BCBF184670474FEA410C1CF5001F02D2CD
:101A0000084600F006BB70B500F0B2F8000000898F
:101A1000FFF7F6BF4FF00040A0F5800070470000D0
:101A200010B591EA030F48BF83F0004300F1FC803A
:101A3000841A71EB030C05D2121943EB0C03001B43
:101A400061EB0C01DFF824E14FEA1154A4EB135CC5
:101A50001EEA430F18BF9EEA445F73D023EA0E03C9
:101A6000DCF1200E21EA045143F4801332D322FA30
:101A70000CFE10EB0E0023FA0CFE41EB0E01CCF134
:101A8000200E03FA0EFE10EB0E0051F10001B1F52D
:101A9000801FCCF1200E32D201EB045112FA0EF26B
:101AA000BDE8104058BF7047401C38BF5FEA420293
:101AB00018BF7047002814BF20F0010041F1000159
:101AC0004FEA410313F5001F38BF7047A1F1C04131
:101AD00000F09CB8012A43EB0302ACF1200CDCF1CE
:101AE0001F0E32BF4FF0000E23FA0CF310EB030071
:101AF00041EB0451B4EB115FD0D0A1EB045101F5DF
:101B0000801149085FEA300001EB04510ED350F117
:101B1000000038BF12FA0EFE08D1BDE81040C9E738
:101B2000401C38BF5FEA4202CAD1C3E7BDE810409B
:101B30004FEA410313F5001F38BF7047A1F1C041C0
:101B400000F064B89EEA445F08D011EA5E0FBDE879
:101B5000104004BF01F0004100207047BDE8104074
:101B600070B500F005F800BF64FBBE3E0000E0FF6A
:101B70000EF1020E2EF0030E5EF8046B364205D411
:101B8000012A43EB030515F5001F12D8012841EB8C
:101B9000010C1CF5001F0CD80ED14FEAD17C15F5B5
:101BA000001F0CEB4C0C0CF1020C08BF4CEBD37C6F
:101BB00004E04FF0080C01E04FEAD37C0CEB4C053D
:101BC00026FA05F606F00706B6F1040C06D20EEB6F
:101BD000860CBDE870404CF0010C6047DFE80CF06B
:101BE000090B02024FF000414FF00000A1F5002167
:101BF00070BD19461046012851EB010418BFD4F5F9
:101C0000001484BF002001F0004170BD0808A0F559
:101C100000114FEA3101704710B591EA030F48BF38
:101C200083F000433FF504AF841A71EB030C07D235
:101C300012198CF0004C43EB0C03001B61EB0C0100
:101C4000DFF8A4E14FEA1154A4EB135C1EEA430F42
:101C500018BF9EEA445F00F0B08023EA6E03524250
:101C600021EA0451C3EB6E0338BF5B1EDCF1200E8A
:101C700025D322FA0CFE10EB0E0043FA0CFE41EBCA
:101C80000E01CCF1200E03FA0EFE10EB0E0051F106
:101C90000001CCF1200E29D412FA0EF201EB04510E
:101CA000BDE8104058BF7047401C1CBFB2F1004F48
:101CB000704700280CBF491C20F00100704712EB50
:101CC000020E43EB030218BF4FF0010E4EEA420230
:101CD000ACF1200CDCF11E0E54D943FA0CFE10EBD3
:101CE0000E0051F1FF31CCF11E0ED5D50EF1010ED3
:101CF00012FA0EFE404141EB010101EB445C5FEA48
:101D00005C5C10D910EBDE7001EB045138BFBEF102
:101D1000004FBDE8104018BF704700280CBF491C99
:101D200020F00100704730D24FEAD42C11F5001199
:101D300024F400641BD0B1FA81F20B3AA41AA41E59
:101D4000D2F12003914030FA03F31943904001EBA4
:101D5000CC71002C01EB0451BDE81040A8BF7047C6
:101D600001F1C0414FF0000001F000417047B0FAAE
:101D700080F310FA03F100D110BDE41A173C4805B6
:101D8000C90AE4E701EB045110BD491001EB04510D
:101D9000BDE810404FEA300002E04FF0000170470C
:101DA0004A0008BF0042F8D0B2F5001F28BF7047B4
:101DB00001F000414FF0000070479EEA445F07D0F9
:101DC00011EA5E0FBDE8104004BF002100207047FB
:101DD000BDE8104070B5FFF7CBFE00BF40DFF63E18
:101DE00083F00041104670470000E0FF43004FEAD7
:101DF000D30C4FEA3C0C43401FBF40070CF160512D
:101E000013F0FE4F70471CF0006F03D100200CF060
:101E1000004170470CF0004343EA507010B540EAAF
:101E2000CC0000F0B0F800BF000000924FEA0001C3
:101E3000FFF7ECBE4FF000414FF00000A1F500218C
:101E400070470000C10DD1F19E0206DB4FEA00236E
:101E500043F0004323FA02F07047004207D54FEAEF
:101E60004001B1F1FE4F02D24FF00000704710B5B3
:101E700000F089F849922480002070476FEA200022
:101E8000704700004FF47F0C1CEAD0121EBF1CEA02
:101E9000D11392EA0C0F93EA0C0F00F0478090EAFE
:101EA000010F48BF42F480724FF0004C4CEA002012
:101EB0004CEA012102EB0302A0FB0113A2F5000290
:101EC000002918BF43F001035B0028BF4FEA33032A
:101ED00042EB22425FEA132C4CEBC2502EBFBCEB0C
:101EE000436FB2F57C0F70474FEA036CBCF1004FB3
:101EF00008BF20F00100B2F57C0F38BF70470BD54A
:101F000082F0FF0212F5803FC8BF704700F1C04069
:101F1000D8BF00F00040704700F5000C5FEA4C0CA1
:101F200048BF7047B0F1C04000F073B890EA010FAD
:101F30000CEAD11348BF42F48072624538BF634552
:101F400004D280EA010000F00040704710B500F0B4
:101F50001AF800BF8900013E00F007B800F009B888
:101F60005FEA410C5FEA1C6C08D080EA010000F0D7
:101F700050B85FEA400C5FEA1C6CF6D14FF00040AD
:101F8000A0F5800070470EF1020E2EF0030E5EF8F1
:101F9000044B244204D44FEA4102B2F17F4F11D8DE
:101FA0004FEA4003B3F17F4F0CD80ED14FEAD07CFB
:101FB000B2F17F4F0CEB4C0C0CF1020C08BF4CEB58
:101FC000D17C04E04FF0080C01E04FEAD17C0CEB2F
:101FD0004C0324FA03F404F00704B4F1040C06D211
:101FE0000EEB840CBDE810404CF0010C6047DFE8BC
:101FF0000CF0070802024FF00040A0F5800010BD71
:102000000846420018BFD2F1807288BF00F000403D
:1020100010BDFF2141EAD050C0057047FCFCFCFC1C
:10202000FCFCFCFCFCFCFCFCFCFCFCFCFCFCFCFCF0
:10203000FCFCFCFCFCFCFCFCFCFCFCFCFCFCFCFCE0
:10204000FCFCFCFCFCFCFCFCFCF4F4F4FCFCFCF8EC
:10205000F8F4C4C4C08C90906C7074686C707C8010
:1020600084ACB0B0E4E4E4FCFCFCFCFCFCFCFCFC58
:10207000FCFCFCFCFCFCFCFCFCFCFCFCFCFCFCFCA0
:10208000FCFCFCFCFCFCFCFCFCFCFCFCFCFCFCFC90
:10209000FCFCFCFCFCFCFCFCFCFCFCFCFCFCFCFC80
:1020A000FCFCFCFCFCFCFCFCFCFCFCFCFCFCFCFC70
:1020B000FCFCFCFCFCFCFCFCFCFCFCFCFCFCFCFC60
:1020C000FCE8E8E89CA0A8606878404C603040508C
:1020D0002830401C283018242820282C343C446CFC
:1020E0007074C4C4C4FCFCFCFCFCFCFCFCFCFCFCEC
:1020F000FCFCFCFCFCFCFCFCFCFCFCFCFCFCFCFC20
:10210000FCFCFCFCFCFCFCFCFCFCFCFCFCFCFCFC0F
:10211000FCFCFCFCFCFCFCFCFCFCFCFCFCFCFCFCFF
:10212000FCFCFCFCFCFCFCFCFCFCFCFCFCFCFCFCEF
:10213000FCFCFCFCFCFCA0A4B05060804860845017
:1021400068884C607C3C4C64303C4C242C3818240F
:102150002C141C240C141C040C1408101850585C6B
:10216000D0D0D0FCFCFCFCFCFCFCFCFCFCFCFCFC33
:10217000FCFCFCFCFCFCFCFCFCFCFCFCFCFCFCFC9F
:10218000FCFCFCFCFCFCFCFCFCFCFCFCFCFCFCFC8F
:10219000FCFCFCFCFCFCFCFCFCFCFCFCFCFCFCFC7F
:1021A000FCFCFCFCFCFCFCFCE4E4E4606C80607483
:1021B000987C94C4607CAC44608834486C283C545F
:1021C0002430401C243018202818202814202414DF
:1021D0002024141C240410180C141C888C90FCFC63
:1021E000FCFCFCFCFCFCFCFCFCFCFCFCFCFCFCFC2F
:1021F000FCFCFCFCFCFCFCFCFCFCFCFCFCFCFCFC1F
:10220000FCFCFCFCFCFCFCFCFCFCFCFCFCFCFCFC0E
:10221000FCFCFCFCFCFCFCFCFCFCFCFCFCD8D8D86A
:102220003C485C445C806884AC4868A0345488288E
:102230004474243C5C20344C1C2C3C18202C14206E
:1022400024142024142024142024142024182028AA
:10225000101C20000810707478FCFCFCFCFCFCFCDA
:10226000FCFCFCFCFCFCFCFCFCFCFCFCFCFCFCFCAE
:10227000FCFCFCFCFCFCFCFCFCFCFCFCFCFCFCFC9E
:10228000FCFCFCFCFCFCFCFCFCFCFCFCFCFCFCFC8E
:10229000FCFCE8E8E834404C344864486080345042
:1022A0007C2848782844741C386018304C2030480A
:1022B0001C2838182028142024142024101820103A
:1022C0001820142024142024142024141C24000872
:1022D00010808488FCFCFCFCFCFCFCFCFCFCFCFC92
:1022E000FCFCFCFCFCFCFCFCFCFCFCFCFCFCFCFC2E
:1022F000FCFCFCFCFCFCFCFCFCFCFCFCFCFCFCFC1E
:10230000FCFCFCFCFCFCFCFCFCFC545C6418283C65
:1023100034486028405C243C60243C642440645C75
:1023200070884C5C70142034182430182024141C3D
:1023300024141C242C343C242C3008141818202875
:10234000142024142024141C24041014B8BCBCFC35
:10235000FCFCFCFCFCFCFCFCFCFCFCFCFCFCFCFCBD
:10236000FCFCFCFCFCFCFCFCFCFCFCFCFCFCFCFCAD
:10237000FCFCFCFCFCFCFCFCFCFCFCFCFCFCFCA4F5
:10238000A4A80810182430402430442030482434B5
:1023900050203050404C5C8C8C8CFCFCFC888C9425
:1023A00008101C1420240C1820404448DCDCDCE815
:1023B000E8E8585C60081018142024142024142025
:1023C00024081018343C44F8F8F8FCFCFCFCFCFC35
:1023D000FCFCFCFCFCFCFCFCFCFCFCFCFCFCFCFC3D
:1023E000FCFCFCFCFCFCFCFCFCFCFCFCFCFCFCFC2D
:1023F000FCFCFCFCF4F4F430383C1018201C242CB9
:102400001C24301C28381C283C2834445050504888
:102410004444A8A8A8FCFCFC343C400C141C1C2020
:1024200028686868686868FCFCFCECECEC20282CE8
:10243000101820142024142024142024040C14A880
:10244000ACB4FCFCFCFCFCFCFCFCFCFCFCFCFCFC64
:10245000FCFCFCFCFCFCFCFCFCFCFCFCFCFCFCFCBC
:10246000FCFCFCFCFCFCFCFCFCFCFCFCB0B0B40484
:102470000C1414202418202414202818202C0C18A4
:1024800024485058B4B4B4E8E8E8BCBCBCFCFCFC3C
:102490006C7074000C14404448585454404040FC44
:1024A000FCFCFCFCFC545860081018142024142078
:1024B0002414202408141C505468FCFCFCFCFCFC74
:1024C000FCFCFCFCFCFCFCFCFCFCFCFCFCFCFCFC4C
:1024D000FCFCFCFCFCE0E0E0FCFCFCFCFCFCFCFC90
:1024E000FCFCFCFC646870040C14142024142024EC
:1024F000142024141C24040C14647074FCFCFCFCD4
:10250000FCFCFCFCFCFCFCFC70787C000008989C4B
:102510009C646464B0B0B0FCFCFCFCFCFC5C6468D3
:10252000041018142024142024142024141C2424FF
:102530002C3CE8E4E8FCFCFCFCFCFCFCFCFCFCFCAB
:10254000FCFCFCFCBCBCC0B4B4B8ECF0F050585C73
:10255000909498FCFCFCFCFCFCF8F8F8343C440C2F
:10256000141C1420241420241420241420240C14BB
:102570001C40484CF0FCFCF4FCFCFCFCFCFCFCFCAF
:10258000484C54000008848C90FCFCFCFCFCFCF4DF
:10259000FCFCECF8FC3840480C141C1420241420DB
:1025A0002414202414202414202CBCC0C4FCFCFCC3
:1025B000FCFCFCFCFCFCFCFCFCFCFCFC787C8004D3
:1025C0000C14343C4030383C00080CA4A4A8FCFC9B
:1025D000FCE8E8E8202830101820142024142024D7
:1025E000142024142024141C240C141C9CACB0F4BF
:1025F000FCFCFCFCFCACB4B80C141C0C141C3038F7
:102600003CE4F0F0F0FCFCF4FCFCA0ACB00C1418C2
:10261000141C2414202414202414202414202810F2
:10262000202CA0A4A8FCFCFCFCFCFCFCFCFCFCFC9E
:10263000FCFCFCFCD8D8D82C343C04101810182012
:10264000101820101820E0E0E0E8F0F01420281422
:102650001C241420241420241420241420241820A2
:10266000240C1820101C2868788C68788C08182C8A
:10267000000C2008142800081C34445898ACB88476
:10268000949C1C242C101820142024142024142082
:102690002414202418242C0C243098A4A8FCFCFC1E
:1026A000FCFCFCFCFCFCFCFCFCFCFCFCFCFCFC70F6
:1026B0007478000C14182024182028041014586072
:1026C000689C7074100C10102028142024142024EE
:1026D000182024101C2404102814202838382058CE
:1026E000500C786804988414A8881CA4801C9870E6
:1026F0001C7050144830141818140414200418289E
:10270000141C241820241420241820281C283810D5
:102710002C3C5C5C60F8F4F4FCFCFCFCFCFCFCFC79
:10272000FCFCFCFCF8F8F8D8D8D8101820101C24B1
:102730001420241420281C1424C0000C8C101C000D
:102740001C201820281820240818282428248468ED
:102750001CD0A418F8C814FCDC24FCE43CFCE038D1
:10276000FCD424FCCC20FCC01CFCB418FC9C14EC55
:102770008814B47018604420101C280818241820ED
:102780002418243018344420303C900000B8989C21
:10279000FCFCFCFCFCFCFCFCFCFCFCFCF8F8F8FC85
:1027A000FCFC7880800008101820281020282810B1
:1027B00018D4000CFC08204C141C001C20081828FD
:1027C0005C4820ECA014FCBC14FCC010F8CC34F81D
:1027D000ECA0F8F4C0F8EC98F4DC3CF4D434F4C881
:1027E0002CF4B424F89818FC8C14FC9810FC981065
:1027F000CC7C1848382010203018304004303C94ED
:102800001424FC0008985C60FCFCFCFCFCFCFCFC58
:10281000FCFCFCFCFCFCFCFCFCFCF4F4F4343C4054
:102820000410180C2028401014C4000CF8041CF0EC
:1028300010284C141C0014205C4820FCA014C884F0
:1028400018DC9814FCC020F8C440F4C844F4C83024
:10285000F4C424F4BC24F8AC20F89C18F88C14FCC4
:102860009814E48014DC8014FC9C107C5420042810
:1028700040042C387C1824FC0420FC0014B01020E8
:10288000E0ECECFCFCFCFCFCFCFCFCFCFCFCFCFCC4
:10289000FCFCFCFCFCD8D8D81C242C00141C3C18D4
:1028A00020E40010DC0414FC0824FC143478142008
:1028B000000C1820281C74501838301C9C7014F41C
:1028C000A40CFCAC0CFCA410FC9C14FC9414FC8820
:1028D00014FC8814FC8814A8641440301C90581808
:1028E00050402400243418242C981424FC0824FC80
:1028F000041CFC0014D01424E8F0F0FCFCFCFCFCEC
:10290000FCFCFCFCFCFCFCFCFCFCFCFCFCFCFCFC07
:10291000D0D0D028303C001428B80818F80410E0B3
:102920000418FC0C28FC1C44C8203C4C101C00085B
:102930001400141C0010202C2C187C5414B06C149F
:10294000C87414D06C14BC60148850143C30180047
:102950001424001C28001C28081C28641824D80CE7
:1029600024FC0824FC0420F8041CFC001488101C1F
:10297000C4D8D8FCFCFCFCFCFCFCFCFCFCFCFCFC17
:10298000FCFCFCFCFCFCFCFCFCFCFCE4E4E8586803
:1029900080342040E80418F80818F00820FC0C2CBB
:1029A000FC2048FC345CD0304C8820304C141C1C7B
:1029B0000814000010000810000C0C001010000C8F
:1029C00010000C1404101C24141C5018208C142803
:1029D000D81028FC0C2CFC0824F80820F8041CFC57
:1029E000041CD4001810101428383CE8E8E8FCFC5B
:1029F000FCFCFCFCFCFCFCFCFCFCFCFCFCFCFCFC17
:102A0000FCFCFCFCFCFCFCFCFC344C6438142CD8B6
:102A10000014FC041CFC0C2CFC0C30FC143CFC28AA
:102A200054FC4064FC4868EC4864D04058BC344CCA
:102A3000B02C40AC283CB0243CBC203CD4203CEC26
:102A40001C3CFC183CFC1438FC0C2CFC0C28F80832
:102A500024FC041CFC0018D000142C141C0C20288E
:102A60000C1820585C64FCFCFCFCFCFCFCFCFCFC32
:102A7000FCFCFCFCFCFCFCFCFCFCFCFCFCFCD8DCDA
:102A8000DC182028001820403438C41C30F8001C02
:102A9000FC1030FC143CFC1038FC1034FC183CFCDE
:102AA0002448FC3054FC3458FC3458FC3058FC2C7E
:102AB00054FC244CFC2044FC183CFC1434FC103026
:102AC000FC0C2CFC0C24FC041CF00010B42030285E
:102AD000242C041C24141C241C242C18242C9CA0FE
:102AE000A4FCFCFCFCFCFCFCFCFCFCFCFCFCFCFC7E
:102AF000FCFCFCFCFCFCACB0B4040C1408101494FA
:102B0000A4A8C8D4D4A45058D00824F8042CFC108D
:102B100038FC143CFC183CFC1438FC1038FC103415
:102B2000FC1034FC1034FC1038FC1438FC1438FC55
:102B30001434FC102CFC0C28FC0C24F00420BC0CDD
:102B400020946068B0D4D860787C081018142024D1
:102B5000141C20202C3438484CE8E8E8FCFCFCFC31
:102B6000FCFCFCFCFCFCFCFCFCFCFCFCFCFC949871
:102B70009C000810141C24CCD4D8FCFCFCE4F4F415
:102B8000B0ACB0A85864C42038E4082CF8082CFC79
:102B90000830FC0C34FC1034FC1034FC1034FC10F5
:102BA00034FC0C2CFC0828FC0C28EC0C28D4082045
:102BB000A80818880008901014D4E4E4ECFCFC94F5
:102BC000A8AC081018142024142024182028182831
:102BD00030909498FCFCFCFCFCFCFCFCFCFCFCFC39
:102BE000FCFCFCFCFCFC90949800080C243034DCC9
:102BF000E8E8FCFCFCFCFCFCFCFCFCE4F8F8C4CCC5
:102C0000D0B0989CB46870C04454D02C40E01C34C0
:102C1000E81430EC142CE8142CDC1C34C83044AC20
:102C20002030AC0410AC0010A00004CC0004DC0088
:102C300000E0BCBCE0FCFCA8BCC4101820141C24A0
:102C4000142024141C24142028485058FCFCFCFC9C
:102C5000FCFCFCFCFCFCFCFCFCFCFCFCFCFCA4A860
:102C6000A800080C283438DCE8ECF4FCFCF8FCFC88
:102C7000FCFCFCFCFCFCFCFCFCF8FCFCE8FCFCD8D0
:102C8000ECECCCD8D8C8C8C8C8BCC0C8B8B8C4BC9C
:102C9000BCC8CCCCBCDCDCA4545CF00018FC08281C
:102CA000D40810EC0818F00000D48C90DCFCFCA8D0
:102CB000C4C8141C24141C24142024141C24142000
:102CC00028283038FCFCFCFCFCFCFCFCFCFCFCFC7C
:102CD000FCFCFCFCFCFCC8C8CC081018202830D038
:102CE000E0E4F0FCFCF8FCFCFCFCFCFCFCFCFCFC68
:102CF000FCFCFCFCFCFCFCFCFCFCFCFCFCFCFCFC14
:102D0000FCFCFCFCFCFCFCFCFCFCFCFCE8FCFCBC57
:102D10005058FC0020FC0828E00C14F40820F800AF
:102D200000D87074D8FCFCA0BCC0101820141C245F
:102D3000141C24142024141C241C242CFCFCFCFC37
:102D4000FCFCFCFCFCFCFCFCFCFCFCFCFCFCF4F4D3
:102D5000F4283038081018B4C4C8F0FCFCF4F8F8B3
:102D6000F8FCFCFCFCFCFCFCFCFCFCFCFCFCFCFCA7
:102D7000FCFCFCFCFCFCFCFCFCFCFCFCFCFCFCFC93
:102D8000FCFCFCFCE0F4F4B84850FC001CFC0828F7
:102D9000F80C20FC0820FC0000E06C70D4FCFC88DF
:102DA0009CA4081018142024141C24101C24141C87
:102DB00024182028FCFCFCFCFCFCFCFCFCFCFCFCBF
:102DC000FCFCFCFCFCFCFCFCFC747C7C000000803B
:102DD0008C94ECFCFCE8F4F4F8F8FCFCFCFCFCFC47
:102DE000FCFCFCFCFCFCFCFCFCFCFCFCFCFCFCFC23
:102DF000FCFCFCFCFCFCFCFCFCFCFCFCE4F8F8BC73
:102E00005058FC0018FC0828FC0828FC041CFC0096
:102E100000D4989CD4FCFC58687000040C3C4448D6
:102E2000A4A8AC0810181018201C242CFCFCFCFCD6
:102E3000FCFCFCFCFCFCFCFCFCFCFCFCFCFCFCFCD2
:102E4000FCDCDCDC0C1418303C44D8F0F4E4F0F486
:102E5000ECF4F8F8FCFCFCFCFCFCFCFCFCFCFCFCD2
:102E6000FCFCFCFCFCFCFCFCFCFCFCFCFCFCFCFCA2
:102E7000FCFCFCFCF0FCFCB88888E40010F80018AE
:102E8000F40018E4081CC05C64C8ECF0BCDCE02072
:102E9000283000040C94989CFCFCFC84888C000076
:102EA00004283038FCFCFCFCFCFCFCFCFCFCFCFCBE
:102EB000FCFCFCFCFCFCFCFCFCFCFCFC84888C00AA
:102EC00000008C9CA4E8FCFCE0F0F4ECF4F8F8F8CA
:102ED000FCFCFCFCFCFCFCFCFCFCFCFCFCFCFCFC32
:102EE000FCFCFCFCFCFCFCFCFCFCFCFCFCFCFCDC42
:102EF000E4E8BCA8ACBC8890B88C94B0B4B8C0E886
:102F0000ECDCFCFC6C7C80000004384048F4F4F8F5
:102F1000FCFCFCFCFCFC9CA0A4A4A8A8FCFCFCFC05
:102F2000FCFCFCFCFCFCFCFCFCFCFCFCFCFCFCFCE1
:102F3000FCFCFCFCFCFCFC4854640C1424BCD4DCFD
:102F4000E0F8FCE0ECF0E8F4F4F0F8F8F8F8FCFC59
:102F5000FCFCFCFCFCFCFCFCFCFCFCFCFCFCFCFCB1
:102F6000FCFCFCFCF8F8FCF4F8FCE8FCFCD8F8F8F5
:102F7000D0F4F8D4F0F4DCF8FCA0B8C008101C14AD
:102F80002430D4D8D8FCFCFCFCFCFCFCFCFCFCFC95
:102F9000FCFCFCFCFCFCFCFCFCFCFCFCFCFCFCFC71
:102FA000FCFCFCFCFCFCFCFCFCFCFCFCE8CCCCD8F9
:102FB000905830240C24344CC8E4E8DCF4FCD8EC01
:102FC000F0E0F0F4E8F4F4ECF4F8F0F8F8F4F8F8E1
:102FD000F4F8F8F4F8F8F0F8F8ECF4F8E8F4F4E0C1
:102FE000F0F4D8ECF0D4E8F0D4E8F0DCF8FCB4D09D
:102FF000D4182434080810A47C6CFCF4FCFCFCFC01
:10300000FCFCFCFCFCFCFCFCFCFCFCFCFCFCFCFC00
:10301000FCFCFCFCFCFCFCFCFCFCFCFCFCFCFCFCF0
:10302000FCDCACA0D87804FCC000ECC81444401010
:10303000203048B0CCD8DCF8FCD4ECF0D8ECF0DC94
:10304000ECF0E0F0F4E4F0F4E4F0F4E4F0F4E0F0B8
:10305000F4DCECF0D8ECF0D4E8ECD4E8ECD8F0F404
:10306000E0FCFCA4BCC4102038181C18C0A014FC40
:10307000AC00D47C30ECD8D8FCFCFCFCFCFCFCFCA8
:10308000FCFCFCFCFCFCFCFCFCFCFCFCFCFCFCFC80
:10309000FCFCFCFCFCFCF0F0F4BC5024FC9808F8B0
:1030A000C814FCD010FCD41480700C24282C708C14
:1030B000A0C4E8F0D8F8FCD4ECF4D0E8F0D4E8EC04
:1030C000D4E8F0D4E8F0D4E8ECD0E8ECD4E8F0D8D8
:1030D000F0F4E0FCFCC4E4EC647C8C081024504860
:1030E00014E0C430FCE44CFCD034F07C00C06C50E4
:1030F000FCFCFCFCFCFCFCFCFCFCFCFCFCFCFCFC10
:10310000FCFCFCFCFCFCFCFCFCFCFCFCFCFCDCC05B
:10311000C0D45808FCB410F8C410F8C814FCC81087
:10312000FCCC10D49C1068480C44484870889CA083
:10313000C4D8C0E4F0D0F4FCD4F4F8D4F4F8D8F453
:10314000FCD4F4FCC4E4F0A0C0D0607C9028343CF3
:10315000403010B48414FCCC10FCD01CF8D454F8CB
:10316000E078F8AC3CBC4C18E8E4E4FCFCFCFCFC6B
:10317000FCFCFCFCFCFCFCFCFCFCFCFCFCFCFCFC8F
:10318000FCFCFCFCFCFCE0D0D0D45004FCA40CF80B
:10319000B814F4BC14F4B814F4B014FCB014FCACBF
:1031A00010DC8C089864086C5024685C4C6464647F
:1031B00064747C708088606C746064645850485497
:1031C00040207C500CC87810FC9C14FCAC14F8B067
:1031D00014F8B810F8B810F8BC24FCA420CC4C109B
:1031E000E4E0E0FCFCFCFCFCFCFCFCFCFCFCFCFC6F
:1031F000FCFCFCFCFCFCFCFCFCFCFCFCFCFCF8FC13
:10320000FCC89488D05008F07800FC980CFCA01002
:10321000FCA014F89C14F89814FC9810FC900CFC7A
:103220007000CC3800803420ACA4A8C8C8CC988CDE
:103230008C802408D84000FC7408FC9014FC941482
:10324000FC9014F89414FCA014FCA414FC9C10F83A
:103250008000D84C00C89080F8FCFCFCFCFCFCFC16
:10326000FCFCFCFCFCFCFCFCFCFCFCFCFCFCFCFC9E
:10327000FCFCFCFCFCFCFCFCFCFCFCFCD8C8C8C452
:10328000806CC86034D45C20D86018DC6018DC5CCA
:1032900018D4581CC45424B46048B89894F0F0F082
:1032A000FCFCFCFCFCFCFCFCFCE0DCDCB08074B84E
:1032B0005430D0501CE05C18E86014E86414E464F6
:1032C00014DC6018D05C24C46C50D0B4B0F8FCFCA2
:1032D000FCFCFCFCFCFCFCFCFCFCFCFC44A7953569
:1032E000988646A7964BAC9B48A6963F9D8D52AEBE
:1032F0009F52AE9F4EA99A47A29354AC9C51A99954
:1033000048A090469E8E57AE9E53AB9B42A09240E3
:103310009E9050AC9D4CA798409D8B48A39257AB74
:103320009B4CA090439C8A47A08E51A596499D8EA8
:10333000449C8C4FAA9958B0A24CA09343908A5AAF
:1033400098976F9AA089ABB495BAC297BEC594BA44
:10335000C396BBC497B5C096B4BF95BAC396BCC557
:1033600091B9C18DB5BD90B5BE8FB5BE85ABB46EFC
:1033700099A05484883D737336716F2A6D661C64FE
:10338000591F6D5F2677682578663A8F7C3C917E61
:103390004FA49151A693489B8951A4925AAB985D32
:1033A000AC9958A5955AA49562AC9F5FAB9E56A761
:1033B0009856A9975AAF9C58AB9741907B38836F2A
:1033C0005CA59268AF9D448B7B357C6C3880723EE7
:1033D00088773B8A77348871328B753A96812C894D
:1033E000770863540F6759348879378A761E705985
:1033F00025735D3F8D755FAC9866B39F5FA99A5D3D
:10340000A79868B2A566B0A35BA29A5DA99F62B2B5
:10341000A95FB2A853A69E5BAEA468B8AD5DAB9D94
:103420004D97865F9E8D759F938AAA9F97B2AB93A7
:10343000B0AB95B1B49AB7BD9DBBC39EBCC69DBE93
:10344000C59EBFC69DBEC39BBEC299BBC496BDC42C
:1034500091B8BF87B3B67DA9AA67999645827D27A3
:103460006D6526736933877A2C8778318D7E3B931F
:1034700085489E915DB1A468BAAE62B4A857A99D73
:1034800059AB9D5EB0A25EAEA15BAD9F63B7AA5E75
:10349000B9AA53B0A5389D8F4AAFA152B7A751AF73
:1034A0009F53AE9D5AB1A158AEA151A69F54ABA552
:1034B0005CB5B15DB6B04DA6A04EA89F57AEA55461
:1034C000ABA24FA99F5AB1A863B9B060B3AB5DACD2
:1034D000A659AAA365B6AF58AEA551ABA145A19612
:1034E00046A29747A19753A69E65B8B06FC1BB632C
:1034F000B8B157A8A254A6A055ACA350AA9E449E0A
:103500009250A49765A89F73AAA587B3B295BBBC38
:1035100094B7BD8EB1B78EAEB98EB0B992B4BD942A
:10352000B7BB99B8BD99B7B996B2B398B5B19DBAC2
:10353000B69DBCB698BBB58BB2AD719B97558C87C9
:10354000418D83358B822F847D469B964B9D975072
:10355000A29C4D9E985FB0AA54A39E54A39E63B4B0
:10356000AE69BAB466B8B24EA09A4CA2994FA59C67
:103570005AADA55BAEA667B8B16CBDB667B4AE5E1A
:10358000ADA763B2AD66B7B15FB2AA61B4AC6BBBB5
:10359000B26ABAAF5FABA154A0945BA49961ADA12C
:1035A0005EAAA05CACA165B5AC67B8AF60B3A9502A
:1035B000A3994B9E943D90863C8F874FA29A56A923
:1035C000A157AAA25BACA561B2AB67B8B163B4ADB9
:1035D0004FA09A4E9F9958A9A35FB1AB499E9944B9
:1035E0009D9748A4A1409B963B8989438583538737
:1035F0008567918D7CA59D83A99E8DB1A59AB6A75F
:10360000A5B6A4AAB29BACAA91B4AE94B9AE98B434
:10361000AC95AFAD94ADAE8F9C9C7A8C8B6C88884A
:103620006E6E7F6C4171653A837A3C9591359895C1
:103630002F928D3598933F9E9A3D97954399985632
:10364000AAAA5AABAC55A6A751A1A25CACAD61AC7D
:10365000AF5AA5A85AA4A764AEB166B0B15DA7A839
:103660005BA5A661ABAC60ACAA57A6A35EADAA628F
:10367000B2AF60B0AD56A6A354A6A25AAFAA58AD39
:10368000AA4AA09D449A99479D9C4EA4A5469C9DFC
:103690004EA3A657ACAF54A9AC4CA1A445A89635EF
:1036A000988646A7964AAB9A47A5953E9C8C51AD05
:1036B0009E51AD9E4EA99A46A19254AC9C50A8989A
:1036C00048A090469E8E57AE9E53AB9B44A2944218
:1036D000A09252AE9F4EA99A43A08E4BA6955AAE89
:1036E0009E4FA393439C8A48A18F53A7984A9E8FCD
:1036F000449C8C4EA99857AFA14B9F9243908A5EF1
:103700009C9B76A1A78EB0B994B9C193BAC18FB56D
:10371000BE91B6BF96B4BF95B3BE94B9C295BBC4B3
:1037200090B8C08CB4BC8EB3BC8EB4BD86ACB5763C
:10373000A1A85D8D91427878377270286B64196109
:10374000561E6C5E28796A2679673B907D3C917E97
:103750004FA49151A693499C8A53A69459AA975C69
:10376000AB9859A6965CA69764AEA160AC9F56A78D
:103770009856A9975BB09D59AC9843927D38836F5A
:1037800059A28F67AE9C488F7F367D6D3981733D1E
:1037900087763B8A7732866F29826C2A8671217EF2
:1037A0006C0661520F67593488793588741A6C55E4
:1037B000216F593F8D7561AE9A67B4A260AA9B5F75
:1037C000A99A6AB4A767B1A45BA3985EAAA063B3E1
:1037D000AA5FB2A84FA29A50A39966B8AC59A7990C
:1037E0004B958463A291749E9289A8A093B1A993EA
:1037F000B0AC94B2B498B7BC9BB9C39CBAC49CBDDE
:10380000C49FC0C79CBDC29CBDC29ABCC597BCC466
:103810008EB5BC86AFB37AA6A765979447827E2BF8
:1038200071692B786E35897C2D8879338F803A9237
:103830008443998C4EA2955AACA059AB9F53A5993D
:103840005AAC9E60B2A45DADA057A99B60B4A75EC0
:10385000B6AA51AEA33B9B8F4CAEA154B6A751ADB7
:103860009E54AC9C59B0A05AAEA152A7A054ABA58F
:103870005CB5B15CB5AF4EA89F50AAA15BB2A95789
:10388000AEA54FA99F58AFA661B7AE5FB2AA5DAC17
:10389000A65AABA467B8B159AFA650AAA045A19645
:1038A00048A49949A39952A59D60B3AB68BAB45E88
:1038B000B3AC55A6A056A8A259B0A753ADA3449E39
:1038C000924FA3965FA2996EA5A084B0AF91B7B8AE
:1038D00090B3B98BAEB48DADB88FB1BA98BAC39569
:1038E000B8BC99B8BD9CBABC9FBBBCA3C0BEA3C0AA
:1038F000BC9FBEB994B7B185ACA76F9997538A8521
:1039000038837C2E847B2F847D469B96489A944CEA
:103910009E984A9B955DAEA853A29D51A09B60B115
:10392000AB66B7B167B9B34EA09A4BA1984DA39AB5
:1039300058ABA359ACA466B7B06CBDB667B4AE645F
:10394000B1AB69B8B36BBCB662B3AC62B3AC6BBBC2
:10395000B26EBBB161ADA35AA69A63ACA16AB3A81B
:1039600062AEA461AEA466B6AD67B8AF62B5AB5740
:10397000AAA053A69C4EA197499C9451A49C5AADD1
:10398000A55BAEA65CADA663B4AD6ABBB466B7B0CA
:1039900051A29C50A19B59AAA45EB0AA489D9843ED
:1039A0009C9645A19E3E9793398787428482538790
:1039B0008567918D7BA49C84AA9F8BAFA393AFA1B5
:1039C000A5B6A4B1B9A4A7A78D999379978F7AAB1F
:1039D000A58FB6B49BB4B596A6A6848F90707B7B5A
:1039E0006161725F45776B3E877E3B94903396931F
:1039F00030938E3699943D9C983B95934399985675
:103A0000AAAA5BACAD55A6A751A1A25CACAD62ADB4
:103A1000B05BA6A95CA6A965AFB266B0B15EA8A965
:103A20005EA8A966B0B165B1AF5BAAA75DACA9629B
:103A3000B2AF61B1AE57A7A454A6A25CAEAA59AE6C
:103A4000AB4BA19E459B9A4CA2A153A9AA499FA00A
:103A50004DA2A553A8AB51A6A94A9FA245A8963549
:103A6000988646A7964AAB9A47A5953D9B8B4FAB48
:103A70009C4FAB9C4CA79645A08F53AB9B50A898EE
:103A8000479F8F469E8E56AD9D52AA9A44A294425D
:103A9000A09252AE9F4EA99A43A08E4CA7965BAFC0
:103AA0009F50A494429B8949A29055A99A4B9F90FC
:103AB000449C8C4DA89756AEA0499D90428F89603A
:103AC0009E9D78A3A98CAEB791B6BE92B9C08FB5B2
:103AD000BE91B6BF96B4BF95B3BE93B8C193B9C2F9
:103AE0008EB6BE8BB3BB8CB1BA8BB1BA87ADB67E86
:103AF000A9B068989C487E7E377270256861165E12
:103B0000531D6B5D2778692679673B907D3C917EDC
:103B10004EA39051A693499C8A54A7955BAC995E9D
:103B2000AD9A5BA8985FA99A66B0A361ADA058A9A9
:103B30009A58AB995AAF9C58AB974796813B86727F
:103B4000569F8C65AC9A499080337A6A367E70397C
:103B500083723B8A77358972237C661F7B661A776E
:103B600065066152126A5C378B7C358874186A531B
:103B70001D6B553F8D7563B09C67B4A261AB9C61B2
:103B8000AB9E6AB6A967B1A45CA4995FABA164B40B
:103B9000AB5FB2A84CA2974EA19766B8AC55A6975A
:103BA0004993845E9C8D76A1978BAAA294B3AD9322
:103BB000B1AF95B3B598B7BC9CBAC49BBCC59CBD0E
:103BC000C49CBDC49ABBC09CBDC29BBDC697BCC4AF
:103BD0008FB6BB86AFB37BA7A86698954984802F24
:103BE000726B2C786E318578298475328E7F3B9389
:103BF0008542988B489C8F53A79A52A69950A497B8
:103C00005AAE9F62B6A75EB0A258AA9C60B2A65FE9
:103C1000B5AA53ADA33D988F4EABA057B3A654ACF5
:103C20009E54AB9B5AAEA15AADA352A7A054ABA5CC
:103C30005BB4B05BB4AE4FA9A055ACA35FB6AD5AB0
:103C4000B1A850AAA057AEA55FB5AC5FB2AA5EAD51
:103C5000A75BACA568B9B25BB1A852ACA245A1966E
:103C600048A49949A39951A49C5EB1A964B6B05BDC
:103C7000B0A954A59F58AAA45CB3AA55AFA5459F67
:103C8000934FA3965FA2996FA6A185B1B090B6B7E6
:103C90008EB1B78AADB38EAEB992B4BD99BBC4979D
:103CA000BABE9BBABF9EBCBEA1BDBEA2BFBDA1BED7
:103CB000BC9CBAB891B4B084ABA6739D9B588F8A54
:103CC00036837B2B82792E857D439A944499924743
:103CD0009C954799935CAEA854A59F4FA09A5CAD64
:103CE000A764B5AF68BAB44DA29B4BA1984EA49BF4
:103CF00058ABA359ACA465B6AF6BBCB565B2AC62AA
:103D0000AFA969B8B36CBDB762B3AC60B1AA68B80B
:103D1000AF6CB9AF62AEA460A99E69B2A76EB7AC32
:103D200064B0A663B0A668B8AF68B9B060B3A9586C
:103D3000ABA155A69D57A89F4FA0994C9D9656A7FD
:103D4000A058A9A256A7A062B3AC6CBDB668B9B220
:103D500055A49F56A5A05DACA75FB0AA4B9D994501
:103D60009C9646A09E3E97933A88884385835387C6
:103D700085658F8B769F9980A59D8EB2A89BB7A9EC
:103D8000A5B7A7A8B19EA0A28A9B977C9F9983AC58
:103D9000A690AFAD94AFB295ABAC8C8889696464E2
:103DA0004A556653487A6E40898039928E30939096
:103DB00031948F379A953B9A9639939142989756BA
:103DC000AAAA5BACAD55A6A751A1A25CACAD63AEEF
:103DD000B15CA7AA5DA7AA66B0B366B0B15FA9AA95
:103DE0005FABAB67B3B367B3B15CABA85BAAA761CA
:103DF000B1AE60B0AD57A7A453A5A15BADA959AEB4
:103E0000AB4EA3A0489E9B51A7A456ACAB4CA2A11D
:103E10004EA4A554AAAB51A6A94BA0A346A9973678
:103E2000998746A7964AAB9A46A4943C9A8A4EAA8A
:103E30009B4EAA9B4BA695449F8E53AB9B50A89834
:103E4000479F8F459D8D56AD9D52AA9A43A19340A1
:103E50009E9050AC9D4CA798419E8C4AA59459AD1C
:103E60009D4FA393429B894AA39156AA9B4CA09134
:103E7000449C8C4CA79655AD9F499D9043908A5E7B
:103E80009C9B739EA487A9B28EB3BB94BBC294BA09
:103E9000C396BBC496B4BF95B3BE92B7C092B8C127
:103EA0008DB5BD8AB2BA8CB1BA8AB0B986AEB682C7
:103EB000ADB46E9EA24B8181387371256861165E28
:103EC000531D6B5D2576672578663B907D3C917E22
:103ED0004EA39050A592489B8953A6945BAC995FE2
:103EE000AE9B5CA9995FA99A65AFA260AC9F57A8E9
:103EF0009958AB9959AE9B57AA964B9A85408B77A8
:103F0000539C8962A997488F7F2F7666327A6C35E9
:103F10007F6E3D8C793A8E77267F691F7B661C7990
:103F200067086354176F613A8E7F348773196B5437
:103F30001C6A543F8D7564B19D67B4A261AB9C63EC
:103F4000ADA06BB7AA66B2A55BA49960ACA064B63D
:103F5000AA5FB2A84EA49953A99C66B8AC57A89979
:103F60004690815292847BA69C8BACA593B2AD9077
:103F7000B0AF90AFB495B6BD9CBCC79EBEC99BBC4C
:103F8000C398B9BE98B9BE9ABBC099BCC297B9C212
:103F90008EB3B987AFB17DA6A866979448807D2D72
:103FA00070692A766C3082762A8274328E7F3A95D6
:103FB00086439B8D4FA5985AAEA157AB9E50A699AC
:103FC0005BAFA064B8A95FB3A45BAD9F62B4A86205
:103FD000B5AB56ABA43F968E4FA9A05AB2A656AA2F
:103FE0009D56A89A5AACA05AADA351A8A052ABA511
:103FF00059B4AF5AB5AE50AAA157AEA561B8AF5BE0
:10400000B2A951ABA158AFA65FB5AC5FB2AA5FAE83
:10401000A85CADA668B9B25EB4AB55AFA545A19694
:1040200045A19647A19752A59D61B4AC68BAB45D0D
:10403000B2AB54A59F57A9A35AB1A853ADA3439DB2
:10404000914EA1975FA29B6FA6A184B0AF8EB4B72B
:104050008DB0B68CAFB592B2BD96B8C195BAC297C5
:10406000BAC09BBABF9EBBBF9EBABD9FBBBC9CB82B
:10407000B996B4B490B2B184ABA8739D9C578F8CA1
:1040800039867E2D847B2F867E449B95449992476A
:104090009C95499B955FB1AB5BACA650A19B5AAB7D
:1040A000A55FB1AB64B9B24CA19A4CA29950A69D40
:1040B0005BAEA65BAEA665B6AF6ABBB464B1AB5FE0
:1040C000ACA664B3AE6AB9B463B4AD62B3AC6ABA59
:1040D000B16BB8AE63AFA563ACA16BB4A96DB6AB61
:1040E00063AFA563B0A66ABAB169BAB15FB0A753AE
:1040F000A69C51A29952A39A499A9345968F4C9D9A
:104100009650A19A51A29B5FB0A96CBDB66ABBB490
:1041100059A8A35CABA662B1AC62B3AD4D9F9B48FE
:104120009F9949A3A1449A97408C8C4787875486CE
:1041300085648E8A739A957A9F988DB1A79EBCB03C
:10414000A4B9AAA2AF9DA4A992ADAD93B6B19DB1F9
:10415000AC98A8A890A8AB8EA8AC8B8788685C5E4A
:1041600046526350487A6E428B823A938F329290D5
:10417000329590379A953A999539939140969555FD
:10418000A9A95BACAD55A6A750A0A15BABAC60AE36
:10419000B05CA7AA5DA7AA66B0B367B1B260AAABCC
:1041A0005EAAAA66B2B265B1AF5AA9A659A8A55F20
:1041B000AFAC5FAFAC55A5A251A39F59ABA758AD0B
:1041C000AA4FA4A14EA4A157ADAA56ACAB4EA4A32E
:1041D00053A9AA59AFB055ABAC4CA2A348A9983784
:1041E000988748A6964CAA9A47A3943D998A4FAAC5
:1041F0009B4FAA9B4CA494469E8E53AB9B50A89871
:1042000048A090469E8E55AD9D51AC9B42A09240D9
:104210009E904FAB9C4BA6973F9C8A48A39258AC6C
:104220009C4EA292429B894AA39157AB9C4CA09171
:10423000439B8B4BA69555AD9F499D9045928C60B5
:104240009E9D75A0A687A9B28EB3BB94BBC295BB39
:10425000C497BCC597B5C096B4BF92B7C092B8C159
:104260008EB6BE8BB3BB8DB2BB8AB0B984ACB47F03
:10427000ACB26C9CA04A8080377270276A63186069
:10428000551D6B5D2576672679673D927F3E93804D
:104290004FA29050A39147988751A29158A9965C3C
:1042A000AB985AA7975FA99A65AFA260AC9F56A733
:1042B0009858AB995AAF9C57AA964E9D88448F7BCD
:1042C000549D8A61A896499080317868337B6D331C
:1042D0007D6C3C8B783B8F7827806A227E69207BBF
:1042E0006A076253176F61368A7B2F826E1B6D5689
:1042F0001D6B553E8C7463B29D65B4A15FAB9E602F
:10430000ACA06BB7AB65B1A55AA39860ACA064B67E
:10431000AA5DB3A64EA49752A89B66B8AC56A699C0
:10432000438F8252928477A29985A8A28FAFAE8ED6
:10433000ADAF8FADB592B2BD98B8C39ABCC698BBAD
:10434000C196B9BD97B8BD97B8BD94B7BD91B4BA81
:104350008AAFB584ACAE78A1A35E8F8C427A772900
:104360006A642B746B35877B2F877B3490833A94F8
:1043700088429A8E55AB9E5DB3A659AFA250A89ABB
:1043800058AF9F5EB5A55BB2A259AD9E62B4A8645A
:10439000B5AC59ABA541968F55A7A15FB0A959A956
:1043A000A057A79C5BABA059ACA250A79E50ABA254
:1043B00059B4AD5AB5AE50AAA157AEA560B7AE5C20
:1043C000B3AA52ACA259B0A760B6AD60B3AB5FAEB2
:1043D000A85BACA567B8B15DB3AA55AFA545A196DA
:1043E00045A19648A29853A69E62B5AD6ABCB65E3A
:1043F000B3AC55A6A057A9A358B2A950ACA1409AF6
:104400008E4A9D935B9E976BA29F7FABAC89AFB2A8
:104410008AADB38CAFB592B4BE97B9C295BAC29407
:10442000B7BD95B6BB9AB9BC9EBBBFA0BEC09DB977
:10443000BC94B2B48BAFAF81A9A96995944D858224
:1044400037847C2C867C2D877E47A19842999146A3
:104450009D95499E975FB4AD5EB0AA50A29C57A9A6
:10446000A359AEA760B5AE499E9749A0974FA69DA8
:104470005AB0A75AB0A765B8B06ABBB466B3AD600E
:10448000ADA766B5B06CBBB665B6AF65B6AF6DBD72
:10449000B470BDB365B1A763ACA169B1A669B2A799
:1044A0005FABA162AFA56ABAB16ABBB262B3AA53ED
:1044B000A49B53A49B4E9F964897914C9B954E9DD1
:1044C0009753A29C58A7A164B3AD6EBDB76BBAB4A5
:1044D0005BAAA55FAEA967B3AF64B3AE4E9E9B491E
:1044E0009E994BA4A2449A97418B8C4A8788578700
:1044F00087678F8E759C99789D9685AAA295B5AA97
:10450000A2BAACADBBAAACB69EABAF98AEAC97B0FE
:10451000AE99ADAF97A9AD92A8AC8B9397766F711A
:104520005957685546786C428B823D9390349492EB
:104530003396913898943B97943A9391409695543A
:10454000A8A85AABAC54A5A650A0A15AAAAB5FAD7F
:10455000AF59A7A95AA5A865B0B368B4B460ACAC0C
:104560005FABAB65B1B163AFAD58A7A45AA8A85F64
:10457000AFAE5FAFAE54A4A350A29E58AAA659AE48
:10458000A952A7A254AAA75EB4B159AFAC51A7A42F
:1045900054AAA95BB1B054AAA94CA2A148A99838C1
:1045A000998849A7974CAA9A48A4953D998A4FAAF9
:1045B0009B4FAA9B4CA494469E8E53AB9B51A999AA
:1045C00049A191469E8E56AE9E51AC9B45A3934207
:1045D000A09251AD9E4CA798409D8B49A49359AD94
:1045E0009D4EA292429B894AA39156AA9B4A9E8FB6
:1045F000429A8A4CA79656AEA04A9E9146938D63E6
:10460000A1A07AA5AB8DAFB88FB4BC8FB6BD8FB566
:10461000BE94B9C297B5C096B4BF92B7C092B8C1A4
:104620008EB6BE8CB4BC8EB3BC8BB1BA83ABB37A3E
:10463000A7AD69999D497F7F35716F286B641B63B6
:10464000581D6B5D277869287B694095824095826B
:1046500050A39150A39146978650A19057A8955C7E
:10466000AB985CA99962AC9D69B3A662AEA159AA48
:104670009B5AAD9B5CB19E57AA96509F8A499480E5
:1046800057A08D62A9974C9383387F6F367E703226
:104690007C6B398875398D76267F6924806B217C07
:1046A0006B035E4F146A5D2B7F702275611A6C5626
:1046B0001E6D573D8B7561B09B65B4A15EAA9D5F71
:1046C000AB9F6AB6AA65B1A55AA3985DAB9E62B6C8
:1046D000A95DB3A64DA3964AA09367BBAE55A59816
:1046E0004793865E9D926D9A9380A39F90B2B392FA
:1046F000B3B894B5BE95B7C196B8C497B9C397BAC5
:10470000C098BBBF97B9BB96B8BA90B3B78EB1B7D4
:104710008BAEB487ADB07BA3A55F8D8B4279762934
:104720006A642C756C34867A2E867A338F8239933C
:1047300087419B8F50A6995BB1A456AEA04EA69818
:1047400053AB9B58B0A055AC9C51A79A5FB2A861DF
:10475000B4AC59ABA544969258A9A361B0AA5BA882
:10476000A058A59B5BABA058AEA34FA99F4FACA28E
:1047700057B4AC59B4AB4FA99F57AEA560B7AE5C68
:10478000B3AA53ADA359B0A761B7AE61B4AC5FAEE5
:10479000A85AABA467B8B15BB1A852ACA245A19628
:1047A00048A4994BA59B53A69E60B3AB63B8B15B7D
:1047B000B0A954A6A059ABA55BB5AC53AEA5439D1B
:1047C000934E9F965EA19A6EA5A281ADAE8AB0B3BC
:1047D0008BAEB48DB0B691B3BD94B6BF8FB4BC9060
:1047E000B3B994B5BA99B8BD9BB8BC9CB9BD9AB6DB
:1047F000BA92B1B489ACAE81A9AB6995964A85836A
:1048000036857F2D877D2C867D46A097409A9146E0
:104810009D95469D955BB0A95BB0A94EA09A54A901
:10482000A258ADA65EB3AC469B94469D944CA39A09
:1048300057ADA459AFA666B9B16CBDB668B5AF6542
:10484000B2AC6DB9B56EBDB862B3AC5FB0A96ABAAF
:10485000B170BDB363AFA560A99E65ADA266AFA4FC
:104860005FA89F61AEA46CB9B16CBCB366B7AE561D
:10487000A79E57A89F50A1984E9D9759A8A25BAAA2
:10488000A45FAEA862B1AB69B8B26EBDB76AB9B386
:104890005BAAA55FAEA966B2AE62B1AC4C9C99486A
:1048A0009D984AA39F4297943F87864A86875B8953
:1048B000896D9493799D9B7A9E9A87ACA594B5ACAB
:1048C0009FB9ACAABCACABB7A1A9AE98AAA995AD4B
:1048D000AC97ACB099A8AE92A6AC8A9A9E7D7E8029
:1048E000685D6E5B4173673C857C3A908D32929037
:1048F00032928E3898943E9A973D96944197965569
:10490000A9A95AABAC54A5A650A0A15AAAAB5FADB9
:10491000AF59A7A959A4A765B0B368B4B461ADAD48
:1049200060ACAC66B2B264B0AE5AA9A65AAAA9608D
:10493000B0AF5FAFAE55A5A450A29E59ABA75BB078
:10494000AB55AAA557ACA964BAB75BB1AE51A7A441
:1049500052A8A757ADAC52A8A74BA1A04AA8983A15
:10496000988849A7974DAB9B48A4953E9A8B50AB2E
:104970009A50AB9A4BA393469E8E54AC9C52AA9AE3
:1049800049A191479F8F57B09E52AD9C47A5954333
:10499000A19352AE9F4DA899409D8B49A49358ACCA
:1049A0009C4EA292419A884AA39155A99A499D8EFC
:1049B000429A8A4DA89758B0A24CA09344918B601C
:1049C0009E9D77A2A88AACB58CB1B98CB3BA8CB2D3
:1049D000BB92B7C096B4BF95B3BE91B6BF91B7C0F6
:1049E0008EB6BE8DB5BD8EB3BC8BB1BA83ABB3767C
:1049F000A3A966979B4A808034706E286B641D65FE
:104A00005A1C6A5C267768287B69409582409582AB
:104A100050A3914FA29046978651A2915AAB985EAF
:104A2000AD9A5EAB9B62AC9D69B3A662AEA159AA7A
:104A30009B5CAF9D5EB3A057AA96509F8A4D988409
:104A40005BA49162A9974C93833D8474357D6F2C50
:104A500079673889763E937C2B846E288371258014
:104A600071055F531066591E7263136654186A54B9
:104A700021705A3C8B755FAE9965B4A15EAA9E5EAB
:104A8000AAA068B6A964B2A557A3975BA99C5FB317
:104A9000A45CB3A34EA6984BA19467BBAE55A7994F
:104AA00049958864A3986A979280A2A191B3B5931F
:104AB000B6BC96B8C296BAC697BBC797BCC597BCDA
:104AC000C296BCBF97BABC95B8BA91B2B78DB0B414
:104AD0008DB0B68BB1B47EA6A862908E457C792F3E
:104AE0006D6A2E777032837A2B8377338D813B9575
:104AF00089429C904FA59859AFA255AD9F4CA49662
:104B000050A89855AD9D53AA9A51A79A5DB3A85F36
:104B1000B5AC56ABA442949056A6A360AFAA5BA8CE
:104B2000A058A59B59AB9F58AEA34FABA04EAEA3C8
:104B300054B4A956B3A950A79E57ADA262B9B05DAF
:104B4000B4AB53ADA359B0A75FB5AC5FB2AA5EAD2D
:104B5000A759AAA367B8B159AFA650AAA045A19674
:104B600048A49949A39952A59D60B3AB63B9B05AC3
:104B7000B0A753A59F58AAA45AB4AB53AEA5449E60
:104B80009451A29964A7A075ACA989B5B691B7BA9A
:104B900090B3B98EB1B790B2BC90B2BB8AAFB78CAC
:104BA000B1B794B5BA99B8BD98B5BB97B4BA95B238
:104BB000B890AFB489ACB082ABAF6F9C9F538D8E71
:104BC0003887812D887F2C877E449F96429D94450F
:104BD0009F96419B9253AAA257ACA54CA19A57AC61
:104BE000A55DB2AB60B7AF479E96469D944BA29928
:104BF00056ACA358AEA565B8B06BBCB567B4AE6390
:104C0000B0AA6BB7B36CBBB660B1AA5CADA667B710
:104C1000AE6DBAB063AFA55FA89D66AEA368B1A63E
:104C200061AAA160ADA36AB7AF6BBBB266B6AD595E
:104C3000A9A057A79E52A29951A09A5FAEA868B7A3
:104C4000B16AB9B361AEA865B2AC69B6B068B5AFC8
:104C50005CA8A461ADA965B1AD61B0AB4B9B9849AF
:104C60009E994DA3A04297943F87864985865D8B88
:104C70008B7198977B9F9D799D9988ADA697B8AFCA
:104C80009BB5AA9FB4A5A6B39FACB49DB3B29EAC8E
:104C9000AB96A3A790A6AC90A6AC8A979B7A828489
:104CA0006C6576634575693B827A388E8B30908E61
:104CB0002F8F8B389894419D9A3F98964399985797
:104CC000ABAB5BACAD55A6A751A1A25CACAD60AEE1
:104CD000B059A7A959A4A764AFB267B3B361ADAD8A
:104CE0005EACAC65B3B364B3B05CABA85AAAA95FC1
:104CF000AFAE5FAFAE56A6A551A39F59ABA75DAFB0
:104D0000AB54A9A455AAA564B9B457AEA84EA59FA3
:104D100050A6A358AEAB53A9A64DA3A04AA8983A53
:104D2000988849A7974DAB9B49A5963F9B8C51AC62
:104D30009B51AC9B4BA393469E8E54AC9C52AA9A1B
:104D40004AA292479F8F57B09E52AD9C47A595436C
:104D5000A19351AD9E4CA7983F9C8A47A29157AB17
:104D60009B4DA191419A8849A29054A899489C8D45
:104D70004199894DA89759B1A34DA194428F895962
:104D800097966D989E83A5AE89AEB68CB3BA8DB357
:104D9000BC93B8C195B3BE94B2BD91B6BF90B6BF37
:104DA0008DB5BD8DB5BD8FB4BD8BB1BA83ABB374BA
:104DB000A1A766979B4C828234706E276A631C653C
:104DC0005A1B695B2475662679673E93803E938003
:104DD0004FA2904FA29047988753A4935CAD9A5EE0
:104DE000AD9A5BA8985DA79862AC9F5CA89B55A6FE
:104DF0009759AC9A5EB3A056A99551A08B509B874A
:104E00005FA89562A9974A91813C857430786A2998
:104E100076663A8B78479C87358E7A2F8A782A85F2
:104E2000760963570F6558176B5C0B5E4C17695317
:104E300024735E3D8C765EAD9865B4A15EAA9E5CDF
:104E4000A99F67B5A864B2A557A39759A79A5DB162
:104E5000A25BB2A250A89A51A99B65B9AC55A7997B
:104E6000479387609F966B989382A4A58AADB18B78
:104E7000ADB68EB3BC94B8C49ABECA9CC1CA99BE22
:104E8000C494BABB98BBBD96B9BB90B1B68DAEB356
:104E90008CAFB58CAFB57EA4A7618D8E46797A3282
:104EA000706D347B7536867D2E84793690843C9681
:104EB0008A439B8F54AA9D5DB3A657ADA04CA49482
:104EC00051A89857AE9E56AD9D55AC9C5EB6AA5D56
:104ED000B7AD53AAA23D928D53A3A05EADA85AA729
:104EE0009F56A69B57AB9E57AFA34FACA14EAEA308
:104EF00053B3A855B2A74FA69D58AEA364BBB25FEB
:104F0000B6AD54AEA457AEA55EB4AB5EB1A95DAC70
:104F1000A659AAA366B7B059AFA651ABA145A196B1
:104F200045A196459F9550A39B62B5AD68BEB55D02
:104F3000B3AA52A49E54A6A054AEA54DA89F419BCF
:104F40009150A19A65A7A378AFAC8EB7B994BABDBA
:104F500092B5BB8FB2B88FB1BB8BB0B88AB1B88BEA
:104F6000B0B691B2B798B7BC9BB8BE9BB8BE96B36B
:104F7000B98EADB288ADB381AAAE73A0A55690919B
:104F800034857F2B867D318C8348A39A45A0974634
:104F9000A198409A914CA69D53AAA24CA19A5BB0AD
:104FA000A963B8B164BBB34BA29A49A0974DA49B27
:104FB00057ADA458AEA564B7AF69BAB363B0AA5DE4
:104FC000AAA465B1AD6AB9B462B3AC61B2AB6DBA53
:104FD000B270BDB36AB3AA65AEA36CB4A96EB7AC28
:104FE00064ADA460ADA368B5AD68B8AF64B4AB5AA6
:104FF000AAA152A29950A097509F995DACA66DBCF2
:10500000B66FBEB855A29C59A6A05FACA663B0AA65
:105010005CA8A463AFAB66B2AE61B0AB4C9C994BDD
:10502000A09B51A7A4489A984189884B87885F8B99
:105030008C7299987DA19F779B9780A59E8FB0A930
:1050400097B3A7A1B6A7A7B6A3AAB29DACAE99AADB
:10505000A994A1A58EA8AE92ABAF8E989C7B8688B2
:10506000706C7D6A4E7E7240877F3A908D32918D52
:105070002F8F8B399995439F9C3F9896459B9A58C3
:10508000ACAC5CADAE56A7A852A2A35DADAE60AE0F
:10509000B059A7A95AA5A864AFB265B1B15FABABCF
:1050A0005DABAB65B3B365B4B15CABA858A8A75E04
:1050B000AEAD5EAEAD55A5A451A39F58AAA65BADFB
:1050C000A954A6A252A7A25FB4AF4FA6A04AA19B23
:1050D00052A8A55DB3B058AEAB50A6A347A3943C6D
:1050E000988951AE9C51AE9C48A3923F9A894FAA91
:1050F0009950AB9A4CA494469E8E54AD9B51AA985D
:1051000049A29049A29059B2A054AF9E45A393459D
:10511000A39551AD9E4CA798419E8C4DA89759AD33
:105120009D4DA191449D8B4DA69459AD9E4FA39446
:1051300048A0904FAA9956AEA04A9E91428F89608E
:105140009E9D719CA281A3AC8BB0B88BB2B98FB578
:10515000BE93B8C198B6C196B4BF8DB2BB8FB5BE71
:1051600090B8C08FB7BF8FB4BD86ACB581ACB378F3
:10517000A7AD65969A477D7D34706E276A63145D8E
:10518000521E6C5E297A6B2B7E6C36897741948235
:10519000499A8950A1904B9989509E8E5AAB985A42
:1051A000A99656A3935DA79862AC9F5BA79A59AA4C
:1051B0009B5EB19F5CB19E56A9954F9E894E998585
:1051C0005BA49163AA984F968639827130786A27DA
:1051D000746437887540958039927E338E7C28833D
:1051E000740862561066592F83743184722779636C
:1051F00021705B408F795FAE9960AE9E5AA89B5C30
:10520000A99F6AB8AB62B0A355A1955BA99C5EB299
:10521000A35CB4A44EA6984EA69861B5A853A597D2
:105220004B978B62A198709D987FA1A287A9AB8DA7
:10523000B0B691B6BF97BBC798BEC996BCC598BD5E
:10524000C396BCBD95B8BA92B5B78FB2B68FB2B897
:105250008EB0B98FB2B882A8AB6591924477782EA0
:105260006C692E756F36867D2D83782F897D3A92F5
:105270008641998D50A6995EB2A553A7984AA191EF
:1052800059AD9E5DB1A158AB9B54A89959B3A75B8A
:10529000B7AC51ABA23E979152A7A05FB2AA58A952
:1052A000A057A99D59AFA256B0A450ADA24AABA039
:1052B00053B3A858B5AA55ACA359AFA462B9B05F0F
:1052C000B6AD55AFA55AB1A861B7AE5FB2AA5DAC95
:1052D000A65AABA469BAB35BB1A84FA99F46A297DF
:1052E0004AA69B48A29851A49C5CAFA75FB5AC5856
:1052F000AEA553A59F58AAA458B2A94BA69D429CFF
:10530000934D9E9768AAA67BB1B18EB7BB90B5BBF3
:105310008FB2B88EB1B78DB2BB8EB3BB8DB4BB8E1E
:10532000B3B991B2B995B3BB98B5BD98B5BD93B0BB
:10533000B88AA8B089AEB689B2B874A1A64D8788DC
:105340002E7F7929847B2C877E449F96419E9443AF
:105350009E95449E9557B1A84BA29A50A79F5BB2C9
:10536000AA64BBB358AFA74BA29A479E954DA49B86
:1053700053A9A056ACA366B9B16BBCB567B4AE6314
:10538000B0AA6CB8B46FBEB965B6AF64B5AE6EBB4B
:10539000B36FBCB266AFA661AA9F67AFA46CB5AA93
:1053A00062ABA25BA89E67B4AC6ABAB163B3AA59F8
:1053B000A9A051A19850A0974D9C9660AFA96EBD31
:1053C000B76EBDB75BA8A258A59F5EABA55FACA6A4
:1053D0005AA6A263AFAB64B0AC62B1AC50A09D4E14
:1053E000A39E4BA19E4A9C9A3E86854A86875C88EE
:1053F000897198977EA2A07A9E9A7EA39C91B2AB67
:1054000099B5A99BB0A1A0AF9CA6AE99B2B19DAC35
:10541000AB96ADB19AA8AE92AEB2919FA0807A7AC7
:10542000626776635282743981763A8F8A33928EBC
:1054300033938F3C9B95439F9C429B99479D9C57E0
:10544000ABAB5FB0B157A8A954A4A55BABAC5FAD43
:10545000AF5BA9AB5AA8AA62B0B266B4B461AFAFF1
:105460005EACAC63B1B161B1AE58A8A557A7A66157
:10547000B1B063B3B259A9A854A4A15CACA960B2FD
:10548000AE5BADA952A7A25AAFAA54A9A44BA09B48
:10549000499F9C56ACA954AAA74DA3A049A5963DE7
:1054A000998A50AD9B4FAC9A47A2913F9A8950ABD5
:1054B0009A52AD9C4CA494469E8E54AD9B51AA9892
:1054C00049A29049A29059B2A053AE9D45A39346DC
:1054D000A49653AFA04DA8993F9C8A4AA59457AB78
:1054E0009B4EA292449D8B4CA59356AA9B4B9F909A
:1054F000459D8D4DA89755AD9F4A9E91418E885FE1
:105500009D9C739EA485A7B090B5BD8DB4BB8DB393
:10551000BC8FB4BD97B5C095B3BE8DB2BB8FB5BEC1
:1055200090B8C091B9C190B5BE86ACB57FAAB1792B
:10553000A8AE68999D4A8281357370286B64145DAA
:10554000521E6C5E297A6B2B7E6C36897741948271
:10555000499A8950A1904B9989509E8E5AAB985B7D
:10556000AA9757A4945FA99A64AEA15DA99C5AAB6F
:105570009C5EB19F5DB29F57AA9651A08B509B87AE
:105580005DA69363AA984E9585388170307A6D2B0D
:1055900078683B8C7B4297823A937F36917F2B864B
:1055A000770A6256176D603C90813D907E2B7D6737
:1055B00023725D41907A62B19E66B4A45BA99C5D42
:1055C000AAA068B8AB60B0A355A39659A99C5CB3D8
:1055D000A35CB4A44FA7994EA4975FB3A650A2941E
:1055E00049958861A095759F9B85A7A68BADAF8FC8
:1055F000B0B593B5BF97BBC798BCC897BDC699BE99
:10560000C494BABD99BCBE94B7B990B3B993B6BCB3
:1056100090B2BB8AAFB581A6AC669293487B7C2ED4
:105620006C692A716B3282792B8176318B7F3C9445
:1056300088449A8D53A79A5EB0A254A6984FA2921E
:105640005CAF9F5EB1A15CAA9C59AC9C58B3A45AB4
:10565000B6A952ADA4409B9251A8A05CB2A957AA8A
:10566000A055A99C57AFA156B0A44EAEA24BACA179
:1056700054B4A959B6AC56ADA459AFA460B7AE5E48
:10568000B5AC53ADA356ADA45EB4AB5DB0A85CABF6
:10569000A55AABA468B9B25BB1A84FA99F45A19622
:1056A00049A59A48A29850A39B5BAEA65EB4AB579F
:1056B000ADA452A49E56A8A257B1A84BA69D469D44
:1056C0009550A19B66A6A575ABAB86AFB38AAFB567
:1056D0008DB0B690B3B991B6BE92B7BF8FB6BB903E
:1056E000B5BB92B3BA94B2BA96B3BB96B3BB92AF02
:1056F000B78DABB386ABB385AEB4729FA4508A8B23
:1057000033847E2A857C2C877E45A097429F9542D4
:105710009D943F999053ADA44CA39B51A8A059B020
:10572000A861B8B058AFA7479E96439A914BA299EB
:1057300057ADA458AEA566B9B168B9B266B3AD624B
:10574000AFA96BB7B36EBDB864B5AE63B4AD6CBC96
:10575000B371BEB465B1A760A99E65ADA26AB3A8D6
:1057600062ABA25DAAA069B6AE6ABAB163B3AA5928
:10577000A9A051A19850A0974D9C965FAEA86CBB74
:10578000B56CBBB55BA8A25AA7A160ADA761AEA8D6
:105790005BA7A363AFAB64B0AC62B1AC51A19E5048
:1057A000A5A04EA4A1499E9B3E86854985855A8821
:1057B000886F96957CA09E799E977FA49D93B4ABAD
:1057C0009DB7AC9DB2A3A3B09EAAB29DB4B39FA94E
:1057D000A792A4A68EA1A688ABAC8C9D9E7E80804D
:1057E000666B7A674E7C6F3A80763B908B34908DF7
:1057F00033928C3C9B9544A09D419A98469C9B5625
:10580000AAAA5FB0B158A9AA55A5A65BABAC5FAD7B
:10581000AF5BA9AB59A7A961AFB165B3B360AEAE39
:105820005EACAC64B2B262B2AF59A9A656A6A55E90
:10583000AEAD5EAEAD54A4A350A09D58A8A55CAE7D
:10584000AA55A7A357A9A55DB2AD56ABA64DA29D7B
:105850004AA09D56ACA953A9A64BA19E4BA8963D24
:105860009A8850AB9A4EA99845A08F3F9A8953AB1E
:105870009B56AE9E4CA59347A08E54AD9B51AA98C3
:1058800049A29048A18F56B19F52AF9D45A393471F
:10589000A59754B0A14DA8993E9B8948A39257ABB8
:1058A0009B4FA393459E8C4CA59355A99A499D8ED9
:1058B000439B8B4BA69555AD9F4B9F92428F895F23
:1058C0009D9C729DA386A8B192B7BF8FB6BD8EB4C2
:1058D000BD90B5BE98B6C198B6C18FB4BD8FB5BEE8
:1058E0008FB7BF91B9C190B5BE83A9B27DA8AF787B
:1058F000A7AD6A9DA04E8685367471286B64155ECF
:10590000531E6C5E28796A2B7E6C368977429583AC
:105910004A9B8A50A1904C9A8A519F8F5AAB985CAF
:10592000AB9859A69662AC9D67B1A45FAB9E5BAC89
:105930009D5FB2A05DB29F57AA9651A08B509B87E6
:105940005DA69363AA984F96863881702F796C294B
:1059500077673B8C7B4297823A937F3893812D887F
:1059600079096155156B604094873E917F25776179
:1059700023725D41907A61B29F66B7A65AAB9C5C78
:10598000AC9F68B8AB61B1A456A4975AAA9D5BB10D
:10599000A45BB3A54DA5974EA49761B5A853A39654
:1059A0004A94875C9B906D98917F9F9C8CABAD8C4B
:1059B000AEB08FB0B995B7C196BBC49BC0C89EC3EB
:1059C000C996BCBF9DC0C299BCBE93B6BC98BAC3B1
:1059D00091B6BE88ADB382A7AD6995964A7D7E2FFC
:1059E0006D6C29706C31807A2D8378348E823D9570
:1059F0008742988B53A5995EAEA155A59851A29365
:105A00005DAB9D5EAC9C5FA99A5EAC9C5DB4A45BF3
:105A1000B7A855B1A6439F944CA89D57B1A755ADC3
:105A2000A152AA9C56AEA054B0A350ADA24CACA1BA
:105A300054B3AB58B5AB54ABA257ADA25FB6AD5E95
:105A4000B5AC53ADA356ADA45DB3AA5EB1A95CAB32
:105A5000A559AAA368B9B25BB1A850AAA046A2975B
:105A600049A59A48A29851A49C5DB0A860B6AD59CA
:105A7000AFA653A59F54A9A256AFA94BA69F479E78
:105A80009651A29C63A3A26DA3A57BA4A882A7ADF7
:105A900087ACB28BB0B68FB4BC91B6BE8DB4B98EA4
:105AA000B3B991B2B994B2BA98B5BB99B6BC98B52E
:105AB000BB95B4B98BB0B686AFB373A0A5548E8F27
:105AC0003788822A857C2A857E449F98439E954309
:105AD0009E953E988F50AAA14DA49C50A79F56AB6F
