:020000040800F2
:1000000060710020DD8E01085F75010861750108CF
:100010006375010865750108677501080000000037
:100020000000000000000000000000006BA00008BD
:10003000697501080000000025A000086B75010823
:100040009194010895940108999401089D940108E0
:10005000A1940108A5940108A9940108AD94010890
:10006000B1940108B5940108B9940108BD94010840
:10007000C194010895750108C59401089775010898
:10008000C9940108CD94010877750108D19401083D
:10009000D5940108D9940108DD940108E194010880
:1000A000E594010869760108E9940108ED940108D6
:1000B000E1760108F1940108F5940108F99401082A
:1000C000FD940108019501080595010809950108AD
:1000D0000D95010899750108D37501083576010859
:1000E0001195010815950108199501081D9501083C
:1000F0002195010825950108299501082D950108EC
:100100003195010835950108399501083D9501089B
:100110004195010845950108499501084D9501084B
:100120005195010855950108599501085D950108FB
:10013000CEC200000000000008000030FE0F2002C8
:100140000420020480020440FE074602044C02041C
:1001500048020420FE07200000A0000820FF1F1016
:1001600091081E9108189108189108189108189183
:1001700008189168E06E17000000D1B90000000077
:100180000000000018F0FF3F300000303000303039
:1001900000303000303000303000303000B0FF0F21
:1001A00030300030300010300110300210300610B6
:1001B000300C083004083000043030E4CF0F020067
:1001C00000000000C1F700000000100000600010F7
:1001D000401020FF3F6020000020008010028208B5
:1001E000048C040C48FE0B4800082026062026023A
:1001F0002026021026021E26021822021822221889
:10020000232218212298207E602000000000CAAA24
:1002100000000000000008000810FE1F3006082043
:10022000060880060842FE0F4C060858060848FEDD
:100230000F209600201001A0103110113118131951
:100240001C12091816050812030810010C100108E9
:100250001031C0EF0E000000D2BB00000000000013
:10026000000000000000000000000000000000008E
:100270000000000000000000000038FCFF7F0000CC
:10028000000000000000000000000000000000006E
:10029000000000000000000000000000000000005E
:1002A0000000CCE5000000400000C0C0004040005D
:1002B00040400060400020403030FF7F3060012827
:1002C000700128500124580222480220440420468C
:1002D0000C204218204134A0FE3F60400020400026
:1002E000204000204000204000000000BCE0000052
:1002F0000000000000C300104100106100106118F0
:1003000010A1071021001011011011021009061090
:100310000504000104000100100004F0FF07106252
:1003200004106204106204106204106224FEFF3F95
:10033000000000000000B2E20000000000008800A1
:1003400030907F10B06110A06112806512826D1232
:10035000CC6D12C86D12A86D12A06D12A06D12A006
:100360006D129065129065129C2512180412181ACD
:100370001018221018611098401C6000180000002E
:10038000D2C7000000000000C01100C02000406083
:100390000060C00020400C20000C30040430040633
:1003A00028080228080224100122100120A00020A1
:1003B000E00020C00020E000203003201807200CBF
:1003C0001E200278A00110000000B6C80000000046
:1003D0000800001000003010F0FF3F100200100C69
:1003E00003100411100439F0FF0710040110040178
:1003F00010FC0110000098FF07180403080401080E
:10040000880108D00004600004D80102067FE201E0
:1004100018000000A3BA0000000000000000000067
:1004200000000000000000000000000000000000CC
:100430000000000000000000000000000038000084
:1004400038000030000000000000000030000038DC
:100450000000380000000000000000000000CBD9C0
:1004600000000000000000C00008400010401030F4
:10047000FF3F10400000400000FE0F0046087E468F
:100480000820460820FE0F20620020D000205807D8
:1004900020440C204218204110D84000864100041E
:1004A000FE3F00F81F000000C1BF00000000000078
:1004B000E0FF07600002600002E0FF03600002E06E
:1004C000FF03200020FEFF7F000000E0FF07201850
:1004D00006201806E0FF07201806E0FF0720180294
:1004E000001804F0FF0F001800001830FCE70F00A0
:1004F0000000BEB2000000004000C0C00040640424
:10050000FCE70F403806401202F80D0140F01F4092
:100510008C19BC8319008239F8FF1F088219F883EF
:100520001908821908F21FF8830108820108820164
:10053000088201C8B20088C300000000B6AF000006
:1005400000000000008001008000008600FC8100A7
:1005500000800000803000E03F008C30FC83306081
:10056000803020803030811010C2100846100844BE
:1005700010F42F101C281000101000881800041F01
:1005800000020C000000B7B40000000000000000F2
:100590000E00F01FE00F00200000200000200000EF
:1005A000200000E0FF0F20020C20020620040220A1
:1005B000040320080120900130F00010600010F0CA
:1005C0000008980308060E84017C720010000000E9
:1005D000B4B50000000020000060000060000020B2
:1005E00000FC31008C11108CF93F8C09188CC90863
:1005F0008CC5048CC3008CC1008CC1008C6101FCD3
:1006000061018C20020C300200100400180C000C58
:1006100018000230800100000000CFC2000000007E
:100620000000000010000038FCFF07000800000870
:100630000000080000080000180000E8000088031F
:1006400000080700080E0008040008000008000069
:10065000080000080000080000080000080000086A
:1006600000000000D2B3000000000000000018FCF1
:10067000FF3F000C00000400000402E0FF076000E0
:100680000260080260180260080260080260080246
:10069000600802600802600C0220740000860100FD
:1006A000030780010C6000181C0010000000A1FA74
:1006B000000000000000000000000000000000003A
:1006C000000000000000000000000000000000C06A
:1006D0000100800FFCFF3F00800700C00000000009
:1006E000000000000000000000000000000000000A
:1006F0000000000000000000A1FB0000000000005E
:1007000000000000000000000000000000000000E9
:100710000000000000000000800300F00100F8FF6E
:100720003FE00100000300000000000000000000A6
:1007300000000000000000000000000000000000B9
:100740000000A1E6000000000000000000300000F2
:1007500048F801480C1648061830031800011080AC
:1007600001108001008001008001008001008001F3
:1007700000000100000300000308000604001C0341
:1007800000F000000000000000000000C9CF0000E1
:1007900000000000000400000C00000C00000C0031
:1007A000000C00000C00000C0400FC0F000C00000A
:1007B0000C00000C00000C00000C00000C00000CF1
:1007C00000000C00000C00000C10FEFF3F000000B9
:1007D000000000000000C9E800000000000010F860
:1007E00003201806601802601802000802000802C0
:1007F0000004027E067E200104A0FC0F20080420D5
:10080000100620100620200220220120C101A0C0D5
:100810000060600360180E000638800100000000D0
:10082000D6C3000000000000F0FF0F104208104285
:1008300008104208F0FF0F100808000808F8FF1F12
:10084000000802C0FF07400002400002C0FF034052
:100850000002C0FF03400002C0FF0340000240004E
:1008600022FEFF7F000000000000B1B80000000081
:10087000020000030000FF0380010180820140C2EA
:1008800000606400303C00081800003C0000C2001A
:10089000808107E0FF7F5C1012401002401002C010
:1008A000FF03401002401002C0FF0340000240005E
:1008B00002000000D7B4000000000000C04000802B
:1008C000400280400C8040188440188840109840B6
:1008D0001090FF3F80C000804001C06001A0600117
:1008E0009020018C200286300280100680180C8037
:1008F000081C800438800230400100000000CCACAD
:10090000000000000800000800000800000C10FCB7
:10091000FF3F001400002400002600004200008376
:1009200001800C0760183E181018060000000C002B
:100930009019049010189810199C00118C001180C7
:10094000010100FF01000000CAD600000000000005
:1009500000000600F00FF80F00000800000800007B
:100960000804F8FF0F000800000800000800000855
:1009700010FEFF3F0008000008000008000008000B
:10098000000800000800800900000E0000040000BC
:100990000000C1E3000000000000000004E0FF07C9
:1009A000001800F8FF3F081830ECD9170C180800A1
:1009B0000800E0D907001C0000230080C100601877
:1009C0007F1C1038E0FF010080010060000017006C
:1009D00000380000600000C000000000B5E3000027
:1009E0000000080000180000080000080800F81FB8
:1009F000000800000800000800C0FF074000064093
:100A00000006400006400006400006C0FF07400008
:100A10000600000000210410421810C6101886308D
:100A20000C0000000000D0A300000020200060C0E7
:100A30000020800020800020FF3FFE0300202002D5
:100A400020300CF01818B00930300D3438120E2850
:100A5000100628100324200322A00120C00020C07B
:100A60000020E00320180E20067CA00110000000EA
:100A7000D7BC0000000088000098010C0C0118048D
:100A80001198FC3F90860140860140850120850138
:100A9000A0FC1F6084011084011884011C841118BB
:100AA000FC3F08840108840108840108840108FCD3
:100AB0003F000400000400000000C6BD000000006C
:100AC0000000000008F8FF1F00180000180420189C
:100AD00006C01802801801809800005810FEFF3FE1
:100AE000001800001800001800001800001800008E
:100AF0001800001800001800001800001800000876
:100B000000000000BBAC0000000000000800043042
:100B1000FC0F20040420FC040044044645044CFF60
:100B20003FC80130A8001020FC0720040420040462
:100B300010FC071004041E040418FC071804041811
:100B40000404180404188407000402000000CAB159
:100B5000000000000002000006000002FC01028408
:100B6000010284010284FF3F840102840102FC012E
:100B70000284090284310284310284210284010248
:100B8000840102FC010284010284000200200200B0
:100B9000C003000001000000BCE4000000200000D1
:100BA000600000C0FE1FC8001018001008001008E8
:100BB000FF10084110084110084110084110087F3B
:100BC0001008411008411008C11008FF1008C1109A
:100BD00008001008001008001908001E08000C008A
:100BE0000000D1CC00000020000060000020FC3F8D
:100BF000208420208521208721A084216084252431
:100C0000F42F248420208420208420208421208408
:100C10002260C426B0442410252410252408FC3F5B
:100C2000080420040420020400000000B5C00000F5
:100C30000000040018080630100220100180FF3F59
:100C400000400000200020FC0F7E040C20040C203B
:100C5000FC0F20040C20040C20FC0F20040C2004AA
:100C60000C20FC0F30040C4C0000860100003E7884
:100C700000F01F000000BDD80000000081000083CC
:100C800004008108F8BF18008110008120FEFF3F9A
:100C9000408100E08200208600F0FF193082193880
:100CA0000209F43F09320205300207F01F02302228
:100CB00027F0BF2D30C03830203010184000000021
:100CC000C3E6000000000000000020FEFF7F000CD3
:100CD00000000400000400F8FF1F18421818421812
:100CE000184218187E181842181842181842181876
:100CF0004218187E18184218184218184218F8FF9F
:100D00001F180018080008000000BBFD00000000CC
:100D10000000000100C003007CF03F4010104010B4
:100D200010401210FE1710601010601010E010102C
:100D300070F31F5012104802004840024440044221
:100D40002008403010401830400C20400220400164
:100D500000000000C6B500000080002080F87F8001
:100D60000003B0000190070190E03F902020902008
:100D700020FE2F22802022802022902022902422D8
:100D8000882C2388262304220102010180810DC0C2
:100D90008030206030181060040C00000000B4CED9
:100DA000000000003000083000103000301000203B
:100DB0001900A0F83F80081080440840440440C255
:100DC0000020C100A0E00010E0001C20011820015C
:100DD00010300210100218080418040C1802388091
:100DE0000170400000000000B2CE000000000000D2
:100DF000000C0000C30080000360F007E00F0C004F
:100E00000608FEFF3F004300809100C01801600CFF
:100E10000610467C0CE110C23000301800000606B7
:100E200080810360E000003800000700F800000047
:100E30000000CAFD000000808000888801908800C2
:100E4000B0C400904200FCDF3FC06008E06308A02F
:100E50006408905C0C8C500C82800CC08004FE8F67
:100E60000460840720040370020380870780CD0C90
:100E7000606838181830060400000000A3A80000BD
:100E80000000000000000000000800000400000254
:100E900000000100800000800000400000400000D1
:100EA000400000400000400000400000400000C042
:100EB00000008000000001000002000004000008A3
:100EC000000000000000A3A90000000000000000D6
:100ED00000080000100000600000400000800000DA
:100EE00000010000010000030000020000020000F9
:100EF0000200000200000300000100800100C000A9
:100F00000060000030000008000000000000000049
:100F1000B2CB000000004100004300004310FEFF80
:100F20003F00430000430400F00FF80F00000400EE
:100F3000201806401003C00801009810FEFF3F0073
:100F40003E00005A00009900801801601806301811
:100F50007C0C1810020800000000B5A500000080FD
:100F6000800000810100C300004200E0FF0720086C
:100F700004200804200804E0FF07200804200804D7
:100F8000200804E0FF07200804100810FEFF3F00BF
:100F90000800000800000800000800000800000821
:100FA00000000000B3C90000000000000030010094
:100FB0003002003004002014F0FF3F102000102009
:100FC00000102008106018F0670C1044041044064C
:100FD00010C40610C603108641088641C8C3230802
:100FE000632E04103C040C38020000000000B9A677
:100FF000000000008000008001008000008400FCF0
:101000008F0040800040F83F40803040803040807A
:101010003040801040C0104040104040104046100A
:10102000C021103C30100C10100008100084190072
:10103000030E800004000000CAA7000000000800A2
:10104000001800401800401800601804E0FF0F204E
:101050001800101800100800080800000810FCFF15
:101060003F002800002C00004400004600008200E1
:1010700000010180000640000C3000780C001000D8
:101080000000B0DC00000000400000C000FC470091
:101090000C62000C22004CE23F4C220C4C320C4CF7
:1010A00032044C4A044C46044C42066C42022C82E8
:1010B00002AC820324010130820310C60208640CD2
:1010C00004101C020C78000200000000A94F000070
:1010D0000000000000000000001800003400003094
:1010E000000010807108FC7B3C18C70018C2001873
:1010F000C20018C20018C20018C20018C20018C2EC
:101100000018C20018C200B8E7010000000000008B
:10111000000000000000CAE400000000400030C0F1
:101120000030E000102001FE330218100408081AF5
:1011300068F6354C0100447C10FE451240441240D4
:101140007C12404412C04512787C1246441240443E
:101150001240441060441060741C602408000000B9
:10116000C8EB000000000000800100000600000C39
:1011700000000800001800001800001800002C00F3
:1011800000240000240000460000420000C100804E
:10119000810180000140000360000630001C08004F
:1011A00078040010020000000000C3DC0000000012
:1011B0000400001800001800F8FF3F0802100C0C93
:1011C0000904890100C90020310C101919180511F2
:1011D00080031170FF010E0000000800001800607D
:1011E000080C200804200804200804F0FF07000071
:1011F00004000000C2EB000000000000000008FE38
:10120000FF1F20000830300810300810100C10109C
:101210000CF811049811049C11049CF93F9A1120B8
:1012200098012098012098FF3FF80130980110980C
:10123000001018001100001E00000C000000B4EDAA
:101240000000000000000020027020063020061080
:101250002006F0FF3F182006082006FC212624FE69
:101260007F22000020000020F81FFE1B0820180825
:1012700020F80F201808201808A0180860F80F2080
:101280001808000800000000CEF300000000000075
:1012900000FC0F300C08200C08600C08000C080043
:1012A000FC0F000C007E000020FE1F2040002040AC
:1012B0000020400020FF3F20C200206101A020014B
:1012C000603002601804200C1C00067880010000C9
:1012D0000000B8F4000000000000000000FCFD1F4A
:1012E0008C01008CF0074C10044C10042CF0072CDF
:1012F00010042C00004CFE3FCC14128C24128C24C1
:10130000118C25118CFD1FFC84104C84100C841052
:101310000C84100C841C040608000000D7D40000C4
:1013200000000C00000C00000400000400E0FF0FAF
:10133000200004200004200004200004E0FF072017
:101340000004200004200004200004E0FF07200027
:1013500004200004200004200004E0FF0720000413
:10136000200004000000BFD8000000200000604002
:101370000020800120800020FC3FFE053020261048
:1013800020600320300C201918A004107002102EC9
:10139000FC0F26C00020C00020C00020C00020C0DC
:1013A0000020C00020FF3F3C0000100000000000B3
:1013B000D6C6000000800010800110800010900050
:1013C00010980813F81F11880011840011FE3F11B6
:1013D000800011800011F81F1188101188101188E9
:1013E0001011881011881010881E108808108000B5
:1013F0001080001E800008000000B3A10000000063
:10140000000020000060FE0720000220000120C034
:1014100000206000FE330020180020FE3F206032D4
:10142000202032203033201011209B11E08C10300E
:10143000C4101E631084301800881800060F0001C5
:1014400004000000CFB500000000000400E00FE041
:101450001F00003800000C0000020280010360FF42
:1014600000C0610000180000060280010C70FF1B24
:10147000E0301800310000B101803106C0300C208E
:101480003018183330041C10000800000000C6A4F7
:10149000000000001000003000003000003000E0CC
:1014A000FF1F20301820300820300420300020306A
:1014B00000A0FF072002062002032004012084016F
:1014C00030C80010700010200008D800088C078475
:1014D000037E720010000000CDD00000002000004C
:1014E00060000E60C003607E00604100FE4300604B
:1014F0004000604000604000604230E0F17F784E84
:10150000006E40006040006040006040206040206D
:1015100060402060402060406038C03F1000000004
:101520000000B9DC00000020000060C00020400086
:10153000F0EF3F9020018818028C1902F8FF3F0855
:1015400000300C0008C4FF03400001400001C0FF50
:1015500001400001400002C0FF03400002400002C1
:10156000C0FF03400002400000000000C8A10000CE
:1015700000000000000800FE0F0010020010FA1F1B
:10158000102208F0230810220810420C1042041008
:101590004204F04306108202108202109A01900762
:1015A000017E82020C420600621C003278000A10A2
:1015B000000600000000CFFB000000008000108249
:1015C0000030843860880860980400990202810223
:1015D0000CFD1F98040898040880FC0F4004084084
:1015E000040840040820FC0F3C04083004083004C0
:1015F0000830040830040830040F20040400000000
:10160000D6B5000000402000C06000406000E0FF50
:101610001F20600030600010FE0F30040438040406
:1016200038040434FC0732040430040430FC07306E
:10163000040430040430040430FC07300404300493
:1016400024F0FF7F300000000000BBD60000002027
:10165000100020300020300020300020FF3F6010BC
:1016600000A09001A4990124880126A81120AC3182
:1016700020A409209405209A0220C202204102A041
:101680006004A0200C6010182008382006301001DB
:1016900000000000B8B4000000800000800100C01D
:1016A000FF1F40000020000090FF07880002840018
:1016B0000280FF0380000280000280FF0700030217
:1016C00000FF03800203C0840120CC0010780008D2
:1016D000380000C601C0017F3C0018000000B3F6CE
:1016E0000000000000000008000018000018003092
:1016F000180C30180430180430180430180430184E
:1017000004F0FF0700180C0018000018003018182B
:10171000101808101808101808101808101808F8E1
:10172000FF0F000008000000B3A700000000000049
:10173000000010F0FF3F30000030000030000030AB
:1017400000003000003000003000003000003000A9
:101750000030000010000010000010000010000019
:10176000080000080000040000040000020000005F
:101770000000B7D600000000000000400000430059
:10178000004300804100808000C0800140000120B3
:10179000000610000DE8FF7B06041100060100069C
:1017A000010002010002010001010001018080012D
:1017B00040800130F000084000000000CAC700006F
:1017C0000000000080FF0180000380000180FF0115
:1017D00080000180000180000180FF018000010085
:1017E0000010FCFF3F401000C01000C0100040F08F
:1017F0000FE01000201100301200101C0008F03F14
:1018000006001E000000B7F100000000000000000C
:1018100010FCFF3F001800000C00001E0000DA0062
:10182000801903C0180C601818181830041820000C
:101830000000C0FF074000064000064000064000D0
:1018400006400006C0FF07400006400002000000FE
:10185000BFAA000000000000000008FCFF1F00817C
:1018600000008100008100008100008100008100F3
:10187000008110FEFF3F0081000081000081008098
:101880008100808000808000408000608000308087
:1018900000088000048000000000C6F40000000082
:1018A0000800001000003000E0FF0F20000C2000B6
:1018B0000C20000C20000CE0FF0F20000C2000008A
:1018C00020000020FF0F20010C20010C30010C1023
:1018D000010C10010C18010C08FF0F04010C02018F
:1018E00004000000C6F8000000400000C0000040F6
:1018F0000008E0FF1F200000300002D0FF070800B2
:1019000000040000F2FF03000001000001000001DC
:10191000000001000001000003000023000022007D
:10192000002600002C000038000030000000BCC67B
:1019300000000000000010400060C00040C00040F7
:10194000C00000C00000C00000C0007EC02020FF1A
:101950003F20C00020C00020C00020C00020C000E8
:1019600020C20020C100A0C000E0C00060C0000094
:10197000C00000C000000000C8B700000000000068
:10198000006000002000FEF30F2010042008023049
:101990000C0110FC3F101A11F8191118F91F141935
:1019A0001114191112191110F91F100911F0091150
:1019B00010091110041118041300021D0001000089
:1019C0000000C8CF00000000000000400020C00060
:1019D00060400040400040400040C00000C0002087
:1019E000C0007EC00020E00020E000202001202078
:1019F00001203401201202201906A0080460040C02
:101A0000600238A00130400000000000CFE000007C
:101A100000400000C0001040F03F40201040201067
:101A2000402410FC2F1040201040E01FE0201060E8
:101A3000231060261050241050E01F48201048202A
:101A40001044201042201040201040E01F40201081
:101A5000403000000000BEF8000000004000C0C0A0
:101A60000060600020E00F30220C101604081902FC
:101A7000840902FEFC3F441A11401811201811106D
:101A8000181188FB1F7C18100C1800001800001992
:101A900020E018201C182004186000F03F0000000F
:101AA000B6D40000000000000000000000040000A8
:101AB00004FC070400020400020400FF3F080104C4
:101AC000100104A01104C03004C06004C0600460B0
:101AD000210420030410030408020408020406621F
:101AE00004008007000002000000D6D000000000C3
:101AF0000800001800000800000800000800F8FFB7
:101B00001F1808181808181808181808181808189E
:101B1000180818F8FF1F180818080808000800001F
:101B20000800000800000800001800001800000865
:101B300000000000D3D0000000000800000C0000EE
:101B40000C10FEFF3F00060000030000010080FFB4
:101B500007800002C00002A0000290FF038800027C
:101B600084000280000280FF038000028000028067
:101B70000002800002808003800001000000CEDEB1
:101B8000000000000000000008F8FF1F000800002F
:101B90000800000800000800000800000810FEFF10
:101BA0003F002C00002C0000240000240000260030
:101BB000002220002320802120C020202020701817
:101BC000E03F060000000000C7EB000000004000FE
:101BD00010C00030C01030FF3F20C00800FC1F00C4
:101BE000C00000C020BEFF3F30000030000030FCCD
:101BF0000F300C0830FC0F300C08300D08B0FC0F13
:101C0000700C08700C08300C08000C0F0004040065
:101C10000000B6CC00000020000030001010FC3F97
:101C2000100000F8030048000044F01F4410084072
:101C30001008401208FE170840F00F6010086008F6
:101C400000A01004202104202304102202102202EC
:101C500008202204FE3F000000000000BDD3000069
:101C60000020200020C00020800020FE1F2009024C
:101C7000FE130620300220200120FF3F204000A05C
:101C800060007020003C2020A6FF7F201006200866
:101C90000220080320700120800324601C381830C3
:101CA000100720000000B4AB00000080400080C19D
:101CB00000C04000C0400040400060FE1F206000A7
:101CC000702000702000682000E8FF3F6430006250
:101CD000300060100860F81F60100C6000066000A3
:101CE0000260100160E000608003600006200004D4
:101CF000B8D0000000004002004004004004F0FFA3
:101D00003F10400010C008D0FF1810800C10800455
:101D1000909F0690900388902388DF2684702C047F
:101D200010380208609018049030189800118C0048
:101D30001184000180FF01000000C6F700000000D0
:101D40000000F0E30F30660C30660C30660C306635
:101D50000CF0E70F30FE0D100C13FCFF3F004200AB
:101D600000810080000160000EF0E73F2C260C206F
:101D7000260C20260C20260CE0E70F20260C102233
:101D800004000000C0E000000000180040100680C1
:101D90001102801101009100FCFF3F00140000F2CD
:101DA0000000110780101C601818180010060800A9
:101DB000000820FEFF3F002C0000440000C6000089
:101DC000830180010E70003C0C0010000000D0CD9B
:101DD000000000001010F83F1040041140041140B2
:101DE0000411402411FC7F114004114004116004CF
:101DF0001120041030041810041E080808041800EC
:101E0000001804F0FF0F001800001800001810FC64
:101E1000FF3F000000000000C4A3000000201002EB
:101E200020300220300220FF3F203102FE3102200C
:101E3000F81F300808700808B0F80FB8090828091A
:101E40000828F80F24C80824400022FF3F20400142
:101E500020600120200220100C200C7820030000BC
:101E60000000C4E200000020000060000020240CFC
:101E7000205C0C20CC0CFE8F0C208C0C208C0C20B9
:101E80000C0C200F0CA00C0C600C0C3C0C0C2E8CC1
:101E900004204C04202C04201C0E201C1A20083383
:101EA0002080213C4060303000000C00B2B90000BE
:101EB00000208000408000C08000808000FC8700FF
:101EC000008200008300008100808403C08C04E055
:101ED0008218F08138C88230C48420C28C00C0804F
:101EE00000C08000C08000C08000C08000C08000B2
:101EF000408000000000B3A5000000404000C0C0CA
:101F00000860421820440C204C043048023048013C
:101F100038FF3F380110B4011034FE0F320000309A
:101F20000000300000B0FF3F30200030300030189B
:101F300002300C0C30021F30FE183002000000008E
:101F4000C1A60000000008000018000018000018DA
:101F500000001800001800F8FF3F000810000818E3
:101F6000000818000C1800041800041800061800D7
:101F70000208000108800108C0000C60200C30C07D
:101F800007080007060001000000C6AB0000004083
:101F90002000C0C00040800060FE1F20041020040C
:101FA0001030FC1F30041028060028060024FE3FD5
:101FB000224A24204A24204A2420FA3F204924206F
:101FC0004924204924A048226048342008382000B1
:101FD00000000000D2C60000000000000080008069
:101FE000C300F8400040E01F40201840500C40CA99
:101FF00006FE870360800160C003E0B00170CF3F40
:1020000050623048321048480844840C42800640F0
:10201000000140C000403800400700000000CEBB77
:10202000000000401000C020004060006040002020
:10203000401020FF3F30000070000428000C2804EE
:10204000062408062408022218022018022018017B
:10205000201001200001208000208020A0FF7F2090
:102060000000200000000000000000000000000050
:102070000000000000000000000000000000000060
:102080000000000000000000000000000000000050
:102090000000000000000000000000000000000040
:1020A0000000000000000000000000000000000030
:1020B0000000C001C001C001C001C001C001C001D9
:1020C0008000800080008000800080008000000090
:1020D0000000000000008001C003C0038001000078
:1020E0000000000000000000000000000000E01CF4
:1020F000E01CF01E700E3807180308018400000071
:1021000000000000000000000000000000000000CF
:1021100000000000000000000000000000000000BF
:1021200000000000000000000000000000000000AF
:102130000000000020102010201020102010FE7F32
:10214000FE7F10081008100810081008100810086A
:10215000FE7FFE7F08040804080408040804000049
:10216000000000000000000000000000000000006F
:1021700000010001C00760191031183118391839F1
:1021800038017001E001C0038007000F001D003915
:1021900000311C311C310C310C11180DE00700010D
:1021A000000100010000000000000000000000002D
:1021B000000000001C1036186308630C63046304FD
:1021C000630263026301361D9C3780228063406393
:1021D000406320632063306310221836081C00001F
:1021E00000000000000000000000000000000000EF
:1021F00000000000F00098018C018C018C018C0122
:102200008C00CC007800183E1C08360832086304A5
:102210006304C304C303834306438E26781C000073
:1022200000000000000000000000000000001C0092
:102230003C003C003000300010000C0006000000A4
:10224000000000000000000000000000000000008E
:10225000000000000000000000000000000000007E
:10226000000000000000000000000000000000402E
:10227000002000100008000C00040006000300030A
:1022800000038001800180018001800180018001C4
:10229000800100030003000300060006000C000894
:1022A00000100020004000000000000000000200BC
:1022B000040008001000300020006000C000C000D2
:1022C000C0008001800180018001800180018001C7
:1022D0008001C000C000C00060006000300010003D
:1022E00008000400020000000000000000000000E0
:1022F00000000000000000000001800380030001D6
:102300001C713C79783DC0070001C007783D3C79DD
:102310001C710001800380038001000000000000A8
:1023200000000000000000000000000000000000AD
:10233000000000000000000000000001000100019A
:102340000001000100010001FC7F0001000100010B
:102350000001000100010001000000000000000079
:10236000000000000000000000000000000000006D
:10237000000000000000000000000000000000005D
:10238000000000000000000000000000000000004D
:1023900000000000000000001C003C003C00300079
:1023A000300010000C0006000000000000000000DB
:1023B000000000000000000000000000000000001D
:1023C0000000000000000000FE7F00000000000090
:1023D00000000000000000000000000000000000FD
:1023E00000000000000000000000000000000000ED
:1023F00000000000000000000000000000000000DD
:1024000000000000000000000000000000000000CC
:1024100000000000000018003C003C001800000014
:10242000000000000000000000000000000000406C
:10243000006000200030001000180008000C0004AC
:10244000000600020003000180018000C00040007F
:102450006000200030001000180008000C0004008C
:102460000600020000000000000000000000000064
:1024700000000000C007600C301818301830182019
:102480000C600C600C600C600C600C600C600C60EC
:102490000C601820183018303018600CC00700008D
:1024A000000000000000000000000000000000002C
:1024B0000000000000018001F8018001800180011E
:1024C0008001800180018001800180018001800104
:1024D00080018001800180018001C003F81F00009D
:1024E00000000000000000000000000000000000EC
:1024F00000000000E007101C0818043004300C3005
:102500000C300030001800080004000200018000B8
:1025100040002020102008200430FC1FFC1F000079
:1025200000000000000000000000000000000000AB
:1025300000000000E003180E0C0C0C180C180C180E
:102540000018000C0006C003000E00180010003038
:1025500000300C300C300C100C18180CE00300008C
:10256000000000000000000000000000000000006B
:1025700000000000000C000E000E000F800E800E08
:10258000400E600E200E100E100E080E040E040EEB
:10259000FE7F000E000E000E000E000E000EC07F2B
:1025A000000000000000000000000000000000002B
:1025B00000000000F03FF03F100010001000080085
:1025C0000800C807280C1818081000300030003028
:1025D00000300C300C3004180418080CF003000014
:1025E00000000000000000000000000000000000EB
:1025F00000000000800FC0102030103018001800BC
:1026000008000C008C0F6C183C301C600C600C60D7
:102610000C600C601860182030306018C007000093
:1026200000000000000000000000000000000000AA
:1026300000000000F83FF83F1C100C0804080404D8
:10264000000400020002000100010001800080007F
:102650008000C000C000C000C000C000C00000007A
:10266000000000000000000000000000000000006A
:1026700000000000E007300C18180C300C300C3053
:102680001C3038187008E007B007180E0C1C06380C
:1026900006300630063006300C18180CE003000037
:1026A000000000000000000000000000000000002A
:1026B00000000000E00318040C080C180610063097
:1026C00006300630063006380C3C1836F031003043
:1026D0000018001800180C0C0C060C03F001000088
:1026E00000000000000000000000000000000000EA
:1026F00000000000000000000000000000000000DA
:1027000000008001C003C003800100000000000041
:102710000000000000008001C003C0038001000031
:1027200000000000000000000000000000000000A9
:102730000000000000000000000000000000000099
:102740000000C000C0000000000000000000000009
:1027500000000000000000000000C000C000800079
:102760008000400040000000000000000000000069
:102770000000002000100008000400060003800193
:10278000C0006000300018000C001800300060002D
:10279000C0008001000300060004000800100020B3
:1027A0000000000000000000000000000000000029
:1027B0000000000000000000000000000000000019
:1027C0000000FE7F00000000000000000000FE7F0F
:1027D00000000000000000000000000000000000F9
:1027E00000000000000000000000000000000000E9
:1027F000000004000800100020006000C0008001FC
:1028000000030006000C001800300018000C000641
:1028100000038001C00060002000100008000400D8
:1028200000000000000000000000000000000000A8
:102830000000C0073018083008600C601C601C6085
:102840001C600030001C0006000180008000800039
:102850008000000000008001C003C0038001000070
:102860000000000000000000000000000000000068
:1028700000000000C0076018103018200C2F8C4D8D
:10288000864CC64CC64C664C664466446626662634
:102890006615CC1C0C40082018303018C00700000A
:1028A0000000000000000000000000000000000028
:1028B00000000001C001C001C0014001600320030D
:1028C000200320033006100610061006F80F080C2F
:1028D000080C080C0C0C0418041806181F7C0000C7
:1028E00000000000000000000000000000000000E8
:1028F00000000000FE07181C183818301830183077
:1029000018301818180CF807181818301820186004
:10291000186018601860186018301818FE0F000052
:1029200000000000000000000000000000000000A7
:1029300000000000C0276038103018200C400C4008
:102940000400060006000600060006000600060059
:1029500006000C400C400C2018303018C007000056
:102960000000000000000000000000000000000067
:1029700000000000FE03180E181818301830183028
:102980001860186018601860186018601860186087
:1029900018601830183018101818180EFE030000B0
:1029A0000000000000000000000000000000000027
:1029B00000000000FE3F1830182018601840180072
:1029C00018081808180CF80F180C18081808180020
:1029D000180018001840184018201830FE3F00005A
:1029E00000000000000000000000000000000000E7
:1029F00000000000FE7F1870184018C018801800F2
:102A0000181018101818F81F181818101810180097
:102A10001800180018001800180018007E000000A8
:102A200000000000000000000000000000000000A6
:102A300000000000C013701C101018100C200C2097
:102A400004000600060006000600060006FC06302C
:102A500006300C300C30183018303008C007000039
:102A60000000000000000000000000000000000066
:102A7000000000003F7E0C180C180C180C180C18E5
:102A80000C180C180C180C18FC1F0C180C180C182F
:102A90000C180C180C180C180C180C183F7E0000A1
:102AA0000000000000000000000000000000000026
:102AB00000000000F81F800180018001800180017A
:102AC00080018001800180018001800180018001FE
:102AD000800180018001800180018001F81F0000D9
:102AE00000000000000000000000000000000000E6
:102AF00000000000E07F0006000600060006000659
:102B00000006000600060006000600060006000695
:102B10000006000600060006000600060006000685
:102B20000E060E038E01FC000000000000000000F5
:102B3000000000007E7C18181808180418061802F7
:102B4000180198019801D801B8033803180718062E
:102B5000180E180C181C1818183018307EFC0000BD
:102B60000000000000000000000000000000000065
:102B7000000000007E00180018001800180018005F
:102B80001800180018001800180018001800180085
:102B9000180018001840184018201830FE3F000098
:102BA0000000000000000000000000000000000025
:102BB000000000001FF81C381C381C381C3C343442
:102BC00034343434343674326432643264326431CE
:102BD000C431C431C431C430C43084309FFC0000DF
:102BE00000000000000000000000000000000000E5
:102BF000000000001F7C1C103C10341034107410B6
:102C00006410E410C410C411841184130413041755
:102C10000416041E041C041C041C04181F180000C5
:102C200000000000000000000000000000000000A4
:102C300000000000C003300C181808100C300C30D5
:102C40000660066006600660066006600660066054
:102C500006600C200C3008101818300CC00300005F
:102C60000000000000000000000000000000000064
:102C700000000000FE0F1818183018601860186067
:102C80001860186018301818F80F1800180018008D
:102C90001800180018001800180018007E00000026
:102CA0000000000000000000000000000000000024
:102CB00000000000C003300C18180C100C300C2061
:102CC00006600660066006600660066006600660D4
:102CD0000660E4612C331C321816300EC007004C1D
:102CE000007C003800000000000000000000000030
:102CF00000000000FE07181C183818301830183073
:102D000018301818180CF807980318031807180635
:102D10001806180E180C180C181C18187E780000CD
:102D200000000000000000000000000000000000A3
:102D300000000000E027303818300C200C200C0078
:102D40000C0018007800E003800F001E00380070AF
:102D5000006004600460086018303818C80F000074
:102D60000000000000000000000000000000000063
:102D700000000000FC3F8C2184618241824180017F
:102D8000800180018001800180018001800180013B
:102D9000800180018001800180018001E007000046
:102DA0000000000000000000000000000000000023
:102DB000000000003F7C0C100C100C100C100C10CC
:102DC0000C100C100C100C100C100C100C100C1023
:102DD0000C100C100C100C1008083804E003000054
:102DE00000000000000000000000000000000000E3
:102DF000000000003EF81820182018203010301075
:102E000030103010600860086008E00CC004C00496
:102E1000C0048003800380038003000100010000E0
:102E200000000000000000000000000000000000A2
:102E300000000000DFF38661862186218C210C21B1
:102E40008C238C138C138C134C1358125816580E59
:102E5000380E380E380E300C100410041004000028
:102E60000000000000000000000000000000000062
:102E7000000000007E3E180838083004300470025C
:102E80006002E001C001C0018001800340034007EF
:102E900020062006100C100C081808183E7C0000B4
:102EA0000000000000000000000000000000000022
:102EB000000000007E7C1C10181018083008300C30
:102EC000700460046002C002C002C0018001800181
:102ED000800180018001800180018001E007000005
:102EE00000000000000000000000000000000000E2
:102EF00000000000F83F18180818040C040E000623
:102F00000007000380038001C001C000E0006000F2
:102F100070003000382018201C100C18FE1F000014
:102F20000000000000000000000000000000C03FA2
:102F30004000400040004000400040004000400091
:102F40004000400040004000400040004000400081
:102F50004000400040004000400040004000400071
:102F60004000C03F00000000000000000000000022
:102F70000000080018001800100030002000600059
:102F800060004000C000800080018001000100035B
:102F90000002000600060004000C000800180018DB
:102FA0000010003000200000000000000000FC03C2
:102FB0000002000200020002000200020002000201
:102FC00000020002000200020002000200020002F1
:102FD00000020002000200020002000200020002E1
:102FE0000002FC0300000000000000000000800759
:102FF000C0062008101000000000000000000000C3
:1030000000000000000000000000000000000000C0
:1030100000000000000000000000000000000000B0
:1030200000000000000000000000000000000000A0
:103030000000000000000000000000000000000090
:103040000000000000000000000000000000000080
:103050000000000000000000000000000000000070
:10306000000000000000FFFF0000000000007800EA
:10307000C00000010000000000000000000000008F
:103080000000000000000000000000000000000040
:103090000000000000000000000000000000000030
:1030A0000000000000000000000000000000000020
:1030B0000000000000000000000000000000000010
:1030C0000000F00318060C0C0C0C000C800F700CA8
:1030D0001C0C0C0C060C060C064C0C4FF8380000AF
:1030E00000000000000000000000000000000000E0
:1030F000000010001E00180018001800180018002A
:103100001800180FD8183830386018601860186028
:10311000186018601860182038307818C807000048
:10312000000000000000000000000000000000009F
:10313000000000000000000000000000000000008F
:103140000000C007700C181818180C180C000C00A0
:103150000C000C000C20182018103008C0070000CC
:10316000000000000000000000000000000000005F
:1031700000000010001E00180018001800180018A9
:103180000018E01B301C181818180C180C180C1814
:103190000C180C180C180818181C307AE0090000DC
:1031A000000000000000000000000000000000001F
:1031B000000000000000000000000000000000000F
:1031C0000000C007300C181808100C300C30FC3F01
:1031D0000C000C000C00182018107018C00700001C
:1031E00000000000000000000000000000000000DF
:1031F00000000000003E80C380C0C0C0C000C0000E
:10320000C000FC1FC000C000C000C000C000C00063
:10321000C000C000C000C000C000C000F80F000027
:10322000000000000000000000000000000000009E
:10323000000000000000000000000000000000008E
:103240000000C077306C10181818181818181018CB
:10325000300CF00718001800F00FF03F08700C60F9
:103260000C600C603838E00F000000000000000027
:10327000000010001E0018001800180018001800A8
:103280001800980FD8183830183018301830183007
:103290001830183018301830183018307EFC000004
:1032A000000000000000000000000000000000001E
:1032B0000000000080038003800300000000000085
:1032C0000001F801800180018001800180018001FE
:1032D000800180018001800180018001F81F0000D1
:1032E00000000000000000000000000000000000DE
:1032F0000000000000380038003800000000000026
:103300000010801F0018001800180018001800187E
:1033100000180018001800180018001800180018ED
:103320000018180C1806F003000000000000000050
:10333000000010001E0018001800180018001800E7
:103340001800183E180C1806180318019801D80127
:10335000380318071806180C181C18187E7C000073
:10336000000000000000000000000000000000005D
:1033700000000001F80180018001800180018001CE
:103380008001800180018001800180018001800135
:10339000800180018001800180018001F81F000010
:1033A000000000000000000000000000000000001D
:1033B000000000000000000000000000000000000D
:1033C0000800EE1C9C338C318C318C318C318C316B
:1033D0008C318C318C318C318C318C31DE7B000026
:1033E00000000000000000000000000000000000DD
:1033F00000000000000000000000000000000000CD
:1034000010001E0FD8183830183018301830183007
:103410001830183018301830183018307EFC000082
:10342000000000000000000000000000000000009C
:10343000000000000000000000000000000000008C
:103440000000C007701C103018300C600C600C605D
:103450000C600C600C60183018303018C007000089
:10346000000000000000000000000000000000005C
:10347000000000000000000000000000000000004C
:1034800010009E0F58183830182018601860186007
:1034900018601860186018303830781898071800CD
:1034A0001800180018007E00000000000000000056
:1034B000000000000000000000000000000000000C
:1034C0000000C023303C183818300C300C300C3061
:1034D0000C300C300C3008301838303CE033003001
:1034E00000300030003000FC000000000000000050
:1034F00000000000000000000000000000000000CC
:1035000060007E3C60666061E000E000600060009A
:10351000600060006000600060006000FE07000066
:10352000000000000000000000000000000000009B
:10353000000000000000000000000000000000008B
:103540000000E02730381830182018007000E00321
:10355000800F001C043004300C301C18EC0F0000ED
:10356000000000000000000000000000000000005B
:103570000000000000000000800080008000C0000B
:10358000E000FC1FC000C000C000C000C000C000C0
:10359000C000C000C000C020C0208011000F00008B
:1035A000000000000000000000000000000000001B
:1035B000000000000000000000000000000000000B
:1035C00010201E3C183018301830183018301830C1
:1035D0001830183018301830183830F4E013000064
:1035E00000000000000000000000000000000000DB
:1035F00000000000000000000000000000000000CB
:1036000000007E3C18181808380830043004700296
:1036100060026002E001C001C001C0008000000043
:10362000000000000000000000000000000000009A
:10363000000000000000000000000000000000008A
:103640000000DFF78E630C238C238C2398139813D0
:1036500058165816700E700E700E200420040000CC
:10366000000000000000000000000000000000005A
:10367000000000000000000000000000000000004A
:103680000000FC3E70087004E004C002C00180032A
:10369000800340076006200C100C18183E7E0000C6
:1036A000000000000000000000000000000000001A
:1036B000000000000000000000000000000000000A
:1036C00000007E7C181818083008300830046004A8
:1036D0006004C002C002C00280018001800180003D
:1036E000800080004C003C00000000000000000052
:1036F00000000000000000000000000000000000CA
:103700000000FC1F0C0C040E040600038003800163
:10371000C000E0007020302038301C18FC1F000072
:103720000000000000000000000000000000003069
:103730000008000400040004000400040004000465
:1037400000040004000400028001000200040004E0
:103750000004000400040004000400040004000449
:103760000004000800300000000100010001000119
:103770000001000100010001000100010001000141
:103780000001000100010001000100010001000131
:103790000001000100010001000100010001000121
:1037A00000010001000100010000000000000C0009
:1037B0001000200020002000200020002000200019
:1037C0002000200020004000800140002000200058
:1037D00020002000200020002000200020002000E9
:1037E000200010000C00000000003800C4008640DB
:1037F00002610022001C0000000000000000000028
:1038000000000000000000000000000000000000B8
:1038100000000000000000000000000000000000A8
:103820000000000000000000000000000000000098
:103830000000000000000000000000000000000088
:103840000000000000000000000000000000000078
:103850000000000000000000000000000000000068
:10386000E000E000E000E000E00040004000400038
:10387000400040004000000000000000E000E000C8
:10388000E00000000000000000000000600660068C
:103890003003980188004400000000000000000090
:1038A0000000000000000000000000000000000018
:1038B0000000000000000000000000000000000008
:1038C00000000802080208020802FE07FE070802BC
:1038D000080204010401FE07FE07040104010401BB
:1038E0000401000000000000000000000000400093
:1038F0004000F00158034C034C034C00580070008A
:10390000E000C001C00140034C034C034C034801DC
:10391000F000400040000000000000000000000037
:1039200000000E030A01110191009100D100510025
:10393000FA03AE026004500450045804480488029C
:1039400084030000000000000000000000000000F0
:10395000000038006400640064006400A4031C01DB
:103960000C011A019200B300E3006300C300A60437
:103970001C03000000000000000000000C001C0000
:103980001000100008000600000000000000000009
:103990000000000000000000000000000000000027
:1039A0000000000000000000000000000004000211
:1039B000000180018000C000C00060006000600065
:1039C0006000600060006000C000C00080008001F6
:1039D00000010002000400000000000002000400DA
:1039E0000800180010003000300060006000600027
:1039F00060006000600060003000300010001800BF
:103A000008000400020000000000000000000000A8
:103A1000000000004000400040004E0E5C07F00136
:103A2000F0015C074E0E4000400040000000000026
:103A30000000000000000000000000000000000086
:103A40000000000000004000400040004000400036
:103A5000FE0F400040004000400040000000000019
:103A60000000000000000000000000000000000056
:103A70000000000000000000000000000000000046
:103A80000000000000000000000000000C001C000E
:103A900010001000080006000000000000000000F8
:103AA0000000000000000000000000000000000016
:103AB000FE07000000000000000000000000000001
:103AC00000000000000000000000000000000000F6
:103AD00000000000000000000000000000000000E6
:103AE0000000000000000000000000001C001C009E
:103AF0001C000000000000000000000000040006A0
:103B0000000200030001000180008000400040002E
:103B100060002000200010001000080008000C00C9
:103B20000400060002000000000000000000000089
:103B30000000F00098010C030C03060606060606BA
:103B4000060606060606060606060C030C03980182
:103B5000F000000000000000000000000000000075
:103B60000000400060007C006000600060006000B9
:103B70006000600060006000600060006000600045
:103B8000FC03000000000000000000000000000036
:103B90000000F8008401020306030603000380010D
:103BA0008001C00020001000080204020202FE038F
:103BB000FE03000000000000000000000000000004
:103BC00000007800C4008601860186018001C000E3
:103BD0007000800100010003060306030603840150
:103BE000F8000000000000000000000000000000DD
:103BF00000018001C001C001A00190019001880175
:103C0000840184018201FE0780018001800180011E
:103C1000E0070000000000000000000000000000BD
:103C20000000FC03FC030400040004000400F40092
:103C30008C010403000300030603060382018401D0
:103C4000F80000000000000000000000000000007C
:103C50000000E00118030C030C0004000600E6015C
:103C600016030E0606060606060604060C021803D0
:103C7000F000000000000000000000000000000054
:103C80000000F807FC070C02040104010001800099
:103C90008000400040004000600060006000600064
:103CA00060000000000000000000000000000000B4
:103CB0000000F8010C030606060606060E023C0389
:103CC000F000CC01040306060606060606060C03F1
:103CD000F0010000000000000000000000000000F3
:103CE0000000F0000C010C0306020606060606069C
:103CF00006078C0678060006000300030C018C0101
:103D0000780000000000000000000000000000003B
:103D100000000000000000000000E000E000E00003
:103D2000000000000000000000000000E000E000D3
:103D3000E0000000000000000000000000000000A3
:103D400000000000000000000000000060006000B3
:103D50000000000000000000000000000000600003
:103D60006000400020000000000000000000000093
:103D70000004000200018000400020001000080044
:103D80000400080010002000400080000001000234
:103D9000000400000000000000000000000000001F
:103DA000000000000000000000000000FE0700000E
:103DB000000000000000FE070000000000000000FE
:103DC00000000000000000000000000000000000F3
:103DD00004000800100020004000800000010002E4
:103DE00000040002000180004000200010000800D4
:103DF00004000000000000000000000000000000BF
:103E0000F0010C0302060206060606060003800106
:103E10006000200020002000000000007000700002
:103E20007000000000000000000000000000000022
:103E30000000E00138060804CC0A640B26092609B4
:103E4000160916099609960566030C080C04180253
:103E5000E001000000000000000000000000000081
:103E60000000600060007000D000D000C800880131
:103E700088018801F801040304030403040606060C
:103E80000F0F000000000000000000000000000014
:103E90000000FF00860106030603060306038601F1
:103EA000FE000603060206060606060606060603CA
:103EB000FF01000000000000000000000000000002
:103EC0000000E00718060C040C04040006000600BD
:103ED000060006000600060006040C040C02180189
:103EE000F0000000000000000000000000000000E2
:103EF00000007F0086010603060306060606060686
:103F00000606060606060606060606030603C6019C
:103F10007F00000000000000000000000000000022
:103F20000000FF0306020604060006008600860065
:103F3000FE0086008600060006000604060406024F
:103F4000FF0300000000000000000000000000006F
:103F50000000FF0306030604060406008600860030
:103F6000FE00860086000600060006000600060029
:103F70000F00000000000000000000000000000032
:103F80000000F00218030C020C02040006000600F8
:103F900006000600C60F060306030C030C031803F5
:103FA000F000000000000000000000000000000021
:103FB00000000F0F0606060606060606060606069B
:103FC000FE07060606060606060606060606060698
:103FD0000F0F0000000000000000000000000000C3
:103FE0000000FC0360006000600060006000600092
:103FF00060006000600060006000600060006000C1
:10400000FC030000000000000000000000000000B1
:104010000000F00F8001800180018001800180019B
:104020008001800180018001800180018001800188
:1040300080018601C6007C00000000000000000036
:104040000000CF0706018600460046002600360025
:104050003E006E00E600C600C601860106030607A4
:104060008F0F0000000000000000000000000000B2
:1040700000000F000600060006000600060006000D
:1040800006000600060006000600060406040602F6
:10409000FF0300000000000000000000000000001E
:1040A00000000F0F0E070E070E079A069A069A06D3
:1040B0009A065A06720672067206720622062206D0
:1040C000270F0000000000000000000000000000BA
:1040D0000000070E0E040E041A041A0432046204CF
:1040E0006204C204C2048205020702070206020635
:1040F00007040000000000000000000000000000B5
:104100000000F00098010C030C02060606060606E5
:10411000060606060606060606060C020C039801AD
:10412000F00000000000000000000000000000009F
:104130000000FF010603060606060606060606063A
:104140000603FE0106000600060006000600060043
:104150000F00000000000000000000000000000050
:104160000000F00098010C030C0206060606060685
:10417000060606060606060676064C028C0388012D
:10418000F0018007000300000000000000000000B4
:104190000000FF01060306060606060606060603DD
:1041A000FE006600C600C6008601860106030603FF
:1041B0000F0E0000000000000000000000000000E2
:1041C0000000F8040C070604060406000E003C007C
:1041D000F000C003000300060206020606060E03F6
:1041E000F2010000000000000000000000000000DC
:1041F0000000FE0762046108610860006000600062
:1042000060006000600060006000600060006000AE
:10421000F0000000000000000000000000000000AE
:1042200000000F0E06040604060406040604060435
:1042300006040604060406040604060406040C022A
:10424000F801000000000000000000000000000075
:1042500000001F0F0E060C020C020C020C011801CC
:10426000180118011801B000B000B000F0006000A3
:1042700060000000000000000000000000000000DE
:104280000000EF0E6604660466026602E602EC02B7
:10429000EC02DC01DC01DC01DC019C01880088000F
:1042A0008800000000000000000000000000000086
:1042B00000009E070C03180118019800B000700060
:1042C00060006000E000D000D001980188010C037C
:1042D0009E07000000000000000000000000000039
:1042E00000001F0F0E060C020C0118011801B0008F
:1042F000B00070006000600060006000600060005E
:10430000F8010000000000000000000000000000B4
:104310000000FC07040382038001C001C000C0004C
:104320006000600030003000180018041C040C020B
:10433000FE0300000000000000000000E007200075
:10434000200020002000200020002000200020006D
:10435000200020002000200020002000200020005D
:1043600020002000E0070000000000000000000026
:1043700004000800080008001000100020002000C1
:10438000200040004000800080008000000100010B
:10439000000200020002000400000000FC00800097
:1043A000800080008000800080008000800080000D
:1043B00080008000800080008000800080008000FD
:1043C00080008000FC00000000000000E000B00160
:1043D00008020000000000000000000000000000D3
:1043E00000000000000000000000000000000000CD
:1043F00000000000000000000000000000000000BD
:1044000000000000000000000000000000000000AC
:10441000000000000000000000000000000000009C
:10442000000000000000FF0F000000001800600006
:10443000000000000000000000000000000000007C
:10444000000000000000000000000000000000006C
:10445000000000000000000000000000000000005C
:10446000000000000000000000000000F0010C034C
:104470000C03E00338030C030603060306038E0B4C
:104480007C0F0000000000000000000000000000A1
:1044900008000E000C000C000C000C00CC013C03CA
:1044A0001C060C060C060C060C060C060C021C0363
:1044B000F401000000000000000000000000000007
:1044C000000000000000000000000000F0008C016F
:1044D0008C01860106000600060006020C020C0193
:1044E000F0000000000000000000000000000000DC
:1044F00000028003000300030003000378038C0321
:104500000C030603060306030603060304038C07D5
:104510007801000000000000000000000000000022
:10452000000000000000000000000000E00118038F
:1045300008060C06FC070C000C000C0018043802DE
:10454000E00100000000000000000000000000008A
:104550000000C0036006300630003000FE0330006B
:1045600030003000300030003000300030003000CB
:10457000FC0100000000000000000000000000003E
:10458000000000000000000000000000F00E98098C
:104590000C030C030C039801F8000C007C00F803DA
:1045A000060606060E07F8010000000000000000E5
:1045B00008000E000C000C000C000C00EC011C03A9
:1045C0000C030C030C030C030C030C030C030C0373
:1045D0009E07000000000000000000000000000036
:1045E0000000600060000000000000007C0060002F
:1045F00060006000600060006000600060006000BB
:10460000FC030000000000000000000000000000AB
:10461000000080018001000000000000F001800126
:104620008001800180018001800180018001800182
:1046300080018001CC007C00000000000000000030
:1046400008000E000C000C000C000C00CC038C00C9
:10465000CC004C006C007C00DC00CC008C018C0198
:104660009E070000000000000000000000000000A5
:1046700040007C006000600060006000600060003E
:10468000600060006000600060006000600060002A
:10469000FC0300000000000000000000000000001B
:1046A0000000000000000000000000007707EE0698
:1046B000660666066606660666066606660666069A
:1046C000EF0E0000000000000000000000000000ED
:1046D000000000000000000000000000CE013C03CC
:1046E0000C030C030C030C030C030C030C030C0352
:1046F0009E07000000000000000000000000000015
:10470000000000000000000000000000F000980120
:104710000C03060606060606060606060C030C0330
:10472000F000000000000000000000000000000099
:10473000000000000000000000000000EE011C036B
:104740000C060C060C060C060C060C060C031C03CF
:10475000EC010C000C003E00000000000000000016
:1047600000000000000000000000000078028C0340
:104770000C030603060306030603060304038C0367
:10478000780300030003C0070000000000000000E1
:104790000000000000000000000000009F07580615
:1047A0003800180018001800180018001800180029
:1047B000FF000000000000000000000000000000FA
:1047C000000000000000000000000000F0071806D4
:1047D0000C040C003800F0018003040604060C03EE
:1047E000FC010000000000000000000000000000CC
:1047F000000000002000200030003000FE013000EA
:104800003000300030003000300030003002300224
:10481000E0010000000000000000000000000000B7
:104820000000000000000000000008028E030C03DE
:104830000C030C030C030C030C030C030C039C076C
:1048400078010000000000000000000000000000EF
:104850000000000000000000000000003E0F1C06E9
:1048600018021802300130013001E000E000E000E1
:1048700040000000000000000000000000000000F8
:10488000000000000000000000000000EF0DC60462
:10489000C604E604EC04AC039C039C039C030801DF
:1048A00008010000000000000000000000000000FF
:1048B000000000000000000000000000BE0718011A
:1048C0009801B00070006000E000D00098018803FB
:1048D000DE070000000000000000000000000000F3
:1048E000000000000000000000000000BE071C01E6
:1048F00018011801B000B000B00060006000400076
:104900002000200014001C00000000000000000037
:10491000000000000000000000000000FC03840113
:10492000C401C000E00060007000300438041806C4
:10493000FC030000000000000000000000038001F4
:104940008000800080008000800080008000C00027
:104950002000C00080008000800080008000800077
:104960008000800100030000400040004000400043
:104970004000400040004000400040004000400037
:104980004000400040004000400040004000400027
:104990004000400040004000000000000C001800F3
:1049A0001000100010001000100010001000300067
:1049B0004000300010001000100010001000100027
:1049C000100018000C00000000001C002400420829
:1049D000820400070000000000000000000000004A
:1049E00000000000000000000000000000000000C7
:1049F00000000000000000002DE9F0439FB0814658
:104A00002698DFF8F48B8DF83B00174600201E46F1
:104A100002910B900FF270144FF0FF350AE017F877
:104A2000011B0298C8470028029000F09A800B985A
:104A3000401C0B90387850B12528F0D1002000217F
:104A4000059006910790089109900A9103E00B9850
:104A50009EE041F0010117F8010F2028F9D023282A
:104A60000DD02B2804D02D2806D030280AD07AE08B
:104A700041F0020189B2EEE741F00401FAE741F0AA
:104A80000801F7E741F01001F4E700200D9009E07C
:104A90000D98404505DA00EB800302EB4302303A03
:104AA0000D927F1C3A78A2F130000A28F0D33A78B0
:104AB0002E2A18BF0C9523D117F8010F2A2807D1E9
:104AC000306830607F1C50F8042B30600C9217E087
:104AD0002D280CBF17F8010B002000220C920AE0D1
:104AE00040B90C9A424505DA02EB820203EB42031D
:104AF000303B0C937F1C3B78A3F130020A2AEFD3A2
:104B0000ADF838102046397800F060FF08B117F88A
:104B1000010B8DF83A009DF83A00682804BF3978F7
:104B2000682903D162208DF83A0007E06C2804BFA1
:104B300038786C2803D171218DF83A107F1C10A8A9
:104B40000490324617F8013B6946484600F060F889
:104B500038B910AA6946484600F0C2F900287FF526
:104B600069AF284614E02A288FD13068306050F8A9
:104B7000042B3060002A0D9204D5524241F004010A
:104B80000D9289B27F1C92E7686A6C747A4C0000BF
:104B90001FB0BDE8F083622820D0682811D06A28B1
:104BA00003D06C2827D0712825D10868C01D20F0BB
:104BB00007000860D0E90023083008601946104655
:104BC0007047002A0A680A60106803D0121D0A6044
:104BD00000B217E0121D0A6080B217E0002A0A68CE
:104BE0000A60106803D0121D0A6040B20AE0121D6C
:104BF0000A60C0B20AE0002A0A680A60106803D09E
:104C0000121D0A60C1177047121D0A60002170470B
:104C10007CB50D4611461C462E69B4F1250200F004
:104C20004D811C3A00F08680121F022A40F28280D9
:104C30000E3A00F00781521F5AD0093A7AD0921EDC
:104C400016D0521E35D0521E022A73D9121F30D0F0
:104C5000521F00F09A80521E4AD0521E00F0E4808B
:104C6000D21E00F0FD80921E42D0D21E40D02BE119
:104C700095F83A206C2A09D06869421C6A610A6872
:104C80000A6052F8043B0A60335427E10A680A605C
:104C900052F8043B0A600021009301914FF0FF326B
:104CA0002A6329466A4600F0A2F9002840F11681DD
:104CB00001E195F83A000122FFF76DFFC5E9000117
:104CC0000023994204DA6869411C69612D210DE0D5
:104CD000288F810704D56869411C69612B2105E093
:104CE000C00722D56869411C6961202131541CE04C
:104CF00095F83A000022FFF74EFFC5E9000195F84C
:104D00003800010711D5D5E900230020834208BFF0
:104D100082420AD044F02000782806D16869302108
:104D20003154401C411C6961345421466869304447
:104D3000E86083E00868C01D20F007000860D0E943
:104D4000002308300860C5E90023D5E90001C80F39
:104D500004D06869411C69612D210DE0288F81070D
:104D600004D56869411C69612B2105E0C00704D5A1
:104D70006869411C69612021315468693044E860E8
:104D80002146284600F040FAA8E005F13A025078A2
:104D900020B14FF0FF340FF6383070E01078622801
:104DA00008D0682824D06A2812D06C282ED0712808
:104DB0000ED02BE00A680A6052F8040B0A6020B992
:104DC0004FF0FF340FF6203059E0E96A017085E0BA
:104DD0000A680A6052F8040B0A6020B94FF0FF34E9
:104DE0000FF604304BE0EA6AD317C0E9002375E000
:104DF0000A680A6052F8040B0A6020B94FF0FF34C9
:104E00000FF6E4203BE0E96A018067E00A680A6087
:104E100052F8040B0A6020B94FF0FF340FF6C82097
:104E20002DE0E96A016059E00A680A6052F8040B53
:104E30000A600021C5E90001EE607821284600F0F3
:104E400035F94BE06C2285F83A200B680B6053F87B
:104E5000042B0B6052BB4FF0FF340FF6C0200EE066
:104E600095F83A206C2AF0D00868086050F8044B96
:104E70000860EC603CB94FF0FF340FF6842000F07E
:104E8000BDFD201A76BD2E6B002E04D5204600F005
:104E9000D7FD044608E032460021204600F0F4FD2C
:104EA000002814BF041B3446AC6117E0294600F00B
:104EB0009EF8002812D54FF0FF3076BD6869411C7E
:104EC00069612521315409E06869411C6961252225
:104ED0003254200002D0481C68617454002076BD12
:104EE0002DE9F0410F4682B00646796B7869BC6ABD
:104EF000091A386A091AB869091A786A091AF86920
:104F0000091A97F838000C1B410790460FD420214E
:104F1000002C8DF800100ADD254601236A4639462B
:104F2000304600F0BDFC00285DD16D1EF5D17B69D7
:104F300042463946304600F0B3FC002853D13020B9
:104F40008DF800003D6A002D09DD01236A463946CF
:104F5000304600F0A5FC002845D16D1EF5D1BB6997
:104F6000FA683946304600F09BFC00283BD13020DF
:104F70008DF800007D6A002D08DD01236A46394660
:104F8000304600F08DFC70BB6D1EF6D1F868B96933
:104F9000FB6942183946304600F082FC18BB3020CD
:104FA0008DF80000BD6A002D08DD01236A463946F0
:104FB000304600F075FCB0B96D1EF6D197F8380098
:104FC00041070DD52021002C8DF8001008DD0123AC
:104FD0006A463946304600F063FC20B9641EF6D1BB
:104FE0000020BDE8F6814FF0FF30BDE8F6812DE9E5
:104FF000F0470E46A4B0356B002D8146904648BF61
:105000006FF0004500F06CFD716B40180FF6281131
:105010008128D1E90023CDE9012328BF4FF0FF30DB
:105020003ED20024002D2FDDD8F8001001AA6846DA
:1050300000F064FD0746002F35D4D8F8000008B909
:105040007F1E30D4BD421FDB7069381881280AD317
:105050000020706303AA31464846FFF741FF040071
:1050600012D40020706103A8D6F814A03A4669460D
:10507000504400F04BFDBA44C6F814A058F8040B95
:10508000002818BFED1BCDD12CB903AA31464846E4
:10509000FFF726FF044614B90020706170632046B4
:1050A00024B0BDE8F0874FF0FF34F8E72DE9FC4B62
:1050B00006468B463469BBF16F0F08BF082505D043
:1050C0004BF02001782914BF0A2510253C27D6E98A
:1050D0000023BBF1640F18BFBBF1690F90469946DE
:1050E00006D100218B4203DAD8F1000869EB4909A7
:1050F0000020814508BF80451FD1306BE8B9082DDD
:105100004ED196F8380001074AD530203B2784F865
:105110003B0045E000280ED596F8380000F014005A
:10512000102808D1726B7069121A306A121A511A5B
:105130000029C8BF3162BDE8F38B01968DF800B03D
:10514000404649462A46EB1700F034FD30327F1EB8
:10515000D2B23A2A04DB9DF80000A0F151018A186E
:10516000E255404649462A46EB1700F023FD8946A2
:1051700000228046914508BF904504D00198C1683F
:10518000E0198142DCD3082D019E09D196F8380040
:10519000010705D5E15D302902D07F1E3020E055A2
:1051A000E019F060C7F13C01306BB1618142B1DAC6
:1051B000411A31624FF6EF70318F01403187BDE8FF
:1051C000F38B2DE9D04306460F4614464FF00008F6
:1051D000DFF8289412E0E00707D542464B463046F8
:1051E000394600F05FFD06460F46404649464246B6
:1051F0004B4600F057FD641080468946002CEAD1EA
:1052000030463946BDE8D0832DE9F04705468A4649
:105210008EB0D5E900894AF02000612802AF0090E5
:105220000AD0286B002802D50620286304E001BFBD
:105230000098672801212963D5E9006460004015C2
:10524000401C0DD121030BD0AAF1610103201A29C2
:10525000A86102D20FF2E86110E00FF2E8610DE000
:1052600060004015401C0ED121030CD1AAF1610150
:1052700003201A29A86116D30FF2D061E86803222F
:1052800000F044FCCAE124F00043B3F5801F26F08F
:10529000000211D20020834208BF8242019005D152
:1052A0003046214612E00FF2A061E7E701AA30463E
:1052B000214600F0C9FD09E0D148D24900EB135066
:1052C000019004EA0102D04930461143C5E90001CA
:1052D000009A612A0DD1E86830210170811CE960D3
:1052E000BAF1610F0CBF7821582141706869801CA8
:1052F0006861D5E90023CDE90C23DDE90C0121F03B
:10530000004100220023994204BF9042002000F097
:105310004D810098612840F09C80286B00284CBF8C
:105320002120401C00904046009E761C4946DDE945
:105330000C8900F0C1FD01988DF8082038BF89F074
:105340000049001F0190002E0DF1090040F33C813F
:105350000746404649460022002300F0C5FD80F084
:1053600032814800400D00F11C0211D0002A0FDDEF
:1053700040F2FF70824205DBA44909F0004001437E
:10538000002012E06FF31E5141EA025140460CE04A
:1053900029F0004128F00000994208BF98420FBF51
:1053A00049461C22494600F0B7FD8046894600F078
:1053B00051FEF61F002E044609DD00F069FE02468C
:1053C0000B464046494600F075FE80468946F81D6A
:1053D000072104E004F00F0200F8012D2411002C35
:1053E00001DD491EF6D5491E5CBF002200F8012DE3
:1053F000F9D5E4E00020194602AA0A4400E05B1E49
:1054000012F80149491E8442F9D00F2804D10DF148
:105410000900425C521C4254002904D50198001D29
:1054200002AF5B1C0190581E0CD43918AAF13A0443
:105430000A783032D2B2392AC8BFA218401E01F809
:105440000129F5D5286B002840F1AF80591E29634A
:10545000ABE04046494600F02FFD019938BF89F086
:10546000004947F297504143694A91FBF2F2019299
:10547000D2F1070204DD40464946FFF7A2FE0AE0EA
:10548000524200206349FFF79CFE02460B4640460D
:10549000494600F081FE804600985F4E6628286BE2
:1054A00006BF019C0A3406242418142CC8BF1424F7
:1054B00030208DF8080089460DF1090000E03846DB
:1054C000002C34DD07464046494600F089FF01467E
:1054D0000A4607F1080304200A27B2FBF7F707EB97
:1054E000870EA2EB4E02303203F8012C0A22B7FBE2
:1054F000F2F202EB820EA7EB4E073037401E03F8A4
:10550000027DE9D1083C002C03F10807D7DD0846ED
:1055100000F07AFF02460B464046494600F0CAFDBD
:105520000022334600F0BEFB80468946CBE70DF1F2
:105530000901401A0DF1090704E00199491E401EB6
:1055400001917F1C39783029F7D0009A662A02D160
:105550000199491C03E0652A0CBF012100212B6B36
:10556000CB189842B8BF431E002B1ED4834204DAE6
:10557000F85C3528A8BF392000DA302019467A1E99
:1055800002EB010800E05B1E18F80199491E8145F5
:10559000F9D0392802D1785C401C7854002904D510
:1055A0000198401C17465B1C0190019800B20090C6
:1055B0001BB23A465146284600F033F82EE0C71D8C
:1055C000002E3FF7C6AE38460DF10901401A00998A
:1055D00003468842C8BF0B46002B0DF109073FF573
:1055E00031AF8342BFF606AF0DF10900C05C07285A
:1055F0007FF700AF0F20FEE6CBCCCC0C00002440A0
:1056000002FCFFFFFFFF0F800000E03F0000F07F83
:10561000A08601000000F03F84D797410EB0BDE89E
:10562000F0872DE9F04F83B006468B4692469946A7
:1056300000F066FAB9F1000F406AD6F830800778BA
:1056400003DC4FF001090FF2083ABDF930504BF07E
:105650002000662808BF6D1C17D0672840F087809F
:1056600015F1040FC0F28980454580F2868096F8D6
:1056700038006D1C010702D4C145B8BFC8462DB221
:10568000B8EB050848BF4FF000082DB2F068B169CB
:10569000002D27DC4A1C30234354B8F1000F03DCF3
:1056A00096F83800010702D5F0688754521C18EBB1
:1056B000050FB8BFC8F100052DB2A8446842C8451F
:1056C000B8BFC146B26170620FFA89F4F461F06844
:1056D000B36922465146184400F018FAA8EB0400BA
:1056E000B062C6E02A469145084418DA4A46514657
:1056F00000F00CFAB0694844B061A5EB0901B8F1BB
:10570000000F716203DC96F838100A0704D5F168BF
:105710000F54F069401CF061C6F82880A9E051469A
:1057200000F0F4F9B0692818B8F1000FA9EB0503EF
:1057300003DC96F838100A0702D5F1680F54401CB4
:10574000B0610FFA83F9C845B8BFC146F068B369C4
:105750000FFA89F422460AEB0501184400F0D6F945
:10576000B0692044B061A8EB0400706281E0BBF135
:10577000610F16D14FF0700B18E0C14504DA96F8AE
:1057800038100A0758BFC846B8F1010848BF4FF0A3
:105790000008BBF1670F14BF4FF0450B4FF0650BCE
:1057A00004E0BBF1410F08BF4FF0500BB169F36843
:1057B000481CB061B8F1000F1AF8012B5A5403DCF1
:1057C00096F838100A0719D5F168431CB3610F54D5
:1057D000B8F1000F12DDA9F101073FB2B845B8BF1B
:1057E0004746F0683FB23A465146184400F08EF9F9
:1057F000B0693818B061A8EB07007062F068B16951
:105800000844002D80F800B003D42B214170811C86
:1058100003E02D2141706D42811C00206A460AE0A0
:105820002B460A2493FBF4F505EB8504A3EB440314
:1058300002F8013B401C2DB2002DF1DC012806DCF2
:105840004BF02002652A04BF302201F8012B48B931
:10585000302001F8010B07E0401E1DF80020303217
:1058600001F8012B0028F7DCF068B2691044091A2E
:10587000F16196F8380000F0140010280DD171691C
:10588000B0694118706A4118F0694118B06A41184E
:10589000706B8142BCBF411A316203B0BDE8F08F2A
:1058A000F8B505460E4617461C46002074B117F899
:1058B000011BB068A847B06030B1F06A401CF062CC
:1058C0000020641EF3D1F2BD4FF0FF30F2BD0000A6
:1058D0007072696E74665F733A20256E2064697316
:1058E000616C6C6F776564007072696E74663A20E3
:1058F00062616420256E20617267756D656E74004B
:105900007072696E74665F733A20626164202573F9
:1059100020617267756D656E740000007072696E4B
:1059200074665F733A2062616420256C7320617233
:1059300067756D656E7400000000000000000000D7
:105940006E616E004E414E00696E6600494E460023
:105950003000F0B40246106895681318506803EBE5
:105960005004C00721D54D441FE0F0BC02F10C00EB
:10597000704713F8017B05F8017B491EF9D1A0B1EE
:10598000B60813F8011B06F00306032E08BF13F830
:10599000016B01EB06214942801C294405D011F816
:1059A000016B05F8016B401EF9D1A342DDD013F85D
:1059B000016B16F0030104BF13F8011BC91C300969
:1059C0000F28DAD113F8010B0F30D6E70278C9B2ED
:1059D0008A421AB11CBF10F8012FF9E718BF002046
:1059E00070478268521C8260426832B10268531C60
:1059F000036011704168491E4160704780B508B965
:105A00000FF21C0005490B681BB1222200219847A8
:105A100001E000F006FD222002BD0000086D00201C
:105A2000636F6E73747261696E742068616E646C0A
:105A300065723A20626164206D6573736167650009
:105A400000F10103810704D010F8011B89B181071F
:105A5000FAD10268B2F10131914311F0803F04BFE5
:105A600050F8042FF6E710F8011B11B110F8011BD4
:105A7000FBE7C01A7047B1F5807F02D34FF0FF30CB
:105A80007047017001207047C9B2830706D0521ECB
:105A900022D310F8013B9942F7D11FE0083A13D303
:105AA00002F1040241EA012141EA014150F8043BBC
:105AB000121F21BF4B40A3F1013C2CEA030C1CF048
:105AC000803FF3D0C9B2001F083210F8013B521ECC
:105AD00028BF91EA030FF8D818BF0120401E704775
