:020000040800F2
:1000000038640020D9BD00081BB300081DB30008E8
:100010001FB3000821B3000823B30008000000004C
:100020000000000000000000000000009F610008C8
:1000300025B30008000000005961000827B300083C
:100040009DBE0008A1BE0008A5BE0008A9BE00080C
:10005000ADBE0008B1BE0008B5BE0008B9BE0008BC
:10006000BDBE0008C1BE0008C5BE0008C9BE00086C
:10007000CDBE000851B30008D1BE000853B300083C
:10008000D5BE0008D9BE000833B30008DDBE0008A5
:10009000E1BE0008E5BE0008E9BE0008EDBE0008AC
:1000A000F1BE000825B40008F5BE0008F9BE00083E
:1000B0003DB40008FDBE000801BF000805BF0008F0
:1000C00009BF00080DBF000811BF000815BF0008D8
:1000D00019BF000855B3000895B30008F1B3000834
:1000E0001DBF000821BF000825BF000829BF000868
:1000F0002DBF000831BF000835BF000839BF000818
:100100003DBF000841BF000845BF000849BF0008C7
:100110004DBF000851BF000855BF000859BF000877
:100120005DBF000861BF000865BF000869BF000827
:1001300081B0DFF8581309680143DFF850231160DC
:10014000DFF84813096801400091009901B0704739
:10015000C1607047C1F30F2202617047C1F30F22E3
:100160004261704782B000210091009981420ED215
:1001700000210191019942F21072914203D201993A
:10018000491C0191F6E70099491C0091EDE702B086
:10019000704710B50400DFF8F812DFF8F802FFF737
:1001A000DDFF44F24001DFF8EC02FFF7D3FFDFF898
:1001B000E812DFF8E002FFF7D1FFE4B22100DFF838
:1001C000DC02FFF7C5FF48F28001DFF8C802FFF745
:1001D000C5FF48F28001DFF8BC02FFF7BBFFDFF884
:1001E000B012DFF8B002FFF7B5FF10BDF8B504009C
:1001F0000D0016001F002A20FFF7CBFFA449A548D9
:10020000FFF7ACFF44F24001A248FFF7A3FFA24969
:10021000A048FFF79FFF210089B2090A89B29F48D1
:10022000FFF796FF48F280019A48FFF797FF48F2E0
:1002300080019848FFF78EFF95499648FFF78AFF9F
:1002400093499448FFF78AFF44F240019148FFF731
:1002500081FF91498F48FFF77DFFA4B221008F48AD
:10026000FFF776FF48F280018A48FFF777FF48F2F0
:1002700080018848FFF76EFF85498648FFF76AFFCF
:1002800083498448FFF76AFF44F240018148FFF741
:1002900061FF81497F48FFF75DFF310089B2090A9C
:1002A00089B27E48FFF754FF48F280017948FFF792
:1002B00055FF48F280017748FFF74CFF74497548B5
:1002C000FFF748FF72497348FFF748FF44F24001C7
:1002D0007048FFF73FFF70496E48FFF73BFFB6B22B
:1002E00031006E48FFF734FF48F280016948FFF79C
:1002F00035FF48F280016748FFF72CFF64496548E5
:10030000FFF728FF2B20FFF744FF61496148FFF703
:1003100025FF44F240015F48FFF71CFF5E495D483E
:10032000FFF718FF290089B2090A89B25B48FFF775
:100330000FFF48F280015748FFF710FF48F2800195
:100340005448FFF707FF52495248FFF703FF50494F
:100350005048FFF703FF44F240014E48FFF7FAFE12
:100360004D494C48FFF7F6FEADB229004B48FFF768
:10037000EFFE48F280014748FFF7F0FE48F28001A7
:100380004448FFF7E7FE42494248FFF7E3FE404991
:100390004048FFF7E3FE44F240013E48FFF7DAFE33
:1003A0003D493C48FFF7D6FE390089B2090A89B2B7
:1003B0003A48FFF7CDFE48F280013648FFF7CEFEFF
:1003C00048F280013348FFF7C5FE31493148FFF755
:1003D000C1FE2F492F48FFF7C1FE44F240012D48CE
:1003E000FFF7B8FE2C492B48FFF7B4FEBFB2390027
:1003F0002A48FFF7ADFE48F280012648FFF7AEFE1F
:1004000048F280012348FFF7A5FE21492148FFF764
:10041000A1FEF1BD38B504000D002B009BB22200F7
:1004200092B2290089B2200080B2FFF7DFFE31BD11
:1004300070B504000D001600290089B2200080B2BA
:10044000FFF7E8FF2C20FFF7A4FE11491148FFF742
:1004500085FE44F240010F48FFF77CFE0E490D482F
:10046000FFF778FEB6B231000C48FFF771FE48F294
:1004700080010848FFF772FE48F280010548FFF747
:1004800069FE03490348FFF765FE70BD181002407E
:10049000020002040010014001000104000C0140B0
:1004A00000B585B00120FFF743FE1020FFF740FEA6
:1004B0000820FFF73DFEDFF8A40D00900120019019
:1004C00003200290002003906946DFF8940D01F0AC
:1004D0000CFC7FF07B4000900120019003200290F3
:1004E000002003906946DFF87C0D01F0FEFB42F22C
:1004F0002001DFF86C0DFFF72DFE7820FFF732FEAC
:10050000CF20FFF746FEDFF8601DDFF8540DFFF740
:1005100025FE44F24001DFF8480DFFF71BFEDFF82F
:100520004C1DDFF83C0DFFF715FE0021DFF8340D00
:10053000FFF70EFE48F28001DFF8240DFFF70EFEF4
:1005400048F28001DFF8180DFFF704FEDFF8181DF0
:10055000DFF80C0DFFF7FEFDDFF80C1DDFF8000DD6
:10056000FFF7FCFD44F24001DFF8F40CFFF7F2FD69
:10057000DFF8F81CDFF8E80CFFF7ECFDC121DFF82D
:10058000E40CFFF7E5FD48F28001DFF8D40CFFF73B
:10059000E5FD48F28001DFF8C80CFFF7DBFDDFF86E
:1005A000C81CDFF8BC0CFFF7D5FDDFF8BC1CDFF87A
:1005B000B00CFFF7D3FD44F24001DFF8A40CFFF7C5
:1005C000C9FDDFF8A81CDFF8980CFFF7C3FD302148
:1005D000DFF8900CFFF7BCFD48F28001DFF8800CDB
:1005E000FFF7BCFD48F28001DFF8740CFFF7B2FDA5
:1005F000DFF8741CDFF8680CFFF7ACFDED20FFF7A7
:10060000C8FDDFF8641CDFF8580CFFF7A7FD44F2C3
:100610004001DFF84C0CFFF79DFDDFF8501CDFF8C0
:10062000400CFFF797FD6421DFF8380CFFF790FDD1
:1006300048F28001DFF8280CFFF790FD48F28001B6
:10064000DFF81C0CFFF786FDDFF81C1CDFF8100C30
:10065000FFF780FDDFF8101CDFF8040CFFF77EFDCC
:1006600044F24001DFF8F80BFFF774FDDFF8FC1BE4
:10067000DFF8EC0BFFF76EFD0321DFF8E80BFFF767
:1006800067FD48F28001DFF8D80BFFF767FD48F2FD
:100690008001DFF8CC0BFFF75DFDDFF8CC1BDFF846
:1006A000C00BFFF757FDDFF8C01BDFF8B40BFFF7F7
:1006B00055FD44F24001DFF8A80BFFF74BFDDFF8D2
:1006C000AC1BDFF89C0BFFF745FD1221DFF8940B04
:1006D000FFF73EFD48F28001DFF8840BFFF73EFD97
:1006E00048F28001DFF8780BFFF734FDDFF8781B64
:1006F000DFF86C0BFFF72EFDDFF86C1BDFF8600BEB
:10070000FFF72CFD44F24001DFF8540BFFF722FD08
:10071000DFF8581BDFF8480BFFF71CFD8121DFF8DD
:10072000440BFFF715FD48F28001DFF8340BFFF7AB
:1007300015FD48F28001DFF8280BFFF70BFDDFF80D
:10074000281BDFF81C0BFFF705FDE820FFF721FD54
:10075000DFF8141BDFF8080BFFF700FD44F240013F
:10076000DFF8FC0AFFF7F6FCDFF8001BDFF8F00A01
:10077000FFF7F0FC8521DFF8EC0AFFF7E9FC48F20F
:100780008001DFF8DC0AFFF7E9FC48F28001DFF8BE
:10079000D00AFFF7DFFCDFF8D01ADFF8C40AFFF752
:1007A000D9FCDFF8C41ADFF8B80AFFF7D7FC44F227
:1007B0004001DFF8AC0AFFF7CDFCDFF8B01ADFF834
:1007C000A00AFFF7C7FC0021DFF8980AFFF7C0FC7A
:1007D00048F28001DFF8880AFFF7C0FC48F2800188
:1007E000DFF87C0AFFF7B6FCDFF87C1ADFF8700A46
:1007F000FFF7B0FCDFF8701ADFF8640AFFF7AEFC11
:1008000044F24001DFF8580AFFF7A4FCDFF85C1A55
:10081000DFF84C0AFFF79EFC7821DFF8480AFFF763
:1008200097FC48F28001DFF8380AFFF797FC48F29E
:100830008001DFF82C0AFFF78DFCDFF82C1ADFF8B7
:10084000200AFFF787FCCB20FFF7A3FCDFF8181A7C
:10085000DFF80C0AFFF782FC44F24001DFF8000ADF
:10086000FFF778FCDFF8041ADFF8F409FFF772FCF1
:100870003921DFF8F009FFF76BFC48F28001DFF85F
:10088000E009FFF76BFC48F28001DFF8D409FFF7BD
:1008900061FCDFF8D419DFF8C809FFF75BFCDFF86B
:1008A000C819DFF8BC09FFF759FC44F24001DFF832
:1008B000B009FFF74FFCDFF8B419DFF8A409FFF720
:1008C00049FC2C21DFF89C09FFF742FC48F280012B
:1008D000DFF88C09FFF742FC48F28001DFF880095D
:1008E000FFF738FCDFF88019DFF87409FFF732FCF6
:1008F000DFF87419DFF86809FFF730FC44F24001B3
:10090000DFF85C09FFF726FCDFF86019DFF8500913
:10091000FFF720FC0021DFF84C09FFF719FC48F233
:100920008001DFF83C09FFF719FC48F28001DFF88D
:100930003009FFF70FFCDFF83019DFF82409FFF763
:1009400009FCDFF82419DFF81809FFF707FC44F267
:100950004001DFF80C09FFF7FDFBDFF81019DFF8A5
:100960000009FFF7F7FB3421DFF8F808FFF7F0FB89
:1009700048F28001DFF8E808FFF7F0FB48F2800159
:10098000DFF8DC08FFF7E6FBDFF8DC18DFF8D0085B
:10099000FFF7E0FBDFF8D018DFF8C408FFF7DEFB55
:1009A00044F24001DFF8B808FFF7D4FBDFF8BC18C9
:1009B000DFF8AC08FFF7CEFB0221DFF8A808FFF74D
:1009C000C7FB48F28001DFF89808FFF7C7FB48F241
:1009D0008001DFF88C08FFF7BDFBDFF88C18DFF82B
:1009E0008008FFF7B7FBF720FFF7D3FBDFF8781895
:1009F000DFF86C08FFF7B2FB44F24001DFF8600853
:100A0000FFF7A8FBDFF86418DFF85408FFF7A2FB34
:100A10002021DFF85008FFF79BFB48F28001DFF848
:100A20004008FFF79BFB48F28001DFF83408FFF72E
:100A300091FBDFF83418DFF82808FFF78BFBEA207A
:100A4000FFF7A7FBDFF82018DFF81408FFF786FB95
:100A500044F24001DFF80808FFF77CFBDFF80C18D0
:100A6000DFF8FC07FFF776FB0021DFF8F807FFF758
:100A70006FFB48F28001DFF8E807FFF76FFB48F2F1
:100A80008001DFF8DC07FFF765FBDFF8DC17DFF834
:100A9000D007FFF75FFBDFF8D017DFF8C407FFF7D9
:100AA0005DFB44F24001DFF8B807FFF753FBDFF8C6
:100AB000BC17DFF8AC07FFF74DFB0021DFF8A407F8
:100AC000FFF746FB48F28001DFF89407FFF746FB8B
:100AD00048F28001DFF88807FFF73CFBDFF8881752
:100AE000DFF87C07FFF736FBC020FFF752FBDFF88B
:100AF0007817DFF86C07FFF731FB44F24001DFF8AD
:100B00006007FFF727FBDFF86417DFF85407FFF7EC
:100B100021FB2121DFF84C07FFF71AFB48F2800187
:100B2000DFF83C07FFF71AFB48F28001DFF83007D7
:100B3000FFF710FBDFF83017DFF82407FFF70AFB99
:100B4000C120FFF726FBDFF82017DFF81407FFF7B7
:100B500005FB44F24001DFF80807FFF7FBFADFF876
:100B60000C17DFF8FC06FFF7F5FA1121DFF8F406A1
:100B7000FFF7EEFA48F28001DFF8E406FFF7EEFA3D
:100B800048F28001DFF8D806FFF7E4FADFF8D8165C
:100B9000DFF8CC06FFF7DEFAC520FFF7FAFADFF838
:100BA000C816DFF8BC06FFF7D9FA44F24001DFF8B7
:100BB000B006FFF7CFFADFF8B416DFF8A406FFF7A8
:100BC000C9FA3121DFF89C06FFF7C2FA48F280012A
:100BD000DFF88C06FFF7C2FA48F28001DFF88006E2
:100BE000FFF7B8FADFF88016DFF87406FFF7B2FAFD
:100BF000DFF87416DFF86806FFF7B0FA44F2400138
:100C0000DFF85C06FFF7A6FADFF86016DFF850069B
:100C1000FFF7A0FA3F21DFF84C06FFF799FA48F2F8
:100C20008001DFF83C06FFF799FA48F28001DFF80F
:100C30003006FFF78FFADFF83016DFF82406FFF7EB
:100C400089FAC720FFF7A5FADFF81C16DFF81006AF
:100C5000FFF784FA44F24001DFF80406FFF77AFA5E
:100C6000DFF80816DFF8F805FFF774FA9321DFF8CC
:100C7000F405FFF76DFA48F28001DFF8E405FFF7AD
:100C80006DFA48F28001DFF8D805FFF763FADFF864
:100C9000D815DFF8CC05FFF75DFA3620FFF779FAB3
:100CA000DFF8C415DFF8B805FFF758FA44F2400141
:100CB000DFF8AC05FFF74EFADFF8B015DFF8A00556
:100CC000FFF748FA6821DFF89C05FFF741FA48F280
:100CD0008001DFF88C05FFF741FA48F28001DFF868
:100CE0008005FFF737FADFF88015DFF87405FFF7A6
:100CF00031FA3A20FFF74DFADFF86C15DFF860059E
:100D0000FFF72CFA44F24001DFF85405FFF722FA0E
:100D1000DFF85815DFF84805FFF71CFA5521DFF812
:100D20004405FFF715FA48F28001DFF83405FFF7B4
:100D300015FA48F28001DFF82805FFF70BFADFF813
:100D40002815DFF81C05FFF705FAB120FFF721FA97
:100D5000DFF81415DFF80805FFF700FA44F2400148
:100D6000DFF8FC04FFF7F6F9DFF80015DFF8F00410
:100D7000FFF7F0F90021DFF8EC04FFF7E9F948F29A
:100D80008001DFF8DC04FFF7E9F948F28001DFF8C1
:100D9000D004FFF7DFF9DFF8D014DFF8C404FFF761
:100DA000D9F9DFF8C414DFF8B804FFF7D7F944F233
:100DB0004001DFF8AC04FFF7CDF9DFF8B014DFF83D
:100DC000A004FFF7C7F91721DFF89804FFF7C0F96F
:100DD00048F28001DFF88804FFF7C0F948F280018B
:100DE000DFF87C04FFF7B6F9DFF87C14DFF8700455
:100DF000FFF7B0F9B620FFF7CCF9DFF86C14DFF895
:100E00006004FFF7ABF944F24001DFF85404FFF748
:100E1000A1F9DFF85814DFF84804FFF79BF90A211D
:100E2000DFF84004FFF794F948F28001DFF830045E
:100E3000FFF794F948F28001DFF82404FFF78AF9FC
:100E4000DFF82414DFF81804FFF784F9DFF818142A
:100E5000DFF80C04FFF782F944F24001DFF80004E8
:100E6000FFF778F9DFF80414DFF8F403FFF772F9FD
:100E7000A221DFF8F003FFF76BF948F28001DFF8F9
:100E8000E003FFF76BF948F28001DFF8D403FFF7C6
:100E900061F9DFF8D413DFF8C803FFF75BF9F2203C
:100EA000FFF777F9DFF8C013DFF8B403FFF756F95F
:100EB00044F24001DFF8A803FFF74CF9DFF8AC1368
:100EC000DFF89C03FFF746F90021DFF89803FFF7EE
:100ED0003FF948F28001DFF88803FFF73FF948F255
:100EE0008001DFF87C03FFF735F9DFF87C13DFF8CA
:100EF0007003FFF72FF92620FFF74BF9DFF868138F
:100F0000DFF85C03FFF72AF944F24001DFF85003F1
:100F1000FFF720F9DFF85413DFF84403FFF71AF95D
:100F20000121DFF84003FFF713F948F28001DFF8F1
:100F30003003FFF713F948F28001DFF82403FFF7CD
:100F400009F9DFF82413DFF81803FFF703F9E020AD
:100F5000FFF71FF9DFF81013DFF80403FFF7FEF8BF
:100F600044F24001DFF8F802FFF7F4F8DFF8FC1272
:100F7000BB48FFF7EFF80F21BA48FFF7E9F848F24E
:100F80008001B748FFF7EAF848F28001B448FFF75C
:100F9000E1F8B549B248FFF7DDF8B349B048FFF7CB
:100FA000DDF844F24001AE48FFF7D4F8AF49AC4851
:100FB000FFF7D0F81F21AB48FFF7CAF848F28001CD
:100FC000A748FFF7CBF848F28001A548FFF7C2F821
:100FD000A549A348FFF7BEF8A349A148FFF7BEF80B
:100FE00044F240019E48FFF7B5F8A0499C48FFF73E
:100FF000B1F81D219B48FFF7ABF848F280019848F3
:10100000FFF7ACF848F280019548FFF7A3F896493E
:101010009348FFF79FF894499148FFF79FF844F2EF
:1010200040018F48FFF796F890498D48FFF792F8F6
:1010300009218C48FFF78CF848F280018848FFF7B7
:101040008DF848F280018648FFF784F88649844885
:10105000FFF780F884498248FFF780F844F24001A6
:101060007F48FFF777F881497D48FFF773F80B2138
:101070007C48FFF76DF848F280017948FFF76EF879
:1010800048F280017648FFF765F877497448FFF722
:1010900061F875497248FFF761F844F24001704801
:1010A000FFF758F871496E48FFF754F804216D486E
:1010B000FFF74EF848F280016948FFF74FF848F211
:1010C00080016748FFF746F867496548FFF742F82F
:1010D00065496348FFF742F844F240016048FFF772
:1010E00039F862495E48FFF735F84E215D48FFF751
:1010F0002FF848F280015A48FFF730F848F2800193
:101100005748FFF727F858495548FFF723F856493D
:101110005348FFF723F844F240015148FFF71AF80B
:1011200052494F48FFF716F892214E48FFF710F842
:1011300048F280014A48FFF711F848F28001484818
:10114000FFF708F848494648FFF704F8464944487D
:10115000FFF704F844F240014148FEF7FBFF434922
:101160003F48FEF7F7FF40213E48FEF7F1FF48F207
:1011700080013B48FEF7F2FF48F280013848FEF755
:10118000E9FF39493648FEF7E5FF37493448FEF7AD
:10119000E5FF44F240013248FEF7DCFF33493048B6
:1011A000FEF7D8FF0A212F48FEF7D2FF48F2800150
:1011B0002B48FEF7D3FF48F280012948FEF7CAFF0B
:1011C00029492748FEF7C6FF27492548FEF7C6FFED
:1011D00044F240012248FEF7BDFF24492048FEF7B3
:1011E000B9FF15211F48FEF7B3FF48F280011C48E4
:1011F000FEF7B4FF48F280011948FEF7ABFF1A4929
:101200001748FEF7A7FF18491548FEF7A7FF44F255
:1012100040011348FEF79EFF14491148FEF79AFF5C
:1012200007211048FEF794FF48F280010C48FEF7B2
:1012300095FF48F280010A48FEF78CFF0A490848EA
:10124000FEF788FF08490648FEF788FF44F2400190
:101250000348FEF77FFF05490AE000BFE3E003040F
:1012600000100140000C01400200020401000104D2
:10127000DFF82008FEF76EFF1421DFF81C08FEF7E8
:1012800067FF48F28001DFF80C08FEF767FF48F2BD
:101290008001DFF80008FEF75DFFDFF80018DFF8D7
:1012A000F407FEF757FFDFF8F417DFF8E807FEF75B
:1012B00055FF44F24001DFF8DC07FEF74BFFDFF893
:1012C000E017DFF8D007FEF745FF0621DFF8C80773
:1012D000FEF73EFF48F28001DFF8B807FEF73EFF59
:1012E00048F28001DFF8AC07FEF734FFDFF8AC17F7
:1012F000DFF8A007FEF72EFFDFF8A017DFF894074E
:10130000FEF72CFF44F24001DFF88807FEF722FFCA
:10131000DFF88C17DFF87C07FEF71CFF0F21DFF8E2
:101320007807FEF715FF48F28001DFF86807FEF73F
:1013300015FF48F28001DFF85C07FEF70BFFDFF8CE
:101340005C17DFF85007FEF705FFE120FEF721FFED
:10135000DFF84817DFF83C07FEF700FF44F24001D2
:10136000DFF83007FEF7F6FEDFF83417DFF8240762
:10137000FEF7F0FE0021DFF82007FEF7E9FE48F255
:101380008001DFF81007FEF7E9FE48F28001DFF880
:101390000407FEF7DFFEDFF80417DFF8F806FEF7B4
:1013A000D9FEDFF8F816DFF8EC06FEF7D7FE44F2B8
:1013B0004001DFF8E006FEF7CDFEDFF8E416DFF8C7
:1013C000D406FEF7C7FE1C21DFF8CC06FEF7C0FEF0
:1013D00048F28001DFF8BC06FEF7C0FE48F280014B
:1013E000DFF8B006FEF7B6FEDFF8B016DFF8A406A9
:1013F000FEF7B0FEDFF8A416DFF89806FEF7AEFEA3
:1014000044F24001DFF88C06FEF7A4FEDFF89016E8
:10141000DFF88006FEF79EFE1F21DFF87C06FEF750
:1014200097FE48F28001DFF86C06FEF797FE48F25F
:101430008001DFF86006FEF78DFEDFF86016DFF84A
:101440005406FEF787FEDFF85416DFF84806FEF76D
:1014500085FE44F24001DFF83C06FEF77BFEDFF834
:101460004016DFF83006FEF775FE0321DFF8280688
:10147000FEF76EFE48F28001DFF81806FEF76EFEFA
:1014800048F28001DFF80C06FEF764FEDFF80C1668
:10149000DFF80006FEF75EFEDFF80016DFF8F40561
:1014A000FEF75CFE44F24001DFF8E805FEF752FE6D
:1014B000DFF8EC15DFF8DC05FEF74CFE0F21DFF856
:1014C000D805FEF745FE48F28001DFF8C805FEF7B3
:1014D00045FE48F28001DFF8BC05FEF73BFEDFF871
:1014E000BC15DFF8B005FEF735FEDFF8B015DFF804
:1014F000A405FEF733FE44F24001DFF89805FEF73D
:1015000029FEDFF89C15DFF88C05FEF723FE052188
:10151000DFF88405FEF71CFE48F28001DFF8740551
:10152000FEF71CFE48F28001DFF86805FEF712FEA8
:10153000DFF86815DFF85C05FEF70CFEDFF85C15D8
:10154000DFF85005FEF70AFE44F24001DFF84405DB
:10155000FEF700FEDFF84815DFF83805FEF7FAFD64
:101560003721DFF83405FEF7F3FD48F28001DFF89C
:101570002405FEF7F3FD48F28001DFF81805FEF7B9
:10158000E9FDDFF81815DFF80C05FEF7E3FDDFF8DD
:101590000C15DFF80005FEF7E1FD44F24001DFF82D
:1015A000F404FEF7D7FDDFF8F814DFF8E804FEF7DF
:1015B000D1FD2421DFF8E004FEF7CAFD48F28001E6
:1015C000DFF8D004FEF7CAFD48F28001DFF8C4045A
:1015D000FEF7C0FDDFF8C414DFF8B804FEF7BAFD6B
:1015E000DFF8B814DFF8AC04FEF7B8FD44F24001B0
:1015F000DFF8A004FEF7AEFDDFF8A414DFF89404D2
:10160000FEF7A8FD4C21DFF89004FEF7A1FD48F29B
:101610008001DFF88004FEF7A1FD48F28001DFF8C9
:101620007404FEF797FDDFF87414DFF86804FEF722
:1016300091FDDFF86814DFF85C04FEF78FFD44F2DB
:101640004001DFF85004FEF785FDDFF85414DFF8A1
:101650004404FEF77FFD0421DFF83C04FEF778FD2B
:1016600048F28001DFF82C04FEF778FD48F2800193
:10167000DFF82004FEF76EFDDFF82014DFF8140415
:10168000FEF768FDDFF81414DFF80804FEF766FDC6
:1016900044F24001DFF8FC03FEF75CFDDFF80014C4
:1016A000DFF8F003FEF756FD0E21DFF8EC03FEF73E
:1016B0004FFD48F28001DFF8DC03FEF74FFD48F2F2
:1016C0008001DFF8D003FEF745FDDFF8D013DFF827
:1016D000C403FEF73FFDDFF8C413DFF8B803FEF7DD
:1016E0003DFD44F24001DFF8AC03FEF733FDDFF8C7
:1016F000B013DFF8A003FEF72DFD0C21DFF89803EF
:10170000FEF726FD48F28001DFF88803FEF726FD8C
:1017100048F28001DFF87C03FEF71CFDDFF87C1344
:10172000DFF87003FEF716FDDFF87013DFF86403CF
:10173000FEF714FD44F24001DFF85803FEF70AFDFE
:10174000DFF85C13DFF84C03FEF704FD3021DFF80F
:101750004803FEF7FDFC48F28001DFF83803FEF78E
:10176000FDFC48F28001DFF82C03FEF7F3FCDFF804
:101770002C13DFF82003FEF7EDFCDFF82013DFF871
:101780001403FEF7EBFC44F24001C248FEF7E2FC12
:10179000DFF80C13BF48FEF7DDFC3421BE48FEF72E
:1017A000D7FC48F28001BB48FEF7D8FC48F2800124
:1017B000B848FEF7CFFCB949B648FEF7CBFCB749AD
:1017C000B448FEF7CBFC44F24001B248FEF7C2FC3D
:1017D000B349B048FEF7BEFC0F21AF48FEF7B8FC96
:1017E00048F28001AB48FEF7B9FC48F28001A948F5
:1017F000FEF7B0FCA949A748FEF7ACFC2A20FEF78B
:10180000C8FCA649A348FEF7A9FC44F24001A14840
:10181000FEF7A0FCA2499F48FEF79CFC00219E48D1
:10182000FEF796FC48F280019A48FEF797FC48F2D2
:1018300080019848FEF78EFC98499648FEF78AFC8E
:1018400096499448FEF78AFC44F240019148FEF71D
:1018500081FC93498F48FEF77DFC00218E48FEF7FE
:1018600077FC48F280018B48FEF778FC48F2800153
:101870008848FEF76FFC89498648FEF76BFC87496C
:101880008448FEF76BFC44F240018248FEF762FC9C
:1018900083498048FEF75EFC01217F48FEF758FC33
:1018A00048F280017B48FEF759FC48F280017948F4
:1018B000FEF750FC79497748FEF74CFC77497548AC
:1018C000FEF74CFC44F240017248FEF743FC7449B9
:1018D0007048FEF73FFC3F216F48FEF739FC48F2A5
:1018E00080016C48FEF73AFC48F280016948FEF737
:1018F00031FC6A496748FEF72DFC2B20FEF749FCB6
:1019000066496448FEF72AFC44F240016148FEF74C
:1019100021FC63495F48FEF71DFC00215E48FEF78D
:1019200017FC48F280015B48FEF718FC48F2800182
:101930005848FEF70FFC59495648FEF70BFC57492B
:101940005448FEF70BFC44F240015248FEF702FCFB
:1019500053495048FEF7FEFB00214F48FEF7F8FBC5
:1019600048F280014B48FEF7F9FB48F280014948F4
:10197000FEF7F0FB49494748FEF7ECFB474945486D
:10198000FEF7ECFB44F240014248FEF7E3FB44491A
:101990004048FEF7DFFB00213F48FEF7D9FB48F245
:1019A00080013C48FEF7DAFB48F280013948FEF737
:1019B000D1FB3A493748FEF7CDFB38493548FEF7A9
:1019C000CDFB44F240013348FEF7C4FB34493148B3
:1019D000FEF7C0FBEF213048FEF7BAFB48F280016A
:1019E0002C48FEF7BBFB48F280012A48FEF7B2FB09
:1019F0002A492848FEF7AEFB1120FEF7CAFB7820E3
:101A0000FEF7B0FB2920FEF7C4FB1920FEF7AAFB66
:101A10002C20FEF7BEFB4FF6FF7000F007F842F2F5
:101A200020011C48FEF79AFB05B000BD70B504000C
:101A30000025F0234FF4A07200210020FEF7D6FB12
:101A40002C20FEF7A6FB0026B6F5963F21D21349BF
:101A50001048FEF783FB44F240010E48FEF77AFB84
:101A60000F490C48FEF776FBA4B221000A48FEF7A6
:101A70006FFB48F280010748FEF770FB48F28001D7
:101A80000448FEF767FB05490248FEF763FB761C36
:101A9000DAE770BD00100140000C014002000204B2
:101AA000010001042DE9F04704000D0016001F009D
:101AB0005FF00009B6B2B046B6B25FEA460ADAF1A4
:101AC000030AC84577DB3A0092B2B5EB090189B247
:101AD000B4EB080080B2FEF7ABFC3A0092B2B5EB73
:101AE000090189B218EB040080B2FEF7A1FC3A00AC
:101AF00092B218EB050189B2B4EB090080B2FEF78F
:101B000097FC3A0092B2B5EB090189B2B4EB080038
:101B100080B2FEF78DFC3A0092B2B5EB080189B2B3
:101B2000B4EB090080B2FEF783FC3A0092B219EBE5
:101B3000050189B218EB040080B2FEF779FC3A0087
:101B400092B2B5EB080189B219EB040080B2FEF73E
:101B50006FFC3A0092B218EB050189B219EB040050
:101B600080B2FEF765FC3A0092B219EB050189B22A
:101B7000B4EB080080B2FEF75BFC19F10109BAF181
:101B8000000F05D55FEA8900801D10EB0A0A07E007
:101B9000B9EB080080000A3010EB0A0AB8F101081E
:101BA0003A0092B218EB050189B219EB040080B239
:101BB000FEF73EFC85E7BDE8F087F0B4024610680A
:101BC00095681318506803EB5004C00721D54D44A5
:101BD0001FE0F0BC02F10C00704713F8017B05F820
:101BE000017B491EF9D1A0B1B60813F8011B06F01C
:101BF0000306032E08BF13F8016B01EB06214942CF
:101C0000801C294405D011F8016B05F8016B401EBA
:101C1000F9D1A342DDD013F8016B16F0030104BF24
:101C200013F8011BC91C30090F28DAD113F8010B76
:101C30000F30D6E7F0B410EB116491FAA1F3B3FAC8
:101C400083F391FAA1F5B5FA85F526680F27DBB283
:101C50009B009F40BE43EDB2AB0012FA03F31E435C
:101C60002660F0BC7047F0B410EB116491FAA1F358
:101C7000B3FA83F391FAA1F5B5FA85F5266803273F
:101C8000DBB29B009F40BE43EDB2AB0012FA03F300
:101C90001E432660F0BC7047F0B410EB116491FA5B
:101CA000A1F3B3FA83F391FAA1F5B5FA85F52668A5
:101CB0000427DBB29B009F40BE43EDB2AB0012FA9B
:101CC00003F31E432660F0BC704710B4C36833EAC8
:101CD00011230C00240A94FAA4F4B4FA84F412FA3E
:101CE00004F42343C36010BC70472DE9F0410400A5
:101CF0000D002F683F023F0C97FAA7F0B0FA80F86A
:101D0000380030FA08F0002832D0380030FA08F0F5
:101D1000C0072AD5B8F1080F05D240F2011010FA19
:101D200008F0060007E05FF00111404608388140E6
:101D300051F080610E006A6831002000FFF77AFFE1
:101D40002A6931002000FFF7C0FF6868012802D02F
:101D50006868092809D1AA6831002000FFF783FFCD
:101D6000EA6831002000FFF797FF18F10108C7E784
:101D70000120BDE8F0818268521C8260426832B165
:101D80000268531C036011704168491E416070472E
:101D90002DE9F0439FB081462698DFF8F48B8DF84B
:101DA0003B00174600201E4602910B900FF2701464
:101DB0004FF0FF350AE017F8011B0298C8470028CA
:101DC000029000F09A800B98401C0B90387850B12C
:101DD0002528F0D100200021059006910790089158
:101DE00009900A9103E00B989EE041F0010117F879
:101DF000010F2028F9D023280DD02B2804D02D281E
:101E000006D030280AD07AE041F0020189B2EEE72C
:101E100041F00401FAE741F00801F7E741F0100151
:101E2000F4E700200D9009E00D98404505DA00EB3D
:101E3000800302EB4302303A0D927F1C3A78A2F104
:101E400030000A28F0D33A782E2A18BF0C9523D1F7
:101E500017F8010F2A2807D1306830607F1C50F82E
:101E6000042B30600C9217E02D280CBF17F8010BE3
:101E7000002000220C920AE040B90C9A424505DA93
:101E800002EB820203EB4203303B0C937F1C3B7856
:101E9000A3F130020A2AEFD3ADF838102046397882
:101EA00000F02CFF08B117F8010B8DF83A009DF8EF
:101EB0003A00682804BF3978682903D162208DF878
:101EC0003A0007E06C2804BF38786C2803D17121F0
:101ED0008DF83A107F1C10A80490324617F8013B89
:101EE0006946484600F060F838B910AA6946484685
:101EF00000F0C2F900287FF569AF284614E02A28CF
:101F00008FD13068306050F8042B3060002A0D9279
:101F100004D5524241F004010D9289B27F1C92E730
:101F2000686A6C747A4C00001FB0BDE8F0836228C8
:101F300020D0682811D06A2803D06C2827D07128B7
:101F400025D10868C01D20F007000860D0E90023F3
:101F500008300860194610467047002A0A680A606F
:101F6000106803D0121D0A6000B217E0121D0A604B
:101F700080B217E0002A0A680A60106803D0121DB8
:101F80000A6040B20AE0121D0A60C0B20AE0002AEC
:101F90000A680A60106803D0121D0A60C1177047F2
:101FA000121D0A60002170477CB50D4611461C4683
:101FB0002E69B4F1250200F04D811C3A00F08680B4
:101FC000121F022A40F282800E3A00F00781521F4F
:101FD0005AD0093A7AD0921E16D0521E35D0521ECF
:101FE000022A73D9121F30D0521F00F09A80521E5D
:101FF0004AD0521E00F0E480D21E00F0FD80921EF6
:1020000042D0D21E40D02BE195F83A206C2A09D05C
:102010006869421C6A610A680A6052F8043B0A60F7
:10202000335427E10A680A6052F8043B0A60002131
:10203000009301914FF0FF322A6329466A4600F06F
:10204000A2F9002840F1168101E195F83A00012239
:10205000FFF76DFFC5E900010023994204DA6869C2
:10206000411C69612D210DE0288F810704D5686925
:10207000411C69612B2105E0C00722D56869411C1C
:102080006961202131541CE095F83A000022FFF7E5
:102090004EFFC5E9000195F83800010711D5D5E9D3
:1020A00000230020834208BF82420AD044F020006F
:1020B000782806D1686930213154401C411C69617F
:1020C0003454214668693044E86083E00868C01DE4
:1020D00020F007000860D0E9002308300860C5E957
:1020E0000023D5E90001C80F04D06869411C69616B
:1020F0002D210DE0288F810704D56869411C696195
:102100002B2105E0C00704D56869411C69612021C5
:10211000315468693044E8602146284600F040FAAE
:10212000A8E005F13A02507820B14FF0FF340FF6E5
:10213000383070E01078622808D0682824D06A28E7
:1021400012D06C282ED071280ED02BE00A680A60BD
:1021500052F8040B0A6020B94FF0FF340FF620301C
:1021600059E0E96A017085E00A680A6052F8040BD8
:102170000A6020B94FF0FF340FF604304BE0EA6AF2
:10218000D317C0E9002375E00A680A6052F8040B0F
:102190000A6020B94FF0FF340FF6E4203BE0E96A13
:1021A000018067E00A680A6052F8040B0A6020B9EF
:1021B0004FF0FF340FF6C8202DE0E96A016059E0C6
:1021C0000A680A6052F8040B0A600021C5E90001A0
:1021D000EE607821284600F035F94BE06C2285F856
:1021E0003A200B680B6053F8042B0B6052BB4FF086
:1021F000FF340FF6C0200EE095F83A206C2AF0D09C
:102200000868086050F8044B0860EC603CB94FF077
:10221000FF340FF6842000F07DFD201A76BD2E6B72
:10222000002E04D5204600F097FD044608E0324613
:102230000021204600F0ACFD002814BF041B3446EA
:10224000AC6117E0294600F09EF8002812D54FF047
:10225000FF3076BD6869411C69612521315409E070
:102260006869411C696125223254200002D0481C53
:1022700068617454002076BD2DE9F0410F4682B0AC
:102280000646796B7869BC6A091A386A091AB8690E
:10229000091A786A091AF869091A97F838000C1BA4
:1022A000410790460FD42021002C8DF800100ADD44
:1022B000254601236A463946304600F0BDFC002819
:1022C0005DD16D1EF5D17B6942463946304600F03E
:1022D000B3FC002853D130208DF800003D6A002D5A
:1022E00009DD01236A463946304600F0A5FC002886
:1022F00045D16D1EF5D1BB69FA683946304600F00C
:102300009BFC00283BD130208DF800007D6A002D19
:1023100008DD01236A463946304600F08DFC70BB6B
:102320006D1EF6D1F868B969FB6942183946304626
:1023300000F082FC18BB30208DF80000BD6A002D33
:1023400008DD01236A463946304600F075FCB0B915
:102350006D1EF6D197F8380041070DD52021002CCD
:102360008DF8001008DD01236A463946304600F03A
:1023700063FC20B9641EF6D10020BDE8F6814FF061
:10238000FF30BDE8F6812DE9F0470E46A4B0356B6D
:10239000002D8146904648BF6FF0004500F024FDB7
:1023A000716B40180FF628118128D1E90023CDE97F
:1023B000012328BF4FF0FF303ED20024002D2FDD37
:1023C000D8F8001001AA684600F018FD0746002F53
:1023D00035D4D8F8000008B97F1E30D4BD421FDBC9
:1023E0007069381881280AD30020706303AA314627
:1023F0004846FFF741FF040012D40020706103A893
:10240000D6F814A03A466946504400F0FFFCBA449E
:10241000C6F814A058F8040B002818BFED1BCDD146
:102420002CB903AA31464846FFF726FF044614B9E3
:10243000002070617063204624B0BDE8F0874FF043
:10244000FF34F8E72DE9FC4B06468B463469BBF1B7
:102450006F0F08BF082505D04BF02001782914BF65
:102460000A2510253C27D6E90023BBF1640F18BFCD
:10247000BBF1690F9046994606D100218B4203DAE1
:10248000D8F1000869EB49090020814508BF804563
:102490001FD1306BE8B9082D4ED196F838000107EE
:1024A0004AD530203B2784F83B0045E000280ED574
:1024B00096F8380000F01400102808D1726B70698B
:1024C000121A306A121A511A0029C8BF3162BDE8C7
:1024D000F38B01968DF800B0404649462A46EB172B
:1024E00000F0E8FC30327F1ED2B23A2A04DB9DF8BD
:1024F0000000A0F151018A18E255404649462A469B
:10250000EB1700F0D7FC894600228046914508BFB2
:10251000904504D00198C168E0198142DCD3082DB0
:10252000019E09D196F83800010705D5E15D3029F3
:1025300002D07F1E3020E055E019F060C7F13C0169
:10254000306BB1618142B1DA411A31624FF6EF70FE
:10255000318F01403187BDE8F38B2DE9D04306462A
:102560000F4614464FF00008DFF8289412E0E00709
:1025700007D542464B463046394600F013FD064625
:102580000F464046494642464B4600F00BFD64105C
:1025900080468946002CEAD130463946BDE8D083D2
:1025A0002DE9F04705468A468EB0D5E900894AF004
:1025B0002000612802AF00900AD0286B002802D5C5
:1025C0000620286304E001BF0098672801212963E1
:1025D000D5E9006460004015401C0DD121030BD0EB
:1025E000AAF1610103201A29A86102D20FF2E86161
:1025F00010E00FF2E8610DE060004015401C0ED1C4
:1026000021030CD1AAF1610103201A29A86116D374
:102610000FF2D061E868032200F0F8FBCAE124F071
:102620000043B3F5801F26F0000211D20020834240
:1026300008BF8242019005D13046214612E00FF2D8
:10264000A061E7E701AA3046214600F07DFD09E0E0
:10265000D148D24900EB1350019004EA0102D0495D
:1026600030461143C5E90001009A612A0DD1E8689E
:1026700030210170811CE960BAF1610F0CBF782133
:10268000582141706869801C6861D5E90023CDE953
:102690000C23DDE90C0121F00041002200239942C6
:1026A00004BF9042002000F04D810098612840F066
:1026B0009C80286B00284CBF2120401C0090404685
:1026C000009E761C4946DDE90C8900F075FD0198F5
:1026D0008DF8082038BF89F00049001F0190002EB6
:1026E0000DF1090040F33C8107464046494600226F
:1026F000002300F079FD80F032814800400D00F1A8
:102700001C0211D0002A0FDD40F2FF70824205DB6F
:10271000A44909F000400143002012E06FF31E516C
:1027200041EA025140460CE029F0004128F0000047
:10273000994208BF98420FBF49461C22494600F003
:102740006BFD8046894600F005FEF61F002E04460C
:1027500009DD00F01DFE02460B464046494600F0EA
:1027600029FE80468946F81D072104E004F00F0287
:1027700000F8012D2411002C01DD491EF6D5491E5B
:102780005CBF002200F8012DF9D5E4E000201946D5
:1027900002AA0A4400E05B1E12F80149491E844265
:1027A000F9D00F2804D10DF10900425C521C4254AB
:1027B000002904D50198001D02AF5B1C0190581E32
:1027C0000CD43918AAF13A040A783032D2B2392A34
:1027D000C8BFA218401E01F80129F5D5286B0028B2
:1027E00040F1AF80591E2963ABE04046494600F0F6
:1027F000E3FC019938BF89F0004947F29750414303
:10280000694A91FBF2F20192D2F1070204DD4046DF
:102810004946FFF7A2FE0AE0524200206349FFF753
:102820009CFE02460B464046494600F035FE804677
:1028300000985F4E6628286B06BF019C0A34062468
:102840002418142CC8BF142430208DF808008946A1
:102850000DF1090000E03846002C34DD0746404603
:10286000494600F03DFF01460A4607F108030420EF
:102870000A27B2FBF7F707EB870EA2EB4E023032C6
:1028800003F8012C0A22B7FBF2F202EB820EA7EB4F
:102890004E073037401E03F8027DE9D1083C002C7A
:1028A00003F10807D7DD084600F02EFF02460B466D
:1028B0004046494600F07EFD0022334600F072FBA0
:1028C00080468946CBE70DF10901401A0DF1090751
:1028D00004E00199491E401E01917F1C397830297E
:1028E000F7D0009A662A02D10199491C03E0652AB3
:1028F0000CBF012100212B6BCB189842B8BF431E9F
:10290000002B1ED4834204DAF85C3528A8BF392096
:1029100000DA302019467A1E02EB010800E05B1E47
:1029200018F80199491E8145F9D0392802D1785CFF
:10293000401C7854002904D50198401C17465B1CA4
:102940000190019800B200901BB23A4651462846C9
:1029500000F033F82EE0C71D002E3FF7C6AE384614
:102960000DF10901401A009903468842C8BF0B4681
:10297000002B0DF109073FF531AF8342BFF606AFDB
:102980000DF10900C05C07287FF700AF0F20FEE6BD
:10299000CBCCCC0C0000244002FCFFFFFFFF0F80DB
:1029A0000000E03F0000F07FA08601000000F03F43
:1029B00084D797410EB0BDE8F0872DE9F04F83B082
:1029C00006468B469246994600F01AFAB9F1000F76
:1029D000406AD6F83080077803DC4FF001090FF227
:1029E000083ABDF930504BF02000662808BF6D1C36
:1029F00017D0672840F0878015F1040FC0F2898056
:102A0000454580F2868096F838006D1C010702D497
:102A1000C145B8BFC8462DB2B8EB050848BF4FF056
:102A200000082DB2F068B169002D27DC4A1C302364
:102A30004354B8F1000F03DC96F83800010702D5C3
:102A4000F0688754521C18EB050FB8BFC8F1000599
:102A50002DB2A8446842C845B8BFC146B261706291
:102A60000FFA89F4F461F068B369224651461844BC
:102A700000F0CCF9A8EB0400B062C6E02A4691450C
:102A8000084418DA4A46514600F0C0F9B069484493
:102A9000B061A5EB0901B8F1000F716203DC96F893
:102AA00038100A0704D5F1680F54F069401CF06132
:102AB000C6F82880A9E0514600F0A8F9B0692818A6
:102AC000B8F1000FA9EB050303DC96F838100A07EC
:102AD00002D5F1680F54401CB0610FFA83F9C84564
:102AE000B8BFC146F068B3690FFA89F422460AEB11
:102AF0000501184400F08AF9B0692044B061A8EBE0
:102B00000400706281E0BBF1610F16D14FF0700BD1
:102B100018E0C14504DA96F838100A0758BFC846CD
:102B2000B8F1010848BF4FF00008BBF1670F14BFB0
:102B30004FF0450B4FF0650B04E0BBF1410F08BFB0
:102B40004FF0500BB169F368481CB061B8F1000F49
:102B50001AF8012B5A5403DC96F838100A0719D5D5
:102B6000F168431CB3610F54B8F1000F12DDA9F1F5
:102B700001073FB2B845B8BF4746F0683FB23A4692
:102B80005146184400F042F9B0693818B061A8EB1A
:102B900007007062F068B1690844002D80F800B049
:102BA00003D42B214170811C03E02D2141706D4223
:102BB000811C00206A460AE02B460A2493FBF4F5A8
:102BC00005EB8504A3EB440302F8013B401C2DB246
:102BD000002DF1DC012806DC4BF02002652A04BF41
:102BE000302201F8012B48B9302001F8010B07E031
:102BF000401E1DF80020303201F8012B0028F7DCC0
:102C0000F068B2691044091AF16196F8380000F0D2
:102C1000140010280DD17169B0694118706A41180B
:102C2000F0694118B06A4118706B8142BCBF411A0B
:102C3000316203B0BDE8F08FF8B505460E46174681
:102C40001C46002074B117F8011BB068A847B0609B
:102C500030B1F06A401CF0620020641EF3D1F2BD76
:102C60004FF0FF30F2BD00007072696E74665F73E2
:102C70003A20256E20646973616C6C6F776564001F
:102C80007072696E74663A2062616420256E2061FC
:102C90007267756D656E74007072696E74665F73CD
:102CA0003A2062616420257320617267756D656EDC
:102CB000740000007072696E74665F733A2062611E
:102CC0006420256C7320617267756D656E740000F9
:102CD00000000000000000006E616E004E414E00DA
:102CE000696E6600494E46003000B1F5807F02D320
:102CF0004FF0FF3070470170012070470278C9B271
:102D00008A421AB11CBF10F8012FF9E718BF002042
:102D10007047080080B508B90FF21C0005490B6820
:102D20001BB122220021984701E000F0FAFC22208A
:102D300002BD00001C600020636F6E7374726169D5
:102D40006E742068616E646C65723A206261642002
:102D50006D6573736167650000F10103810704D03D
:102D600010F8011B89B18107FAD10268B2F1013173
:102D7000914311F0803F04BF50F8042FF6E710F89C
:102D8000011B11B110F8011BFBE7C01A70470000CE
:102D9000C9B2830706D0521E22D310F8013B9942D4
:102DA000F7D11FE0083A13D302F1040241EA0121EE
:102DB00041EA014150F8043B121F21BF4B40A3F1EF
:102DC000013C2CEA030C1CF0803FF3D0C9B2001F79
:102DD000083210F8013B521E28BF91EA030FF8D8C1
:102DE00018BF0120401E704780B500F003F8006C4A
:102DF00002BD000003487047DA6B1047014BFBE748
:102E000001487047CC0000209400002062B38B077B
:102E100008D0521E11F8013B00F8013B00F024805D
:102E20008B07F6D1830740F0208000BF103A07D30C
:102E300030B4B1E83810103AA0E83810F9D230BCFC
:102E4000530724BFB1E80810A0E8081044BF51F8A8
:102E5000043B40F8043BD20724BF31F8022B20F892
:102E6000022B44BF0B7803707047121F17D35B000F
:102E700009D151F8043B20F8023B1B0C121F20F82B
:102E8000023BF6D20BE051F8043B00F8013B1B0A71
:102E900020F8023B1B0C121F00F8013BF3D238BF95
:102EA000121D521E24BF11F8013B00F8013BF8D857
:102EB000704700001B4213D1094236D12AB1844623
:102EC000B0FBF2F002FB10C2704700F02DBCFCD347
:102ED0000022002370470B000200002100207047F1
:102EE000904271EB030CF6D370B5B1FA81F4B3FAEA
:102EF00083F52C1BA340C4F1200532FA05F63343B9
:102F0000A2405FF00046E64002E05B085FEA320262
:102F1000841A71EB030524BF204629467641F4D379
:102F200002000B003000002170BD012ACFD970B51E
:102F3000140C20D0B1FA81F4B2FA82F5C4F1200465
:102F40006419B4F12006D6D3B2405FF00044F440D7
:102F5000002502E052085FEA3303C61A71EB020E45
:102F600024BF3046714664416D41F3D302000B002B
:102F70002000290070BD0C46B1FBF2F102FB1145A7
:102F80002D0445EA1045B5FBF2F402FB145580B25E
:102F900040EA0545B5FBF2F002FB105240EA04405E
:102FA00070BD0000B0B581EA030C0CF0004C40F29B
:102FB000FF7515EA11541DBF15EA1357AC42AF4215
:102FC00039E0E41923EA455343F48013C90241F080
:102FD000004141EA505EC7021100A7FB020200282F
:102FE0004FF00000EEFB01204FF00001E3FB072152
:102FF00018BF42F00102401800214941E3FB0E01D5
:10300000A4F580640F0302D252004041494154F1BB
:1030100001046CDD470872F1004250F1000051EBF1
:103020000451A1F580115CBF41EA0C01B0BD4CEA2E
:1030300005510020B0BD05EA1357AC4214BFAF42A2
:1030400041E050EA410E1CBF52EA430E02E06146E5
:103050000020B0BD24423C441BD15FEA070EF6D0ED
:10306000090302BF01460020AEF1140EB1FA81F748
:10307000AEEB070401FA07FE0C37C7F1200100FA96
:1030800007F7C8404EEA000E23EA455343F4801385
:10309000A2E733F00043B3FA83F704BFB2FA82FE2B
:1030A00077440B3FE41BB7F1200E2FBF02FA0EF35B
:1030B000BB40C7F1200E22FA0EFE38BF43EA0E03D2
:1030C000BA40641C82E750EA410E14BF52EA430E34
:1030D0006FF000014FF4001717EB430F8ABF19463A
:1030E00017EB410FB5E74CEA05510020B0BDD4F114
:1030F0000104B4F120070FDAC4F12007520828BFF9
:1031000042F0010210FA07F501FA07F7E1BF2A437E
:10311000E0403843E1400FE0352C98DCC7F1200453
:1031200052EA400220FA07F218BF42F0010231FAD7
:1031300007F0A1400A43002172F1004250F1000063
:1031400051EB0C01B0BD000010B5144600F002F8C0
:10315000226010BDC1F30A5343B14A0012F5001FAB
:1031600028D2A3F2FE32A1EB0251704750EA410C83
:1031700020D001F0004C31EA0C01B1FA81F204BF19
:10318000B0FA80F3D2180B3AB2F120032CBF00FA48
:1031900003F1914041EA0C013EBFC2F1200C20FA3C
:1031A0000CF319439040524240F2FD33D21A01EB26
:1031B00003517047002270474FF4001C1CEB410F75
:1031C00094BF1CEB430F09E041EA030C50EA4C0C9E
:1031D00052EA0C0C03D2994208BF9042704714BFC8
:1031E0008B428242704700004FF4001C1CEB410FE1
:1031F00094BF1CEB430F09E041EA030C50EA4C0C6E
:1032000052EA0C0C03D28B4208BF8242704714BFB3
:103210009942904270470000124254D440F2FF7C21
:103220001CEA11530FD0634531D09B1863453CBF56
:1032300001EB0251704701F0004141EA0C510020BE
:10324000AFF30080704750EA410320D001F0004CFA
:1032500091EA0C011CD0B1FA81F30B3B9A420DD9D3
:10326000D21A994051EA0C01C3F1200C20FA0CFC4F
:1032700061449840531C40F2FF7CD7E7914041EAFB
:103280000C01C2F1200C20FA0CF319439040704756
:10329000B0FA80F31533202BE0D3202AEED3203A66
:1032A000203B9A4209D9D21A00FA03F141EA0C01F3
:1032B0000020531C40F2FF7CB8E700FA02F141EA1B
:1032C0000C0100207047524240F2FF7C1CEA11536F
:1032D0000DD06345DBD0B2EB030C3CBFA1EB025138
:1032E00070470CF1010221EA035141F4801150EAC8
:1032F000410CCCD001F0004C352A27DC30B481EAF7
:103300000C01B2F1200309DAC2F12003044601FAEC
:1033100003F5D0402843D1409C400CE0C3F120028B
:10332000450020FA03F418BF44F0010421FA03F029
:1033300091400C43002174F1004550F1000051EB25
:103340000C01244230BC7FF47BAF70476146002003
:1033500076E70000C1F30A5340F2FE329B1A14DDF7
:10336000D3F120034FEAE17208DDC90241EA50516E
:1033700041F00040D84080185040704703F2E130DF
:1033800010B1D24382F00040704700207047000027
:10339000C11768B14840401AB0FA80F29040D21C80
:1033A000C907C2F5846241EA025202EBD02140050E
:1033B0007047000070B44FF0004591EA030F40F1F0
:1033C000BD816B40841A71EB030603D2001BB1412F
:1033D000121973414FF4001C1CEB410F34BF7CEBFE
:1033E000430442E00C0DA4EB1356352E4FDC45EAA6
:1033F000C323DB0A45EAC121C912B6F120050DDD60
:1034000063FA05F6EB4086EA0305124218BF45F061
:103410000105C01851F100010CD213E062FA06F563
:10342000F2405540F3415A40B340F3405A408018AF
:10343000594107D349085FEA30005FEA350528BFE4
:1034400045F0010501F58011420875F1004250F187
:10345000000041EB04514E0016F5001F70BC38BF50
:1034600070470020090D090570471CEB410F10D271
:1034700052EA43060BD0BCEB410F05D80C0DAB4311
:10348000661E342EB6DD02E0AB438018594170BC95
:10349000704770BC70470000F0B540F2FF7581EADC
:1034A000030C0CF0004C15EA11541DBF15EA13571C
:1034B000AC42AF42E5E0BC41C1F31301C3F31303D7
:1034C000801A994143F4801304D2641E400049419C
:1034D00080185941C90241EA5051B1FBF3F603FB90
:1034E0001611A2FB0675D7EBC020A94102D2761EA9
:1034F00080185941C90241EA5051B1FBF3FE03FB68
:103500001E11A2FB0E75D7EBC020A94103D2AEF16C
:10351000010E80185941890241EA9051760546EA28
:103520008E2EB1FBF3F603FB1611A2FB0675D7EB4B
:103530008020A94102D2761E80185941C90241EA71
:1035400050514EEA060EB1FBF3F603FB1611A2FB37
:103550000675D7EBC020A94102D2761E80185941CA
:10356000C90241EA5051B1FBF3F703FB1711A2FB6B
:103570000735D3EBC020A94167F100070CBF00421B
:1035800047F0010766F3D5274FEA1E31B80814F556
:10359000806412DDBD0775F1004250EB0E5051EB17
:1035A000045111F5801F5CBF41EA0C01F0BD4CF0E5
:1035B0007F6141F0E0410020F0BDBD076D0840EAA9
:1035C0000E5041F48011D4F10104B4F120060ADA5E
:1035D000C4F120060200E04001FA06F3E14018437E
:1035E000B24015430EE0342C13DCC6F1200445EA4A
:1035F00040056D0820FA06F2154321FA06F0A140B5
:103600000D43002175F1004250F1000051EB0C0117
:10361000F0BD00205FEA0C01F0BDCFB992185B410C
:10362000B3FA83F704BFB2FA82F6BF190B3FB7F1C2
:1036300020062FBF02FA06F3BB40C7F1200622FA8C
:1036400006F638BF3343BA401CB1E419641E33E7B1
:103650007F4231F00041B1FA81F404BFB0FA80F644
:10366000A4190B3CB4F120062FBF00FA06F1A140CB
:10367000C4F1200620FA06F638BF3143A0403C1BB7
:103680001AE7AC421ABF05EA1357AF4212E050EAFC
:1036900041061CBF52EA4306BFE750EA41073046E5
:1036A00061461CBF41EA0551F0BD52EA430C08BF18
:1036B000C143F0BD00204FF4001616EB410F98BF38
:1036C00016EB430F08BF16EB410F24BFC14305E0C3
:1036D00016EB430F0CBF61464CEA0551F0BD0000EC
:1036E000400D491840EA81200CD2490DA1F58061B6
:1036F000491C40F0004005DBD1F11F0154BFC84018
:10370000C017704700207047014648B1B0FA80F1F9
:103710008840C91CC1F58461090501EBD021400531
:103720007047012000F0BEB87047000070B44FF041
:10373000004591EA030F7FF545AE6B40841A71EBAB
:10374000030604D26E40001BB141121973414FF4BD
:10375000001C1CEB410F34BF7CEB430682E00C0DD8
:10376000A4EB1356362E7BDC012E45EAC32341DC45
:1037700043EA525312BFD20292025B08240545EA83
:10378000C12141EA5051D2EBC020994125D407D143
:10379000B0FA80F610FA06F162D00020203608E078
:1037A000B1FA81F6B140C6F1200220FA02F21143CB
:1037B000B0404FEAF474B4EB465434F001064FEADB
:1037C00074040AD8D6F50016760D04F00044F040D3
:1037D00061FA06F25040F1404840C00A40EA4150C8
:1037E00021F0004128BF5FEA500550F1000044EB92
:1037F000D12135E0DB0A45EAC121C90AB6F120052D
:103800000EDD42EA0242120CC5F1200603FA06F66A
:10381000EB4042EA06056D42984161F100010DE07E
:1038200062FA06F5F240554063FA06FC82EA0C02A1
:10383000F3405A406D42904161EB030111F4801F47
:1038400005D1641E620502D06D004041494121F45A
:103850008011430875F1004350F1000041EB045121
:1038600070BC70471CEB410F15D223F0004352EAA5
:1038700043060BD04FEA4C0CBCEB410F04D80C0DA7
:10388000661E342EB7DDEBE7801A994150EA4106F7
:1038900008BF0021E4E708BF1CEB430F28BF6FF00F
:1038A0000001DDE780B5AFF30080024A1100182067
:1038B000ABBEFBE7260002002DE9F04D8AB0129C5A
:1038C00014B1129C002525601F46164627F00043C0
:1038D000002226F0000A934208BF924514D0044605
:1038E0000D460020DFF8601622462B4600F088FDCA
:1038F0000AD0DFF8581600F083FD09D17800401592
:10390000401C05D1390303D10020DFF83C165CE3ED
:1039100068004015401C0DD025F00041002224F025
:103920000000914208BF904204D078004015401C2E
:1039300040F0EA8068004015401C04D1290302D001
:103940002046294641E378004015401C04D1390344
:1039500002D03046394638E378004015401C4FF01D
:10396000010C00F0808039464A0042EADA7B0022EE
:1039700000234FEA4A0A9B4504BF9245CDE9006700
:1039800030461CD040F23342A2EB5B52352A06DBB4
:1039900000F0000201F00043CDE900230FE0202AEF
:1039A00004DDA2F12000C140814000E001D10020EF
:1039B00003E0002AC4BFD0409040CDE90001BB46DF
:1039C00000229345B24605DA4FF00041B2EB0A0AF5
:1039D00061EB0B0BDDE90001914204DA4FF000438B
:1039E000101A63EB01018B450CBF82459446DDE95B
:1039F00000014B0043EAD07342000026B34208BFE7
:103A0000B24217D040F2344EAEEB5352352A04DBAB
:103A100000F0000001F000410CE0202A03DD203A14
:103A2000D140914000E001D1002003E0002AC4BF52
:103A3000D0409040BCF1000F15D0DDE90023B34227
:103A400004DA4FF0004BB21A6BEB0303B14204DA15
:103A50004FF0004B301A6BEB01018B4206BF8242E4
:103A6000B4464FF0010C68004015401C06D12903F4
:103A700004D1EC0F1AD1FE0F43D020E0780040159E
:103A8000401C1DD139031BD125F00041B1F5801F29
:103A900024F0000020D20023994208BF98420093EE
:103AA0001FD06A462946FFF74FFB1AE0FE0F03D1ED
:103AB000BCF1000F25D020E0BCF1000F09D183E25A
:103AC000BCF1000F14BFEC0F0024FE0F13D184B122
:103AD00000204FF0004178E2DFF8742402EB11502F
:103AE0000090FE0F009802D1002809DC01E00028B8
:103AF00006DD002068E21CB10020DFF8581464E203
:103B00000020DFF8541460E2394630464B0043EAA7
:103B1000D07342004FF0000A534504BF5245CDE92F
:103B2000006719D040F2334CACEB5352352A04DB1A
:103B300000F0000001F000410CE0202A03DD203AF3
:103B4000D140914000E001D1002003E0002AC4BF31
:103B5000D0409040CDE90001E80F1ED039465145D4
:103B6000304605DA4FF00043BAEB000063EB010189
:103B7000DDE90023534505DA4FF0004BBAEB0202B2
:103B80006BEB0303994208BF904206D0AFF300806D
:103B90004FF0FF306FF0004117E225F00041B1F522
:103BA000801F24F000000CD2514508BF5045CDF8CD
:103BB00008A011D002AA2946FFF7C6FA04460D460E
:103BC0000AE0DFF88C2302EB11500290DFF88C132F
:103BD000DFF88C0305400D43E80F3CD0DDE9000120
:103BE0004B0043EAD0734200534508BF524525F0CD
:103BF00000451AD04B0040F2344C43EAD073ACEB92
:103C00005352352A04DB00F0000001F000410CE0C3
:103C1000202A03DD203AD140914000E001D100206C
:103C200003E0002AC4BFD0409040DDE900235345A3
:103C300005DA4FF0004BBAEB02026BEB0303514580
:103C400005DA4FF0004BBAEB00006BEB01018B4241
:103C500008BF824202D1CDF80CA001E001210391FE
:103C6000029801282FD120462946BE4ABE4BFFF7B5
:103C7000A3FA28D24800400DD046DFF8CCB200F1BC
:103C8000010211D0002A0FDD40F2FF70824206DBF4
:103C9000B14905F00043002443EA010532E06FF327
:103CA0001E5141EA02552DE025F0004324F00002A8
:103CB000434508BF424525D001222046FFF7ACFA14
:103CC00004460D461EE00020A84922462B46FFF779
:103CD00069F9DFF888B200225B46FFF727FDFFF79E
:103CE00039FBA0F120084046FFF752FB0022A04B11
:103CF000FFF758F900225B46FFF718FD82468B4616
:103D00004FEA48182046294652465B46FFF752FBC9
:103D1000CDE9000152465B4620462946FFF706FDE5
:103D200002460B46DDE90001FFF7B6FBCDE90401D1
:103D3000DDE90423FFF736F9CDE9000152462046BC
:103D400029465B46FFF736FBCDE90601DDE9002396
:103D500088488949FFF726F9884A894BFFF7E6FC2E
:103D6000DDE90023FFF71EF9864A874BFFF7DEFCEB
:103D7000DDE90023FFF716F9844A854BFFF7D6FCEF
:103D8000DDE90023FFF70EF9824A834BFFF7CEFCF3
:103D9000DDE90023FFF706F9804A814BFFF7C6FCF7
:103DA000DDE90023FFF7FEF87E4A7F4BFFF7BEFCFC
:103DB000CDE908015246002063495B46FFF7FAFA55
:103DC0000B465A00520D02F1010411D0002C0FDDF8
:103DD00040F2FF72944205DB5F4D01F00040002489
:103DE000054312E06FF31E5343EA045504460CE00A
:103DF00021F00043002420F00002A3420EBFA242A3
:103E00000122FFF709FA04460D46DDE90023DDE94A
:103E10000801FFF7C7F8DDE90623FFF7CBFA2246D2
:103E20002B46FFF783FCDDE90423FFF7BBF80FF215
:103E3000B01202EB0805DDE90623FFF777FC8246A6
:103E400002988B46FFF7A4FAD5E90023FFF76EFC32
:103E5000CDE900015246554855495B46FFF7A2F8A7
:103E6000DDE90023FFF762FC32463B46FFF79AF894
:103E70000022504BFFF7A0F962D301224E4BFFF70F
:103E8000B3F956D9CA0F1ABF00224C4B334BFFF778
:103E90004DFCFFF75FFA044632463B465046594612
:103EA000FFF780F882468B46D5E90201D5E9042365
:103EB000FFF73CFC32463B46FFF774F8404A414B63
:103EC000FFF770F852465B46FFF730FC05468B461D
:103ED000DDE9000132463B46FFF764F806460F462F
:103EE0002046FFF755FA02460B4630463946FFF7A3
:103EF00061FA334A334BFFF755F82A465B46FFF722
:103F000015FC129A0AB114600024009400220E4B92
:103F100000F086FA21F00045002220F000049542CE
:103F200008BF94420CD04A005215521C03D10B0317
:103F300001D100200849039A2AB181F0004144E0F0
:103F400000200021F7E740E00000F03F0000F0BF54
:103F500002FCFFFF0000F0FF0000F07F0000E03FE8
:103F6000FFFF0F80CD3B7F669EA0E63F00005040E4
:103F70000000903FF7DE29BFD8F8C23FF4B3FECC73
:103F80001A99C33F62CB68D96F46C73FC6C912DAD8
:103F9000C471CC3F4AE98A942449D23FF75F97998C
:103FA0009999D93FBC5555555555E53FFE822B652E
:103FB0004715F73F0000E0C00000E0400000E0BF10
:103FC000EF39FAFE422EE63F00210AB0BDE8F08D3F
:103FD00010B582B000240094FFF76EFC1CBD0000F9
:103FE000000000000000F0BF0000000000000080A2
:103FF0000000000000000080000000000000000041
:10400000000000C05294EEBF00000048204E51BE98
:10401000000000F86467BCBC000000000000000065
:10402000000000208133EDBF00000080B3DB14BE30
:10403000000000506706A3BC000000000000000064
:10404000000000D0E9DCEBBF00000008C39259BEBD
:1040500000000080B0D3B8BC0000000000000000E9
:1040600000000070F98FEABF000000C0A51028BE54
:10407000000000E8BFC0B0BC00000000000000006D
:1040800000000070284CE9BF00000060134B42BEE6
:10409000000000C03D20B8BC00000000000000008F
:1040A00000000050FA10E8BF000000C05FF62BBE11
:1040B000000000905C71A7BC000000000000000040
:1040C00000000020FCDDE6BF000000C0F8F154BE97
:1040D00000000018E9F6B9BC000000000000000074
:1040E000000000D0C3B2E5BF00000070E43254BE4F
:1040F00000000050DB06B4BC00000000000000001F
:1041000000000010EF8EE4BF00000020F36252BEFA
:10411000000000C02A879ABC0000000000000000D8
:10412000000000B02272E3BF000000F0E8E056BEDD
:1041300000000028352DBDBC00000000000000007C
:10414000000000000A5CE2BF000000B0FA8E41BE31
:1041500000000040AE6FBDBC000000000000000089
:1041600000000000564CE1BF000000F015CD5FBE1E
:1041700000000000141C90BC0000000000000000C3
:1041800000000040BD42E0BF00000030F93457BEDF
:10419000000000E06C1E93BC000000000000000066
:1041A000000000E0F57DDEBF000000B08A535EBE77
:1041B00000000080DA77AABC0000000000000000C8
:1041C000000000C09D81DCBF00000000FFA226BEF1
:1041D0000000006057E2B0BC0000000000000000DA
:1041E00000000060F98FDABF000000580A8151BE5C
:1041F000000000F05F60B8BC00000000000000009C
:104200000000000098A8D8BF000000607A7F45BE7B
:10421000000000D05433A3BC0000000000000000E8
:10422000000000600FCBD6BF000000D091CB40BE95
:10423000000000406D1BA0BC00000000000000005A
:10424000000000A0FBF6D4BF00000098C5CE52BE0F
:10425000000000003A397EBC0000000000000000B1
:10426000000000E0FE2BD3BF0000004073872BBE90
:1042700000000000926879BC00000000000000000F
:1042800000000040C069D1BF00000058F16353BE78
:1042900000000080438D7CBC000000000000000096
:1042A00000000080D85FCFBF000000181F8354BEFD
:1042B000000000B03F42A2BC00000000000000006F
:1042C0000000008067FCCBBF00000060FAFF53BE17
:1042D00000000050E00DB8BC00000000000000002D
:1042E0000000000098A8C8BF000000607A7F35BEBB
:1042F000000000C0543393BC000000000000000028
:1043000000000000DC63C5BF00000058D6FF54BEAB
:1043100000000000396490BC0000000000000000B4
:10432000000000C0AD2DC2BF00000080A45915BE22
:10433000000000E0484BABBC0000000000000000A3
:10434000000000801A0BBEBF00000050BF3C5ABEE8
:10435000000000A0B364B6BC000000000000000034
:104360000000008004D6B7BF00000040BBCF36BEBF
:104370000000008076CEA8BC000000000000000015
:104380000000008032BBB1BF000000402A0043BEE5
:1043900000000028C60CBDBC0000000000000000AA
:1043A000000000009473A7BF000000182B3B59BE0B
:1043B000000000C0E55DA5BC00000000000000009A
:1043C00000000000EE4397BF000000A0E6C340BE1F
:1043D00000000020958DB5BC00000000000000002A
:1043E00000000000000000800000000000000080CD
:1043F000000000000000008000000000000000003D
:1044000090420CD141EA030C50EA4C0C07D099427F
:1044100005D14FF4001C1CEB410F38BF8942704797
:104420002DE9F04D04460D4668004015401C84B04F
:1044300016461F461DD025F00041002224F0000042
:10444000914208BF904214D078004015401C10D013
:1044500026F0000037F0004108BF904209D02946FD
:10446000914280F28B804FF00043101B63EB0101FF
:1044700084E068004015401C02D1290340F071819E
:1044800078004015401C01D1390351D127F0004379
:10449000002026F00002834208BF824206D1680055
:1044A0004015401C44D1290342D10BE0780040154F
:1044B000401C0ED139030CD168004015401C37D187
:1044C000290335D1AFF300804FF0FF306FF000418A
:1044D00049E125F000410022002324F00000994228
:1044E00008BF904227D1394648000C9A400D121857
:1044F00080BB27F0004126F00000994208BF984297
:1045000005D00C9A3946FEF787FE06460F4627F07F
:104510000043002026F00002834208BF824205D0FB
:1045200078004015401C03D1390301D1AFF300805E
:104530003046394617E168004015401C1CD129035C
:104540001AD132463B462046294604B0BDE8F04D1C
:10455000FEF728BD002ACCDD40F2FF70824206DB68
:10456000824907F00043002643EA0107CFE76FF3D3
:104570001E5141EA0257CAE700200AE07C4B9342F1
:10458000BCBF4FF0004060EB0303994292461046D7
:1045900002DA07F00041E6E076498142BCBF4FF005
:1045A000004363EB01012B468342224605DA4FF0BC
:1045B000004BBAEB02026BEB0303994209DC01DB0F
:1045C000904206D2AFF30080684907F000431943D8
:1045D000C9E06948694922462B46FEF7E3FC684B6F
:1045E00001F0004213430022FFF7A0F8FEF7B2FEED
:1045F0008046FEF7CDFE82468B464FF078406149FB
:1046000052465B46FEF7CEFC02460B462046294644
:10461000FEF7D0FE04460D465B485C4952465B46B9
:10462000FEF7C0FC02460B4620462946FEF7C2FEB6
:104630000D4625F000410022554BFEF7BDFD044616
:1046400002D234463D4652E022462B462946FEF72A
:10465000A9FC82468B464F484F4952465B46FEF7BF
:10466000A1FC4E4A4E4BFFF761F852465B46FEF7FF
:1046700099FCCDE9020152464A484B495B46FEF798
:1046800091FC4A4A4A4BFFF751F852465B46FEF707
:1046900089FC00223A4BDFF81CB1FFF747F82246AD
:1046A0002B46FEF77FFC04460D46DDE9020122465B
:1046B0002B46FFF73BF800225B46FFF737F8CDE9C2
:1046C00000012246DDE902012B46FEF773FE0022BF
:1046D0005B46FFF72BF802460B46DDE90001FEF7CB
:1046E000DBFE32463B46FEF75DFC04460D460C9869
:1046F00000EB080229464800400D02EB000311D0F0
:10470000002B0FDD40F2FF70834206DB174905F0F6
:104710000043002443EA010512E06FF31E5141EA11
:1047200003550DE025F00041002624F00000B142C1
:1047300008BFB04204D02946FEF76EFD04460D4680
:1047400025F00043002024F00002834208BF82428B
:1047500005D068004015401C03D1290301D1AFF3F7
:1047600000802046294604B0BDE8F08D0000F07FAF
:1047700000C89CC000C89C40FE822B654715F73FCF
:104780000000E03F422EE63FF2E4D5BCE7E84B3EB6
:104790000000903C112E5781A03F503F5843128C8F
:1047A0008F71BC3F4BE8A541B752013F0BBDF3DA17
:1047B000E8708C3F0000F03F2DE9F84F83460C0075
:1047C0005FF000080025002600F022FF07009BF89C
:1047D0006500642855DA9BF86500411C8BF865106C
:1047E000C0B2584444709BF86500012819D19BF869
:1047F0000100390080B289B2884212D09BF80100D2
:10480000FF280ED040F231195FF0000A52464946A7
:10481000584600F01FFF01208BF866004046C0B2EA
:104820009BE09BF86500022826D19BF80200012836
:1048300022D09BF8020003281ED09BF80200042817
:104840001AD09BF80200052816D09BF80200062813
:1048500012D09BF8020010280ED040F231195FF000
:10486000000A52464946584600F0F4FE01208BF8F3
:1048700066004046C0B270E09BF8020001280FD1EC
:104880001EE040F231195FF0000A52464946584690
:1048900000F0E0FE01208BF866004046C0B25CE00C
:1048A0009BF8020003280BD09BF80200042807D0D5
:1048B0009BF80200052803D09BF80200062806D1C9
:1048C0009BF8650008281DD1012080461AE09BF85E
:1048D0000200102809D19BF865009BF807100931E8
:1048E00088420FD1012080460CE09BF802000F287F
:1048F00008D19BF865009BF807100931884201D167
:10490000012080465FFA88F8B8F1010F23D19BF8A7
:104910006500811E89B21BF1010000F0DEFE060079
:104920009BF865005844401E00F0CFFE05002800AB
:10493000310080B289B288420DD040F231195FF067
:10494000000A52464946584600F084FE01208BF882
:104950006600002001E04046C0B2BDE8F28F10B50D
:10496000040094F8301189B214F1670000F0B5FE2C
:1049700094F830114A1C84F83021C9B2214481F8DE
:10498000670094F830114A1C84F83021020092B27A
:10499000120AC9B2214481F8672010BD80F82F1196
:1049A00090F83021531C80F830314378D2B2024461
:1049B00082F8673090F83021531C80F830318378CA
:1049C00053F08003D2B2024482F8673090F830216D
:1049D000531C80F8303190F82F31D2B2024482F863
:1049E0006730704710B50400A07801280CD0032868
:1049F0000ED0042810D0052812D0062818D00F2871
:104A000012D0102818D01BE0200000F014F91EE08E
:104A1000200000F01EF81AE0200000F093F816E0E5
:104A2000200000F069FA12E0200000F0F1FA0EE038
:104A3000200000F076F90AE0200000F0D8F906E046
:104A400001212000FFF7AAFF2000FFF788FF0120C7
:104A500010BD2DE9F0470700F81C00F02EFE80463F
:104A6000781D00F02AFE81465FF0000A1FFA88F8E0
:104A70001FFA89F919EB08003D2807D302213800F5
:104A8000FFF78CFF3800FFF76AFF59E04846C0B2D5
:104A90004000060097F83001411C87F83011797802
:104AA000C0B2384480F8671097F83001411C87F88D
:104AB0003011B978C0B2384480F8671097F83001E7
:104AC000411C87F83011C0B2384480F86760444612
:104AD00019EB08000500002082461FFA8AFAADB2E1
:104AE000A4B2281B824528DA97F83001411C87F8C8
:104AF0003011DFF8F8171FFA8AFAA4B214EB0A0291
:104B000031F8121089B2090AC0B2384480F867102F
:104B100097F83001411C87F83011DFF8D0171FFAE1
:104B20008AFAA4B214EB0A0231F81210C0B2384467
:104B300080F867101AF1010ACFE73800FFF70FFF7E
:104B4000BDE8F0872DE9F0470700F81C00F0B5FD3F
:104B50008046781D00F0B1FD81465FF0000A1FFA23
:104B600088F81FFA89F919EB0800192807D30221E0
:104B70003800FFF713FF3800FFF7F1FE59E0484611
:104B8000C0B24000060097F83001411C87F8301190
:104B90007978C0B2384480F8671097F83001411C2A
:104BA00087F83011B978C0B2384480F8671097F8A8
:104BB0003001411C87F83011C0B2384480F867607A
:104BC000444619EB08000500002082461FFA8AFAC5
:104BD000ADB2A4B2281B824528DA97F83001411CF7
:104BE00087F83011DFF808171FFA8AFAA4B214EB1D
:104BF0000A0231F8121089B2090AC0B2384480F8AA
:104C0000671097F83001411C87F83011DFF8E01683
:104C10001FFA8AFAA4B214EB0A0231F81210C0B2D9
:104C2000384480F867101AF1010ACFE73800FFF71F
:104C300096FEBDE8F0872DE9F8430600F01C00F071
:104C40003CFD082190FBF1F7701D00F036FD804619
:104C50001FFA88F818F10700082190FBF1F9BFB29C
:104C6000022F07DB02213000FFF798FE3000FFF72C
:104C700076FE54E096F83001411C86F830117178C8
:104C8000C0B2304480F8671096F83001411C86F8B5
:104C90003011B178C0B2304480F8671096F8300116
:104CA000411C86F83011C0B2304480F86790002073
:104CB000050028004946C0B2C9B288422CD2DFF8AC
:104CC0003406EDB2BFB27919405C04001FFA88F8CF
:104CD000B8F1080F0BDB96F83001411C86F8301153
:104CE000C0B2304480F86740B8F1080812E0E4B27E
:104CF000D8F108008440E4B2D8F10800044196F8E5
:104D00003001411C86F83011C0B2304480F8674051
:104D1000002080466D1CCCE73000FFF720FEBDE888
:104D2000F18370B50400E01C00F0C7FC050000260C
:104D3000ADB23D2D07D302212000FFF72FFE20004A
:104D4000FFF70DFE52E06079A17951EA00210E00D3
:104D5000DFF89805ADB220F8156094F83001411CD9
:104D600084F830116178C0B2204480F8671094F85C
:104D70003001411C84F83011A178C0B2204480F881
:104D8000671094F83001411C84F83011E178C0B20A
:104D9000204480F8671094F83001411C84F83011E9
:104DA0002179C0B2204480F8671094F83001411C8A
:104DB00084F83011DFF83415ADB231F8151089B22E
:104DC000090AC0B2204480F8671094F83001411CF1
:104DD00084F83011DFF81415ADB231F81510C0B2F7
:104DE000204480F867102000FFF7B9FD70BD2DE961
:104DF000F0470600F01C00F060FC0700701D00F09A
:104E00005CFC80465FF0000A5FF00009BFB21FFA49
:104E100088F818EB07003D2807D302213000FFF780
:104E2000BDFD3000FFF79BFD64E03C0018EB070080
:104E30000500002082461FFA8AFAADB2A4B2281BF0
:104E4000824518DA1FFA8AFA06EB4A00007A1FFA3E
:104E50008AFA06EB4A01497A51EA00218946DFF8CD
:104E60008C04A4B21FFA8AFA1AEB040120F81190FC
:104E70001AF1010ADFE796F83001411C86F830117B
:104E80007178C0B2304480F8671096F83001411C48
:104E900086F83011B178C0B2304480F8671096F8C7
:104EA0003001411C86F83011F178C0B2304480F8EE
:104EB000671096F83001411C86F830113179C0B284
:104EC000304480F8671096F83001411C86F83011A4
:104ED0007179C0B2304480F8671096F83001411CF7
:104EE00086F83011B179C0B2304480F867103000D4
:104EF000FFF735FDBDE8F087F8B50600F01C00F0BF
:104F0000DCFB082190FBF1F7F01C00F0D6FB04005D
:104F10000025BFB2022F07DB02213000FFF73EFD64
:104F20003000FFF71CFD72E07079B17951EA002181
:104F30000D00ADB2B5F57F4F13D1A4B2200008210A
:104F4000DFF8B023BFB2D25D012390FBF1FC01FB7F
:104F50001C0013FA00F01043DFF89813BFB2C855D5
:104F600016E0ADB2002D13D1A4B220000821DFF865
:104F70008423BFB2D25D012390FBF1FC01FB1C0036
:104F800013FA00F032EA0000DFF86813BFB2C85528
:104F900096F83001411C86F830117178C0B2304467
:104FA00080F8671096F83001411C86F83011B1780E
:104FB000C0B2304480F8671096F83001411C86F882
:104FC0003011F178C0B2304480F8671096F83001A3
:104FD000411C86F830113179C0B2304480F8671036
:104FE00096F83001411C86F830117179C0B2304416
:104FF00080F8671096F83001411C86F83011B179BD
:10500000C0B2304480F867103000FFF7A8FCF1BD53
:105010002DE9F8430500E81C00F04FFB082190FB48
:10502000F1F6681D00F049FB8046EF79B6B2022E1A
:1050300007DB02212800FFF7B1FC2800FFF78FFCF7
:1050400099E00020814648463900C0B2C9B2884282
:1050500048D25FFA89F905EB0900007A04001FFACB
:1050600088F8B8F1080F09DBA248B6B25FFA89F9EF
:1050700019EB06014454B8F1080830E09D48B6B277
:105080005FFA89F919EB0601405C50FA08F099497A
:10509000B6B25FFA89F919EB060288549548B6B2A0
:1050A0005FFA89F919EB0601405C10FA08F09149A2
:1050B000B6B25FFA89F919EB060288548D48B6B288
:1050C0005FFA89F919EB0601405C20188949B6B2EC
:1050D0005FFA89F919EB060288540020804619F11D
:1050E0000109B0E795F83001411C85F83011697865
:1050F000C0B2284480F8671095F83001411C85F84B
:105100003011A978C0B2284480F8671095F83001B2
:10511000411C85F83011E978C0B2284480F8671046
:1051200095F83001411C85F830112979C0B2284426
:1051300080F8671095F83001411C85F830116979C5
:10514000C0B2284480F8671095F83001411C85F8FA
:105150003011A979C0B2284480F8671095F8300161
:10516000411C85F83011A979C0B2284480F8671035
:105170002800FFF7F4FBBDE8F1832DE9F0470500B7
:105180000C0016001F005FF0000A5FF00008B9462F
:1051900000F0F6FAEDB2012D04D046D3032D2FD046
:1051A00017D342E03C2C13D2002080461FFA88F827
:1051B000B0450DD24D481FFA88F818EB040130F8BD
:1051C00011001FFA88F829F8180018F10108EDE716
:1051D0002BE0182C13D2002080461FFA88F8B04527
:1051E0000DD243481FFA88F818EB040130F811007B
:1051F0001FFA88F829F8180018F10108EDE714E003
:10520000002C12D1002080461FFA88F8B0450CD23D
:1052100038481FFA88F818EB0401405C1FFA88F838
:1052200007F8080018F10108EEE700F0B6FABDE84B
:10523000F0872DE9F04705000C0016001F005FF015
:10524000000A5FF00008B94600F09AFAEDB2012DAD
:1052500004D046D3032D2FD017D342E03C2C13D2D9
:10526000002080461FFA88F8B0450DD21FFA88F852
:1052700039F818001D491FFA88F818EB040221F8C4
:10528000120018F10108EDE72BE0182C13D20020D2
:1052900080461FFA88F8B0450DD21FFA88F839F811
:1052A000180013491FFA88F818EB040221F81200BD
:1052B00018F10108EDE714E0002C12D1002080461F
:1052C0001FFA88F8B0450CD21FFA88F817F80800C2
:1052D00008491FFA88F818EB0402885418F10108ED
:1052E000EEE700F05AFABDE8F0870000985C002075
:1052F000C85D00203260002070B504000D0016006B
:105300000021DFF81403006800F0E9FB01280BD14D
:1053100032002900200000F051FD0023002200216E
:10532000BD48006800F015FB70BD80B57C22BB490C
:10533000BB4800F02EFDB9480068BA49884265D0E4
:10534000B848B64908600120B44988804FF4165027
:10535000B249C1F806000520B0494881F020AF49A4
:1053600088815FF07E50AD49C1F80E005FF07E503D
:10537000AA49C1F81200AC48A849C1F8160000209B
:10538000A649C1F81A000020A449C1F81E005FF028
:105390007E50A249C1F822005FF07E509F49C1F8BB
:1053A000260000209D49488500209C49C8620020B5
:1053B0009A49086300209949486300209749088763
:1053C00001209649488799489449C8630520934924
:1053D000A1F840004FF4FA609049A1F8420028205B
:1053E0008E49A1F844000A208C49A1F846007FF0BC
:1053F00009008A49A1F848004FF448608749A1F89C
:105400004A007C2285498648FFF776FF7C2288493E
:10541000884800F0BEFC864800688249884265D012
:105420008048834908600120814988804FF41650E4
:105430007F49C1F8060005207D494881F0207C495C
:1054400088815FF07E507A49C1F80E005FF07E508F
:105450007749C1F8120074487549C1F81600002058
:105460007349C1F81A0000207149C1F81E005FF0AD
:105470007E506F49C1F822005FF07E506C49C1F840
:10548000260000206A49488500206949C86200203A
:10549000674908630020664948630020644908871B
:1054A00001206349488761486149C8630520604914
:1054B000A1F840004FF4FA605D49A1F842002820AD
:1054C0005B49A1F844000A205949A1F846007FF041
:1054D00009005749A1F848004FF448605449A1F821
:1054E0004A007C2252495348FFF706FF04226946CE
:1054F000514800F04EFC00985049884206D04F4871
:105500000090042269464C48FFF7F6FE4C484D498E
:105510007822FDF77BFC00204B49A1F8A000002079
:105520004949A1F8A20000204749A1F8A4000020A1
:105530004549A1F8A600424B3C2200210120FFF77B
:1055400078FE01BD10B59EB00400E4B2012C06D176
:105550003B4B3C2200210120FFF70FFE05E0384BBA
:105560003C2200210120FFF764FE2E482B490860F1
:10557000684633497822FDF749FC3248694678226B
:10558000FDF744FC7C2225492548FFF7B5FE1EB0F7
:1055900010BD70B5A2B02C48D0F832002449D1F823
:1055A0000610884215D0102400256E462A002100DE
:1055B000300000F04FF81E48D0F8060000900020A0
:1055C0000190082002900120039069461F4800F0D6
:1055D00053FD04A81E497822FDF718FC184804A9B9
:1055E0007822FDF713FC0020FFF7ACFF22B070BD5E
:1055F00080B5134B3C2200210120FFF7BEFD01BD09
:1056000080B5114B182200210220FFF712FE01BDC8
:105610000D48008E70470000C85F00201C5C002011
:1056200000D00708443322221F85AB3F00004842C8
:10563000A05B002000C0070800E00708C8B33401E1
:10564000285B0020205C0020F85A00200044004025
:10565000A45B002062F30F2262F31F42401810F097
:10566000030308D0C91A1FD3DB0748BF00F8012D78
:1056700028BF20F8022D130030B414461546103907
:1056800028BF20E93C00FAD8490728BF20E90C00D0
:1056900048BF40F8042D890028BF20F8022D48BFDC
:1056A00000F8012D30BC7047C91818BF00F8012D53
:1056B000CB0728BF00F8012D7047010000220B78AE
:1056C000487850EA032080B27047010000224B78EE
:1056D000087850EA032080B2704770B403004FF698
:1056E000FF70002422000E0092B2B6B2B24216D26F
:1056F000A4B21A5D504000221500ADB2082D0CDA9C
:10570000C20706D580B202004AF2010090EA5200B8
:1057100001E080B240086D1CEFE7641CE2E780B254
:1057200070BC7047001F5FF080730360001F4B0860
:105730005B000360001F0FF20D030360143802606A
:1057400020387047502080F31188BFF34F8FBFF38C
:105750006F8FFEE780B52248006850F47000204942
:1057600008601F48006850F070401D49086000F054
:105770003DF800201B49086000F021FD002002BD1B
:10578000502080F31188BFF34F8FBFF36F8F154800
:105790000068401C13490860704712480068401EAA
:1057A000104908600F480068002802D1002080F3EB
:1057B0001188704780B5502080F31188BFF34F8F58
:1057C000BFF36F8F00F0B9FE002803D05FF0805068
:1057D00005490860002080F3118801BD0000000029
:1057E00020ED00E04400002004ED00E00020064928
:1057F0000860002005490860054806490860072040
:1058000001490860704700BF10E000E018E000E0C8
:105810003F19010014E000E070B505000C002E00F7
:10582000FFF7AEFF3168F26B306C424301EB0200D0
:1058300070600020B0633068B0603168F26B521E57
:10584000306C424301EB0200F0605FF0FF3086F8FD
:1058500044005FF0FF3086F84500002C12D130691B
:10586000002817D016F1100000F04EFF002811D0CC
:105870005FF08050DFF80C150860BFF34F8FBFF367
:105880006F8F07E016F1100001F0C4F916F1240043
:1058900001F0C0F9FFF781FF012070BD2DE9F84349
:1058A00006000D001700002D02D15FF0000801E096
:1058B00005FB06F818F1480001F0FAF90400002C85
:1058C0000AD014F14800814600943B00DBB24A46FE
:1058D0002900300000F003F82000BDE8F2832DE934
:1058E000F04105000C0016001F00DDF81880002CA8
:1058F00002D1C8F8008001E0C8F80060C8F83C5048
:10590000C8F8404001214046FFF786FFBDE8F0811E
:1059100010B50400002C0BD0002060600020206037
:105920000020E060002300220021200000F011F898
:1059300010BDF8B50400012600272200D2B23900BC
:105940003000FFF7ABFF05002800FFF7E1FF28005C
:10595000F2BD2DE9F74306000F0098460024B1463A
:10596000FFF70EFFD9F83800D9F83C10884202D36F
:10597000B8F1020F28D142463900484600F061F9DB
:105980000500D9F8240000280FD019F1240000F0F8
:10599000BBFE002814D05FF08050DFF8E8130860E9
:1059A000BFF34F8FBFF36F8F0AE0002D08D05FF079
:1059B0008050DFF8D0130860BFF34F8FBFF36F8FB5
:1059C000FFF7EBFE012052E00298002803D1FFF719
:1059D000E4FE00204BE0002C04D1684600F0F3FE0A
:1059E00001200400FFF7D9FE00F02CFDFFF7C8FEF0
:1059F00099F9440010F1010F02D1002089F8440008
:105A000099F9450010F1010F02D1002089F84500F5
:105A1000FFF7C3FE02A9684600F0DEFE002820D191
:105A2000484600F09FF9002815D0029919F110009E
:105A300000F043FE484600F050F900F00BFD00284E
:105A40008ED15FF08050DFF83C130860BFF34F8FBA
:105A5000BFF36F8F84E7484600F03FF900F0FAFC8F
:105A60007EE7484600F039F900F0F4FC0020BDE87C
:105A7000FE832DE9F84305000C002E00EFF311879B
:105A8000502080F31188BFF34F8FBFF36F8FD6F88C
:105A90003880F06B80451DD296F9459018F10100D1
:105AA000B0634FFA89F919F1010F0DD1706A00281E
:105AB0000ED016F1240000F027FE002808D0002C9C
:105AC00006D00120206003E019F1010086F84500AE
:105AD000012000E0002087F31188BDE8F2832DE962
