:020000040800F2
:100000004864002091D2000853C4000855C4000879
:1000100057C4000859C400085BC400080000000071
:10002000000000000000000000000000D35700089E
:100030005DC40008000000008D5700085FC4000880
:100040007DD3000881D3000885D3000889D3000838
:100050008DD3000891D3000895D3000899D30008E8
:100060009DD30008A1D30008A5D30008A9D3000898
:10007000ADD3000889C40008B1D300088BC40008C0
:10008000B5D30008B9D300086BC40008BDD300087D
:10009000C1D30008C5D30008C9D30008CDD30008D8
:1000A000D1D300085DC50008D5D30008D9D3000816
:1000B00075C50008DDD30008E1D30008E5D30008CA
:1000C000E9D30008EDD30008F1D30008F5D3000808
:1000D000F9D300088DC40008CDC4000829C5000864
:1000E000FDD3000801D4000805D4000809D4000895
:1000F0000DD4000811D4000815D4000819D4000844
:100100001DD4000821D4000825D4000829D40008F3
:100110002DD4000831D4000835D4000839D40008A3
:100120003DD4000841D4000845D4000849D4000853
:100130002DE9F0439FB081462698DFF8F48B8DF8C7
:100140003B00174600201E4602910B900FF27014E0
:100150004FF0FF350AE017F8011B0298C847002846
:10016000029000F09A800B98401C0B90387850B1A8
:100170002528F0D1002000210590069107900891D4
:1001800009900A9103E00B989EE041F0010117F8F5
:10019000010F2028F9D023280DD02B2804D02D289A
:1001A00006D030280AD07AE041F0020189B2EEE7A9
:1001B00041F00401FAE741F00801F7E741F01001CE
:1001C000F4E700200D9009E00D98404505DA00EBBA
:1001D000800302EB4302303A0D927F1C3A78A2F181
:1001E00030000A28F0D33A782E2A18BF0C9523D174
:1001F00017F8010F2A2807D1306830607F1C50F8AB
:10020000042B30600C9217E02D280CBF17F8010B5F
:10021000002000220C920AE040B90C9A424505DA0F
:1002200002EB820203EB4203303B0C937F1C3B78D2
:10023000A3F130020A2AEFD3ADF8381020463978FE
:1002400000F060FF08B117F8010B8DF83A009DF837
:100250003A00682804BF3978682903D162208DF8F4
:100260003A0007E06C2804BF38786C2803D171216C
:100270008DF83A107F1C10A80490324617F8013B05
:100280006946484600F060F838B910AA6946484601
:1002900000F0C2F900287FF569AF284614E02A284B
:1002A0008FD13068306050F8042B3060002A0D92F6
:1002B00004D5524241F004010D9289B27F1C92E7AD
:1002C000686A6C747A4C00001FB0BDE8F083622845
:1002D00020D0682811D06A2803D06C2827D0712834
:1002E00025D10868C01D20F007000860D0E9002370
:1002F00008300860194610467047002A0A680A60EC
:10030000106803D0121D0A6000B217E0121D0A60C7
:1003100080B217E0002A0A680A60106803D0121D34
:100320000A6040B20AE0121D0A60C0B20AE0002A68
:100330000A680A60106803D0121D0A60C11770476E
:10034000121D0A60002170477CB50D4611461C46FF
:100350002E69B4F1250200F04D811C3A00F0868030
:10036000121F022A40F282800E3A00F00781521FCB
:100370005AD0093A7AD0921E16D0521E35D0521E4B
:10038000022A73D9121F30D0521F00F09A80521ED9
:100390004AD0521E00F0E480D21E00F0FD80921E72
:1003A00042D0D21E40D02BE195F83A206C2A09D0D9
:1003B0006869421C6A610A680A6052F8043B0A6074
:1003C000335427E10A680A6052F8043B0A600021AE
:1003D000009301914FF0FF322A6329466A4600F0EC
:1003E000A2F9002840F1168101E195F83A000122B6
:1003F000FFF76DFFC5E900010023994204DA68693F
:10040000411C69612D210DE0288F810704D56869A1
:10041000411C69612B2105E0C00722D56869411C98
:100420006961202131541CE095F83A000022FFF761
:100430004EFFC5E9000195F83800010711D5D5E94F
:1004400000230020834208BF82420AD044F02000EB
:10045000782806D1686930213154401C411C6961FB
:100460003454214668693044E86083E00868C01D60
:1004700020F007000860D0E9002308300860C5E9D3
:100480000023D5E90001C80F04D06869411C6961E7
:100490002D210DE0288F810704D56869411C696111
:1004A0002B2105E0C00704D56869411C6961202142
:1004B000315468693044E8602146284600F040FA2B
:1004C000A8E005F13A02507820B14FF0FF340FF662
:1004D000383070E01078622808D0682824D06A2864
:1004E00012D06C282ED071280ED02BE00A680A603A
:1004F00052F8040B0A6020B94FF0FF340FF6203099
:1005000059E0E96A017085E00A680A6052F8040B54
:100510000A6020B94FF0FF340FF604304BE0EA6A6E
:10052000D317C0E9002375E00A680A6052F8040B8B
:100530000A6020B94FF0FF340FF6E4203BE0E96A8F
:10054000018067E00A680A6052F8040B0A6020B96B
:100550004FF0FF340FF6C8202DE0E96A016059E042
:100560000A680A6052F8040B0A600021C5E900011C
:10057000EE607821284600F035F94BE06C2285F8D2
:100580003A200B680B6053F8042B0B6052BB4FF002
:10059000FF340FF6C0200EE095F83A206C2AF0D018
:1005A0000868086050F8044B0860EC603CB94FF0F4
:1005B000FF340FF6842000F0BDFD201A76BD2E6BAF
:1005C000002E04D5204600F0D7FD044608E0324650
:1005D0000021204600F0F4FD002814BF041B34461F
:1005E000AC6117E0294600F09EF8002812D54FF0C4
:1005F000FF3076BD6869411C69612521315409E0ED
:100600006869411C696125223254200002D0481CCF
:1006100068617454002076BD2DE9F0410F4682B028
:100620000646796B7869BC6A091A386A091AB8698A
:10063000091A786A091AF869091A97F838000C1B20
:10064000410790460FD42021002C8DF800100ADDC0
:10065000254601236A463946304600F0BDFC002895
:100660005DD16D1EF5D17B6942463946304600F0BA
:10067000B3FC002853D130208DF800003D6A002DD6
:1006800009DD01236A463946304600F0A5FC002802
:1006900045D16D1EF5D1BB69FA683946304600F088
:1006A0009BFC00283BD130208DF800007D6A002D96
:1006B00008DD01236A463946304600F08DFC70BBE8
:1006C0006D1EF6D1F868B969FB69421839463046A3
:1006D00000F082FC18BB30208DF80000BD6A002DB0
:1006E00008DD01236A463946304600F075FCB0B992
:1006F0006D1EF6D197F8380041070DD52021002C4A
:100700008DF8001008DD01236A463946304600F0B6
:1007100063FC20B9641EF6D10020BDE8F6814FF0DD
:10072000FF30BDE8F6812DE9F0470E46A4B0356BE9
:10073000002D8146904648BF6FF0004500F06CFDEB
:10074000716B40180FF628118128D1E90023CDE9FB
:10075000012328BF4FF0FF303ED20024002D2FDDB3
:10076000D8F8001001AA684600F064FD0746002F83
:1007700035D4D8F8000008B97F1E30D4BD421FDB45
:100780007069381881280AD30020706303AA3146A3
:100790004846FFF741FF040012D40020706103A80F
:1007A000D6F814A03A466946504400F04BFDBA44CE
:1007B000C6F814A058F8040B002818BFED1BCDD1C3
:1007C0002CB903AA31464846FFF726FF044614B960
:1007D000002070617063204624B0BDE8F0874FF0C0
:1007E000FF34F8E72DE9FC4B06468B463469BBF134
:1007F0006F0F08BF082505D04BF02001782914BFE2
:100800000A2510253C27D6E90023BBF1640F18BF49
:10081000BBF1690F9046994606D100218B4203DA5D
:10082000D8F1000869EB49090020814508BF8045DF
:100830001FD1306BE8B9082D4ED196F8380001076A
:100840004AD530203B2784F83B0045E000280ED5F0
:1008500096F8380000F01400102808D1726B706907
:10086000121A306A121A511A0029C8BF3162BDE843
:10087000F38B01968DF800B0404649462A46EB17A7
:1008800000F034FD30327F1ED2B23A2A04DB9DF8EC
:100890000000A0F151018A18E255404649462A4617
:1008A000EB1700F023FD894600228046914508BFE2
:1008B000904504D00198C168E0198142DCD3082D2D
:1008C000019E09D196F83800010705D5E15D302970
:1008D00002D07F1E3020E055E019F060C7F13C01E6
:1008E000306BB1618142B1DA411A31624FF6EF707B
:1008F000318F01403187BDE8F38B2DE9D0430646A7
:100900000F4614464FF00008DFF8289412E0E00785
:1009100007D542464B463046394600F05FFD064655
:100920000F464046494642464B4600F057FD64108C
:1009300080468946002CEAD130463946BDE8D0834E
:100940002DE9F04705468A468EB0D5E900894AF080
:100950002000612802AF00900AD0286B002802D541
:100960000620286304E001BF00986728012129635D
:10097000D5E9006460004015401C0DD121030BD067
:10098000AAF1610103201A29A86102D20FF2E861DD
:1009900010E00FF2E8610DE060004015401C0ED140
:1009A00021030CD1AAF1610103201A29A86116D3F1
:1009B0000FF2D061E868032200F044FCCAE124F0A1
:1009C0000043B3F5801F26F0000211D200208342BD
:1009D00008BF8242019005D13046214612E00FF255
:1009E000A061E7E701AA3046214600F0C9FD09E011
:1009F000D148D24900EB1350019004EA0102D049DA
:100A000030461143C5E90001009A612A0DD1E8681A
:100A100030210170811CE960BAF1610F0CBF7821AF
:100A2000582141706869801C6861D5E90023CDE9CF
:100A30000C23DDE90C0121F0004100220023994242
:100A400004BF9042002000F04D810098612840F0E2
:100A50009C80286B00284CBF2120401C0090404601
:100A6000009E761C4946DDE90C8900F0C1FD019825
:100A70008DF8082038BF89F00049001F0190002E32
:100A80000DF1090040F33C810746404649460022EB
:100A9000002300F0C5FD80F032814800400D00F1D8
:100AA0001C0211D0002A0FDD40F2FF70824205DBEC
:100AB000A44909F000400143002012E06FF31E51E9
:100AC00041EA025140460CE029F0004128F00000C4
:100AD000994208BF98420FBF49461C22494600F080
:100AE000B7FD8046894600F051FEF61F002E0446F1
:100AF00009DD00F069FE02460B464046494600F01B
:100B000075FE80468946F81D072104E004F00F02B7
:100B100000F8012D2411002C01DD491EF6D5491ED7
:100B20005CBF002200F8012DF9D5E4E00020194651
:100B300002AA0A4400E05B1E12F80149491E8442E1
:100B4000F9D00F2804D10DF10900425C521C425427
:100B5000002904D50198001D02AF5B1C0190581EAE
:100B60000CD43918AAF13A040A783032D2B2392AB0
:100B7000C8BFA218401E01F80129F5D5286B00282E
:100B800040F1AF80591E2963ABE04046494600F072
:100B90002FFD019938BF89F0004947F29750414332
:100BA000694A91FBF2F20192D2F1070204DD40465C
:100BB0004946FFF7A2FE0AE0524200206349FFF7D0
:100BC0009CFE02460B464046494600F081FE8046A8
:100BD00000985F4E6628286B06BF019C0A340624E5
:100BE0002418142CC8BF142430208DF8080089461E
:100BF0000DF1090000E03846002C34DD0746404680
:100C0000494600F089FF01460A4607F1080304201F
:100C10000A27B2FBF7F707EB870EA2EB4E02303242
:100C200003F8012C0A22B7FBF2F202EB820EA7EBCB
:100C30004E073037401E03F8027DE9D1083C002CF6
:100C400003F10807D7DD084600F07AFF02460B469D
:100C50004046494600F0CAFD0022334600F0BEFB84
:100C600080468946CBE70DF10901401A0DF10907CD
:100C700004E00199491E401E01917F1C39783029FA
:100C8000F7D0009A662A02D10199491C03E0652A2F
:100C90000CBF012100212B6BCB189842B8BF431E1B
:100CA000002B1ED4834204DAF85C3528A8BF392013
:100CB00000DA302019467A1E02EB010800E05B1EC4
:100CC00018F80199491E8145F9D0392802D1785C7C
:100CD000401C7854002904D50198401C17465B1C21
:100CE0000190019800B200901BB23A465146284646
:100CF00000F033F82EE0C71D002E3FF7C6AE384691
:100D00000DF10901401A009903468842C8BF0B46FD
:100D1000002B0DF109073FF531AF8342BFF606AF57
:100D20000DF10900C05C07287FF700AF0F20FEE639
:100D3000CBCCCC0C0000244002FCFFFFFFFF0F8057
:100D40000000E03F0000F07FA08601000000F03FBF
:100D500084D797410EB0BDE8F0872DE9F04F83B0FE
:100D600006468B469246994600F066FAB9F1000FA6
:100D7000406AD6F83080077803DC4FF001090FF2A3
:100D8000083ABDF930504BF02000662808BF6D1CB2
:100D900017D0672840F0878015F1040FC0F28980D2
:100DA000454580F2868096F838006D1C010702D414
:100DB000C145B8BFC8462DB2B8EB050848BF4FF0D3
:100DC00000082DB2F068B169002D27DC4A1C3023E1
:100DD0004354B8F1000F03DC96F83800010702D540
:100DE000F0688754521C18EB050FB8BFC8F1000516
:100DF0002DB2A8446842C845B8BFC146B26170620E
:100E00000FFA89F4F461F068B36922465146184438
:100E100000F018FAA8EB0400B062C6E02A4691453B
:100E2000084418DA4A46514600F00CFAB0694844C2
:100E3000B061A5EB0901B8F1000F716203DC96F80F
:100E400038100A0704D5F1680F54F069401CF061AE
:100E5000C6F82880A9E0514600F0F4F9B0692818D6
:100E6000B8F1000FA9EB050303DC96F838100A0768
:100E700002D5F1680F54401CB0610FFA83F9C845E0
:100E8000B8BFC146F068B3690FFA89F422460AEB8D
:100E90000501184400F0D6F9B0692044B061A8EB10
:100EA0000400706281E0BBF1610F16D14FF0700B4E
:100EB00018E0C14504DA96F838100A0758BFC8464A
:100EC000B8F1010848BF4FF00008BBF1670F14BF2D
:100ED0004FF0450B4FF0650B04E0BBF1410F08BF2D
:100EE0004FF0500BB169F368481CB061B8F1000FC6
:100EF0001AF8012B5A5403DC96F838100A0719D552
:100F0000F168431CB3610F54B8F1000F12DDA9F171
:100F100001073FB2B845B8BF4746F0683FB23A460E
:100F20005146184400F08EF9B0693818B061A8EB4A
:100F300007007062F068B1690844002D80F800B0C5
:100F400003D42B214170811C03E02D2141706D429F
:100F5000811C00206A460AE02B460A2493FBF4F524
:100F600005EB8504A3EB440302F8013B401C2DB2C2
:100F7000002DF1DC012806DC4BF02002652A04BFBD
:100F8000302201F8012B48B9302001F8010B07E0AD
:100F9000401E1DF80020303201F8012B0028F7DC3C
:100FA000F068B2691044091AF16196F8380000F04F
:100FB000140010280DD17169B0694118706A411888
:100FC000F0694118B06A4118706B8142BCBF411A88
:100FD000316203B0BDE8F08FF8B505460E461746FE
:100FE0001C46002074B117F8011BB068A847B06018
:100FF00030B1F06A401CF0620020641EF3D1F2BDF3
:101000004FF0FF30F2BD00007072696E74665F735E
:101010003A20256E20646973616C6C6F776564009B
:101020007072696E74663A2062616420256E206178
:101030007267756D656E74007072696E74665F7349
:101040003A2062616420257320617267756D656E58
:10105000740000007072696E74665F733A2062619A
:101060006420256C7320617267756D656E74000075
:1010700000000000000000006E616E004E414E0056
:10108000696E6600494E46003000F0B402461068B2
:1010900095681318506803EB5004C00721D54D44E0
:1010A0001FE0F0BC02F10C00704713F8017B05F85B
:1010B000017B491EF9D1A0B1B60813F8011B06F057
:1010C0000306032E08BF13F8016B01EB062149420A
:1010D000801C294405D011F8016B05F8016B401EF6
:1010E000F9D1A342DDD013F8016B16F0030104BF60
:1010F00013F8011BC91C30090F28DAD113F8010BB2
:101100000F30D6E70278C9B28A421AB11CBF10F874
:10111000012FF9E718BF002070478268521C8260D7
:10112000426832B10268531C036011704168491E65
:101130004160704780B508B90FF21C0005490B6883
:101140001BB122220021984701E000F006FD222079
:1011500002BD000030600020636F6E7374726169BD
:101160006E742068616E646C65723A2062616420FE
:101170006D6573736167650000F10103810704D039
:1011800010F8011B89B18107FAD10268B2F101316F
:10119000914311F0803F04BF50F8042FF6E710F898
:1011A000011B11B110F8011BFBE7C01A7047B1F524
:1011B000807F02D34FF0FF307047017001207047ED
:1011C000C9B2830706D0521E22D310F8013B9942C0
:1011D000F7D11FE0083A13D302F1040241EA0121DA
:1011E00041EA014150F8043B121F21BF4B40A3F1DB
:1011F000013C2CEA030C1CF0803FF3D0C9B2001F65
:10120000083210F8013B521E28BF91EA030FF8D8AC
:1012100018BF0120401E704780B500F007F8006C31
:1012200002BD0268531C0360117070470348704789
:10123000DA6B1047014BFBE701487047CC000020F8
:101240009400002062B38B0708D0521E11F8013BB6
:1012500000F8013B00F024808B07F6D1830740F0B3
:10126000208000BF103A07D330B4B1E83810103AEC
:10127000A0E83810F9D230BC530724BFB1E80810F9
:10128000A0E8081044BF51F8043B40F8043BD207E3
:1012900024BF31F8022B20F8022B44BF0B780370D7
:1012A0007047121F17D35B0009D151F8043B20F897
:1012B000023B1B0C121F20F8023BF6D20BE051F848
:1012C000043B00F8013B1B0A20F8023B1B0C121FD9
:1012D00000F8013BF3D238BF121D521E24BF11F893
:1012E000013B00F8013BF8D8704708001B4213D1BE
:1012F000094236D12AB18446B0FBF2F002FB10C29B
:10130000704700F02DBCFCD30022002370470B0077
:101310000200002100207047904271EB030CF6D3CD
:1013200070B5B1FA81F4B3FA83F52C1BA340C4F174
:10133000200532FA05F63343A2405FF00046E6404E
:1013400002E05B085FEA3202841A71EB030524BFF6
:10135000204629467641F4D302000B0030000021DC
:1013600070BD012ACFD970B5140C20D0B1FA81F428
:10137000B2FA82F5C4F120046419B4F12006D6D380
:10138000B2405FF00044F440002502E052085FEAFA
:101390003303C61A71EB020E24BF30467146644116
:1013A0006D41F3D302000B002000290070BD0C46F4
:1013B000B1FBF2F102FB11452D0445EA1045B5FBE6
:1013C000F2F402FB145580B240EA0545B5FBF2F099
:1013D00002FB105240EA044070BD0000B0B581EA43
:1013E000030C0CF0004C40F2FF7515EA11541DBFC0
:1013F00015EA1357AC42AF4239E0E41923EA4553EA
:1014000043F48013C90241F0004141EA505EC70233
:101410001100A7FB020200284FF00000EEFB0120A4
:101420004FF00001E3FB072118BF42F00102401812
:1014300000214941E3FB0E01A4F580640F0302D2B1
:1014400052004041494154F101046CDD470872F1FA
:10145000004250F1000051EB0451A1F580115CBF36
:1014600041EA0C01B0BD4CEA05510020B0BD05EACF
:101470001357AC4214BFAF4241E050EA410E1CBFCB
:1014800052EA430E02E061460020B0BD24423C44D3
:101490001BD15FEA070EF6D0090302BF0146002008
:1014A000AEF1140EB1FA81F7AEEB070401FA07FEB4
:1014B0000C37C7F1200100FA07F7C8404EEA000ECA
:1014C00023EA455343F48013A2E733F00043B3FA11
:1014D00083F704BFB2FA82FE77440B3FE41BB7F1F7
:1014E000200E2FBF02FA0EF3BB40C7F1200E22FAE6
:1014F0000EFE38BF43EA0E03BA40641C82E750EA8E
:10150000410E14BF52EA430E6FF000014FF4001772
:1015100017EB430F8ABF194617EB410FB5E74CEAAB
:1015200005510020B0BDD4F10104B4F120070FDA59
:10153000C4F12007520828BF42F0010210FA07F553
:1015400001FA07F7E1BF2A43E0403843E1400FE0EA
:10155000352C98DCC7F1200452EA400220FA07F249
:1015600018BF42F0010231FA07F0A1400A430021FE
:1015700072F1004250F1000051EB0C01B0BD0000CF
:1015800010B5144600F002F8226010BDC1F30A53F2
:1015900043B14A0012F5001F28D2A3F2FE32A1EB9C
:1015A0000251704750EA410C20D001F0004C31EA62
:1015B0000C01B1FA81F204BFB0FA80F3D2180B3AF1
:1015C000B2F120032CBF00FA03F1914041EA0C0173
:1015D0003EBFC2F1200C20FA0CF319439040524256
:1015E00040F2FD33D21A01EB0351704700227047DD
:1015F0004FF4001C1CEB410F94BF1CEB430F09E0A0
:1016000041EA030C50EA4C0C52EA0C0C03D299420A
:1016100008BF9042704714BF8B428242704700005F
:101620004FF4001C1CEB410F94BF1CEB430F09E06F
:1016300041EA030C50EA4C0C52EA0C0C03D28B42E8
:1016400008BF8242704714BF994290427047000021
:10165000124254D440F2FF7C1CEA11530FD0634570
:1016600031D09B1863453CBF01EB0251704701F03C
:10167000004141EA0C510020AFF30080704750EA6E
:10168000410320D001F0004C91EA0C011CD0B1FACA
:1016900081F30B3B9A420DD9D21A994051EA0C01C1
:1016A000C3F1200C20FA0CFC61449840531C40F21A
:1016B000FF7CD7E7914041EA0C01C2F1200C20FAEF
:1016C0000CF3194390407047B0FA80F31533202B88
:1016D000E0D3202AEED3203A203B9A4209D9D21AED
:1016E00000FA03F141EA0C010020531C40F2FF7C98
:1016F000B8E700FA02F141EA0C01002070475242BB
:1017000040F2FF7C1CEA11530DD06345DBD0B2EBF5
:10171000030C3CBFA1EB025170470CF1010221EA1E
:10172000035141F4801150EA410CCCD001F0004C3F
:10173000352A27DC30B481EA0C01B2F1200309DA42
:10174000C2F12003044601FA03F5D0402843D140FA
:101750009C400CE0C3F12002450020FA03F418BFBE
:1017600044F0010421FA03F091400C43002174F18C
:10177000004550F1000051EB0C01244230BC7FF4D5
:101780007BAF70476146002076E70000C1F30A5343
:1017900040F2FE329B1A14DDD3F120034FEAE172CE
:1017A00008DDC90241EA505141F00040D84080189C
:1017B0005040704703F2E13010B1D24382F0004054
:1017C0007047002070470000C11768B14840401AB8
:1017D000B0FA80F29040D21CC907C2F5846241EA97
:1017E000025202EBD02140057047000070B44FF068
:1017F000004591EA030F40F1BD816B40841A71EB03
:10180000030603D2001BB141121973414FF4001CAF
:101810001CEB410F34BF7CEB430442E00C0DA4EB06
:101820001356352E4FDC45EAC323DB0A45EAC121B6
:10183000C912B6F120050DDD63FA05F6EB4086EA24
:101840000305124218BF45F00105C01851F100010F
:101850000CD213E062FA06F5F2405540F3415A40CB
:10186000B340F3405A408018594107D349085FEA12
:1018700030005FEA350528BF45F0010501F580110C
:10188000420875F1004250F1000041EB04514E0056
:1018900016F5001F70BC38BF70470020090D090500
:1018A00070471CEB410F10D252EA43060BD0BCEB41
:1018B000410F05D80C0DAB43661E342EB6DD02E099
:1018C000AB438018594170BC704770BC7047000032
:1018D000F0B540F2FF7581EA030C0CF0004C15EAFC
:1018E00011541DBF15EA1357AC42AF42E5E0BC41AD
:1018F000C1F31301C3F31303801A994143F4801316
:1019000004D2641E4000494180185941C90241EA8D
:101910005051B1FBF3F603FB1611A2FB0675D7EB92
:10192000C020A94102D2761E80185941C90241EA5D
:101930005051B1FBF3FE03FB1E11A2FB0E75D7EB5A
:10194000C020A94103D2AEF1010E8018594189028D
:1019500041EA9051760546EA8E2EB1FBF3F603FB81
:101960001611A2FB0675D7EB8020A94102D2761E84
:1019700080185941C90241EA50514EEA060EB1FBA6
:10198000F3F603FB1611A2FB0675D7EBC020A941A5
:1019900002D2761E80185941C90241EA5051B1FB6A
:1019A000F3F703FB1711A2FB0735D3EBC020A941C6
:1019B00067F100070CBF004247F0010766F3D52727
:1019C0004FEA1E31B80814F5806412DDBD0775F1C9
:1019D000004250EB0E5051EB045111F5801F5CBFDB
:1019E00041EA0C01F0BD4CF07F6141F0E041002084
:1019F000F0BDBD076D0840EA0E5041F48011D4F1EE
:101A00000104B4F120060ADAC4F120060200E04025
:101A100001FA06F3E1401843B24015430EE0342CBE
:101A200013DCC6F1200445EA40056D0820FA06F2F1
:101A3000154321FA06F0A1400D43002175F1004243
:101A400050F1000051EB0C01F0BD00205FEA0C01E9
:101A5000F0BDCFB992185B41B3FA83F704BFB2FA75
:101A600082F6BF190B3FB7F120062FBF02FA06F32B
:101A7000BB40C7F1200622FA06F638BF3343BA400E
:101A80001CB1E419641E33E77F4231F00041B1FA22
:101A900081F404BFB0FA80F6A4190B3CB4F120061F
:101AA0002FBF00FA06F1A140C4F1200620FA06F685
:101AB00038BF3143A0403C1B1AE7AC421ABF05EACD
:101AC0001357AF4212E050EA41061CBF52EA4306E8
:101AD000BFE750EA4107304661461CBF41EA055165
:101AE000F0BD52EA430C08BFC143F0BD00204FF4E3
:101AF000001616EB410F98BF16EB430F08BF16EB0D
:101B0000410F24BFC14305E016EB430F0CBF6146F4
:101B10004CEA0551F0BD0000400D491840EA812013
:101B20000CD2490DA1F58061491C40F0004005DB55
:101B3000D1F11F0154BFC840C01770470020704743
:101B4000014648B1B0FA80F18840C91CC1F58461F2
:101B5000090501EBD02140057047012000F0BEB817
:101B60007047000070B44FF0004591EA030F7FF515
:101B700045AE6B40841A71EB030604D26E40001B25
:101B8000B141121973414FF4001C1CEB410F34BFDB
:101B90007CEB430682E00C0DA4EB1356362E7BDC67
:101BA000012E45EAC32341DC43EA525312BFD2025D
:101BB00092025B08240545EAC12141EA5051D2EB6B
:101BC000C020994125D407D1B0FA80F610FA06F169
:101BD00062D00020203608E0B1FA81F6B140C6F1AB
:101BE000200220FA02F21143B0404FEAF474B4EB41
:101BF000465434F001064FEA74040AD8D6F50016AC
:101C0000760D04F00044F04061FA06F25040F140D5
:101C10004840C00A40EA415021F0004128BF5FEA35
:101C2000500550F1000044EBD12135E0DB0A45EAD4
:101C3000C121C90AB6F120050EDD42EA0242120CAA
:101C4000C5F1200603FA06F6EB4042EA06056D42AE
:101C5000984161F100010DE062FA06F5F24055404D
:101C600063FA06FC82EA0C02F3405A406D4290414E
:101C700061EB030111F4801F05D1641E620502D0DF
:101C80006D004041494121F48011430875F1004342
:101C900050F1000041EB045170BC70471CEB410F48
:101CA00015D223F0004352EA43060BD04FEA4C0C06
:101CB000BCEB410F04D80C0D661E342EB7DDEBE7EC
:101CC000801A994150EA410608BF0021E4E708BFA5
:101CD0001CEB430F28BF6FF00001DDE780B5AFF3C9
:101CE0000080024A11001820ABBEFBE7260002006C
:101CF00081B0DFF8781B09680143DFF8702B1160B1
:101D0000DFF8681B096801400091009901B0704735
:101D1000C1F30F2202617047C1F30F224261704785
:101D200000B585B06846142100F03CFF0420FFF7A1
:101D3000DFFF0820FFF7DCFFDFF8A80C0090012090
:101D40000190032002900420039001200490694632
:101D5000DFF8940C00F085FF41F210000090694616
:101D6000DFF8880C00F07DFF00200390DFF8800C86
:101D700000906946DFF8740C00F073FF05B000BDF9
:101D800082B000210091009981420ED20021019180
:101D9000019942F21072914203D20199491C0191BA
:101DA000F6E70099491C0091EDE702B0704710B5C5
:101DB000040041F21001DFF8340CFFF7ADFF200002
:101DC000C0B201F002F841F21001DFF8200CFFF779
:101DD0009FFF10BD10B504002000C0B2FFF7E7FF61
:101DE00010BD10B50400200080B2000AC0B2FFF799
:101DF000DEFF2000C0B2FFF7DAFF10BD10B504000F
:101E000040F20221DFF8E00BFFF786FF2000C0B2AE
:101E1000FFF7CDFF40F20221DFF8CC0BFFF778FF90
:101E200010BDF8B504000D0016001F002A20FFF7B2
:101E3000E5FF200080B2FFF7D4FF300080B2FFF74B
:101E4000D0FF2B20FFF7DAFF280080B2FFF7C9FF91
:101E5000380080B2FFF7C5FF2C20FFF7CFFFF1BDA0
:101E600080B500F06CFFFFF75BFFDFF8881BDFF841
:101E7000780BFFF751FF6420FFF782FFDFF8741B38
:101E8000DFF8640BFFF744FF6420FFF779FFDFF80A
:101E9000601BDFF8580BFFF73BFF6420FFF770FF74
:101EA0001120FFF7ABFF6420FFF76AFF3620FFF732
:101EB000A5FF7020FFF78EFF3A20FFF79FFF052058
:101EC000FFF788FFB220FFF799FF0C20FFF782FF92
:101ED0000C20FFF77FFF0020FFF77CFF3320FFF788
:101EE00079FF3320FFF776FFB720FFF787FF352014
:101EF000FFF770FFBB20FFF781FF3520FFF76AFF78
:101F0000C020FFF77BFF2C20FFF764FFC220FFF704
:101F100075FF0120FFF75EFFC320FFF76FFF13205F
:101F2000FFF758FFC420FFF769FF2020FFF752FF9B
:101F3000C620FFF763FF0F20FFF74CFFCA20FFF713
:101F40005DFF0F20FFF746FFC820FFF757FF08206F
:101F5000FFF740FF5520FFF751FF9020FFF73AFFB2
:101F6000D020FFF74BFFA420FFF734FFA120FFF79D
:101F700031FFE020FFF742FFD020FFF72BFF0020CA
:101F8000FFF728FF0620FFF725FF0920FFF722FFB4
:101F90000B20FFF71FFF2A20FFF71CFF3C20FFF755
:101FA00019FF5520FFF716FF4B20FFF713FF0820FE
:101FB000FFF710FF1620FFF70DFF1420FFF70AFFB1
:101FC0001920FFF707FF2020FFF704FFE120FFF7AC
:101FD00015FFD020FFF7FEFE0020FFF7FBFE0620D6
:101FE000FFF7F8FE0920FFF7F5FE0B20FFF7F2FEE2
:101FF0002920FFF7EFFE3620FFF7ECFE5420FFF715
:10200000E9FE4B20FFF7E6FE0D20FFF7E3FE16206A
:10201000FFF7E0FE1420FFF7DDFE2120FFF7DAFED8
:102020002020FFF7D7FE2920FFF7E8FE01BDF8B515
:10203000040000250027EF2340F23F12002100207A
:10204000FFF7EFFE0026B6B2B6F5A07F0CDA00204F
:102050000700BFB2F02F05DA200080B2FFF7C1FE03
:102060007F1CF6E7761CEEE7F1BD70B504000D00AD
:1020700016002B009BB2220092B2290089B22000E8
:1020800080B2FFF7CEFE300080B2FFF7AAFE70BD2F
:102090002DE9FF4F83B000250026BDF81410BDF8D0
:1020A0000C00091A0091BDF81800BDF81040041B7F
:1020B000BDF80C70BDF810800098012802DB5FF0BD
:1020C00001090AE00098002802D15FF0000904E04D
:1020D0005FF0FF39009840420090012C02DB5FF076
:1020E000010A07E0002C02D15FF0000A02E05FF075
:1020F000FF3A64420098844202DA0098019000E0BE
:1021000001945FF0000B1FFA8BFB0198401C834584
:102110001CDABDF840204046010089B2380080B288
:10212000FFF7A3FF00984519A6190198A84203DA02
:1021300001982D1A19EB07070198B04203DA0198AC
:10214000361A1AEB08081BF1010BDCE707B0BDE8F3
:10215000F08F2DE9F04182B005000E00170098467F
:10216000089C200080B2009033009BB23A0092B2EB
:10217000310089B2280080B2FFF78AFF200080B2C8
:10218000009043469BB22A0092B2310089B22800E7
:1021900080B2FFF77DFF200080B2009043469BB2E3
:1021A0003A0092B2414689B2280080B2FFF770FF30
:1021B000200080B2009043469BB23A0092B23100B8
:1021C00089B2380080B2FFF763FFBDE8F3812DE9E3
:1021D000F84304000D0016001F005FF00008F6B27F
:1021E000B146C1455EDB3A0092B2B5EB080189B257
:1021F000B4EB090080B2FFF738FF3A0092B2B5EBBA
:10220000080189B219EB040080B2FFF72EFF3A00F3
:1022100092B219EB050189B2B4EB080080B2FFF766
:1022200024FF3A0092B2B5EB090189B2B4EB080081
:1022300080B2FFF71AFF3A0092B218EB050189B29B
:1022400019EB040080B2FFF710FF3A0092B2B5EB31
:10225000090189B218EB040080B2FFF706FF3A00CB
:1022600092B219EB050189B218EB040080B2FFF7B6
:10227000FCFE3A0092B218EB050189B2B4EB0900FA
:1022800080B2FFF7F2FE18F10108F6B2F6B206FBD3
:1022900006F009FB09F108FB08118842A1DAB9F13F
:1022A00001099EE7BDE8F1832DE9FF4F81B00E984B
:1022B0000F9D0024EDB2022195FBF1F8EDB20C2D3B
:1022C00002D15FF00C0912E0EDB2102D02D15FF0E7
:1022D00010090CE0EDB2182D02D15FF0300906E0D4
:1022E000EDB2302D02D15FF0400900E085E0B0F1A1
:1022F000200BBDF80800EDB22818431E9BB2BDF8B4
:102300000410EDB2022095FBF0F041184A1E92B283
:10231000BDF80810BDF80400FFF783FD5FF0000A68
:102320005046494680B289B2884266D2EDB20C2D41
:102330000DD1DFF8C4065FFA8BFB0C2101FB0BF11A
:1023400008441FFA8AFA10F80A0006002EE0EDB2DF
:10235000102D0CD1DFF8A4065FFA8BFB5FEA0B119E
:1023600008441FFA8AFA10F80A0006001EE0EDB2CF
:10237000182D0CD1DFF884065FFA8BFB5FEA0B1196
:1023800008441FFA8AFA10F80A0006000EE0EDB2BF
:10239000202D0BD1DFF864065FFA8BFB5FEA0B118F
:1023A00008441FFA8AFA10F80A0006000020070005
:1023B000BFB2082F1EDA0121B9403000C0B2084276
:1023C00004D0BDF80C00FFF70CFD03E0BDF81000D1
:1023D000FFF707FD641CA4B220001FFA88F890FBE9
:1023E000F8F108FB1100002802D10020040001E0F0
:1023F0007F1CDDE71AF1010A92E705B0BDE8F08F16
:102400002DE9F74F06000F009B460D9D0024ADF807
:102410000060EDB22800082190FBF1F201FB1200F0
:10242000002801D0012000E00020EDB2082195FB3A
:10243000F1F14018EDB26843ADF802000520ADF8A7
:1024400004005FF0000A5046BDF8041080B28842D4
:1024500080F09280DFF8A8051FFA8AFA1A2101FBA2
:102460000AF1405C02990978884240F08280DFF8E6
:1024700090051FFA8AFA1A2101FB0AF108444078F4
:1024800002994978884274D1EDB2E819431E9BB293
:10249000EDB2A819421E92B2390089B2300080B262
:1024A000FFF7BFFC002080464046C0B2BDF80210D6
:1024B00080B288425DD2002081465FFA89F9B9F185
:1024C000080F53DA9DF83800002826D1DFF83005D0
:1024D0001FFA8AFA1A2101FB0AF108445FFA88F808
:1024E00040448078012111FA09F1084204D058468D
:1024F00080B2FFF776FC03E0BDF83000FFF771FC17
:10250000641CE4B22000EDB290FBF5F105FB110074
:10251000002828D10020040028E0DFF8E4041FFA96
:102520008AFA1A2101FB0AF108445FFA88F840444C
:102530008078012111FA09F1084207D05A4692B277
:10254000390089B2300080B2FFF78FFD761CB6B239
:10255000BDF80000301AEDB2A84204D1BDF8000069
:1025600006007F1C02E019F10109A6E718F1010835
:102570009AE71AF1010A66E7BDE8F78F2DE9F74FF0
:1025800006000F009B460D9D0024ADF80060EDB2E3
:102590002800082190FBF1F201FB1200002801D075
:1025A000012000E00020EDB2082195FBF1F1401878
:1025B000EDB26843ADF802002B20ADF804005FF0E7
:1025C000000A5046BDF8041080B2884280F0928024
:1025D000DFF830041FFA8AFA222101FB0AF1405C7D
:1025E00002990978884240F08280DFF818041FFAC7
:1025F0008AFA222101FB0AF10844407802994978BD
:10260000884274D1EDB2E819431E9BB2EDB2A8190D
:10261000421E92B2390089B2300080B2FFF701FC4D
:10262000002080464046C0B2BDF8021080B2884209
:102630005DD2002081465FFA89F9B9F1080F53DABB
:102640009DF83800002826D1DFF8B8031FFA8AFA6F
:10265000222101FB0AF108445FFA88F8404480789F
:10266000012111FA09F1084204D0584680B2FFF75F
:10267000B8FB03E0BDF83000FFF7B3FB641CE4B225
:102680002000EDB290FBF5F105FB1100002828D1E8
:102690000020040028E0DFF86C031FFA8AFA2221E8
:1026A00001FB0AF108445FFA88F840448078012170
:1026B00011FA09F1084207D05A4692B2390089B29C
:1026C000300080B2FFF7D1FC761CB6B2BDF8000036
:1026D000301AEDB2A84204D1BDF8000006007F1CFC
:1026E00002E019F10109A6E718F101089AE71AF1C9
:1026F000010A66E7BDE8F78F2DE9F74F06000F00E6
:102700009B460D9D0024ADF80060EDB22800082125
:1027100090FBF1F201FB1200002801D0012000E043
:102720000020EDB2082195FBF1F14018EDB26843AD
:10273000ADF802000520ADF804005FF0000A504635
:10274000BDF8041080B2884280F08E80AE481FFA37
:102750008AFA4A2101FB0AF1405C02990978884211
:1027600040F07F80A8481FFA8AFA4A2101FB0AF14B
:102770000844407802994978884272D1EDB2E8194C
:10278000431E9BB2EDB2A819421E92B2390089B223
:10279000300080B2FFF745FB002080464046C0B2C3
:1027A000BDF8021080B288425BD2002081465FFAF9
:1027B00089F9B9F1080F51DA9DF83800002825D1C0
:1027C00091481FFA8AFA4A2101FB0AF108445FFA8C
:1027D00088F840448078012111FA09F1084204D0B8
:1027E000584680B2FFF7FDFA03E0BDF83000FFF76E
:1027F000F8FA641CE4B22000EDB290FBF5F105FBA1
:102800001100002827D10020040027E07E481FFA8D
:102810008AFA4A2101FB0AF108445FFA88F8404429
:102820008078012111FA09F1084207D05A4692B284
:10283000390089B2300080B2FFF717FC761CB6B2BF
:10284000BDF80000301AEDB2A84204D1BDF8000076
:1028500006007F1C02E019F10109A8E718F1010840
:102860009CE71AF1010A6AE7BDE8F78F18100240E9
:102870002DE9F74F06000F009B460D9D0024ADF893
:102880000060EDB22800082190FBF1F201FB12007C
:10289000002801D0012000E00020EDB2082195FBC6
:1028A000F1F14018EDB26843ADF802000520ADF833
:1028B00004005FF0000A5046BDF8041080B2884260
:1028C00080F08E8051481FFA8AFA822101FB0AF1BA
:1028D000405C02990978884240F07F804B481FFA9B
:1028E0008AFA822101FB0AF108444078029949786A
:1028F000884272D1EDB2E819431E9BB2EDB2A8191D
:10290000421E92B2390089B2300080B2FFF789FAD4
:10291000002080464046C0B2BDF8021080B2884216
:102920005BD2002081465FFA89F9B9F1080F51DACC
:102930009DF83800002825D134481FFA8AFA8221F0
:1029400001FB0AF108445FFA88F8404480780121CD
:1029500011FA09F1084204D0584680B2FFF741FA53
:1029600003E0BDF83000FFF73CFA641CE4B220003D
:10297000EDB290FBF5F105FB1100002827D10020F6
:10298000040027E021481FFA8AFA822101FB0AF19C
:1029900008445FFA88F840448078012111FA09F16F
:1029A000084207D05A4692B2390089B2300080B24C
:1029B000FFF75BFB761CB6B2BDF80000301AEDB233
:1029C000A84204D1BDF8000006007F1C02E019F106
:1029D0000109A8E718F101089CE71AF1010A6AE762
:1029E000BDE8F78F42024004000C0140000801409E
:1029F000100010044000400408B50008D8A10008E9
:102A00006CCE0008C8A7000810CB000820BF000843
:102A10002DE9F04F85B00700884691469A460E9CF6
:102A20000F9D109EADF80C700020A4B20C2C09D0A4
:102A3000A4B2102C06D0A4B2182C03D0A4B2202C1F
:102A400040F0AC805FF0000B5846514680B289B22E
:102A5000884280F0A38099F80000002800F09E8052
:102A600099F80000802834DAA4B2022094FBF0F038
:102A7000D0F5A070BFB2B84206DBA4B2D4F1F0002A
:102A80001FFA88F8404500DA88E099F800000D2820
:102A900007D114EB0808BDF80C00070019F1010973
:102AA00014E02000C0B2019099F8000000903300BB
:102AB0009BB22A0092B2414689B2380080B2FFF739
:102AC000F3FBA4B2022094FBF0F0C71919F101093D
:102AD000BAE7A4B2D4F5A070BFB2B84206DBA4B284
:102AE000D4F1F0001FFA88F8404500DA56E0A4B2AD
:102AF0000C2C11D1002002902000C0B201903000B7
:102B000080B200902B009BB24A46414689B2380001
:102B100080B2FFF775FC3DE0A4B2102C11D100206B
:102B200002902000C0B20190300080B200902B00D3
:102B30009BB24A46414689B2380080B2FFF71EFD7B
:102B400028E0A4B2182C11D1002002902000C0B2BD
:102B50000190300080B200902B009BB24A46414663
:102B600089B2380080B2FFF7C7FD13E0A4B2202C71
:102B700010D1002002902000C0B20190300080B23D
:102B800000902B009BB24A46414689B2380080B281
:102B9000FFF76EFE19F10209E71955E705B0BDE828
:102BA000F08F0000002200F02DB90000F0B410EB0F
:102BB000116491FAA1F3B3FA83F391FAA1F5B5FA8E
:102BC00085F526680F27DBB29B009F40BE43EDB220
:102BD000AB0012FA03F31E432660F0BC7047F0B45A
:102BE00010EB116491FAA1F3B3FA83F391FAA1F512
:102BF000B5FA85F526680327DBB29B009F40BE43EC
:102C0000EDB2AB0012FA03F31E432660F0BC70472E
:102C1000F0B410EB116491FAA1F3B3FA83F391FAD3
:102C2000A1F5B5FA85F526680427DBB29B009F4025
:102C3000BE43EDB2AB0012FA03F31E432660F0BCB4
:102C4000704710B4C36833EA11230C00240A94FAC5
:102C5000A4F4B4FA84F412FA04F42343C36010BC5D
:102C600070472DE9F04104000D002F683F023F0C32
:102C700097FAA7F0B0FA80F8380030FA08F0002888
:102C800032D0380030FA08F0C0072AD5B8F1080F62
:102C900005D240F2011010FA08F0060007E05FF0DC
:102CA000011140460838814051F080610E006A6889
:102CB00031002000FFF77AFF2A6931002000FFF77A
:102CC000C0FF6868012802D06868092809D1AA688D
:102CD00031002000FFF783FFEA6831002000FFF792
:102CE00097FF18F10108C7E70120BDE8F081000057
:102CF00081B04149096801433F4A11603E49096872
:102D000001400091009901B07047016851F0400105
:102D100001607047806810F00100704780684008CB
:102D200010F001007047C068C0B27047C9B2C160FE
:102D3000704710B504002000FFF7ECFF10BD00B590
:102D40008FB005A82821FFF72DFF68461421FFF753
:102D500029FF4FF48050FFF7CBFF0420FFF7C8FF97
:102D60004AF2A00000900920019003200290002068
:102D7000039069462148FFF774FF44F24000009039
:102D80000420019069461D48FFF76BFF0020059065
:102D90004FF48270069000200790022008900120D6
:102DA00009904FF400700A9008200B9000200C90BE
:102DB00000200D9007200E9005A9114800F045F85D
:102DC0000F48FFF7A2FF0FB000BD38B50400002583
:102DD0000B48FFF7A3FF0028FAD02100C9B208482A
:102DE000FFF7A4FF0648FFF7A4FF0028FAD0044825
:102DF000FFF799FFC0B232BD181002400008014031
:102E00000030014000B500BF1300964694461039CB
:102E100028BFA0E80C50FAD85FEA417C28BF0CC05C
:102E200048BF40F8042BC90728BF20F8022B48BF31
:102E300000F8012B00BD00000068800910F00100BF
:102E400070470A0092B20261704770B504000D002D
:102E500000262000FFF7F0FF002826D12168164841
:102E600001402868014368680143A8680143E86895
:102E700001432869014368690143A8690143E8697E
:102E80000143286A01432160606830F004006969E9
:102E900050EA11406060286AB0F5005F03D1696AAA
:102EA0002000FFF7CEFF01200600E06930F400604B
:102EB000E0613000C0B270BD4000FFFFB71C0000F1
:102EC000381C0000BC1B0000401B0000C51A00009D
:102ED000481A0000C819000044190000BA18000080
:102EE0002A180000911700002DE9F04D8AB0129CBD
:102EF00014B1129C002525601F46164627F000439A
:102F0000002226F0000A934208BF924514D00446DE
:102F10000D460020DFF8601622462B4600F088FDA3
:102F20000AD0DFF8581600F083FD09D1780040156B
:102F3000401C05D1390303D10020DFF83C165CE3C7
:102F400068004015401C0DD025F00041002224F0FF
:102F50000000914208BF904204D078004015401C08
:102F600040F0EA8068004015401C04D1290302D0DB
:102F70002046294641E378004015401C04D139031E
:102F800002D03046394638E378004015401C4FF0F7
:102F9000010C00F0808039464A0042EADA7B0022C8
:102FA00000234FEA4A0A9B4504BF9245CDE90067DA
:102FB00030461CD040F23342A2EB5B52352A06DB8E
:102FC00000F0000201F00043CDE900230FE0202AC9
:102FD00004DDA2F12000C140814000E001D10020C9
:102FE00003E0002AC4BFD0409040CDE90001BB46B9
:102FF00000229345B24605DA4FF00041B2EB0A0ACF
:1030000061EB0B0BDDE90001914204DA4FF0004364
:10301000101A63EB01018B450CBF82459446DDE934
:1030200000014B0043EAD07342000026B34208BFC0
:10303000B24217D040F2344EAEEB5352352A04DB85
:1030400000F0000001F000410CE0202A03DD203AEE
:10305000D140914000E001D1002003E0002AC4BF2C
:10306000D0409040BCF1000F15D0DDE90023B34201
:1030700004DA4FF0004BB21A6BEB0303B14204DAEF
:103080004FF0004B301A6BEB01018B4206BF8242BE
:10309000B4464FF0010C68004015401C06D12903CE
:1030A00004D1EC0F1AD1FE0F43D020E07800401578
:1030B000401C1DD139031BD125F00041B1F5801F03
:1030C00024F0000020D20023994208BF98420093C8
:1030D0001FD06A462946FEF753FA1AE0FE0F03D1C5
:1030E000BCF1000F25D020E0BCF1000F09D183E234
:1030F000BCF1000F14BFEC0F0024FE0F13D184B1FC
:1031000000204FF0004178E2DFF8742402EB115008
:103110000090FE0F009802D1002809DC01E0002891
:1031200006DD002068E21CB10020DFF8581464E2DC
:103130000020DFF8541460E2394630464B0043EA81
:10314000D07342004FF0000A534504BF5245CDE909
:10315000006719D040F2334CACEB5352352A04DBF4
:1031600000F0000001F000410CE0202A03DD203ACD
:10317000D140914000E001D1002003E0002AC4BF0B
:10318000D0409040CDE90001E80F1ED039465145AE
:10319000304605DA4FF00043BAEB000063EB010163
:1031A000DDE90023534505DA4FF0004BBAEB02028C
:1031B0006BEB0303994208BF904206D0AFF3008047
:1031C0004FF0FF306FF0004117E225F00041B1F5FC
:1031D000801F24F000000CD2514508BF5045CDF8A7
:1031E00008A011D002AA2946FEF7CAF904460D46E6
:1031F0000AE0DFF88C2302EB11500290DFF88C1309
:10320000DFF88C0305400D43E80F3CD0DDE90001F9
:103210004B0043EAD0734200534508BF524525F0A6
:1032200000451AD04B0040F2344C43EAD073ACEB6B
:103230005352352A04DB00F0000001F000410CE09D
:10324000202A03DD203AD140914000E001D1002046
:1032500003E0002AC4BFD0409040DDE9002353457D
:1032600005DA4FF0004BBAEB02026BEB030351455A
:1032700005DA4FF0004BBAEB00006BEB01018B421B
:1032800008BF824202D1CDF80CA001E001210391D8
:10329000029801282FD120462946BE4ABE4BFEF790
:1032A000A7F928D24800400DD046DFF8CCB200F193
:1032B000010211D0002A0FDD40F2FF70824206DBCE
:1032C000B14905F00043002443EA010532E06FF301
:1032D0001E5141EA02552DE025F0004324F0000282
:1032E000434508BF424525D001222046FEF7B0F9EC
:1032F00004460D461EE00020A84922462B46FEF754
:103300006DF8DFF888B200225B46FEF72BFCFEF773
:103310003DFAA0F120084046FEF756FA0022A04BE5
:10332000FEF75CF800225B46FEF71CFC82468B46EB
:103330004FEA48182046294652465B46FEF756FAA1
:10334000CDE9000152465B4620462946FEF70AFCBD
:1033500002460B46DDE90001FEF7BAFACDE90401A9
:10336000DDE90423FEF73AF8CDE900015246204694
:1033700029465B46FEF73AFACDE90601DDE900236E
:1033800088488949FEF72AF8884A894BFEF7EAFB04
:10339000DDE90023FEF722F8864A874BFEF7E2FBC1
:1033A000DDE90023FEF71AF8844A854BFEF7DAFBC5
:1033B000DDE90023FEF712F8824A834BFEF7D2FBC9
:1033C000DDE90023FEF70AF8804A814BFEF7CAFBCD
:1033D000DDE90023FEF702F87E4A7F4BFEF7C2FBD1
:1033E000CDE908015246002063495B46FEF7FEF92D
:1033F0000B465A00520D02F1010411D0002C0FDDD2
:1034000040F2FF72944205DB5F4D01F00040002462
:10341000054312E06FF31E5343EA045504460CE0E3
:1034200021F00043002420F00002A3420EBFA2427C
:103430000122FEF70DF904460D46DDE90023DDE922
:103440000801FDF7CBFFDDE90623FEF7CFF92246A1
:103450002B46FEF787FBDDE90423FDF7BFFF0FF2E4
:10346000B01202EB0805DDE90623FEF77BFB82467E
:1034700002988B46FEF7A8F9D5E90023FEF772FB08
:10348000CDE900015246554855495B46FDF7A6FF78
:10349000DDE90023FEF766FB32463B46FDF79EFF63
:1034A0000022504BFEF7A4F862D301224E4BFEF7E8
:1034B000B7F856D9CA0F1ABF00224C4B334BFEF750
:1034C00051FBFEF763F9044632463B4650465946E7
:1034D000FDF784FF82468B46D5E90201D5E9042336
:1034E000FEF740FB32463B46FDF778FF404A414B32
:1034F000FDF774FF52465B46FEF734FB05468B46EC
:10350000DDE9000132463B46FDF768FF06460F46FF
:103510002046FEF759F902460B4630463946FEF77B
:1035200065F9334A334BFDF759FF2A465B46FEF7F0
:1035300019FB129A0AB114600024009400220E4B69
:1035400000F086FA21F00045002220F000049542A8
:1035500008BF94420CD04A005215521C03D10B03F1
:1035600001D100200849039A2AB181F0004144E0CA
:1035700000200021F7E740E00000F03F0000F0BF2E
:1035800002FCFFFF0000F0FF0000F07F0000E03FC2
:10359000FFFF0F80CD3B7F669EA0E63F00005040BE
:1035A0000000903FF7DE29BFD8F8C23FF4B3FECC4D
:1035B0001A99C33F62CB68D96F46C73FC6C912DAB2
:1035C000C471CC3F4AE98A942449D23FF75F979966
:1035D0009999D93FBC5555555555E53FFE822B6508
:1035E0004715F73F0000E0C00000E0400000E0BFEA
:1035F000EF39FAFE422EE63F00210AB0BDE8F08D19
:1036000010B582B000240094FFF76EFC1CBD0000D2
:10361000000000000000F0BF00000000000000807B
:10362000000000000000008000000000000000001A
:10363000000000C05294EEBF00000048204E51BE72
:10364000000000F86467BCBC00000000000000003F
:10365000000000208133EDBF00000080B3DB14BE0A
:10366000000000506706A3BC00000000000000003E
:10367000000000D0E9DCEBBF00000008C39259BE97
:1036800000000080B0D3B8BC0000000000000000C3
:1036900000000070F98FEABF000000C0A51028BE2E
:1036A000000000E8BFC0B0BC000000000000000047
:1036B00000000070284CE9BF00000060134B42BEC0
:1036C000000000C03D20B8BC000000000000000069
:1036D00000000050FA10E8BF000000C05FF62BBEEB
:1036E000000000905C71A7BC00000000000000001A
:1036F00000000020FCDDE6BF000000C0F8F154BE71
:1037000000000018E9F6B9BC00000000000000004D
:10371000000000D0C3B2E5BF00000070E43254BE28
:1037200000000050DB06B4BC0000000000000000F8
:1037300000000010EF8EE4BF00000020F36252BED4
:10374000000000C02A879ABC0000000000000000B2
:10375000000000B02272E3BF000000F0E8E056BEB7
:1037600000000028352DBDBC000000000000000056
:10377000000000000A5CE2BF000000B0FA8E41BE0B
:1037800000000040AE6FBDBC000000000000000063
:1037900000000000564CE1BF000000F015CD5FBEF8
:1037A00000000000141C90BC00000000000000009D
:1037B00000000040BD42E0BF00000030F93457BEB9
:1037C000000000E06C1E93BC000000000000000040
:1037D000000000E0F57DDEBF000000B08A535EBE51
:1037E00000000080DA77AABC0000000000000000A2
:1037F000000000C09D81DCBF00000000FFA226BECB
:103800000000006057E2B0BC0000000000000000B3
:1038100000000060F98FDABF000000580A8151BE35
:10382000000000F05F60B8BC000000000000000075
:103830000000000098A8D8BF000000607A7F45BE55
:10384000000000D05433A3BC0000000000000000C2
:10385000000000600FCBD6BF000000D091CB40BE6F
:10386000000000406D1BA0BC000000000000000034
:10387000000000A0FBF6D4BF00000098C5CE52BEE9
:10388000000000003A397EBC00000000000000008B
:10389000000000E0FE2BD3BF0000004073872BBE6A
:1038A00000000000926879BC0000000000000000E9
:1038B00000000040C069D1BF00000058F16353BE52
:1038C00000000080438D7CBC000000000000000070
:1038D00000000080D85FCFBF000000181F8354BED7
:1038E000000000B03F42A2BC000000000000000049
:1038F0000000008067FCCBBF00000060FAFF53BEF1
:1039000000000050E00DB8BC000000000000000006
:103910000000000098A8C8BF000000607A7F35BE94
:10392000000000C0543393BC000000000000000001
:1039300000000000DC63C5BF00000058D6FF54BE85
:1039400000000000396490BC00000000000000008E
:10395000000000C0AD2DC2BF00000080A45915BEFC
:10396000000000E0484BABBC00000000000000007D
:10397000000000801A0BBEBF00000050BF3C5ABEC2
:10398000000000A0B364B6BC00000000000000000E
:103990000000008004D6B7BF00000040BBCF36BE99
:1039A0000000008076CEA8BC0000000000000000EF
:1039B0000000008032BBB1BF000000402A0043BEBF
:1039C00000000028C60CBDBC000000000000000084
:1039D000000000009473A7BF000000182B3B59BEE5
:1039E000000000C0E55DA5BC000000000000000074
:1039F00000000000EE4397BF000000A0E6C340BEF9
:103A000000000020958DB5BC000000000000000003
:103A100000000000000000800000000000000080A6
:103A20000000000000000080000000000000000016
:103A300090420CD141EA030C50EA4C0C07D0994259
:103A400005D14FF4001C1CEB410F38BF8942704771
:103A50002DE9F04D04460D4668004015401C84B029
:103A600016461F461DD025F00041002224F000001C
:103A7000914208BF904214D078004015401C10D0ED
:103A800026F0000037F0004108BF904209D02946D7
:103A9000914280F28B804FF00043101B63EB0101D9
:103AA00084E068004015401C02D1290340F0718178
:103AB00078004015401C01D1390351D127F0004353
:103AC000002026F00002834208BF824206D168002F
:103AD0004015401C44D1290342D10BE07800401529
:103AE000401C0ED139030CD168004015401C37D161
:103AF000290335D1AFF300804FF0FF306FF0004164
:103B000049E125F000410022002324F00000994201
:103B100008BF904227D1394648000C9A400D121830
:103B200080BB27F0004126F00000994208BF984270
:103B300005D00C9A3946FDF78BFD06460F4627F057
:103B40000043002026F00002834208BF824205D0D5
:103B500078004015401C03D1390301D1AFF3008038
:103B60003046394617E168004015401C1CD1290336
:103B70001AD132463B462046294604B0BDE8F04DF6
:103B8000FDF72CBC002ACCDD40F2FF70824206DB40
:103B9000824907F00043002643EA0107CFE76FF3AD
:103BA0001E5141EA0257CAE700200AE07C4B9342CB
:103BB000BCBF4FF0004060EB0303994292461046B1
:103BC00002DA07F00041E6E076498142BCBF4FF0DF
:103BD000004363EB01012B468342224605DA4FF096
:103BE000004BBAEB02026BEB0303994209DC01DBE9
:103BF000904206D2AFF30080684907F000431943B2
:103C0000C9E06948694922462B46FDF7E7FB684B46
:103C100001F0004213430022FDF7A4FFFDF7B6FDBB
:103C20008046FDF7D1FD82468B464FF078406149D2
:103C300052465B46FDF7D2FB02460B46204629461C
:103C4000FDF7D4FD04460D465B485C4952465B4691
:103C5000FDF7C4FB02460B4620462946FDF7C6FD8C
:103C60000D4625F000410022554BFDF7C1FC0446EE
:103C700002D234463D4652E022462B462946FDF705
:103C8000ADFB82468B464F484F4952465B46FDF797
:103C9000A5FB4E4A4E4BFDF765FF52465B46FDF7CE
:103CA0009DFBCDE9020152464A484B495B46FDF770
:103CB00095FB4A4A4A4BFDF755FF52465B46FDF7D6
:103CC0008DFB00223A4BDFF81CB1FDF74BFF22467B
:103CD0002B46FDF783FB04460D46DDE90201224633
:103CE0002B46FDF73FFF00225B46FDF73BFFCDE98A
:103CF00000012246DDE902012B46FDF777FD002297
:103D00005B46FDF72FFF02460B46DDE90001FDF79C
:103D1000DFFD32463B46FDF761FB04460D460C983D
:103D200000EB080229464800400D02EB000311D0C9
:103D3000002B0FDD40F2FF70834206DB174905F0D0
:103D40000043002443EA010512E06FF31E5141EAEB
:103D500003550DE025F00041002624F00000B1429B
:103D600008BFB04204D02946FDF772FC04460D4658
:103D700025F00043002024F00002834208BF824265
:103D800005D068004015401C03D1290301D1AFF3D1
:103D900000802046294604B0BDE8F08D0000F07F89
:103DA00000C89CC000C89C40FE822B654715F73FA9
:103DB0000000E03F422EE63FF2E4D5BCE7E84B3E90
:103DC0000000903C112E5781A03F503F5843128C69
:103DD0008F71BC3F4BE8A541B752013F0BBDF3DAF1
:103DE000E8708C3F0000F03F2DE9F84F83460C004F
:103DF0005FF000080025002600F022FF07009BF876
:103E00006500642855DA9BF86500411C8BF8651045
:103E1000C0B2584444709BF86500012819D19BF842
:103E20000100390080B289B2884212D09BF80100AB
:103E3000FF280ED040F231195FF0000A5246494681
:103E4000584600F01FFF01208BF866004046C0B2C4
:103E50009BE09BF86500022826D19BF80200012810
:103E600022D09BF8020003281ED09BF802000428F1
:103E70001AD09BF80200052816D09BF802000628ED
:103E800012D09BF8020010280ED040F231195FF0DA
:103E9000000A52464946584600F0F4FE01208BF8CD
:103EA00066004046C0B270E09BF8020001280FD1C6
:103EB0001EE040F231195FF0000A5246494658466A
:103EC00000F0E0FE01208BF866004046C0B25CE0E6
:103ED0009BF8020003280BD09BF80200042807D0AF
:103EE0009BF80200052803D09BF80200062806D1A3
:103EF0009BF8650008281DD1012080461AE09BF838
:103F00000200102809D19BF865009BF807100931C1
:103F100088420FD1012080460CE09BF802000F2858
:103F200008D19BF865009BF807100931884201D140
:103F3000012080465FFA88F8B8F1010F23D19BF881
:103F40006500811E89B21BF1010000F0DEFE060053
:103F50009BF865005844401E00F0CFFE0500280085
:103F6000310080B289B288420DD040F231195FF041
:103F7000000A52464946584600F084FE01208BF85C
:103F80006600002001E04046C0B2BDE8F28F10B5E7
:103F9000040094F8301189B214F1670000F0B5FE06
:103FA00094F830114A1C84F83021C9B2214481F8B8
:103FB000670094F830114A1C84F83021020092B254
:103FC000120AC9B2214481F8672010BD80F82F1170
:103FD00090F83021531C80F830314378D2B202443B
:103FE00082F8673090F83021531C80F830318378A4
:103FF00053F08003D2B2024482F8673090F8302147
:10400000531C80F8303190F82F31D2B2024482F83C
:104010006730704710B50400A07801280CD0032841
:104020000ED0042810D0052812D0062818D00F284A
:1040300012D0102818D01BE0200000F014F91EE068
:10404000200000F01EF81AE0200000F093F816E0BF
:10405000200000F069FA12E0200000F0F1FA0EE012
:10406000200000F076F90AE0200000F0D8F906E020
:1040700001212000FFF7AAFF2000FFF788FF0120A1
:1040800010BD2DE9F0470700F81C00F02EFE804619
:10409000781D00F02AFE81465FF0000A1FFA88F8BA
:1040A0001FFA89F919EB08003D2807D302213800CF
:1040B000FFF78CFF3800FFF76AFF59E04846C0B2AF
:1040C0004000060097F83001411C87F830117978DC
:1040D000C0B2384480F8671097F83001411C87F867
:1040E0003011B978C0B2384480F8671097F83001C1
:1040F000411C87F83011C0B2384480F867604446EC
:1041000019EB08000500002082461FFA8AFAADB2BA
:10411000A4B2281B824528DA97F83001411C87F8A1
:104120003011DFF8F8171FFA8AFAA4B214EB0A026A
:1041300031F8121089B2090AC0B2384480F8671009
:1041400097F83001411C87F83011DFF8D0171FFABB
:104150008AFAA4B214EB0A0231F81210C0B2384441
:1041600080F867101AF1010ACFE73800FFF70FFF58
:10417000BDE8F0872DE9F0470700F81C00F0B5FD19
:104180008046781D00F0B1FD81465FF0000A1FFAFD
:1041900088F81FFA89F919EB0800192807D30221BA
:1041A0003800FFF713FF3800FFF7F1FE59E04846EB
:1041B000C0B24000060097F83001411C87F830116A
:1041C0007978C0B2384480F8671097F83001411C04
:1041D00087F83011B978C0B2384480F8671097F882
:1041E0003001411C87F83011C0B2384480F8676054
:1041F000444619EB08000500002082461FFA8AFA9F
:10420000ADB2A4B2281B824528DA97F83001411CD0
:1042100087F83011DFF808171FFA8AFAA4B214EBF6
:104220000A0231F8121089B2090AC0B2384480F883
:10423000671097F83001411C87F83011DFF8E0165D
:104240001FFA8AFAA4B214EB0A0231F81210C0B2B3
:10425000384480F867101AF1010ACFE73800FFF7F9
:1042600096FEBDE8F0872DE9F8430600F01C00F04B
:104270003CFD082190FBF1F7701D00F036FD8046F3
:104280001FFA88F818F10700082190FBF1F9BFB276
:10429000022F07DB02213000FFF798FE3000FFF706
:1042A00076FE54E096F83001411C86F830117178A2
:1042B000C0B2304480F8671096F83001411C86F88F
:1042C0003011B178C0B2304480F8671096F83001F0
:1042D000411C86F83011C0B2304480F8679000204D
:1042E000050028004946C0B2C9B288422CD2DFF886
:1042F0003406EDB2BFB27919405C04001FFA88F8A9
:10430000B8F1080F0BDB96F83001411C86F830112C
:10431000C0B2304480F86740B8F1080812E0E4B257
:10432000D8F108008440E4B2D8F10800044196F8BE
:104330003001411C86F83011C0B2304480F867402B
:10434000002080466D1CCCE73000FFF720FEBDE862
:10435000F18370B50400E01C00F0C7FC05000026E6
:10436000ADB23D2D07D302212000FFF72FFE200024
:10437000FFF70DFE52E06079A17951EA00210E00AD
:10438000DFF89805ADB220F8156094F83001411CB3
:1043900084F830116178C0B2204480F8671094F836
:1043A0003001411C84F83011A178C0B2204480F85B
:1043B000671094F83001411C84F83011E178C0B2E4
:1043C000204480F8671094F83001411C84F83011C3
:1043D0002179C0B2204480F8671094F83001411C64
:1043E00084F83011DFF83415ADB231F8151089B208
:1043F000090AC0B2204480F8671094F83001411CCB
:1044000084F83011DFF81415ADB231F81510C0B2D0
:10441000204480F867102000FFF7B9FD70BD2DE93A
:10442000F0470600F01C00F060FC0700701D00F073
:104430005CFC80465FF0000A5FF00009BFB21FFA23
:1044400088F818EB07003D2807D302213000FFF75A
:10445000BDFD3000FFF79BFD64E03C0018EB07005A
:104460000500002082461FFA8AFAADB2A4B2281BCA
:10447000824518DA1FFA8AFA06EB4A00007A1FFA18
:104480008AFA06EB4A01497A51EA00218946DFF8A7
:104490008C04A4B21FFA8AFA1AEB040120F81190D6
:1044A0001AF1010ADFE796F83001411C86F8301155
:1044B0007178C0B2304480F8671096F83001411C22
:1044C00086F83011B178C0B2304480F8671096F8A1
:1044D0003001411C86F83011F178C0B2304480F8C8
:1044E000671096F83001411C86F830113179C0B25E
:1044F000304480F8671096F83001411C86F830117E
:104500007179C0B2304480F8671096F83001411CD0
:1045100086F83011B179C0B2304480F867103000AD
:10452000FFF735FDBDE8F087F8B50600F01C00F098
:10453000DCFB082190FBF1F7F01C00F0D6FB040037
:104540000025BFB2022F07DB02213000FFF73EFD3E
:104550003000FFF71CFD72E07079B17951EA00215B
:104560000D00ADB2B5F57F4F13D1A4B220000821E4
:10457000DFF8B023BFB2D25D012390FBF1FC01FB59
:104580001C0013FA00F01043DFF89813BFB2C855AF
:1045900016E0ADB2002D13D1A4B220000821DFF83F
:1045A0008423BFB2D25D012390FBF1FC01FB1C0010
:1045B00013FA00F032EA0000DFF86813BFB2C85502
:1045C00096F83001411C86F830117178C0B2304441
:1045D00080F8671096F83001411C86F83011B178E8
:1045E000C0B2304480F8671096F83001411C86F85C
:1045F0003011F178C0B2304480F8671096F830017D
:10460000411C86F830113179C0B2304480F867100F
:1046100096F83001411C86F830117179C0B23044EF
:1046200080F8671096F83001411C86F83011B17996
:10463000C0B2304480F867103000FFF7A8FCF1BD2D
:104640002DE9F8430500E81C00F04FFB082190FB22
:10465000F1F6681D00F049FB8046EF79B6B2022EF4
:1046600007DB02212800FFF7B1FC2800FFF78FFCD1
:1046700099E00020814648463900C0B2C9B288425C
:1046800048D25FFA89F905EB0900007A04001FFAA5
:1046900088F8B8F1080F09DBA248B6B25FFA89F9C9
:1046A00019EB06014454B8F1080830E09D48B6B251
:1046B0005FFA89F919EB0601405C50FA08F0994954
:1046C000B6B25FFA89F919EB060288549548B6B27A
:1046D0005FFA89F919EB0601405C10FA08F091497C
:1046E000B6B25FFA89F919EB060288548D48B6B262
:1046F0005FFA89F919EB0601405C20188949B6B2C6
:104700005FFA89F919EB060288540020804619F1F6
:104710000109B0E795F83001411C85F8301169783E
:10472000C0B2284480F8671095F83001411C85F824
:104730003011A978C0B2284480F8671095F830018C
:10474000411C85F83011E978C0B2284480F8671020
:1047500095F83001411C85F830112979C0B2284400
:1047600080F8671095F83001411C85F8301169799F
:10477000C0B2284480F8671095F83001411C85F8D4
:104780003011A979C0B2284480F8671095F830013B
:10479000411C85F83011A979C0B2284480F867100F
:1047A0002800FFF7F4FBBDE8F1832DE9F047050091
:1047B0000C0016001F005FF0000A5FF00008B94609
:1047C00000F0F6FAEDB2012D04D046D3032D2FD020
:1047D00017D342E03C2C13D2002080461FFA88F801
:1047E000B0450DD24D481FFA88F818EB040130F897
:1047F00011001FFA88F829F8180018F10108EDE7F0
:104800002BE0182C13D2002080461FFA88F8B04500
:104810000DD243481FFA88F818EB040130F8110054
:104820001FFA88F829F8180018F10108EDE714E0DC
:10483000002C12D1002080461FFA88F8B0450CD217
:1048400038481FFA88F818EB0401405C1FFA88F812
:1048500007F8080018F10108EEE700F0B6FABDE825
:10486000F0872DE9F04705000C0016001F005FF0EF
:10487000000A5FF00008B94600F09AFAEDB2012D87
:1048800004D046D3032D2FD017D342E03C2C13D2B3
:10489000002080461FFA88F8B0450DD21FFA88F82C
:1048A00039F818001D491FFA88F818EB040221F89E
:1048B000120018F10108EDE72BE0182C13D20020AC
:1048C00080461FFA88F8B0450DD21FFA88F839F8EB
:1048D000180013491FFA88F818EB040221F8120097
:1048E00018F10108EDE714E0002C12D100208046F9
:1048F0001FFA88F8B0450CD21FFA88F817F808009C
:1049000008491FFA88F818EB0402885418F10108C6
:10491000EEE700F05AFABDE8F0870000985C00204E
:10492000F85D00204760002070B504000D001600FF
:104930000021DFF81403006800F0E9FB01280BD127
:1049400032002900200000F051FD00230022002148
:10495000BD48006800F015FB70BD80B57C22BB49E6
:10496000BB4800F02EFDB9480068BA49884265D0BE
:10497000B848B64908600120B44988804FF4165001
:10498000B249C1F806000520B0494881F020AF497E
:1049900088815FF07E50AD49C1F80E005FF07E5017
:1049A000AA49C1F81200AC48A849C1F81600002075
:1049B000A649C1F81A000020A449C1F81E005FF002
:1049C0007E50A249C1F822005FF07E509F49C1F895
:1049D000260000209D49488500209C49C86200208F
:1049E0009A4908630020994948630020974908873D
:1049F00001209649488799489449C86305209349FE
:104A0000A1F840004FF4FA609049A1F84200282034
:104A10008E49A1F844000A208C49A1F846007FF095
:104A200009008A49A1F848004FF448608749A1F875
:104A30004A007C2285498648FFF776FF7C22884918
:104A4000884800F0BEFC864800688249884265D0EC
:104A50008048834908600120814988804FF41650BE
:104A60007F49C1F8060005207D494881F0207C4936
:104A700088815FF07E507A49C1F80E005FF07E5069
:104A80007749C1F8120074487549C1F81600002032
:104A90007349C1F81A0000207149C1F81E005FF087
:104AA0007E506F49C1F822005FF07E506C49C1F81A
:104AB000260000206A49488500206949C862002014
:104AC00067490863002066494863002064490887F5
:104AD00001206349488761486149C86305206049EE
:104AE000A1F840004FF4FA605D49A1F84200282087
:104AF0005B49A1F844000A205949A1F846007FF01B
:104B000009005749A1F848004FF448605449A1F8FA
:104B10004A007C2252495348FFF706FF04226946A7
:104B2000514800F04EFC00985049884206D04F484A
:104B30000090042269464C48FFF7F6FE4C484D4968
:104B40007822FCF77FFB00204B49A1F8A000002051
:104B50004949A1F8A20000204749A1F8A40000207B
:104B60004549A1F8A600424B3C2200210120FFF755
:104B700078FE01BD10B59EB00400E4B2012C06D150
:104B80003B4B3C2200210120FFF70FFE05E0384B94
:104B90003C2200210120FFF764FE2E482B490860CB
:104BA000684633497822FCF74DFB32486946782243
:104BB000FCF748FB7C2225492548FFF7B5FE1EB0CF
:104BC00010BD70B5A2B02C48D0F832002449D1F8FD
:104BD0000610884215D0102400256E462A002100B8
:104BE000300000F04FF81E48D0F80600009000207A
:104BF0000190082002900120039069461F4800F0B0
:104C000055FD04A81E497822FCF71CFB184804A98E
:104C10007822FCF717FB0020FFF7ACFF22B070BD35
:104C200080B5134B3C2200210120FFF7BEFD01BDE2
:104C300080B5114B182200210220FFF712FE01BDA2
:104C40000D48008E70470000DC5F00201C5C0020D7
:104C500000D00708443322221F85AB3F00004842A2
:104C6000A05B002000C0070800E00708C8B33401BB
:104C7000285B0020205C0020F85A002000440040FF
:104C8000A45B002062F30F2262F31F42401810F071
:104C9000030308D0C91A1FD3DB0748BF00F8012D52
:104CA00028BF20F8022D130030B4144615461039E1
:104CB00028BF20E93C00FAD8490728BF20E90C00AA
:104CC00048BF40F8042D890028BF20F8022D48BFB6
:104CD00000F8012D30BC7047C91818BF00F8012D2D
:104CE000CB0728BF00F8012D7047010000220B7888
:104CF000487850EA032080B27047010000224B78C8
:104D0000087850EA032080B2704770B403004FF671
:104D1000FF70002422000E0092B2B6B2B24216D248
:104D2000A4B21A5D504000221500ADB2082D0CDA75
:104D3000C20706D580B202004AF2010090EA520092
:104D400001E080B240086D1CEFE7641CE2E780B22E
:104D500070BC7047001F5FF080730360001F4B083A
:104D60005B000360001F0FF20D0303601438026044
:104D700020387047502080F31188BFF34F8FBFF366
:104D80006F8FFEE780B52248006850F4700020491C
:104D900008601F48006850F070401D49086000F02E
:104DA0003DF800201B49086000F023FD002002BDF3
:104DB000502080F31188BFF34F8FBFF36F8F1548DA
:104DC0000068401C13490860704712480068401E84
:104DD000104908600F480068002802D1002080F3C5
:104DE0001188704780B5502080F31188BFF34F8F32
:104DF000BFF36F8F00F0BBFE002803D05FF0805040
:104E000005490860002080F3118801BD0000000002
:104E100020ED00E04400002004ED00E00020064901
:104E20000860002005490860054806490860072019
:104E300001490860704700BF10E000E018E000E0A2
:104E40003F19010014E000E070B505000C002E00D1
:104E5000FFF7AEFF3168F26B306C424301EB0200AA
:104E600070600020B0633068B0603168F26B521E31
:104E7000306C424301EB0200F0605FF0FF3086F8D7
:104E800044005FF0FF3086F84500002C12D13069F5
:104E9000002817D016F1100000F050FF002811D0A4
:104EA0005FF08050DFF80C150860BFF34F8FBFF341
:104EB0006F8F07E016F1100001F0C6F916F124001B
:104EC00001F0C2F9FFF781FF012070BD2DE9F84321
:104ED00006000D001700002D02D15FF0000801E070
:104EE00005FB06F818F1480001F0FCF90400002C5D
:104EF0000AD014F14800814600943B00DBB24A46D8
:104F00002900300000F003F82000BDE8F2832DE90D
:104F1000F04105000C0016001F00DDF81880002C81
:104F200002D1C8F8008001E0C8F80060C8F83C5021
:104F3000C8F8404001214046FFF786FFBDE8F081F8
:104F400010B50400002C0BD0002060600020206011
:104F50000020E060002300220021200000F011F872
:104F600010BDF8B50400012600272200D2B2390096
:104F70003000FFF7ABFF05002800FFF7E1FF280036
:104F8000F2BD2DE9F74306000F0098460024B14614
:104F9000FFF70EFFD9F83800D9F83C10884202D349
:104FA000B8F1020F28D142463900484600F061F9B5
:104FB0000500D9F8240000280FD019F1240000F0D2
:104FC000BDFE002814D05FF08050DFF8E8130860C1
:104FD000BFF34F8FBFF36F8F0AE0002D08D05FF053
:104FE0008050DFF8D0130860BFF34F8FBFF36F8F8F
:104FF000FFF7EBFE012052E00298002803D1FFF7F3
:10500000E4FE00204BE0002C04D1684600F0F5FEE1
:1050100001200400FFF7D9FE00F02EFDFFF7C8FEC7
:1050200099F9440010F1010F02D1002089F84400E1
:1050300099F9450010F1010F02D1002089F84500CF
:10504000FFF7C3FE02A9684600F0E0FE002820D169
:10505000484600F09FF9002815D0029919F1100078
:1050600000F045FE484600F050F900F00DFD002824
:105070008ED15FF08050DFF83C130860BFF34F8F94
:10508000BFF36F8F84E7484600F03FF900F0FCFC67
:105090007EE7484600F039F900F0F6FC0020BDE854
:1050A000FE832DE9F84305000C002E00EFF3118775
:1050B000502080F31188BFF34F8FBFF36F8FD6F866
:1050C0003880F06B80451DD296F9459018F10100AB
:1050D000B0634FFA89F919F1010F0DD1706A0028F8
:1050E0000ED016F1240000F029FE002808D0002C74
:1050F00006D00120206003E019F1010086F8450088
:10510000012000E0002087F31188BDE8F2832DE93B
:10511000F24183B007000024B8460026FFF748FE9E
:10512000D8F83850002D21D0681EC8F83800D8F8BB
:105130000000002803D101F013F8C8F80400D8F8E3
:10514000100000280ED018F1100000F0F7FD002824
:1051500008D05FF08050DFF85C120860BFF34F8F1B
:10516000BFF36F8FFFF731FE012074E00398002832
:1051700003D1FFF72AFE00206DE0002C04D1684621
:1051800000F03BFE01200400FFF71FFE00F074FC5E
:10519000FFF70EFE98F9440010F1010F02D1002034
:1051A00088F8440098F9450010F1010F02D1002061
:1051B00088F84500FFF709FE03A9684600F026FEBF
:1051C00000282DD1404600F0D7F8002822D0D8F88A
:1051D0000000002808D1FFF7EBFDD8F8040000F02C
:1051E000D7FE0600FFF7F1FD039918F1240000F047
:1051F0007EFD404600F089F800F046FC00288DD185
:105200005FF08050DFF8AC110860BFF34F8FBFF341
:105210006F8F83E7404600F078F800F035FC7DE7BB
:10522000404600F072F800F02FFC404600F0A4F871
:1052300000283FF473AF002E0CD0FFF7B9FD4046B5
:1052400000F00CF805002900D8F8040000F02AFF4F
:10525000FFF7BBFD002004B0BDE8F0810100486A03
:10526000002804D0086B0068D0F10F0000E0002097
:1052700070472DE9F04707000E0014005FF00008AA
:10528000BD6B386C002809D13868002838D178689F
:1052900000F0D2FE80460020786031E0002C13D16F
:1052A000D7F84090D7F808A04A4631005046FBF79F
:1052B000C9FFB868396C0844B860B8687968884232
:1052C0001ED33868B8601BE0D7F84090D7F80CA020
:1052D0004A4631005046FBF7B5FFF868396C494241
:1052E0000844F860F8683968884204D27868396CF4
:1052F00049420844F860022C02D1002D00D06D1EF6
:10530000681CB8634046BDE8F08770B50400FFF73D
:105310004FFD94F945506DB2012D0CDB606A0028F9
:1053200009D014F1240000F009FD002801D000F09C
:105330009FFD6D1EEFE75FF0FF3084F84500FFF73B
:1053400044FDFFF735FD94F9446076B2012E0CDB85
:105350002069002809D014F1100000F0EFFC0028AB
:1053600001D000F085FD761EEFE75FF0FF3084F896
:105370004400FFF72AFD70BD38B50400FFF718FDA3
:10538000A06B002801D1012500E00025FFF71DFDDD
:10539000280032BD38B50400FFF70AFDA06BE16BB1
:1053A000884201D1012500E00025FFF70EFD28000D
:1053B00032BD000004ED00E001000022C80AC00276
:1053C000704730B403001C0010193E4DA84201D3B1
:1053D000002009E00025954205D2207808706D1C58
:1053E000491C641CF7E7100030BC70472DE9F04FF2
:1053F00087B005000E0017005FF00008AB4617EB02
:10540000050A0020019000208DF800001BF0030F1A
:1054100001D0012053E02B48824501D301204EE00A
:1054200072B601F067F8352027490860D3451DD2D0
:10543000DBF8000010F1010F12D000200290584656
:10544000FFF7BAFF049007F2FF70C00A059001A9A8
:1054500002A801F0E9F8002804D11BF1040B01E0D7
:105460001BF1040B022001F06BF8DFE7A9460220D4
:1054700001F066F80400E4B2002C18D1D14518D22E
:10548000326800234946022000F0D4FF00280BD1E7
:10549000D9F800003168884202D00120804608E037
:1054A00019F10409361DE9E70120804601E00120D9
:1054B000804601F032F862B65FFA88F8404607B0DD
:1054C000BDE8F08F010008080C200240012210F016
:1054D0001F018A406D4940B203005B0941F8232057
:1054E0007047C16851F40051C1607047C16831F420
:1054F0000051C1607047016931F490410161416917
:1055000031F02A01416170470068800910F0010004
:1055100070477FF04001016070477FF0200101601B
:105520007047C16851F02001C1607047C16831F017
:105530002001C1607047416931F480614161704769
:10554000C9B24160704781B0514909680143504A6E
:1055500011604F49096801400091009901B07047FE
:1055600081B04C49096801434A4A116049490968B8
:1055700001400091009901B0704700B58BB04FF425
:105580008040FFF7EDFF0420FFF7EAFF424800905C
:1055900009200190032002900020039069463F48B3
:1055A000FDF75FFB3E4800900420019069463B48B0
:1055B000FDF757FB2520FFF789FF5FF4E1300590E9
:1055C0000020069000200790002008900C200990F1
:1055D00000200A9005A9334801F060F93148FFF72F
:1055E0008AFF3048FFF77DFF2E48FFF7A4FF2D48C4
:1055F000FFF793FF2B48FFF794FF0BB000BD00B5FA
:105600008BB00420FFF7ACFF5FF40030FFF79BFF87
:10561000254801F0FFF840F2044000900920019075
:10562000032002900020039069461C48FDF719FBF7
:1056300040F6080000900420019069461748FDF7E5
:1056400010FB2620FFF742FF4FF416500590002074
:10565000069000200790002008900C200990002060
:105660000A9005A9104801F019F90F48FFF763FFE8
:105670000D48FFF740FF0C48FFF733FF0A48FFF7DC
:105680004CFF0948FFF74DFF0BB000BD00E100E003
:105690001C100240181002400200020400080140E1
:1056A00004000404003801400044004030B587B0D5
:1056B00004000D002000FFF739FF2000FFF716FF60
:1056C000200001F0A7F828680090A868082802D1F7
:1056D0000020019005E0A868092802D14FF480500D
:1056E0000190E868012802D10020029005E0E868F6
:1056F000022802D14FF4005002906868002802D1BD
:10570000002003900CE06868012803D14FF4C060CA
:10571000039005E06868022802D14FF4806003908E
:105720000C200490002005906946200001F0B6F896
:105730002000FFF7E0FE2000FFF7D3FE2000FFF778
:10574000FAFE2000FFF7E9FE2000FFF7EAFE07B0AF
:1057500030BD7047F8B504000D0016000027380072
:105760003100C0B2C9B288420ED2FFB2E95D20005A
:10577000FFF7E6FE2000FFF7C7FE0028FAD0200062
:10578000FFF7C7FE7F1CEAE7F1BD0000EFF30980D9
:10579000BFF36F8F1D4B1A6820E9F00F106008B53A
:1057A0004FF0500080F31188BFF34F8FBFF36F8F1E
:1057B00000F069FA4FF0000080F31188BDE808405E
:1057C00019680868B0E8F00F80F30988BFF36F8F9D
:1057D00070470E4B19680868B0E8F00F80F309882D
:1057E000BFF36F8F4FF0000080F311884EF00D0E65
:1057F000704707480068006880F3088862B661B6A1
:10580000BFF34F8FBFF36F8F00DF0000F45F002006
:1058100008ED00E02DE9F04F85B006000F0090463E
:105820009946DDF838A0DDF83CB01FFA88F85FEA49
:10583000880000F057FD0500002D0BD0602000F01F
:1058400051FD0400002C01D0256304E0280000F085
:10585000AFFD00E00024002C13D000200390029440
:10586000CDF804B0CDF800A04B461FFA88F84246A8
:105870003900300000F00AF8200000F05EF8012046
:1058800001E05FF0FF3005B0BDE8F08F2DE9F84F83
:1058900005000E0017009846DDF828900B9CDDF8F7
:1058A00030A0DAF8300000EB8700001FC008C0000D
:1058B00000905FF0000BBBF1190F0CD216F80B0033
:1058C0000AEB0B0181F8340016F80B00002802D017
:1058D0001BF1010BEFE700208AF84C00B9F10F0F24
:1058E00001D30E208146CAF82C90CAF850900020AF
:1058F000CAF854001AF1040000F0B5FC1AF11800BF
:1059000000F0B1FCCAF810A0D9F10F00CAF81800D5
:10591000CAF824A00020CAF8580000208AF85C00C9
:10592000424629000098FFF715FACAF80000002C3B
:1059300001D0C4F800A0BDE8F18F10B50400FFF756
:1059400037FADFF8B4050068401CDFF8AC150860D2
:10595000DFF8EC05006800280AD1DFF8E4050460F0
:10596000DFF894050068012811D100F099FA0EE0E3
:10597000DFF8D0050068002809D1E06ADFF8C0151B
:105980000968C96A884202D3DFF8B4050460DFF809
:10599000B8050068401CDFF8B0150860DFF8EC05BA
:1059A0000068E16A884203D2E06ADFF8E015086027
:1059B000211DDFF8E826E36A1420434302EB0300CD
:1059C00000F054FCFFF701FADFF8780500680028C2
:1059D0000FD0DFF86C050068C06AE16A884208D21F
:1059E0005FF08050DFF898170860BFF34F8FBFF368
:1059F0006F8F10BD38B505000024002D08D000F0D1
:105A00003BF80021280000F0CFFB00F03DF8040037
:105A1000002C08D15FF08050DFF86C170860BFF3EE
:105A20004F8FBFF36F8F31BD1CB5DFF86C0701904E
:105A30000020009000238022DFF860170FF23D4025
:105A4000FFF7E8FE0400012C15D1502080F31188E7
:105A5000BFF34F8FBFF36F8F5FF0FF30DFF840175A
:105A600008600120DFF8DC1408600020DFF8A017D0
:105A70000860FFF787F913BDDFF898070068401C3E
:105A8000DFF890170860704770B500250026FFF713
:105A90008FF9DFF8FC060068401EDFF8F416086096
:105AA000DFF8EC06006800285DD1DFF84C040068E0
:105AB000002858D0DFF8DC06006800282BD0DFF87B
:105AC000D406C068C068050015F1180000F0F5FBA9
:105AD000281D00F0F2FBDFF8B4040068E96A884290
