:020000040800F2
:10000000B8490020799200087B8A00087D8A0008A0
:100010007F8A0008818A0008838A000800000000A7
:10002000000000000000000000000000DB380008B5
:10003000858A00080000000095380008878A0008BB
:100040001193000815930008199300081D930008E8
:100050002193000825930008299300082D93000898
:100060003193000835930008399300083D93000848
:1000700041930008B18A000845930008B38A00083C
:10008000499300084D930008938A00085193000893
:1000900055930008599300085D9300086193000888
:1000A00065930008699300086D9300087193000838
:1000B000A58B000875930008799300087D930008CC
:1000C0008193000885930008899300088D930008A8
:1000D00091930008B58A0008F58A0008518B000842
:1000E00095930008999300089D9300082DE9F0432B
:1000F0009FB081462698DFF8F48B8DF83B001746B9
:1001000000201E4602910B900FF270144FF0FF3545
:100110000AE017F8011B0298C8470028029000F077
:100120009A800B98401C0B90387850B12528F0D15C
:1001300000200021059006910790089109900A91EE
:1001400003E00B989EE041F0010117F8010F202811
:10015000F9D023280DD02B2804D02D2806D0302804
:100160000AD07AE041F0020189B2EEE741F00401E1
:10017000FAE741F00801F7E741F01001F4E7002049
:100180000D9009E00D98404505DA00EB800302EB85
:100190004302303A0D927F1C3A78A2F130000A28CF
:1001A000F0D33A782E2A18BF0C9523D117F8010FF7
:1001B0002A2807D1306830607F1C50F8042B30604B
:1001C0000C9217E02D280CBF17F8010B002000221D
:1001D0000C920AE040B90C9A424505DA02EB820221
:1001E00003EB4203303B0C937F1C3B78A3F13002BE
:1001F0000A2AEFD3ADF838102046397800F014FF02
:1002000008B117F8010B8DF83A009DF83A006828FC
:1002100004BF3978682903D162208DF83A0007E0DD
:100220006C2804BF38786C2803D171218DF83A10FE
:100230007F1C10A80490324617F8013B69464846D7
:1002400000F060F838B910AA6946484600F0C2F9D3
:1002500000287FF569AF284614E02A288FD130683E
:10026000306050F8042B3060002A0D9204D55242C1
:1002700041F004010D9289B27F1C92E7686A6C74A8
:100280007A4C00001FB0BDE8F083622820D06828B7
:1002900011D06A2803D06C2827D0712825D108688E
:1002A000C01D20F007000860D0E900230830086076
:1002B000194610467047002A0A680A60106803D081
:1002C000121D0A6000B217E0121D0A6080B217E02A
:1002D000002A0A680A60106803D0121D0A6040B242
:1002E0000AE0121D0A60C0B20AE0002A0A680A6029
:1002F000106803D0121D0A60C1177047121D0A60F2
:10030000002170477CB50D4611461C462E69B4F19C
:10031000250200F04D811C3A00F08680121F022A4F
:1003200040F282800E3A00F00781521F5AD0093AFB
:100330007AD0921E16D0521E35D0521E022A73D980
:10034000121F30D0521F00F09A80521E4AD0521E07
:1003500000F0E480D21E00F0FD80921E42D0D21E3A
:1003600040D02BE195F83A206C2A09D06869421CEC
:100370006A610A680A6052F8043B0A60335427E154
:100380000A680A6052F8043B0A6000210093019158
:100390004FF0FF322A6329466A4600F0A2F900288E
:1003A00040F1168101E195F83A000122FFF76DFF57
:1003B000C5E900010023994204DA6869411C6961BA
:1003C0002D210DE0288F810704D56869411C6961E2
:1003D0002B2105E0C00722D56869411C69612021F5
:1003E00031541CE095F83A000022FFF74EFFC5E9B2
:1003F000000195F83800010711D5D5E90023002048
:10040000834208BF82420AD044F02000782806D1F7
:10041000686930213154401C411C696134542146C3
:1004200068693044E86083E00868C01D20F0070078
:100430000860D0E9002308300860C5E90023D5E949
:100440000001C80F04D06869411C69612D210DE0CD
:10045000288F810704D56869411C69612B2105E05B
:10046000C00704D56869411C69612021315468695D
:100470003044E8602146284600F040FAA8E005F143
:100480003A02507820B14FF0FF340FF6003070E0A0
:100490001078622808D0682824D06A2812D06C28E6
:1004A0002ED071280ED02BE00A680A6052F8040B97
:1004B0000A6020B94FF0FF340FF6E82059E0E96AEE
:1004C000017085E00A680A6052F8040B0A6020B9DE
:1004D0004FF0FF340FF6CC204BE0EA6AD317C0E9A7
:1004E000002375E00A680A6052F8040B0A6020B91C
:1004F0004FF0FF340FF6AC203BE0E96A018067E083
:100500000A680A6052F8040B0A6020B94FF0FF3401
:100510000FF690202DE0E96A016059E00A680A6050
:1005200052F8040B0A600021C5E90001EE60782151
:10053000284600F035F94BE06C2285F83A200B682C
:100540000B6053F8042B0B6052BB4FF0FF340FF6D7
:1005500088200EE095F83A206C2AF0D008680860F0
:1005600050F8044B0860EC603CB94FF0FF340FF6D4
:100570004C2000F065FD201A76BD2E6B002E04D5B0
:10058000204600F07FFD044608E032460021204668
:1005900000F094FD002814BF041B3446AC6117E042
:1005A000294600F09EF8002812D54FF0FF3076BDA6
:1005B0006869411C69612521315409E06869411C61
:1005C000696125223254200002D0481C68617454AD
:1005D000002076BD2DE9F0410F4682B00646796BCA
:1005E0007869BC6A091A386A091AB869091A786AF6
:1005F000091AF869091A97F838000C1B4107904648
:100600000FD42021002C8DF800100ADD254601238F
:100610006A463946304600F0A2FC00285DD16D1EC6
:10062000F5D17B6942463946304600F098FC0028F7
:1006300053D130208DF800003D6A002D09DD0123E3
:100640006A463946304600F08AFC002845D16D1EC6
:10065000F5D1BB69FA683946304600F080FC0028C5
:100660003BD130208DF800007D6A002D08DD01238C
:100670006A463946304600F072FC70BB6D1EF6D1FA
:10068000F868B969FB6942183946304600F067FCE2
:1006900018BB30208DF80000BD6A002D08DD012355
:1006A0006A463946304600F05AFCB0B96D1EF6D1A4
:1006B00097F8380041070DD52021002C8DF8001047
:1006C00008DD01236A463946304600F048FC20B96F
:1006D000641EF6D10020BDE8F6814FF0FF30BDE882
:1006E000F6812DE9F0470E46A4B0356B002D81460A
:1006F000904648BF6FF0004500F00CFD716B40184C
:100700000FF6F0018128D1E90023CDE9012328BFAC
:100710004FF0FF303ED20024002D2FDDD8F800101E
:1007200001AA684600F0FAFC0746002F35D4D8F835
:10073000000008B97F1E30D4BD421FDB7069381835
:1007400081280AD30020706303AA31464846FFF788
:1007500041FF040012D40020706103A8D6F814A051
:100760003A466946504400F0DBFCBA44C6F814A08F
:1007700058F8040B002818BFED1BCDD12CB903AAE3
:1007800031464846FFF726FF044614B90020706141
:100790007063204624B0BDE8F0874FF0FF34F8E7DF
:1007A0002DE9FC4B06468B463469BBF16F0F08BF41
:1007B000082505D04BF02001782914BF0A25102503
:1007C0003C27D6E90023BBF1640F18BFBBF1690FCA
:1007D0009046994606D100218B4203DAD8F10008F1
:1007E00069EB49090020814508BF80451FD1306B66
:1007F000E8B9082D4ED196F8380001074AD53020C7
:100800003B2784F83B0045E000280ED596F83800D9
:1008100000F01400102808D1726B7069121A306A47
:10082000121A511A0029C8BF3162BDE8F38B019634
:100830008DF800B0404649462A46EB1700F0C4FC4C
:1008400030327F1ED2B23A2A04DB9DF80000A0F1BC
:1008500051018A18E255404649462A46EB1700F0F6
:10086000B3FC894600228046914508BF904504D0DC
:100870000198C168E0198142DCD3082D019E09D19D
:1008800096F83800010705D5E15D302902D07F1EBA
:100890003020E055E019F060C7F13C01306BB161E8
:1008A0008142B1DA411A31624FF6EF70318F014067
:1008B0003187BDE8F38B2DE9D04306460F46144639
:1008C0004FF00008DFF8289412E0E00707D5424611
:1008D0004B463046394600F0EFFC06460F46404690
:1008E000494642464B4600F0E7FC64108046894684
:1008F000002CEAD130463946BDE8D0832DE9F047D7
:1009000005468A468EB0D5E900894AF02000612864
:1009100002AF00900AD0286B002802D50620286379
:1009200004E001BF0098672801212963D5E900642C
:1009300060004015401C0DD121030BD0AAF16101CC
:1009400003201A29A86102D20FF2B06110E00FF261
:10095000B0610DE060004015401C0ED121030CD1A8
:10096000AAF1610103201A29A86116D30FF2986138
:10097000E868032200F0D4FBCAE124F00043B3F599
:10098000801F26F0000211D20020834208BF82425D
:10099000019005D13046214612E00FF26861E7E789
:1009A00001AA3046214600F059FD09E0D148D2495C
:1009B00000EB1350019004EA0102D0493046114384
:1009C000C5E90001009A612A0DD1E8683021017063
:1009D000811CE960BAF1610F0CBF78215821417088
:1009E0006869801C6861D5E90023CDE90C23DDE945
:1009F0000C0121F0004100220023994204BF9042E3
:100A0000002000F04D810098612840F09C80286B08
:100A100000284CBF2120401C00904046009E761CC0
:100A20004946DDE90C8900F051FD01988DF8082058
:100A300038BF89F00049001F0190002E0DF1090018
:100A400040F33C810746404649460022002300F01F
:100A500055FD80F032814800400D00F11C0211D09C
:100A6000002A0FDD40F2FF70824205DBA44909F045
:100A700000400143002012E06FF31E5141EA025191
:100A800040460CE029F0004128F00000994208BFE0
:100A900098420FBF49461C22494600F047FD804658
:100AA000894600F0E1FDF61F002E044609DD00F046
:100AB000F9FD02460B464046494600F005FE8046D9
:100AC0008946F81D072104E004F00F0200F8012D0B
:100AD0002411002C01DD491EF6D5491E5CBF002201
:100AE00000F8012DF9D5E4E00020194602AA0A44D5
:100AF00000E05B1E12F80149491E8442F9D00F281C
:100B000004D10DF10900425C521C4254002904D565
:100B10000198001D02AF5B1C0190581E0CD43918BF
:100B2000AAF13A040A783032D2B2392AC8BFA218E0
:100B3000401E01F80129F5D5286B002840F1AF804F
:100B4000591E2963ABE04046494600F0BFFC0199BD
:100B500038BF89F0004947F297504143694A91FBF9
:100B6000F2F20192D2F1070204DD40464946FFF756
:100B7000A2FE0AE0524200206349FFF79CFE0246B3
:100B80000B464046494600F011FE804600985F4EF5
:100B90006628286B06BF019C0A3406242418142CEE
:100BA000C8BF142430208DF8080089460DF10900D3
:100BB00000E03846002C34DD07464046494600F048
:100BC00019FF01460A4607F1080304200A27B2FB71
:100BD000F7F707EB870EA2EB4E02303203F8012C39
:100BE0000A22B7FBF2F202EB820EA7EB4E07303778
:100BF000401E03F8027DE9D1083C002C03F10807F0
:100C0000D7DD084600F00AFF02460B46404649463B
:100C100000F05AFD0022334600F04EFB8046894624
:100C2000CBE70DF10901401A0DF1090704E0019924
:100C3000491E401E01917F1C39783029F7D0009A57
:100C4000662A02D10199491C03E0652A0CBF0121E3
:100C500000212B6BCB189842B8BF431E002B1ED42B
:100C6000834204DAF85C3528A8BF392000DA302046
:100C700019467A1E02EB010800E05B1E18F8019984
:100C8000491E8145F9D0392802D1785C401C78543E
:100C9000002904D50198401C17465B1C019001985F
:100CA00000B200901BB23A465146284600F033F895
:100CB0002EE0C71D002E3FF7C6AE38460DF10901E4
:100CC000401A009903468842C8BF0B46002B0DF11D
:100CD00009073FF531AF8342BFF606AF0DF10900BA
:100CE000C05C07287FF700AF0F20FEE6CBCCCC0C12
:100CF0000000244002FCFFFFFFFF0F800000E03FE8
:100D00000000F07FA08601000000F03F84D79741EB
:100D10000EB0BDE8F0872DE9F046064685B01C46CA
:100D2000376B002C914602DC01240FF2E0298A4641
:100D3000BDF930504AF02000662808BF6D1C12D063
:100D4000672878D115F1040F7BDBBD4279DA96F87C
:100D500038006D1C010702D4BC42B8BF27462DB233
:100D60007F1B48BF00272DB2F068B169002D23DC3E
:100D70004A1C30234354002F03DC96F83800010747
:100D800003D5F0682E218154521CEF42B8BF7D423A
:100D90002DB26842ED19A542B8BF2C46B26170620F
:100DA00024B2F461F068B36922464946184400F061
:100DB000B7F9281BB062BBE02A469442084416DA11
:100DC0002246494600F0ACF9B0692018B0612C1BEE
:100DD000002F746203DC96F838100A0705D5F16815
:100DE0002E220A54F069401CF061B762A0E0494627
:100DF00000F096F9B0692818641B002F03DC96F800
:100E000038100A0703D5F1682E220A54401CB0613D
:100E100024B2A742B8BF3C46F068B36924B2224668
:100E200009EB0501184400F07BF9B0692018B061A6
:100E30003C1B74627CE0BAF1610F14D14FF0700A70
:100E400016E0BC4204DA96F838100A0758BF274665
:100E50007F1E48BF0027BAF1670F14BF4FF0450A45
:100E60004FF0650A04E0BAF1410F08BF4FF0500A95
:100E7000B169F368481CB061002F19F8012B5A546E
:100E800003DC96F838100A0717D5F268431CB361E3
:100E90002E211154002F10DD641E24B2A742B8BFCA
:100EA0003C46F06824B222464946184400F038F91E
:100EB000B0692018B0613F1B7762F068B1690844DF
:100EC000002D80F800A003D42B214170811C03E089
:100ED0002D2141706D42811C00206A460AE02B469C
:100EE0000A2493FBF4F505EB8504A3EB440302F815
:100EF000013B401C2DB2002DF1DC012806DC4AF03C
:100F00002002652A04BF302201F8012B48B93020A5
:100F100001F8010B07E0401E1DF80020303201F8F7
:100F2000012B0028F7DCF068B2691044091AF1615E
:100F300096F8380000F0140010280DD17169B069DE
:100F40004118706A4118F0694118B06A4118706B15
:100F50008142BCBF411A316205B0BDE8F086F8B5E8
:100F600005460E4617461C46002074B117F8011BB3
:100F7000B068A847B06030B1F06A401CF062002051
:100F8000641EF3D1F2BD4FF0FF30F2BD7072696E96
:100F900074665F733A20256E20646973616C6C6FB0
:100FA000776564007072696E74663A2062616420CD
:100FB000256E20617267756D656E74007072696E62
:100FC00074665F733A2062616420257320617267E2
:100FD000756D656E740000007072696E74665F7383
:100FE0003A2062616420256C7320617267756D65BB
:100FF0006E74000000000000000000006E616E00D2
:101000004E414E00696E6600494E460030008268CF
:10101000521C8260426832B10268531C0360117036
:101020004168491E416070470278C9B28A421AB1CC
:101030001CBF10F8012FF9E718BF00207047080007
:1010400080B508B90FF21C0005490B681BB12222BC
:101050000021984701E000F0EEFC222002BD0000D4
:10106000A0450020636F6E73747261696E742068AE
:10107000616E646C65723A20626164206D657373A1
:101080006167650000F10103810704D010F8011BBE
:1010900089B18107FAD10268B2F10131914311F0AF
:1010A000803F04BF50F8042FF6E710F8011B11B180
:1010B00010F8011BFBE7C01A70470000C9B2830794
:1010C00006D0521E22D310F8013B9942F7D11FE0FF
:1010D000083A13D302F1040241EA012141EA014135
:1010E00050F8043B121F21BF4B40A3F1013C2CEAF6
:1010F000030C1CF0803FF3D0C9B2001F083210F877
:10110000013B521E28BF91EA030FF8D818BF0120F7
:10111000401E70470120704700F090BC0023FBE7A1
:1011200062B38B0708D0521E11F8013B00F8013B57
:1011300000F024808B07F6D1830740F0208000BFA9
:10114000103A07D330B4B1E83810103AA0E838109C
:10115000F9D230BC530724BFB1E80810A0E808104A
:1011600044BF51F8043B40F8043BD20724BF31F898
:10117000022B20F8022B44BF0B7803707047121F1C
:1011800017D35B0009D151F8043B20F8023B1B0C3C
:10119000121F20F8023BF6D20BE051F8043B00F896
:1011A000013B1B0A20F8023B1B0C121F00F8013BFD
:1011B000F3D238BF121D521E24BF11F8013B00F8B4
:1011C000013BF8D8704700001B4213D1094236D1C9
:1011D0002AB18446B0FBF2F002FB10C2704700F067
:1011E00037BCFCD30022002370470B000200002113
:1011F00000207047904271EB030CF6D370B5B1FA42
:1012000081F4B3FA83F52C1BA340C4F1200532FA14
:1012100005F63343A2405FF00046E64002E05B087B
:101220005FEA3202841A71EB030524BF2046294687
:101230007641F4D302000B003000002170BD012A7A
:10124000CFD970B5140C20D0B1FA81F4B2FA82F57E
:10125000C4F120046419B4F12006D6D3B2405FF083
:101260000044F440002502E052085FEA3303C61A46
:1012700071EB020E24BF3046714664416D41F3D3D9
:1012800002000B002000290070BD0C46B1FBF2F1FA
:1012900002FB11452D0445EA1045B5FBF2F402FBB3
:1012A000145580B240EA0545B5FBF2F002FB10523E
:1012B00040EA044070BD0000B0B581EA030C0CF0B8
:1012C000004C40F2FF7515EA11541DBF15EA135783
:1012D000AC42AF4239E0E41923EA455343F48013AA
:1012E000C90241F0004141EA505EC7021100A7FB6C
:1012F000020200284FF00000EEFB01204FF0000139
:10130000E3FB072118BF42F00102401800214941C8
:10131000E3FB0E01A4F580640F0302D252004041AA
:10132000494154F101046CDD470872F1004250F16B
:10133000000051EB0451A1F580115CBF41EA0C01A2
:10134000B0BD4CEA05510020B0BD05EA1357AC42D0
:1013500014BFAF4241E050EA410E1CBF52EA430EB7
:1013600002E061460020B0BD24423C441BD15FEA4C
:10137000070EF6D0090302BF01460020AEF1140E9D
:10138000B1FA81F7AEEB070401FA07FE0C37C7F19B
:10139000200100FA07F7C8404EEA000E23EA455341
:1013A00043F48013A2E733F00043B3FA83F704BF9A
:1013B000B2FA82FE77440B3FE41BB7F1200E2FBF39
:1013C00002FA0EF3BB40C7F1200E22FA0EFE38BF20
:1013D00043EA0E03BA40641C82E750EA410E14BF90
:1013E00052EA430E6FF000014FF4001717EB430F62
:1013F0008ABF194617EB410FB5E74CEA05510020AB
:10140000B0BDD4F10104B4F120070FDAC4F1200714
:10141000520828BF42F0010210FA07F501FA07F757
:10142000E1BF2A43E0403843E1400FE0352C98DC2F
:10143000C7F1200452EA400220FA07F218BF42F036
:10144000010231FA07F0A1400A43002172F1004283
:1014500050F1000051EB0C01B0BD000010B5144676
:1014600000F002F8226010BDC1F30A5343B14A00F4
:1014700012F5001F28D2A3F2FE32A1EB02517047F1
:1014800050EA410C20D001F0004C31EA0C01B1FAD5
:1014900081F204BFB0FA80F3D2180B3AB2F1200304
:1014A0002CBF00FA03F1914041EA0C013EBFC2F1AA
:1014B000200C20FA0CF319439040524240F2FD33C5
:1014C000D21A01EB03517047002270474FF4001C01
:1014D0001CEB410F94BF1CEB430F09E041EA030CE6
:1014E00050EA4C0C52EA0C0C03D2994208BF9042CD
:1014F000704714BF8B428242704700004FF4001CBB
:101500001CEB410F94BF1CEB430F09E041EA030CB5
:1015100050EA4C0C52EA0C0C03D28B4208BF8242B8
:10152000704714BF9942904270470000124254D451
:1015300040F2FF7C1CEA11530FD0634531D09B1859
:1015400063453CBF01EB0251704701F0004141EAA5
:101550000C510020AFF30080704750EA410320D0C7
:1015600001F0004C91EA0C011CD0B1FA81F30B3B65
:101570009A420DD9D21A994051EA0C01C3F1200CBC
:1015800020FA0CFC61449840531C40F2FF7CD7E7E2
:10159000914041EA0C01C2F1200C20FA0CF31943EE
:1015A00090407047B0FA80F31533202BE0D3202A07
:1015B000EED3203A203B9A4209D9D21A00FA03F11D
:1015C00041EA0C010020531C40F2FF7CB8E700FA0E
:1015D00002F141EA0C0100207047524240F2FF7CC8
:1015E0001CEA11530DD06345DBD0B2EB030C3CBFBA
:1015F000A1EB025170470CF1010221EA035141F4C1
:10160000801150EA410CCCD001F0004C352A27DC87
:1016100030B481EA0C01B2F1200309DAC2F12003EF
:10162000044601FA03F5D0402843D1409C400CE029
:10163000C3F12002450020FA03F418BF44F001046E
:1016400021FA03F091400C43002174F1004550F160
:10165000000051EB0C01244230BC7FF47BAF70479B
:101660006146002076E70000C1F30A5340F2FE32E3
:101670009B1A14DDD3F120034FEAE17208DDC902A1
:1016800041EA505141F00040D84080185040704726
:1016900003F2E13010B1D24382F0004070470020E5
:1016A00070470000C11768B14840401AB0FA80F294
:1016B0009040D21CC907C2F5846241EA025202EB93
:1016C000D02140057047000070B44FF0004591EA0A
:1016D000030F40F1C7816B40841A71EB030603D2FC
:1016E000001BB141121973414FF4001C1CEB410F58
:1016F00034BF7CEB430442E00C0DA4EB1356352EB3
:101700004FDC45EAC323DB0A45EAC121C912B6F121
:1017100020050DDD63FA05F6EB4086EA030512426B
:1017200018BF45F00105C01851F100010CD213E0BB
:1017300062FA06F5F2405540F3415A40B340F34097
:101740005A408018594107D349085FEA30005FEAE0
:10175000350528BF45F0010501F58011420875F1F6
:10176000004250F1000041EB04514E0016F5001FFD
:1017700070BC38BF70470020090D090570471CEB8D
:10178000410F10D252EA43060BD0BCEB410F05D8F3
:101790000C0DAB43661E342EB6DD02E0AB43801861
:1017A000594170BC704770BC70470000F0B540F202
:1017B000FF7581EA030C0CF0004C15EA11541DBFB3
:1017C00015EA1357AC42AF42E5E0BC41C1F3130147
:1017D000C3F31303801A994143F4801304D2641EA7
:1017E0004000494180185941C90241EA5051B1FBBA
:1017F000F3F603FB1611A2FB0675D7EBC020A94137
:1018000002D2761E80185941C90241EA5051B1FBFB
:10181000F3FE03FB1E11A2FB0E75D7EBC020A941FE
:1018200003D2AEF1010E80185941890241EA90516C
:10183000760546EA8E2EB1FBF3F603FB1611A2FBEA
:101840000675D7EB8020A94102D2761E8018594137
:10185000C90241EA50514EEA060EB1FBF3F603FB12
:101860001611A2FB0675D7EBC020A94102D2761E45
:1018700080185941C90241EA5051B1FBF3F703FB0B
:101880001711A2FB0735D3EBC020A94167F1000770
:101890000CBF004247F0010766F3D5274FEA1E311F
:1018A000B80814F5806412DDBD0775F1004250EBF5
:1018B0000E5051EB045111F5801F5CBF41EA0C0141
:1018C000F0BD4CF07F6141F0E0410020F0BDBD076C
:1018D0006D0840EA0E5041F48011D4F10104B4F1D6
:1018E00020060ADAC4F120060200E04001FA06F3FD
:1018F000E1401843B24015430EE0342C13DCC6F12E
:10190000200445EA40056D0820FA06F2154321FA45
:1019100006F0A1400D43002175F1004250F1000096
:1019200051EB0C01F0BD00205FEA0C01F0BDCFB916
:1019300092185B41B3FA83F704BFB2FA82F6BF197B
:101940000B3FB7F120062FBF02FA06F3BB40C7F1E9
:10195000200622FA06F638BF3343BA401CB1E41918
:10196000641E33E77F4231F00041B1FA81F404BFD5
:10197000B0FA80F6A4190B3CB4F120062FBF00FA90
:1019800006F1A140C4F1200620FA06F638BF314323
:10199000A0403C1B1AE7AC421ABF05EA1357AF42FE
:1019A00012E050EA41061CBF52EA4306BFE750EA84
:1019B0004107304661461CBF41EA0551F0BD52EA7D
:1019C000430C08BFC143F0BD00204FF4001616EBD6
:1019D000410F98BF16EB430F08BF16EB410F24BF12
:1019E000C14305E016EB430F0CBF61464CEA0551BD
:1019F000F0BD0000400D491840EA81200CD2490D8D
:101A0000A1F58061491C40F0004005DBD1F11F01C8
:101A100054BFC840C017704700207047014648B106
:101A2000B0FA80F18840C91CC1F58461090501EB59
:101A3000D02140057047012000F0C8B8B1F5807F83
:101A400002D34FF0FF307047017001207047000053
:101A50007047000070B44FF0004591EA030F7FF526
:101A60003BAE6B40841A71EB030604D26E40001B40
:101A7000B141121973414FF4001C1CEB410F34BFEC
:101A80007CEB430682E00C0DA4EB1356362E7BDC78
:101A9000012E45EAC32341DC43EA525312BFD2026E
:101AA00092025B08240545EAC12141EA5051D2EB7C
:101AB000C020994125D407D1B0FA80F610FA06F17A
:101AC00062D00020203608E0B1FA81F6B140C6F1BC
:101AD000200220FA02F21143B0404FEAF474B4EB52
:101AE000465434F001064FEA74040AD8D6F50016BD
:101AF000760D04F00044F04061FA06F25040F140E7
:101B00004840C00A40EA415021F0004128BF5FEA46
:101B1000500550F1000044EBD12135E0DB0A45EAE5
:101B2000C121C90AB6F120050EDD42EA0242120CBB
:101B3000C5F1200603FA06F6EB4042EA06056D42BF
:101B4000984161F100010DE062FA06F5F24055405E
:101B500063FA06FC82EA0C02F3405A406D4290415F
:101B600061EB030111F4801F05D1641E620502D0F0
:101B70006D004041494121F48011430875F1004353
:101B800050F1000041EB045170BC70471CEB410F59
:101B900015D223F0004352EA43060BD04FEA4C0C17
:101BA000BCEB410F04D80C0D661E342EB7DDEBE7FD
:101BB000801A994150EA410608BF0021E4E708BFB6
:101BC0001CEB430F28BF6FF00001DDE780B500F08C
:101BD00007F8024A11001820ABBEFBE726000200FE
:101BE00010B500F031F802000023DB430024106838
:101BF000984203D011000220ABBE14605068984296
:101C000003D0111D0220ABBE546010BD10B584B0CE
:101C1000040000F019F8A100421810680021C9431F
:101C200088420DD107A00090002C01D1002000E0D7
:101C3000042001900320029069460120ABBE106091
:101C400004B010BD3A747400004870471C000020B6
:101C500010B450F8041B79B102684368024408309C
:101C6000DC0744BFA9F10104E31852F8044B43F820
:101C7000044B091FF9D1ECE710BC704700000000CD
:101C80002DE9F04D8AB0129C14B1129C00252560FC
:101C90001F46164627F00043002226F0000A934212
:101CA00008BF924514D004460D460020DFF86016A8
:101CB00022462B4600F088FD0AD0DFF8581600F0C7
:101CC00083FD09D178004015401C05D1390303D1AB
:101CD0000020DFF83C165CE368004015401C0DD086
:101CE00025F00041002224F00000914208BF9042FC
:101CF00004D078004015401C40F0EA806800401590
:101D0000401C04D1290302D02046294641E3780033
:101D10004015401C04D1390302D03046394638E31F
:101D200078004015401C4FF0010C00F080803946CF
:101D30004A0042EADA7B002200234FEA4A0A9B4526
:101D400004BF9245CDE9006730461CD040F23342D3
:101D5000A2EB5B52352A06DB00F0000201F00043E3
:101D6000CDE900230FE0202A04DDA2F12000C140CC
:101D7000814000E001D1002003E0002AC4BFD04030
:101D80009040CDE90001BB4600229345B24605DAFA
:101D90004FF00041B2EB0A0A61EB0B0BDDE90001E9
:101DA000914204DA4FF00043101A63EB01018B45B6
:101DB0000CBF82459446DDE900014B0043EAD07335
:101DC00042000026B34208BFB24217D040F2344E60
:101DD000AEEB5352352A04DB00F0000001F0004165
:101DE0000CE0202A03DD203AD140914000E001D1EF
:101DF000002003E0002AC4BFD0409040BCF1000F97
:101E000015D0DDE90023B34204DA4FF0004BB21ADB
:101E10006BEB0303B14204DA4FF0004B301A6BEB6B
:101E200001018B4206BF8242B4464FF0010C6800AC
:101E30004015401C06D1290304D1EC0F1AD1FE0F26
:101E400043D020E078004015401C1DD139031BD140
:101E500025F00041B1F5801F24F0000020D20023BE
:101E6000994208BF984200931FD06A462946FFF75F
:101E7000F5FA1AE0FE0F03D1BCF1000F25D020E0E7
:101E8000BCF1000F09D183E2BCF1000F14BFEC0FCD
:101E90000024FE0F13D184B100204FF0004178E2FE
:101EA000DFF8742402EB11500090FE0F009802D16D
:101EB000002809DC01E0002806DD002068E21CB1F2
:101EC0000020DFF8581464E20020DFF8541460E2C8
:101ED000394630464B0043EAD07342004FF0000AC7
:101EE000534504BF5245CDE9006719D040F2334C49
:101EF000ACEB5352352A04DB00F0000001F0004146
:101F00000CE0202A03DD203AD140914000E001D1CD
:101F1000002003E0002AC4BFD0409040CDE900017A
:101F2000E80F1ED039465145304605DA4FF00043E0
:101F3000BAEB000063EB0101DDE90023534505DA4C
:101F40004FF0004BBAEB02026BEB0303994208BF60
:101F5000904206D0AFF300804FF0FF306FF00041A9
:101F600017E225F00041B1F5801F24F000000CD2EB
:101F7000514508BF5045CDF808A011D002AA294606
:101F8000FFF76CFA04460D460AE0DFF88C2302EBFB
:101F900011500290DFF88C13DFF88C0305400D43DD
:101FA000E80F3CD0DDE900014B0043EAD07342006A
:101FB000534508BF524525F000451AD04B0040F26A
:101FC000344C43EAD073ACEB5352352A04DB00F0B7
:101FD000000001F000410CE0202A03DD203AD1404E
:101FE000914000E001D1002003E0002AC4BFD040AE
:101FF0009040DDE90023534505DA4FF0004BBAEB82
:1020000002026BEB0303514505DA4FF0004BBAEBCC
:1020100000006BEB01018B4208BF824202D1CDF878
:102020000CA001E001210391029801282FD1204644
:102030002946BE4ABE4BFFF749FA28D24800400D58
:10204000D046DFF8CCB200F1010211D0002A0FDD3A
:1020500040F2FF70824206DBB14905F000430024E4
:1020600043EA010532E06FF31E5141EA02552DE0CB
:1020700025F0004324F00002434508BF424525D027
:1020800001222046FFF752FA04460D461EE00020CA
:10209000A84922462B46FFF70FF9DFF888B2002245
:1020A0005B46FFF7D7FCFFF7DFFAA0F120084046B8
:1020B000FFF7F8FA0022A04BFFF7FEF800225B467C
:1020C000FFF7C8FC82468B464FEA4818204629464F
:1020D00052465B46FFF7F8FACDE9000152465B46EF
:1020E00020462946FFF7B6FC02460B46DDE9000113
:1020F000FFF75CFBCDE90401DDE90423FFF7DCF821
:10210000CDE900015246204629465B46FFF7DCFA3E
:10211000CDE90601DDE9002388488949FFF7CCF8BD
:10212000884A894BFFF796FCDDE90023FFF7C4F8E6
:10213000864A874BFFF78EFCDDE90023FFF7BCF8EA
:10214000844A854BFFF786FCDDE90023FFF7B4F8EE
:10215000824A834BFFF77EFCDDE90023FFF7ACF8F2
:10216000804A814BFFF776FCDDE90023FFF7A4F8F6
:102170007E4A7F4BFFF76EFCCDE9080152460020F6
:1021800063495B46FFF7A0FA0B465A00520D02F175
:10219000010411D0002C0FDD40F2FF72944205DBE8
:1021A0005F4D01F000400024054312E06FF31E5321
:1021B00043EA045504460CE021F00043002420F0DB
:1021C0000002A3420EBFA2420122FFF7AFF904466C
:1021D0000D46DDE90023DDE90801FFF76DF8DDE9D3
:1021E0000623FFF771FA22462B46FFF733FCDDE9A1
:1021F0000423FFF761F80FF2B01202EB0805DDE9E6
:102200000623FFF727FC824602988B46FFF74AFA1F
:10221000D5E90023FFF71EFCCDE9000152465548E1
:1022200055495B46FFF748F8DDE90023FFF712FC4C
:1022300032463B46FFF740F80022504BFFF746F985
:1022400062D301224E4BFFF759F956D9CA0F1ABF74
:1022500000224C4B334BFFF7FDFBFFF705FA04461A
:1022600032463B4650465946FFF726F882468B4693
:10227000D5E90201D5E90423FFF7ECFB32463B46E2
:10228000FFF71AF8404A414BFFF716F852465B46F3
:10229000FFF7E0FB05468B46DDE9000132463B4691
:1022A000FFF70AF806460F462046FFF7FBF90246FD
:1022B0000B4630463946FFF707FA334A334BFEF7F1
:1022C000FBFF2A465B46FFF7C5FB129A0AB1146072
:1022D0000024009400220E4B00F086FA21F0004505
:1022E000002220F00004954208BF94420CD04A001E
:1022F0005215521C03D10B0301D100200849039A47
:102300002AB181F0004144E000200021F7E740E0DD
:102310000000F03F0000F0BF02FCFFFF0000F0FFF4
:102320000000F07F0000E03FFFFF0F80CD3B7F66A5
:102330009EA0E63F000050400000903FF7DE29BF1E
:10234000D8F8C23FF4B3FECC1A99C33F62CB68D928
:102350006F46C73FC6C912DAC471CC3F4AE98A94B6
:102360002449D23FF75F97999999D93FBC55555564
:102370005555E53FFE822B654715F73F0000E0C04D
:102380000000E0400000E0BFEF39FAFE422EE63FD9
:1023900000210AB0BDE8F08D10B582B00024009491
:1023A000FFF76EFC1CBD0000000000000000F0BF45
:1023B000000000000000008000000000000000801D
:1023C0000000000000000000000000C05294EEBFBA
:1023D00000000048204E51BE000000F86467BCBCFD
:1023E0000000000000000000000000208133EDBF6D
:1023F00000000080B3DB14BE000000506706A3BCE1
:102400000000000000000000000000D0E9DCEBBF8D
:1024100000000008C39259BE00000080B0D3B8BCD1
:10242000000000000000000000000070F98FEABF0B
:10243000000000C0A51028BE000000E8BFC0B0BC6E
:10244000000000000000000000000070284CE9BF00
:1024500000000060134B42BE000000C03D20B8BC2D
:10246000000000000000000000000050FA10E8BF6B
:10247000000000C05FF62BBE000000905C71A7BC9E
:10248000000000000000000000000020FCDDE6BFAE
:10249000000000C0F8F154BE00000018E9F6B9BC15
:1024A0000000000000000000000000D0C3B2E5BF43
:1024B00000000070E43254BE00000050DB06B4BCE3
:1024C000000000000000000000000010EF8EE4BFDC
:1024D00000000020F36252BE000000C02A879ABCB0
:1024E0000000000000000000000000B02272E3BF06
:1024F000000000F0E8E056BE00000028352DBDBC0D
:102500000000000000000000000000000A5CE2BFC4
:10251000000000B0FA8E41BE00000040AE6FBDBCAE
:10252000000000000000000000000000564CE1BF69
:10253000000000F015CD5FBE00000000141C90BC30
:10254000000000000000000000000040BD42E0BFAD
:1025500000000030F93457BE000000E06C1E93BC50
:102560000000000000000000000000E0F57DDEBF7C
:10257000000000B08A535EBE00000080DA77AABC7B
:102580000000000000000000000000C09D81DCBFD2
:1025900000000000FFA226BE0000006057E2B0BCB1
:1025A000000000000000000000000060F98FDABFAA
:1025B000000000580A8151BE000000F05F60B8BC06
:1025C00000000000000000000000000098A8D8BF34
:1025D000000000607A7F45BE000000D05433A3BCE9
:1025E0000000000000000000000000600FCBD6BF1C
:1025F000000000D091CB40BE000000406D1BA0BC8D
:102600000000000000000000000000A0FBF6D4BFA6
:1026100000000098C5CE52BE000000003A397EBCD2
:102620000000000000000000000000E0FE2BD3BF0F
:102630000000004073872BBE00000000926879BC48
:10264000000000000000000000000040C069D1BF91
:1026500000000058F16353BE00000080438D7CBC35
:10266000000000000000000000000080D85FCFBF25
:10267000000000181F8354BE000000B03F42A2BCFF
:1026800000000000000000000000008067FCCBBFDD
:1026900000000060FAFF53BE00000050E00DB8BC1F
:1026A00000000000000000000000000098A8C8BF63
:1026B000000000607A7F35BE000000C0543393BC38
:1026C000000000000000000000000000DC63C5BF47
:1026D00000000058D6FF54BE00000000396490BCD2
:1026E0000000000000000000000000C0AD2DC2BFCF
:1026F00000000080A45915BE000000E0484BABBCB0
:102700000000000000000000000000801A0BBEBFA7
:1027100000000050BF3C5ABE000000A0B364B6BC2D
:1027200000000000000000000000008004D6B7BFD9
:1027300000000040BBCF36BE0000008076CEA8BCB3
:1027400000000000000000000000008032BBB1BFAC
:10275000000000402A0043BE00000028C60CBDBC9B
:102760000000000000000000000000009473A7BFFC
:10277000000000182B3B59BE000000C0E55DA5BC61
:10278000000000000000000000000000EE4397BFC2
:10279000000000A0E6C340BE00000020958DB5BC3F
:1027A00000000000000000000000000000000080A9
:1027B0000000000000000080000000000000008019
:1027C000000000000000000090420CD141EA030C20
:1027D00050EA4C0C07D0994205D14FF4001C1CEB79
:1027E000410F38BF894270472DE9F04D04460D4630
:1027F00068004015401C84B016461F461DD025F0C9
:102800000041002224F00000914208BF904214D001
:1028100078004015401C10D026F0000037F0004131
:1028200008BF904209D02946914280F28B804FF038
:102830000043101B63EB010184E068004015401C5D
:1028400002D1290340F0718178004015401C01D16C
:10285000390351D127F00043002026F000028342C3
:1028600008BF824206D168004015401C44D12903AC
:1028700042D10BE078004015401C0ED139030CD139
:1028800068004015401C37D1290335D1AFF30080D3
:102890004FF0FF306FF0004149E125F00041002288
:1028A000002324F00000994208BF904227D1394606
:1028B00048000C9A400D121880BB27F0004126F00A
:1028C0000000994208BF984205D00C9A3946FEF79D
:1028D0002DFE06460F4627F00043002026F000029A
:1028E000834208BF824205D078004015401C03D1C6
:1028F000390301D1AFF300803046394617E1680053
:102900004015401C1CD129031AD132463B462046B3
:10291000294604B0BDE8F04DFEF7CEBC002ACCDD60
:1029200040F2FF70824206DB824907F00043002636
:1029300043EA0107CFE76FF31E5141EA0257CAE7A6
:1029400000200AE07C4B9342BCBF4FF0004060EB9C
:10295000030399429246104602DA07F00041E6E08E
:1029600076498142BCBF4FF0004363EB01012B4627
:102970008342224605DA4FF0004BBAEB02026BEBC2
:102980000303994209DC01DB904206D2AFF30080D9
:10299000684907F000431943C9E06948694922467C
:1029A0002B46FEF789FC684B01F0004213430022DE
:1029B000FFF750F8FEF758FE8046FEF773FE82469A
:1029C0008B464FF07840614952465B46FEF774FCF7
:1029D00002460B4620462946FEF776FE04460D4683
:1029E0005B485C4952465B46FEF766FC02460B4676
:1029F00020462946FEF768FE0D4625F000410022DC
:102A0000554BFEF763FD044602D234463D4652E084
:102A100022462B462946FEF74FFC82468B464F48FE
:102A20004F4952465B46FEF747FC4E4A4E4BFFF776
:102A300011F852465B46FEF73FFCCDE902015246D3
:102A40004A484B495B46FEF737FC4A4A4A4BFFF778
:102A500001F852465B46FEF72FFC00223A4BDFF8A6
:102A60001CB1FEF7F7FF22462B46FEF725FC044675
:102A70000D46DDE9020122462B46FEF7EBFF002260
:102A80005B46FEF7E7FFCDE900012246DDE90201E2
:102A90002B46FEF719FE00225B46FEF7DBFF0246DF
:102AA0000B46DDE90001FEF781FE32463B46FEF7AC
:102AB00003FC04460D460C9800EB0802294648002A
:102AC000400D02EB000311D0002B0FDD40F2FF7030
:102AD000834206DB174905F00043002443EA010561
:102AE00012E06FF31E5141EA03550DE025F000415D
:102AF000002624F00000B14208BFB04204D02946AD
:102B0000FEF714FD04460D4625F00043002024F096
:102B10000002834208BF824205D068004015401C75
:102B200003D1290301D1AFF300802046294604B028
:102B3000BDE8F08D0000F07F00C89CC000C89C403C
:102B4000FE822B654715F73F0000E03F422EE63F2F
:102B5000F2E4D5BCE7E84B3E0000903C112E5781D3
:102B6000A03F503F5843128C8F71BC3F4BE8A541AA
:102B7000B752013F0BBDF3DAE8708C3F0000F03F25
:102B80002DE9F04F85B006000F0090469946DDF81C
:102B900038A0DDF83CB01FFA88F85FEA880000F042
:102BA00009FD0500002D0BD0602000F003FD04009E
:102BB000002C01D0256304E0280000F061FD00E056
:102BC0000024002C13D0002003900294CDF804B010
:102BD000CDF800A04B461FFA88F842463900300075
:102BE00000F00AF8200000F05EF8012001E05FF03C
:102BF000FF3005B0BDE8F08F2DE9F84F05000E005D
:102C000017009846DDF828900B9CDDF830A0DAF824
:102C1000300000EB8700001FC008C00000905FF08C
:102C2000000BBBF1190F0CD216F80B000AEB0B01CD
:102C300081F8340016F80B00002802D01BF1010BBC
:102C4000EFE700208AF84C00B9F10F0F01D30E20F6
:102C50008146CAF82C90CAF850900020CAF8540057
:102C60001AF1040000F05DFD1AF1180000F059FDA2
:102C7000CAF810A0D9F10F00CAF81800CAF824A0A9
:102C80000020CAF8580000208AF85C00424629005B
:102C9000009800F085FDCAF80000002C01D0C4F8AF
:102CA00000A0BDE8F18F10B5040000F0A7FDDFF82B
:102CB000B4050068401CDFF8AC150860DFF8EC05CF
:102CC000006800280AD1DFF8E4050460DFF8940505
:102CD0000068012811D100F099FA0EE0DFF8D00564
:102CE0000068002809D1E06ADFF8C0150968C96AE0
:102CF000884202D3DFF8B4050460DFF8B805006845
:102D0000401CDFF8B0150860DFF8EC050068E16AE8
:102D1000884203D2E06ADFF8E0150860211DDFF881
:102D2000E826E36A1420434302EB030000F0FCFCB6
:102D300000F071FDDFF87805006800280FD0DFF89B
:102D40006C050068C06AE16A884208D25FF0805072
:102D5000DFF898170860BFF34F8FBFF36F8F10BD78
:102D600038B505000024002D08D000F03BF8002104
:102D7000280000F0CFFB00F03DF80400002C08D143
:102D80005FF08050DFF86C170860BFF34F8FBFF320
:102D90006F8F31BD1CB5DFF86C07019000200090EB
:102DA00000238022DFF860170FF23D40FFF7E8FEB6
:102DB0000400012C15D1502080F31188BFF34F8FF0
:102DC000BFF36F8F5FF0FF30DFF84017086001201E
:102DD000DFF8DC1408600020DFF8A017086000F0BE
:102DE000F7FC13BDDFF898070068401CDFF8901768
:102DF0000860704770B50025002600F0FFFCDFF882
:102E0000FC060068401EDFF8F4160860DFF8EC06E8
:102E1000006800285DD1DFF84C040068002858D015
:102E2000DFF8DC06006800282BD0DFF8D406C06885
:102E3000C068050015F1180000F09DFC281D00F089
:102E40009AFCDFF8B4040068E96A884203D2E86AB1
:102E5000DFF8A4140860291DDFF8AC25EB6A142004
:102E6000434302EB030000F05FFCE86ADFF83C1428
:102E70000968C96A8842D3D30120DFF808170860BF
:102E8000CEE7002D01D000F020FADFF884060468B8
:102E9000002C0ED000F021F8002803D00120DFF82C
:102EA000E4160860641E002CF4D10020DFF86016E0
:102EB0000860DFF8D006006800280AD0012006006C
:102EC0005FF08050DFF82C160860BFF34F8FBFF320
:102ED0006F8F00F0A0FC300070BD2DE9F04100279D
:102EE000DFF818060068002872D1DFF820050468B2
:102EF000641CDFF818050460002C16D1DFF890067A
:102F0000D0F80080DFF88C060068DFF884160860CF
:102F1000DFF88006C0F80080DFF87C060068401CFF
:102F2000DFF87416086000F0D0F9DFF8E0050068FB
:102F3000844240D3DFF8580600680068002805D1B5
:102F40005FF0FF30DFF8C415086034E0DFF84006BA
:102F50000068C068C068050068680600B44203D213
:102F6000DFF8A805066026E0281D00F004FCA86A2A
:102F7000002803D015F1180000F0FDFBDFF87803FE
:102F80000068E96A884203D2E86ADFF86C130860D7
:102F9000291DDFF87424EB6A1420434302EB03007D
:102FA00000F0C2FBE86AC1490968C96A8842C1D316
:102FB00001200700BEE7BD480068DFF84C14C26A74
:102FC000142042438858022809D30120070006E054
:102FD000DFF83C050068401CDFF834150860DFF8B6
:102FE000A4050068002801D0012007003800BDE8D2
:102FF000F081DFF808050068002804D00120DFF820
:103000008415086028E00020DFF878150860DFF8F4
:103010008C050168DFF8F003142202FB01F28058EE
:10302000002801D1491EF5E7DFF8DC03142202FB7A
:1030300001F21044426852684260426810F108038D
:103040009A4202D14268526842604068C068974A1A
:103050001060DFF848050160704738B504000D00C6
:10306000DFF82805006810F11801200000F068FB67
:103070000121280000F04EFA31BD70B504000D00AA
:10308000160055F00040DFF8041509688861DFF884
:10309000FC04006810F11801200000F045FB01213C
:1030A000300000F037FA70BD38B50400E068C5683C
:1030B00015F1180000F05FFBDFF8400400680028FD
:1030C00014D1281D00F057FB8B480068E96A88423C
:1030D00002D2E86A88490860291DCB4AEB6A1420AD
:1030E000434302EB030000F01FFB05E015F118015C
:1030F000DFF80C0400F018FB6C480068C06AE96A4D
:10310000884205D201200121DFF87824116000E017
:10311000002032BD70B504000D0055F00040206065
:10312000E668200000F027FB301D00F024FB724809
:103130000068F16A884202D2F06A6F490860311D66
:10314000B14AF36A1420434302EB030000F0ECFAA7
:1031500056480068C06AF16A884203D20120DFF84D
:103160002414086070BDDFF8301409680160DFF8CE
:103170000C140968416070472DE9F04104000D000E
:1031800000F03CFBA14806686768F71B286810F14F
:10319000010F02D15FF000081BE0DFF8FC030068BC
:1031A0002168884205D06068864202D35FF001083A
:1031B0000FE02868874208D22868C01B28602000DA
:1031C000FFF7D1FF5FF0000803E0002028605FF008
:1031D000010800F020FB4046BDE8F0810120DFF847
:1031E000A41308607047000010B5040000F03CF81C
:1031F000854800680228F9D35FF08050DFF8F412A8
:103200000860BFF34F8FBFF36F8FEFE710B5002457
:103210000F2C08D27C48142101FB04F1084400F073
:1032200071FA641CF4E7DFF8780300F06BFADFF85A
:10323000740300F067FADFF8C80200F063FA574839
:1032400000F060FADFF8B00200F05CFADFF850033B
:10325000DFF83C130860DFF84C03DFF83813086030
:1032600010BD00007445002010B54D4800680028CE
:103270001AD000F0C3FA4948C068C0680400201D95
:1032800000F079FADFF800030068401EDFF8F8125A
:10329000086043480068401E4149086000F0BBFADE
:1032A000200000F009F8E0E710BD000064450020B0
:1032B000804500209045002010B50400206B00F0F0
:1032C000DFF9200000F0DCF910BDDFF8C40200686F
:1032D0000068002805D15FF0FF30DFF83022106071
:1032E00009E0DFF8AC020068C068C0680100486807
:1032F000DFF81822106070477C45002070B504008C
:1033000025000026002C46D0E86ADFF88012096804
:10331000C96A884236D2A869002806D4DFF86C0250
:103320000068C06AD0F10F00A8616969704AEB6A51
:103330001420434302EB030081421BD1281D00F0FF
:103340001AFADFF848020068C06AE862DFF84C0247
:103350000068E96A884203D2E86ADFF84012086030
:10336000291D634AEB6A1420434302EB030000F07B
:10337000DBF904E0DFF814020068C06AE8620120AB
:10338000060008E0286DDFF804120968C96A88425F
:1033900001D201200600300070BD0000EC44002086
:1033A0007045002070B5040025000026002C28D0B0
:1033B000686D401E6865E86A296D884221D0686D95
:1033C00000281ED1281D00F0D6F9286DE862E86AB1
:1033D000D0F10F00A861DFF8C4010068E96A8842F3
:1033E00003D2E86ADFF8B4110860291DDFF8B821BC
:1033F000EB6A1420434302EB030000F095F901202F
:103400000600300070BD0000583D002078450020C7
:103410002DE9F84304000F00A0465FF00109002CDD
:1034200043D0D8F85000B84201D23E0002E0D8F8AC
:1034300050000600D8F82C00B04236D0D8F854001E
:10344000484532D1D8F82C000500C8F82C60D8F8CF
:103450001800002803D4D6F10F00C8F81800D8F8D7
:103460001400DFF84411142202FB05F211448842D3
:103470001BD118F1040000F07EF9DFF8200100688C
:10348000D8F82C10884204D2D8F82C00DFF80C11A0
:10349000086018F10401DFF81021D8F82C3014204E
:1034A000434302EB030000F03FF9BDE8F183DFF88E
:1034B000DC0000688069DFF8D4100968DFF8CC20F0
:1034C0001268D26AD2F10F028A617047DFF8BC003D
:1034D0000068002805D0DFF8B4000068416D491C81
:1034E0004165DFF8A80000687047000004ED00E0C7
:1034F000583D002004ED00E0004500209C450020E0
:10350000D8440020984500200493000894450020EA
:1035100084450020F8B505000C00184807681B48D2
:103520000068001D00F027F915F1010F08D1002CEB
:1035300006D016480068011D1C4800F0F5F81BE095
:10354000E8190600114800684660BE4207D20F48DD
:103550000068011D0F48006800F0F2F80CE00B480D
:103560000068011D0A48006800F0EAF81048006889
:10357000864201D20E480660F1BD00007845002069
:103580009C450020884500207445002064450020AB
:10359000684500206C4500208C4500207C450020BB
:1035A000B0440020C4440020583D002000450020C5
:1035B000944500202DE9F04104000027FFF712FC9C
:1035C0004A480068002804D100F07AF801204749F1
:1035D0000860002C0AD046480088041914F0070F30
:1035E00004D014F1080014F00704041B002C42D08E
:1035F00043F6F83084423ED23E4805003D4800681C
:103600008046D8F80400A04207D2D8F8000000286D
:1036100003D04546D8F80080F3E7374880452AD0E4
:1036200028683349098808440700D8F80000286052
:103630002F4800884000D8F80410091B884213D294
:1036400008EB04000600D8F80400001B7060C8F8FE
:10365000044071682748026852688A4201D20068B3
:10366000F9E702683260066024480168D8F804006F
:10367000091A22480160FFF7BDFB3800BDE8F08160
:10368000F8B504002600002C19D0194800884042E3
:1036900006443500FFF7A6FB6F68164801684968C5
:1036A000B94201D20068F9E7016829600560134852
:1036B00001686868411811480160FFF79BFBF1BD84
:1036C0000F48C008C0000B4908600021094A51603A
:1036D00043F6F831084A51600021074A116043F669
:1036E000F831416004490160704700004045002006
:1036F0003E100008144500201C450020100000204A
:103700003000002010F1080141605FF0FF3181605E
:1037100010F10801C16010F1080101610021016090
:10372000704700210161704742684A6093688B606E
:10373000936859609160086103685B1C036070477F
:1037400010B40B6813F1010F01D1026907E010F109
:10375000080254682468A34201D35268F9E7546808
:103760004C604C68A1608A60516008610468641C08
:10377000046010BC7047010008698A684B689A6051
:103780004A688B685A6042688A4201D18A684260FE
:1037900000220A610268521E026000687047000041
:1037A000001F5FF080730360001F4B085B00036025
:1037B000001F0FF20D0303601438026020387047B9
:1037C000502080F31188BFF34F8FBFF36F8FFEE758
:1037D00080B52248006850F47000204908601F48F6
:1037E000006850F070401D49086000F03DF800206E
:1037F0001B49086000F081F8002002BD502080F3D2
:103800001188BFF34F8FBFF36F8F15480068401CBE
:1038100013490860704712480068401E104908604C
:103820000F480068002802D1002080F311887047FB
:1038300080B5502080F31188BFF34F8FBFF36F8F97
:10384000FFF74BFB002803D05FF08050054908606C
:10385000002080F3118801BD0000000020ED00E091
:103860001400002004ED00E000200649086000205C
:1038700005490860054806490860072001490860B5
:10388000704700BF10E000E018E000E03F190100C1
:1038900014E000E0EFF30980BFF36F8F1D4B1A684F
:1038A00020E9F00F106008B54FF0500080F3118848
:1038B000BFF34F8FBFF36F8FFFF79BFB4FF00000FD
:1038C00080F31188BDE8084019680868B0E8F00F77
:1038D00080F30988BFF36F8F70470E4B1968086833
:1038E000B0E8F00F80F30988BFF36F8F4FF000004E
:1038F00080F311884EF00D0E70470748006800688D
:1039000080F3088862B661B6BFF34F8FBFF36F8F45
:1039100000DF00006445002008ED00E00220DFF831
:10392000741908700120DFF86C1908740420DFF89E
:10393000681908700320DFF86019087443F69910BD
:10394000DFF85819C86040F26660DFF850198860E7
:1039500040F2A970DFF8441948607FF4F560DFF8A1
:103960003C19086043F69910DFF83419C86040F23A
:103970006660DFF82C19886040F65270DFF8201975
:103980004860DFF82009DFF81819086070472DE952
:10399000F04786B000255FF0000A00245FF00009C0
:1039A000DFF80409D0F86880DFF8E81884B06846CA
:1039B0002022FDF7C5FB0FBC00F0E2FC5120049073
:1039C000DFF8D01884B068462022FDF7B9FB0FBCA1
:1039D00000F0C5FD002800F09A81DFF8B81884B027
:1039E00068462022FDF7ACFB0FBC00F0EEFD8DF821
:1039F0001400DFF8A01884B068462022FDF7A0FB71
:103A00000FBC00F0E2FD8DF81500DFF8881884B0D7
:103A100068462022FDF794FB0FBC00F0D6FD8DF820
:103A20001600DFF8701884B068462022FDF788FB86
:103A30000FBC00F00AFE8DF81700DFF8581884B0AC
:103A400068462022FDF77CFB0FBC00F0CEFC9DF801
:103A50001400C0B28009DFF8441808769DF81410ED
:103A60004FF480729DF8150002FB01018904890C56
:103A7000DFF8280801619DF816009DF81710C9B2FB
:103A80004909C9B211EBC001DFF810084161DFF844
:103A90000C080069DFF804188968884207DBDFF842
:103AA000FC07C068DFF8F4170969884200DA2EE1E4
:103AB000DFF8E8074068DFF8E4170968401A00F00B
:103AC00001FE0700DFF8D407C068DFF8D017896867
:103AD000401A00F0F7FD0100380000F005FE8246B4
:103AE000DFF8C80701680022DFF8B007006902FBB1
:103AF0000101DFF8BC070160DFF8B4070068DFF8F8
:103B0000AC170860DFF8AC070078804503DADFF80F
:103B1000A40780F80080DFF89C070078804519DB57
:103B2000DFF890070078404503D10020DFF88417C4
:103B30000870DFF884070078404507DADFF8780777
:103B40000078401CDFF87017087003E0DFF86807A2
:103B500080F80080DFF858070068DFF86017DFF8AA
:103B60005427127841F82200DFF848070078401CFB
:103B7000DFF84017087000273800DFF83C17097895
:103B8000C0B2884207D2DFF83407FFB250F82700EE
:103B900004197F1CF0E7DFF82007007894FBF0F0B1
:103BA0008146DFF8F8068068B9EB000000F08AFD76
:103BB0000100504600F016FE0600DFF8E00600683F
:103BC00000F080FD0100300000F078FEDFF8CC1638
:103BD000C861DFF8C8064069FDF764FD0022DFF820
:103BE000E036FDF7E3FD00F0DBFEDFF8D81600F06D
:103BF000F9FDDFF8D41600F061FEDFF8A016886248
:103C0000DFF8C8060078804503DADFF8C00680F8E0
:103C10000080DFF8B8060078804519DBDFF8AC06D5
:103C20000078404503D10020DFF8A0160870DFF8C7
:103C3000A0060078404507DADFF894060078401CBB
:103C4000DFF88C16087003E0DFF8840680F8008047
:103C5000DFF84806C069DFF87C16DFF870261278B6
:103C600041F82200DFF864060078401CDFF85C169B
:103C7000087000263000DFF858160978C0B2884274
:103C80000AD2DFF85006F6B250F82610280000F0ED
:103C900015FE0500761CEDE7DFF80C06006DDFF879
:103CA000FC15C862DFF80006806DDFF8F0150863C8
:103CB000DFF81C06007800F0A7FE0100280000F0E5
:103CC00013FDDFF8D8150862DFF8D005006ADFF8C9
:103CD000CC15C96A00F0F2FDDFF8C0154862DFF8C4
:103CE000BC05006BDFF8F01500F09CFE0AD8DFF889
:103CF000AC05406ADFF8A415096B00F073FDDFF82E
:103D00009C1548620321DFF8D40500F0C2FE06B01E
:103D1000BDE8F0872DE9F04786B000255FF0000A86
:103D200000245FF00009DFF88005D0F86880DFF834
:103D3000681584B068462022FDF702FA0FBC00F037
:103D40001FFB51200490DFF8501584B068462022F4
:103D5000FDF7F6F90FBC00F002FC002800F08981A5
:103D6000DFF8341584B068462022FDF7E9F90FBC6E
:103D700000F02BFC8DF81400DFF81C1584B06846A9
:103D80002022FDF7DDF90FBC00F01FFC8DF81500B7
:103D9000DFF8041584B068462022FDF7D1F90FBC86
:103DA00000F013FC8DF81600DFF8EC1484B06846C0
:103DB0002022FDF7C5F90FBC00F047FC8DF8170075
:103DC000DFF8D41484B068462022FDF7B9F90FBC9F
:103DD00000F00BFB9DF81400C0B28009DFF8C0149E
:103DE00008769DF814104FF480729DF8150002FBC0
:103DF00001018904890CDFF8A80401619DF816000F
:103E00009DF81710C9B24909C9B211EBC001DFF81A
:103E100090044161DFF888040069DFF88414896840
:103E2000884207DBDFF87804C068DFF8741409699A
:103E3000884200DA1DE1DFF868044068DFF86014AA
:103E40000968401A00F03EFC0700DFF85404C0681F
:103E5000DFF84C148968401A00F034FC0100380087
:103E600000F042FC8246DFF8780401680022DFF8A7
:103E70003004006902FB0101DFF868040160DFF82B
:103E800064040068DFF858140860DFF85C04007808
:103E9000804503DADFF8500480F80080DFF848043A
:103EA0000078804519DBDFF840040078404503D1F5
:103EB0000020DFF834140870DFF830040078404543
:103EC00007DADFF828040078401CDFF820140870B7
:103ED00003E0DFF8180480F80080DFF808040068C9
:103EE000DFF80C14DFF80024127841F82200DFF824
:103EF000F8030078401CDFF8F01308700027380042
:103F0000DFF8E8130978C0B2884207D2DFF8E0038F
:103F1000FFB250F8270004197F1CF0E7DFF8CC034C
:103F2000007894FBF0F08146DFF874038068B9EB09
:103F3000000000F0C7FB0100504600F053FC0600F3
:103F4000DFF85C03006800F0BDFB0100300000F00A
:103F5000B5FCDFF84C13C861DFF84403406900F09A
:103F6000B1FB00F0E5FD0022DFF85433FDF71EFC45
:103F70000022DFF88033FDF79FF90022DFF8783365
:103F8000FDF768FD00F00CFDDFF814138862DFF820
:103F90006C030078804503DADFF8600380F8008066
:103FA000DFF858030078804519DBDFF8500300780C
:103FB000404503D10020DFF844130870DFF84003C8
:103FC0000078404507DADFF838030078401CDFF856
:103FD0003013087003E0DFF8280380F80080B04851
:103FE000C069DFF82013C54A127841F82200C3489F
:103FF0000078401CC149087000263000C04909788B
:10400000C0B2884209D2BF48F6B250F82610280044
:1040100000F054FC0500761CEFE7A348406DA04972
:10402000C862A148C06D9E490863B548007800F099
:10403000EBFC0100280000F057FB99490862984802
:10404000006A9749C96A00F039FC9549486294486A
:10405000006BA14900F0E6FC07D89148406A9049FE
:10406000096B00F0BFFB8E4948620321A64800F0AF
:1040700010FD06B0BDE8F0872DE9F84300260024C6
:1040800000258948B0F84000012840F09780834817
:10409000006A9E499E4A127841F822008048006AD0
:1040A0009C499B4A127841F8220099480078401CAC
:1040B00097490870964800780528C0F27F80002054
:1040C0000600F6B2052E11DA9048F6B250F8260036
:1040D000210000F0F3FB04008E48F6B250F82600F1
:1040E000290000F0EBFB0500761CEAE720008A4976
:1040F00000F0FAFA6C4908652800874900F0F4FAE4
:10410000694948656848076D0022844B002084494E
:10411000FEF742F980468946380000F009FD424624
:104120004B46FDF7C9F8FDF79FFA00F0CBFA00F017
:10413000FFFC804689460022784B00207849FEF734
:104140002BF902000B0040464946FDF72FFB00F01B
:1041500027FC554908655448476D00226F4B0020E5
:104160006F49FEF719F980468946380000F0E0FCF7
:1041700042464B46FDF7A0F8FDF776FA00F0A2FAAA
:1041800000F0D6FC804689460022644B002064493A
:10419000FEF702F902000B0040464946FDF706FB18
:1041A00000F0FEFB4049486500203F49A1F840006F
:1041B000002000F054FD002055490870BDE8F1834F
:1041C00080B53648406A002100F02CFC10D83348F6
:1041D000406A3549C8603248406A3349886030488F
:1041E000416A2E48406A00F069FB2F49486011E09F
:1041F0002A48406A90F000402B49C8602848416A2C
:104200002648406A00F05AFB274988602448406AE3
:10421000254948602148006A2F4900F003FC05D970
:104220001E48006A3F4900F063FD02D2012000F001
:1042300071FD1B48006A284900F0F4FB05D91848B5
:10424000006A384900F054FD02D2022000F062FDFD
:1042500001BD80B5FFF79BFBFFF75CFDFFF7B0FFEB
:10426000FFF70AFF00F02AFD01BD38B504004FF446
:104270007A75FFF753FB0C480068012805D1FFF75A
:10428000E8FF2949002000F0DFFB2800FEF768FD69
:10429000F1E70000D8430020F8430020E842002066
:1042A0001C430020AEF0FFFF7C420020244500208C
:1042B00028450020A9450020A84500204C3F0020AB
:1042C0000000A04000004843000048C2A74500206D
:1042D000A6450020843E002018B7D1380C430020AA
:1042E0002C45002030450020AD450020AC45002085
:1042F000DC40002000006940000049C0AB450020C0
:10430000AA450020144000204043002074440020AF
:10431000AE450020884400200000A0C000000840F6
:104320000000244017B7D1B8D89100080FB480B569
:1043300011219DF8080000F0E1FD01BC5DF814FBBF
:104340000FB480B520219DF8180000F0D7FD01BC06
:104350005DF814FB0FB480B511219DF8180000F032
:10436000CDFD01BC5DF814FB0021814207D2002382
:104370001A000F2A01D2521CFBE7491CF5E77047CF
:104380000FB400B585B006A984B068462022FCF7BA
:10439000D7FE0FBCFFF7CAFF06A984B068462022EB
:1043A000FCF7CEFE0FBCFFF7D5FF01219DF81800EA
:1043B00000F0F8FD01219DF8280000F0F3FD012038
:1043C000FFF7D2FF00219DF8280000F0EBFD01204F
:1043D000FFF7CAFF00219DF8180000F0E3FD01205F
:1043E000FFF7C2FF05B05DF814FB0FB400B585B050
:1043F00006A984B068462022FCF7A2FE0FBCFFF796
:10440000A9FF00219DF8180000F0CCFD00219DF8C7
:10441000280000F0C7FD0120FFF7A6FF01219DF84D
:10442000180000F0BFFD0120FFF79EFF01219DF85D
:10443000280000F0B7FD0120FFF796FF05B05DF8FA
:1044400014FB0FB41FB500240120FFF78DFF0121DD
:104450009DF8280000F0A6FD06A984B06846202239
:10446000FCF76EFE0FBCFFF76BFF9DF8280000F015
:10447000B4FD00280FD0641C40F2E9308442F4D32C
:1044800006A984B068462022FCF75AFE0FBCFFF74D
:10449000ACFF00200DE001219DF8180000F082FD26
:1044A0000120FFF761FF00219DF8180000F07AFD60
:1044B000012004B010BC5DF814FB0FB400B585B04A
:1044C00000219DF8180000F06DFD06A984B0684633
:1044D0002022FCF735FE0FBCFFF73CFF00219DF8C2
:1044E000280000F05FFD0120FFF73EFF01219DF84D
:1044F000180000F057FD0120FFF736FF00219DF85E
:10450000180000F04FFD05B05DF814FB0FB400B5C6
:1045100085B000219DF8180000F044FD06A984B084
:1045200068462022FCF70CFE0FBCFFF713FF0121A9
:104530009DF8280000F036FD0120FFF715FF01214E
:104540009DF8180000F02EFD0120FFF70DFF00215F
:104550009DF8180000F026FD05B05DF814FB0FB4BF
:1045600030B585B0109C00200025EDB2082D1FDA73
:10457000200605D501219DF8300000F013FD04E070
:1045800000219DF8300000F00DFD0120FFF7ECFE4A
:1045900001219DF8200000F005FD0120FFF7E4FE59
:1045A00000219DF8200000F0FDFC64006D1CDCE79C
:1045B00008A984B068462022FCF7C2FD0FBCFFF7B3
:1045C00040FF05B030BC5DF814FB0FB430B585B0CA
:1045D000002508A984B068462022FCF7B1FD0FBC75
:1045E000FFF7AEFE0120FFF7BFFE0024E4B2082C67
:1045F00019DA00219DF8200000F0D4FC0120FFF71B
:10460000B3FE01219DF8200000F0CCFC0120FFF753
:10461000ABFE6D009DF8300000F0DFFC002800D0FC
:104620006D1C641CE2E708A984B068462022FCF7F0
:1046300087FD0FBCFFF741FF0120FFF795FE280023
:10464000C0B205B030BC5DF814FB0FB430B585B016
:10465000002508A984B068462022FCF771FD0FBC34
:10466000FFF76EFE0024E4B2082C19DA00219DF851
:10467000200000F097FC0120FFF776FE01219DF855
:10468000200000F08FFC0120FFF76EFE6D009DF80A
:10469000300000F0A2FC002800D06D1C641CE2E792
:1046A00008A984B068462022FCF74AFD0FBCFFF73A
:1046B0002DFF0120FFF758FE2800C0B205B030BC26
:1046C0005DF814FBC2175040801AB0FA80F10AD08E
:1046D0008840D1F19D01D20742EAC151020672F130
:1046E000004241EB1020704710B5FF2313EAD0546D
:1046F0001DBF13EAD1529C429A4239E0A41ADA074C
:1047000080EA0103134042EA012142EA0020421AF2
:104710003CBF641E01EB4202090AB2FBF1FE01FB41
:104720001E221202B2FBF1F001FB10226EF30F20E9
:104730001202B2FBF1FE4EEA00207F3406DDFE2CB1
:1047400024DA53EA500050EBC45010BDD4F10204F7
:1047500001FB1E2240F08071192C1DDC21FA04F0AF
:10476000C4F12004A140114371F10042584110BD31
:104770009C421ABF03EAD1529A420FE080EA010E2E
:104780000EF00043400004D0490016D143F0FF4032
:1047900010BD490008BFD343180010BD9C4205D18D
:1047A000D21AF7D001F00041484010BD4A0212BFB2
:1047B0000846484000F0004010BD4AB90902B1FA6D
:1047C00081F2914044B1A418C00140F000409EE73E
:1047D000C90141F0004152420002B0FA80F4A04009
:1047E000141B94E7FF2212EAD05C1DBF12EAD153DA
:1047F000944593422BE09C44D30780EA01021A407F
:1048000043EA002043EA0121A1FB0030C04238BF47
:1048100040007CF17F010BDBFE294ADA5B0842EAAB
:10482000C15153EA006373F1004C51EB1020704703
:10483000D1F1080CDCF120012FDB5B0810FA01F14B
:104840000B4320FA0CF073F100415041704794453E
:104850001CBF02EAD153934280EA010202F00042F7
:104860001DD0400019D0490017D05BB9634514D062
:104870000902B1FA81F39940BCEB030CC00140F08E
:104880000040C1E70002B0FA80FC10FA0CF0B3EB74
:104890000C0CC90141F00041B6E710007047400020
:1048A0000AD0490008D010F1807F94BF11F1807FB9
:1048B00002E042F0FF407047D043704790EA010F9A
:1048C00040F1EA8381F00041431A4FF000423EBFBD
:1048D0005340C01AC91800BFD3095FEAD05C13EB7C
:1048E000400F34BFB3EB410F40E07CEBD1530CD30E
:1048F00042EA012122D8D1EB402009D3400A28BF47
:104900005FEA500140EBCC507047401A15D040028E
:10491000B0FA80F2521C9040400A4FEA3C23B3EBBD
:10492000026384BF00EB730007E040F400001A1636
:10493000DB07C2F10102D04018437047182BFCDCA2
:1049400031FA03F202FA03F3591A38BF42F00102B6
:10495000D2EB40203CBF4000ACF1010C5FEACC5CE4
:10496000C20572F100414CEB5020704713EB400F31
:104970000FD2C94209D0ACEBD153022B03DB490261
:10498000172BDDDD70479143401AC042D5D100207E
:10499000704713EB410FD0D36FF000007047000059
:1049A00001F000428B1AA3F16051B1F5801F0ADBC0
:1049B000B1F17F6F1FD242EAC102C10071F1004123
:1049C00042EB507070470B15C3F10903212B10D235
:1049D000890241EA905180020128494141F0004199
:1049E00021FA03F0C3F12003994071F100415041D5
:1049F0007047100070476FF0000013EB103F5CBF72
:104A0000000E42EAC050704700280AD0B0FA80F188
:104A10008840D1F19D01C905020672F1004241EBC7
:104A2000102070474FF0807C1CEB400F94BF1CEBB4
:104A3000410F05E040EA010C1CEB0C0F01D2814252
:104A4000704718BF884270470CB470B5A6B0040018
:104A50000D00E4B2002C18D02AA8060033002A006A
:104A60009721684600F052FB5FF0FF31264800684E
:104A700000F0CDFC694623A000F01EFE00230022BA
:104A800000212148006800F0FCFB26B070BC5DF8F6
:104A90000CFB2DE9F047814688465FF0000A5FFA7B
:104AA00088F84046FCF7BAFF02000B0000201749C7
:104AB000FDF772FC06000F005FFA88F84046FCF72D
:104AC000ADFF02000B0000201049FDF765FC04005B
:104AD0000D00D9F8000000F02BF832003B00FCF785
:104AE000EBFBFCF7C1FDFFF7EDFD00F021F8220024
:104AF0002B00FCF75BFEFFF753FFC9F80000BDE891
:104B0000F08700002573000050450020000024407D
:104B1000010000220B78487850EA032080B27047E9
:104B2000010000224B78087850EA032080B27047D9
:104B3000C0F3C75181B1FF2906D0C110400721F051
:104B4000E04101F16051704741020CBF40F4E001C7
:104B50006FF000410020704700F0004100020AD0D1
:104B6000B0FA80FC00FA0CF001F16051A1EB0C519D
:104B700001EBD0214005704770B504000D00160010
:104B800000215248006800F042FC01280BD132009D
:104B90002900200000F0C3FD0023002200214B4823
:104BA000006800F06EFB70BD80B50D224849494891
:104BB00000F034FE474800684749884234D04648F0
:104BC0004449086001204349888064204149C880E5
:104BD00004204049488100203E4908813F483D4922
:104BE00048613F483B49C8605FF07E5039490861E1
:104BF00000203849886100203649C8615FF07E5046
:104C0000344908625FF07E503249486200203149E1
:104C1000886200202F49C86219202E4908630D229E
:104C20002C492B48FFF7A8FF2A48C088642807D0E2
:104C300064202849C8800D2226492548FFF79CFF9B
:104C4000284829493022FCF76BFA00202749A1F8AF
:104C50004000244A18211E2001F057F901BD10B56B
:104C60008CB00400E4B2012C05D11E4A18211E208C
:104C700001F02BF904E01B4A18211E2001F045F930
:104C8000154814490860684616493022FCF748FA6E
:104C9000154869463022FCF743FA0D220D490C48AD
:104CA000FFF76AFF0CB010BD80B50E4A18211E2018
:104CB00001F00BF901BD0D48808F704780B50B4A9C
:104CC0001E21002001F021F901BD00004C4500200B
:104CD00000800108504300208B3B34011F85AB3F0F
:104CE000E17A543FB8420020544300207C42002027
:104CF0004FF0807C1CEB400F94BF1CEB410F05E094
:104D000040EA010C1CEB0C0F01D28842704718BF1F
:104D10008142704710B50400E4B221004E4800689B
:104D200001F09AF910BD2DE9FC474C48D0F844A099
:104D30004A48D0F848904948C06801904748D0F8A0
:104D40004C800026002701984549FFF76BFE18D8D4
:104D50005046FFF7EDFE434A434BFCF7ADFA040023
:104D60000D0001984146FFF7BFFCFFF7E1FE01F09F
:104D7000DBF922002B00FCF79FFAFFF711FE04007D
:104D800000E000243948007806280FDA3748007818
:104D9000052802D1002035490870354800780528DB
:104DA00004DA33480078401C3149087031482F49F3
:104DB000097840F821402D480078401C2B490870A4
:104DC000002528002A490978C0B2884209D229481A
:104DD000EDB250F825003100FFF770FD06006D1CA4
:104DE000EFE723480078FFF70FFE01003000FFF7E0
:104DF0007BFC009000984946FFF7F4FC00900321EB
:104E000001A8FFF746FE03216846FFF742FE01981E
:104E10001249C860009811490861FFF74FFFBDE8CB
:104E2000F38770B582B004004FF4FA651249002090
:104E3000FFF70AFE009501230122072106480068BA
:104E400001F096F8060016F007000728EED1FFF7EC
:104E50006AFFEBE700000000544500207C42002080
:104E600018B7D13839B4C876BE9FF63FB345002095
:104E7000B24500209C4400202892000881B01D49C2
:104E8000096801431B4A11601A49096801400091F1
:104E9000009901B07047806810EA112080B2C1F318
:104EA0000F21884201D1012000E00020C0B27047EC
:104EB000C1F30F2202617047C1F30F2242617047B4
:104EC00030B40100002000220023DBB20E2B0FD2F1
:104ED0000A00094CDBB21D01645DD2B2A24205D1C9
:104EE000054ADBB21C012244100001E05B1CECE728
:104EF00030BC704718100240308E0008F0B585B005
:104F000005000E0000272800C0B2FFF7D9FF0400FB
:104F1000002C45D06068FFF7B1FFF6B2102E06D125
:104F200001200190032002900020039032E0F6B2AD
:104F3000112E08D10120019003200290042003903B
:104F40000120049026E0F6B2122E08D10120019033
:104F50000320029004200390002004901AE0F6B28F
:104F6000202E04D1082001900120049012E0F6B216
:104F7000212E04D108200190002004900AE0F6B20E
:104F8000222E02D10420019004E0F6B2232E01D19A
:104F900000200190E06800906946A06801F099F94E
:104FA00005B0F0BDF8B506000D0000273000C0B216
:104FB000FFF786FF0400002C0ED0EDB2002D04D1C7
:104FC000E168A068FFF778FF06E0EDB2012D03D19C
:104FD000E168A068FFF76CFFF1BD70B50500002621
:104FE0002800C0B2FFF76CFF0400002C01D10220A2
:104FF00008E0E168A068FFF74EFF002801D001201B
:1050000000E0002070BD80B523210020FFF776FF6F
:1050100010210C20FFF772FF20210820FFF76EFF00
:1050200011210720FFF76AFF11210520FFF766FF16
:1050300011210620FFF762FF11210120FFF75EFF1B
:1050400011210220FFF75AFF11210320FFF756FF1D
:1050500011210420FFF752FF10210920FFF74EFF16
:1050600010210A20FFF74AFF10210B20FFF746FF0F
:1050700022210D20FFF742FF00210920FFF792FFB8
:1050800000210A20FFF78EFF01BD000090EA010F0A
:105090007FF51AAC81F00041421A3CBF801A891892
:1050A0004FF0004CC0F3C752FF2A24D0C1F3C753BE
:1050B00013B3D21AD2F1190327DD4CEA01214CFABD
:1050C00003F321EA0303D140C20D4CEA002040184B
:1050D00034BF20EA0C004CEA5000D20553EA0063CA
:1050E00073EB0C0C52EB1020420012F1807F38BFA2
:1050F0007047C00DC0057047490212BF9A4200EBCD
:105100005120F8E7D2F11703D9D5704708B584B01C
:105110000023039300290EBF01930190491E0291C1
:10512000009301A904AB074878441830FAF7DEFF72
:10513000019909B100220A70002858BF039805B0F0
:1051400000BD00BFCBBEFFFF70B505000C002E00F8
:10515000FEF754FB3168F26B306C424301EB020006
:1051600070600020B0633068B0603168F26B521E2E
:10517000306C424301EB0200F0605FF0FF3086F8D4
:1051800044005FF0FF3086F84500002C12D13069F2
:10519000002817D016F11000FDF786FF002811D067
:1051A0005FF08050DFF80C150860BFF34F8FBFF33E
:1051B0006F8F07E016F11000FEF7A4FA16F1240035
:1051C000FEF7A0FAFEF727FB012070BD2DE9F8439A
:1051D00006000D001700002D02D15FF0000801E06D
:1051E00005FB06F818F14800FEF7E4F90400002C6E
:1051F0000AD014F14800814600943B00DBB24A46D5
:105200002900300000F003F82000BDE8F2832DE90A
:10521000F04105000C0016001F00DDF81880002C7E
:1052200002D1C8F8008001E0C8F80060C8F83C501E
:10523000C8F8404001214046FFF786FFBDE8F081F5
:1052400010B50400002C0BD000206060002020600E
:105250000020E060002300220021200000F011F86F
:1052600010BDF8B50400012600272200D2B2390093
:105270003000FFF7ABFF05002800FFF7E1FF280033
:10528000F2BD2DE9F74306000F0098460024B14611
:10529000FEF7B4FAD9F83800D9F83C10884202D3A6
:1052A000B8F1020F28D142463900484600F061F9B2
:1052B0000500D9F8240000280FD019F12400FDF7CB
:1052C000F3FE002814D05FF08050DFF8E813086088
:1052D000BFF34F8FBFF36F8F0AE0002D08D05FF050
:1052E0008050DFF8D0130860BFF34F8FBFF36F8F8C
:1052F000FEF791FA012052E00298002803D1FEF750
:105300008AFA00204BE0002C04D16846FDF72BFF01
:1053100001200400FEF77FFAFDF764FDFEF76EFA48
:1053200099F9440010F1010F02D1002089F84400DE
:1053300099F9450010F1010F02D1002089F84500CC
:10534000FEF769FA02A96846FDF716FF002820D18A
:10535000484600F09FF9002815D0029919F1100075
:10536000FDF77BFE484600F050F9FDF743FD0028AD
:105370008ED15FF08050DFF83C130860BFF34F8F91
:10538000BFF36F8F84E7484600F03FF9FDF732FD29
:105390007EE7484600F039F9FDF72CFD0020BDE816
:1053A000FE832DE9F84305000C002E00EFF3118772
:1053B000502080F31188BFF34F8FBFF36F8FD6F863
:1053C0003880F06B80451DD296F9459018F10100A8
:1053D000B0634FFA89F919F1010F0DD1706A0028F5
:1053E0000ED016F12400FDF75FFE002808D0002C37
:1053F00006D00120206003E019F1010086F8450085
:10540000012000E0002087F31188BDE8F2832DE938
:10541000F24183B007000024B8460026FEF7EEF9FB
:10542000D8F83850002D21D0681EC8F83800D8F8B8
:105430000000002803D1FEF749F8C8F80400D8F8A6
:10544000100000280ED018F11000FDF72DFE0028E6
:1054500008D05FF08050DFF85C120860BFF34F8F18
:10546000BFF36F8FFEF7D7F9012074E0039800288F
:1054700003D1FEF7D0F900206DE0002C04D168467E
:10548000FDF771FE01200400FEF7C5F9FDF7AAFC47
:10549000FEF7B4F998F9440010F1010F02D1002091
:1054A00088F8440098F9450010F1010F02D100205E
:1054B00088F84500FEF7AFF903A96846FDF75CFEE2
:1054C00000282DD1404600F0D7F8002822D0D8F887
:1054D0000000002808D1FEF791F9D8F80400FDF784
:1054E0000DFF0600FEF797F9039918F12400FDF768
:1054F000B4FD404600F089F8FDF77CFC00288DD112
:105500005FF08050DFF8AC110860BFF34F8FBFF33E
:105510006F8F83E7404600F078F8FDF76BFC7DE77E
:10552000404600F072F8FDF765FC404600F0A4F834
:1055300000283FF473AF002E0CD0FEF75FF9404611
:1055400000F00CF805002900D8F80400FDF760FF12
:10555000FEF761F9002004B0BDE8F0810100486A5F
:10556000002804D0086B0068D0F10F0000E0002094
:1055700070472DE9F04707000E0014005FF00008A7
:10558000BD6B386C002809D13868002838D178689C
:10559000FDF708FF80460020786031E0002C13D131
:1055A000D7F84090D7F808A04A4631005046FBF79C
:1055B000B7FDB868396C0844B860B8687968884243
:1055C0001ED33868B8601BE0D7F84090D7F80CA01D
:1055D0004A4631005046FBF7A3FDF868396C494252
:1055E0000844F860F8683968884204D27868396CF1
:1055F00049420844F860022C02D1002D00D06D1EF3
:10560000681CB8634046BDE8F08770B50400FEF73B
:10561000F5F894F945506DB2012D0CDB606A002855
:1056200009D014F12400FDF73FFD002801D0FDF75B
:10563000D5FD6D1EEFE75FF0FF3084F84500FEF703
:10564000EAF8FEF7DBF894F9446076B2012E0CDB41
:105650002069002809D014F11000FDF725FD00286D
:1056600001D0FDF7BBFD761EEFE75FF0FF3084F859
:105670004400FEF7D0F870BD38B50400FEF7BEF860
:10568000A06B002801D1012500E00025FEF7C3F83A
:10569000280032BD38B50400FEF7B0F8A06BE16B0E
:1056A000884201D1012500E00025FEF7B4F828006A
:1056B00032BD000004ED00E00EB4C0B5024603A800
:1056C00000210190009101AB0121044878440C3085
:1056D000FAF70CFD06BC5DF810FB00BFBF3A0000F6
:1056E0000068704710B586B004000020009048485C
:1056F000006840084000464908600020019003947B
:1057000001200490694601A800F02AFE0100C9B2F8
:10571000002901D0012000E0002006B010BD2DE9D5
:10572000F44F82B082460D0001208DF80000012662
:1057300000275FF000080024D146029819EB800B87
:1057400000F0F8FEB9F1006F02D33248814502D370
:105750000020060055E035202F49086000208DF814
:105760000000D94517D24846FFF7BAFF10F1010FE4
:105770000BD04846FFF7B6FF8DF800009DF80000FB
:10578000002804D119F1040901E019F104090220EB
:1057900000F0F6FEE5E7022000F0F2FED146D94522
:1057A00017D29DF80000002813D155F827200023B8
:1057B0004946022000F05EFE8DF800007F1C9DF837
:1057C0000000002802D119F10409E8E700200600D2
:1057D00017E0D146D94514D2E4B2002C11D1484685
:1057E000FFF77EFF414611F1010855F8211088426C
:1057F00004D0012004000020060002E019F1040991
:10580000E8E700F0AAFE3000C0B2BDE8FE8F00005D
:105810001C200240000002080C2002402DE9F84341
:1058200004000D0016000027A84618EB8609C8459D
:105830000AD2B74208D24046FFF752FF44F8270089
:105840007F1C18F10408F2E7BDE8F18370B403008F
:105850004FF6FF70002422000E0092B2B6B2B242A0
:1058600016D2A4B21A5D504000221500ADB2082D28
:105870000CDAC20706D580B202004AF2010090EAB3
:10588000520001E080B240086D1CEFE7641CE2E7C3
:1058900080B270BC70472DE9F84304000D0000266B
:1058A000FFF709FA070094F8640064284BDA94F8CB
:1058B0006400411C84F86410C0B2255494F864005C
:1058C000012817D12078390080B289B2884211D0DE
:1058D0002078FF280ED04FF498785FF000094A46F0
:1058E0004146200000F0C0FE012084F86500300031
:1058F000C0B257E094F86400022820D160780128F3
:105900001DD0607803281AD06078042817D06078FA
:10591000052814D06078062811D0607810280ED0A1
:105920004FF498785FF000094A464146200000F0A5
:105930009BFE012084F865003000C0B232E0607840
:1059400001280FD11AE04FF498785FF000094A4619
:105950004146200000F088FE012084F865003000F8
:10596000C0B21FE06078032808D06078042805D012
:105970006078052802D06078062806D194F8640083
:1059800008280DD1012006000AE06078102807D110
:1059900094F86400A1790931884201D10120060000
:1059A0003000C0B2BDE8F28310B5040094F82F11A6
:1059B00089B214F16600FFF749FF94F82F114A1CD1
:1059C00084F82F21C9B2214481F8660094F82F1180
:1059D0004A1C84F82F21020092B2120AC9B2214453
:1059E00081F8662010BD80F82E1190F82F21531CED
:1059F00080F82F310378D2B2024482F8663090F8F2
:105A00002F21531C80F82F31437853F08003D2B2FA
:105A1000024482F8663090F82F21531C80F82F3111
:105A200090F82E31D2B2024482F8663070472DE9E8
:105A3000F04104000025002694F86400811E89B21C
:105A40002000FFF703FF070094F864002044801E45
:105A5000FFF766F880464046390080B289B2884236
:105A60002CD1607801280CD003280BD004280DD04D
:105A700005280FD006280ED00F2814D010280ED0DD
:105A800015E01BE0200000F01BF817E0200000F0FC
:105A900090F813E012E0200000F002F90EE0200080
:105AA00000F06EF90AE0200000F00EFA06E0012195
:105AB0002000FFF798FF2000FFF776FFBDE8F08198
:105AC0002DE9F0470700B81CFFF722F88046381D83
:105AD000FFF71EF881465FF0000A1FFA88F81FFAE8
