:020000040800F2
:1000000008610020850F010873FF000875FF0008D4
:1000100077FF000879FF00087BFF00080000000060
:10002000000000000000000000000000AF8E00088B
:100030007DFF000800000000698E00087FFF0008B7
:10004000A5100108A9100108AD100108B1100108A0
:10005000B5100108B9100108BD100108C110010850
:10006000C5100108C9100108CD100108D110010800
:10007000D5100108A9FF0008D9100108ABFF00083E
:10008000DD100108E11001088BFF0008E5100108F0
:10009000E9100108ED100108F1100108F510010840
:1000A000F91001087D000108FD1001080111010887
:1000B000F500010805110108091101080D110108D9
:1000C0001111010815110108191101081D1101086C
:1000D00021110108ADFF0008EDFF000849000108EB
:1000E00025110108291101082D11010831110108FC
:1000F00035110108391101083D11010841110108AC
:1001000045110108491101084D110108511101085B
:1001100055110108591101085D110108611101080B
:1001200065110108691101086D11010871110108BB
:1001300000000000000000000000000000000000BF
:1001400000000000000000000000000000000000AF
:10015000000000000000000000000000000000009F
:10016000000000000000000000000000000000008F
:1001700000000000000000000000C001C001C0013C
:10018000C001C001C001C00180008000800080006B
:10019000800080008000000000000000000080015E
:1001A000C003C00380010000000000000000000048
:1001B000000000000000E01CE01CF01E700E38077C
:1001C0001803080184000000000000000000000087
:1001D000000000000000000000000000000000001F
:1001E000000000000000000000000000000000000F
:1001F000000000000000000000000000201020109F
:10020000201020102010FE7FFE7F1008100810081C
:100210001008100810081008FE7FFE7F080408046C
:1002200008040804080400000000000000000000AA
:10023000000000000000000000010001C00760197C
:10024000103118311839183938017001E001C00334
:100250008007000F001D003900311C311C310C31AA
:100260000C11180DE0070001000100010000000062
:100270000000000000000000000000001C10361804
:100280006308630C63046304630263026301361D45
:100290009C37802280634063406320632063306327
:1002A00010221836081C00000000000000000000AA
:1002B000000000000000000000000000F0009801B5
:1002C0008C018C018C018C018C00CC007800183ED4
:1002D0001C083608320863046304C304C303834361
:1002E00006438E26781C000000000000000000007D
:1002F0000000000000001C003C003C00300030000A
:1003000010000C00060000000000000000000000CB
:1003100000000000000000000000000000000000DD
:1003200000000000000000000000000000000000CD
:100330000000000000000040002000100008000C39
:100340000004000600030003000380018001800117
:10035000800180018001800180010003000300030F
:1003600000060006000C00080010002000400000FD
:10037000000000000000020004000800100030002F
:1003800020006000C000C000C0008001800180012A
:1003900080018001800180018001C000C000C00098
:1003A000600060003000100008000400020000003F
:1003B000000000000000000000000000000000003D
:1003C00000018003800300011C713C79783DC00767
:1003D0000001C007783D3C791C7100018003800357
:1003E000800100000000000000000000000000008C
:1003F00000000000000000000000000000000000FD
:1004000000000001000100010001000100010001E5
:10041000FC7F00010001000100010001000100015A
:1004200000000000000000000000000000000000CC
:1004300000000000000000000000000000000000BC
:1004400000000000000000000000000000000000AC
:10045000000000000000000000000000000000009C
:100460001C003C003C003000300010000C00060076
:10047000000000000000000000000000000000007C
:10048000000000000000000000000000000000006C
:10049000FE7F0000000000000000000000000000DF
:1004A000000000000000000000000000000000004C
:1004B000000000000000000000000000000000003C
:1004C000000000000000000000000000000000002C
:1004D0000000000000000000000000000000180004
:1004E0003C003C001800000000000000000000007C
:1004F00000000000000000400060002000300010FC
:1005000000180008000C00040006000200030001AF
:1005100080018000C000400060002000300010001A
:10052000180008000C000400060002000000000093
:10053000000000000000000000000000C007600C88
:1005400030181830183018200C600C600C600C60EB
:100550000C600C600C600C600C60182018301830B7
:100560003018600CC0070000000000000000000010
:1005700000000000000000000000000000018001F9
:10058000F8018001800180018001800180018001EB
:100590008001800180018001800180018001800153
:1005A0008001C003F81F00000000000000000000F0
:1005B000000000000000000000000000E007101C28
:1005C0000818043004300C300C30003000180008DB
:1005D00000040002000180004000202010200820BC
:1005E0000430FC1FFC1F00000000000000000000A1
:1005F000000000000000000000000000E003180EF2
:100600000C0C0C180C180C180018000C0006C00379
:10061000000E00180010003000300C300C300C10B0
:100620000C18180CE003000000000000000000009F
:10063000000000000000000000000000000C000EA0
:10064000000E000F800E800E400E600E200E100E69
:10065000100E080E040E040EFE7F000E000E000E9B
:10066000000E000E000EC07F000000000000000021
:10067000000000000000000000000000F03FF03F1C
:1006800010001000100008000800C807280C1818F7
:10069000081000300030003000300C300C300418EE
:1006A0000418080CF0030000000000000000000027
:1006B000000000000000000000000000800FC010DB
:1006C000203010301800180008000C008C0F6C1837
:1006D0003C301C600C600C600C600C6018601820D2
:1006E00030306018C007000000000000000000006B
:1006F000000000000000000000000000F83FF83F8C
:100700001C100C080408040400040002000200018C
:1007100000010001800080008000C000C000C00017
:10072000C000C000C0000000000000000000000089
:10073000000000000000000000000000E007300C96
:1007400018180C300C300C301C3038187008E007CA
:10075000B007180E0C1C063806300630063006307E
:100760000C18180CE003000000000000000000005E
:10077000000000000000000000000000E00318047A
:100780000C080C1806100630063006300630063805
:100790000C3C1836F03100300018001800180C0C12
:1007A0000C060C03F0010000000000000000000037
:1007B0000000000000000000000000000000000039
:1007C000000000000000000000008001C003C00322
:1007D0008001000000000000000000000000800117
:1007E000C003C00380010000000000000000000002
:1007F00000000000000000000000000000000000F9
:1008000000000000000000000000C000C000000068
:1008100000000000000000000000000000000000D8
:100820000000C000C00080008000400040000000C8
:100830000000000000000000000000200010000880
:100840000004000600038001C000600030001800B2
:100850000C00180030006000C0008001000300069A
:10086000000400080010002000000000000000004C
:100870000000000000000000000000000000000078
:1008800000000000000000000000FE7F00000000EB
:10089000000000000000FE7F0000000000000000DB
:1008A0000000000000000000000000000000000048
:1008B000000000000000000000000400080010001C
:1008C00020006000C000800100030006000C00183A
:1008D00000300018000C000600038001C00060001A
:1008E00020001000080004000000000000000000CC
:1008F00000000000000000000000C00730180830B1
:1009000008600C601C601C601C600030001C00064D
:100910000001800080008000800000000000800155
:10092000C003C003800100000000000000000000C0
:10093000000000000000000000000000C007601878
:10094000103018200C2F8C4D864CC64CC64C664C73
:1009500066446644662666266615CC1C0C40082054
:1009600018303018C0070000000000000000000030
:10097000000000000000000000000001C001C001F4
:10098000C00140016003200320032003300610064D
:1009900010061006F80F080C080C080C0C0C0418B4
:1009A000041806181F7C0000000000000000000072
:1009B000000000000000000000000000FE07181CFE
:1009C000183818301830183018301818180CF80764
:1009D000181818301820186018601860186018600F
:1009E00018301818FE0F0000000000000000000082
:1009F000000000000000000000000000C027603878
:100A0000103018200C400C400400060006000600C0
:100A1000060006000600060006000C400C400C20F4
:100A200018303018C007000000000000000000006F
:100A3000000000000000000000000000FE03180E8F
:100A400018181830183018301860186018601860BE
:100A50001860186018601860186018301830181086
:100A60001818180EFE03000000000000000000002F
:100A7000000000000000000000000000FE3F1830F1
:100A8000182018601840180018081808180CF80FDB
:100A9000180C1808180818001800180018401840FA
:100AA00018201830FE3F0000000000000000000089
:100AB000000000000000000000000000FE7F187031
:100AC000184018C018801800181018101818F81FAF
:100AD000181818101810180018001800180018001E
:100AE000180018007E000000000000000000000058
:100AF000000000000000000000000000C013701C97
:100B0000101018100C200C2004000600060006002F
:100B10000600060006FC063006300C300C3018309B
:100B200018303008C007000000000000000000007E
:100B30000000000000000000000000003F7E0C18D4
:100B40000C180C180C180C180C180C180C180C1885
:100B5000FC1F0C180C180C180C180C180C180C187E
:100B60000C180C183F7E0000000000000000000080
:100B7000000000000000000000000000F81F8001DD
:100B8000800180018001800180018001800180015D
:100B9000800180018001800180018001800180014D
:100BA00080018001F81F000000000000000000002C
:100BB000000000000000000000000000E07F0006D0
:100BC00000060006000600060006000600060006F5
:100BD00000060006000600060006000600060006E5
:100BE00000060006000600060E060E038E01FC003D
:100BF0000000000000000000000000007E7C1818CB
:100C00001808180418061802180198019801D8014C
:100C1000B803380318071806180E180C181C1818F3
:100C2000183018307EFC00000000000000000000BA
:100C30000000000000000000000000007E0018001E
:100C400018001800180018001800180018001800E4
:100C50001800180018001800180018001840184054
:100C600018201830FE3F00000000000000000000C7
:100C70000000000000000000000000001FF81C3809
:100C80001C381C381C3C343434343434343674321C
:100C90006432643264326431C431C431C431C4302A
:100CA000C43084309FFC0000000000000000000001
:100CB0000000000000000000000000001F7C1C106D
:100CC0003C103410341074106410E410C410C411BB
:100CD00084118413041304170416041E041C041C3A
:100CE000041C04181F180000000000000000000091
:100CF000000000000000000000000000C003300CF5
:100D0000181808100C300C3006600660066006608B
:100D1000066006600660066006600C200C30081055
:100D20001818300CC0030000000000000000000094
:100D3000000000000000000000000000FE0F181876
:100D4000183018601860186018601860183018188B
:100D5000F80F1800180018001800180018001800E4
:100D6000180018007E0000000000000000000000D5
:100D7000000000000000000000000000C003300C74
:100D800018180C100C300C20066006600660066017
:100D900006600660066006600660E4612C331C3263
:100DA0001816300EC007004C007C00380000000010
:100DB000000000000000000000000000FE07181CFA
:100DC000183818301830183018301818180CF80760
:100DD00098031803180718061806180E180C180C94
:100DE000181C18187E7800000000000000000000A9
:100DF000000000000000000000000000E027303884
:100E000018300C200C200C000C0018007800E003B7
:100E1000800F001E003800700060046004600860ED
:100E200018303818C80F0000000000000000000053
:100E3000000000000000000000000000FC3F8C21CA
:100E400084618241824180018001800180018001B2
:100E5000800180018001800180018001800180018A
:100E600080018001E0070000000000000000000099
:100E70000000000000000000000000003F7C0C109B
:100E80000C100C100C100C100C100C100C100C1082
:100E90000C100C100C100C100C100C100C100C1072
:100EA00008083804E0030000000000000000000013
:100EB0000000000000000000000000003EF81820C4
:100EC00018201820301030103010301060086008E2
:100ED0006008E00CC004C004C004800380038003E9
:100EE000800300010001000000000000000000007D
:100EF000000000000000000000000000DFF3866139
:100F0000862186218C210C218C238C138C138C132D
:100F10004C1358125816580E380E380E380E300C26
:100F20001004100410040000000000000000000085
:100F30000000000000000000000000007E3E1808D5
:100F400038083004300470026002E001C001C001C2
:100F5000800180034003400720062006100C100C7F
:100F6000081808183E7C0000000000000000000087
:100F70000000000000000000000000007E7C1C104B
:100F8000181018083008300C700460046002C002A9
:100F9000C002C001800180018001800180018001C8
:100FA00080018001E0070000000000000000000058
:100FB000000000000000000000000000F83F1818CA
:100FC0000818040C040E00060007000380038001CB
:100FD000C001C000E0006000700030003820182020
:100FE0001C100C18FE1F0000000000000000000094
:100FF000000000000000C03F4000400040004000F2
:1010000040004000400040004000400040004000E0
:1010100040004000400040004000400040004000D0
:1010200040004000400040004000C03F0000000081
:101030000000000000000000000008001800180078
:10104000100030002000600060004000C000800000
:101050008001800100010003000200060006000478
:10106000000C0008001800180010003000200000DC
:10107000000000000000FC03000200020002000269
:101080000002000200020002000200020002000250
:101090000002000200020002000200020002000240
:1010A00000020002000200020002FC030000000037
:1010B0000000000000008007C0062008101000009B
:1010C0000000000000000000000000000000000020
:1010D0000000000000000000000000000000000010
:1010E0000000000000000000000000000000000000
:1010F00000000000000000000000000000000000F0
:1011000000000000000000000000000000000000DF
:1011100000000000000000000000000000000000CF
:101120000000000000000000000000000000FFFFC1
:101130000000000000007800C00000010000000076
:10114000000000000000000000000000000000009F
:10115000000000000000000000000000000000008F
:10116000000000000000000000000000000000007F
:10117000000000000000000000000000000000006F
:1011800000000000000000000000F00318060C0C36
:101190000C0C000C800F700C1C0C0C0C060C060CBC
:1011A000064C0C4FF8380000000000000000000062
:1011B0000000000000000000000010001E001800E9
:1011C00018001800180018001800180FD818383028
:1011D000386018601860186018601860186018206F
:1011E00038307818C8070000000000000000000038
:1011F00000000000000000000000000000000000EF
:1012000000000000000000000000C007700C18186B
:1012100018180C180C000C000C000C000C201820E6
:1012200018103008C0070000000000000000000097
:10123000000000000000000000000010001E001868
:1012400000180018001800180018E01B301C1818AF
:1012500018180C180C180C180C180C180C18081866
:10126000181C307AE00900000000000000000000B7
:10127000000000000000000000000000000000006E
:1012800000000000000000000000C007300C18182B
:1012900008100C300C30FC3F0C000C000C00182027
:1012A00018107018C00700000000000000000000C7
:1012B000000000000000000000000000003E80C3AD
:1012C00080C0C0C0C000C000C000FC1FC000C00083
:1012D000C000C000C000C000C000C000C000C0000E
:1012E000C000C000F80F0000000000000000000077
:1012F00000000000000000000000000000000000EE
:1013000000000000000000000000C077306C1018E2
:101310001818181818181018300CF00718001800B2
:10132000F00FF03F08700C600C600C603838E00F74
:101330000000000000000000000010001E00180067
:1013400018001800180018001800980FD818383026
:10135000183018301830183018301830183018304D
:10136000183018307EFC0000000000000000000073
:101370000000000000000000000000008003800367
:1013800080030000000000000001F80180018001DE
:101390008001800180018001800180018001800145
:1013A00080018001F81F0000000000000000000024
:1013B00000000000000000000000000000380038BD
:1013C00000380000000000000010801F0018001806
:1013D000001800180018001800180018001800184D
:1013E00000180018001800180018180C1806F00350
:1013F0000000000000000000000010001E001800A7
:1014000018001800180018001800183E180C1806CC
:10141000180318019801D801380318071806180C8A
:10142000181C18187E7C000000000000000000005E
:10143000000000000000000000000001F801800131
:101440008001800180018001800180018001800194
:101450008001800180018001800180018001800184
:1014600080018001F81F0000000000000000000063
:10147000000000000000000000000000000000006C
:1014800000000000000000000800EE1C9C338C31BE
:101490008C318C318C318C318C318C318C318C3164
:1014A0008C318C31DE7B0000000000000000000069
:1014B000000000000000000000000000000000002C
:1014C000000000000000000010001E0FD818383087
:1014D00018301830183018301830183018301830CC
:1014E000183018307EFC00000000000000000000F2
:1014F00000000000000000000000000000000000EC
:1015000000000000000000000000C007701C103048
:1015100018300C600C600C600C600C600C601830B3
:1015200018303018C0070000000000000000000064
:1015300000000000000000000000000000000000AB
:10154000000000000000000010009E0F5818383006
:10155000182018601860186018601860186018303B
:1015600038307818980718001800180018007E0006
:10157000000000000000000000000000000000006B
:1015800000000000000000000000C023303C1838BC
:1015900018300C300C300C300C300C300C30083063
:1015A0001838303CE033003000300030003000FCB0
:1015B000000000000000000000000000000000002B
:1015C000000000000000000060007E3C606660617A
:1015D000E000E0006000600060006000600060000B
:1015E00060006000FE070000000000000000000036
:1015F00000000000000000000000000000000000EB
:1016000000000000000000000000E0273038183023
:10161000182018007000E003800F001C0430043014
:101620000C301C18EC0F000000000000000000004F
:1016300000000000000000000000000000000000AA
:10164000800080008000C000E000FC1FC000C000DF
:10165000C000C000C000C000C000C000C000C0206A
:10166000C0208011000F00000000000000000000FA
:10167000000000000000000000000000000000006A
:10168000000000000000000010201E3C1830183040
:10169000183018301830183018301830183018300A
:1016A000183830F4E01300000000000000000000D3
:1016B000000000000000000000000000000000002A
:1016C000000000000000000000007E3C1818180810
:1016D000380830043004700260026002E001C0018A
:1016E000C001C000800000000000000000000000F9
:1016F00000000000000000000000000000000000EA
:1017000000000000000000000000DFF78E630C23E3
:101710008C238C239813981358165816700E700E3D
:10172000700E2004200400000000000000000000F3
:1017300000000000000000000000000000000000A9
:1017400000000000000000000000FC3E7008700473
:10175000E004C002C0018003800340076006200C43
:10176000100C18183E7E0000000000000000000071
:101770000000000000000000000000000000000069
:10178000000000000000000000007E7C181818080F
:1017900030083008300460046004C002C002C00297
:1017A0008001800180018000800080004C003C00AE
:1017B0000000000000000000000000000000000029
:1017C00000000000000000000000FC1F0C0C040ED4
:1017D0000406000380038001C000E0007020302078
:1017E00038301C18FC1F0000000000000000000042
:1017F00000000000000000300008000400040004A5
:1018000000040004000400040004000400040002BA
:10181000800100020004000400040004000400042D
:10182000000400040004000400040008003000006C
:1018300000010001000100010001000100010001A0
:101840000001000100010001000100010001000190
:101850000001000100010001000100010001000180
:101860000001000100010001000100010001000170
:101870000000000000000C001000200020002000EC
:101880002000200020002000200020002000400038
:1018900080014000200020002000200020002000C7
:1018A0002000200020002000200010000C0000007C
:1018B00000003800C400864002610022001C0000C5
:1018C0000000000000000000000000000000000018
:1018D0000000000000000000000000000000000008
:1018E00000000000000000000000000000000000F8
:1018F00000000000000000000000000000000000E8
:1019000000000000000000000000000000000000D7
:1019100000000000000000000000000000000000C7
:101920000000000000000000E000E000E000E00037
:10193000E000400040004000400040004000000047
:1019400000000000E000E000E000000000000000F7
:101950000000000060066006300398018800440023
:101960000000000000000000000000000000000077
:101970000000000000000000000000000000000067
:101980000000000000000000000008020802080239
:101990000802FE07FE070802080204010401FE0710
:1019A000FE0704010401040104010000000000001E
:1019B00000000000000040004000F00158034C030C
:1019C0004C034C0058007000E000C001C00140030F
:1019D0004C034C034C034801F00040004000000061
:1019E000000000000000000000000E030A011101C9
:1019F00091009100D1005100FA03AE02600450043E
:101A000050045804480488028403000000000000C9
:101A100000000000000000000000380064006400C6
:101A200064006400A4031C010C011A019200B300BD
:101A3000E3006300C300A6041C03000000000000D4
:101A4000000000000C001C00100010000800060040
:101A50000000000000000000000000000000000086
:101A60000000000000000000000000000000000076
:101A70000000000000040002000180018000C0009E
:101A8000C0006000600060006000600060006000F6
:101A9000C000C000800080010001000200040000BE
:101AA00000000000020004000800180010003000D0
:101AB0003000600060006000600060006000600056
:101AC0003000300010001800080004000200000080
:101AD0000000000000000000000000004000400086
:101AE00040004E0E5C07F001F0015C074E0E400016
:101AF0004000400000000000000000000000000066
:101B00000000000000000000000000000000400095
:101B10004000400040004000FE0F400040004000F8
:101B20004000400000000000000000000000000035
:101B300000000000000000000000000000000000A5
:101B40000000000000000000000000000000000095
:101B5000000000000C001C0010001000080006002F
:101B60000000000000000000000000000000000075
:101B70000000000000000000FE0700000000000060
:101B80000000000000000000000000000000000055
:101B90000000000000000000000000000000000045
:101BA0000000000000000000000000000000000035
:101BB000000000001C001C001C00000000000000D1
:101BC0000000000000040006000200030001000104
:101BD00080008000400040006000200020001000D5
:101BE0001000080008000C000400060002000000BD
:101BF00000000000000000000000F00098010C034D
:101C00000C03060606060606060606060606060671
:101C100006060C030C039801F00000000000000011
:101C200000000000000000000000400060007C0098
:101C300060006000600060006000600060006000A4
:101C40006000600060006000FC0300000000000015
:101C500000000000000000000000F8008401020302
:101C600006030603000380018001C000200010006D
:101C7000080204020202FE03FE030000000000004E
:101C8000000000000000000000007800C400860191
:101C9000860186018001C000700080010001000300
:101CA0000603060306038401F8000000000000009C
:101CB000000000000000000000018001C001C00120
:101CC000A001900190018801840184018201FE0736
:101CD0008001800180018001E00700000000000019
:101CE00000000000000000000000FC03FC030400F2
:101CF000040004000400F4008C010403000300034A
:101D00000603060382018401F800000000000000C1
:101D100000000000000000000000E00118030C03B8
:101D20000C0004000600E60116030E060606060671
:101D3000060604060C021803F00000000000000074
:101D400000000000000000000000F807FC070C0283
:101D500004010401000180008000400040004000B8
:101D60006000600060006000600000000000000093
:101D700000000000000000000000F8010C0306064F
:101D8000060606060E023C03F000CC01040306061C
:101D90000606060606060C03F0010000000000001F
:101DA00000000000000000000000F0000C010C0327
:101DB000060206060606060606078C0678060006D4
:101DC000000300030C018C017800000000000000FB
:101DD0000000000000000000000000000000000003
:101DE0000000E000E000E000000000000000000053
:101DF00000000000E000E000E00000000000000043
:101E000000000000000000000000000000000000D2
:101E10000000000060006000000000000000000002
:101E20000000000000006000600040002000000092
:101E3000000000000000000000040002000180001B
:101E400040002000100008000400080010002000DE
:101E500040008000000100020004000000000000BB
:101E60000000000000000000000000000000000072
:101E700000000000FE070000000000000000FE0758
:101E80000000000000000000000000000000000052
:101E90000000000000000000040008001000200006
:101EA00040008000000100020004000200018000E8
:101EB00040002000100008000400000000000000A6
:101EC0000000000000000000F0010C030206020602
:101ED00006060606000380016000200020002000A6
:101EE00000000000700070007000000000000000A2
:101EF00000000000000000000000E00138060804B7
:101F0000CC0A640B260926091609160996099605B6
:101F100066030C080C041802E00100000000000039
:101F20000000000000000000000060006000700081
:101F3000D000D000C800880188018801F80104039E
:101F400004030403040606060F0F0000000000004F
:101F500000000000000000000000FF0086010603F2
:101F60000603060306038601FE00060306020606B4
:101F70000606060606060603FF0100000000000034
:101F800000000000000000000000E00718060C043C
:101F90000C04040006000600060006000600060009
:101FA00006040C040C021801F00000000000000000
:101FB000000000000000000000007F008601060312
:101FC00006030606060606060606060606060606B4
:101FD000060606030603C6017F000000000000009D
:101FE00000000000000000000000FF0306020604DD
:101FF0000600060086008600FE00860086000600B9
:102000000600060406040602FF03000000000000AC
:1020100000000000000000000000FF0306030604AB
:102020000604060086008600FE0086008600060084
:1020300006000600060006000F0000000000000079
:1020400000000000000000000000F00218030C0275
:102050000C0204000600060006000600C60F060378
:1020600006030C030C031803F0000000000000003E
:10207000000000000000000000000F0F060606062A
:102080000606060606060606FE07060606060606F7
:1020900006060606060606060F0F000000000000F2
:1020A00000000000000000000000FC036000600071
:1020B0006000600060006000600060006000600020
:1020C0006000600060006000FC0300000000000091
:1020D00000000000000000000000F00F80018001FF
:1020E00080018001800180018001800180018001E8
:1020F000800180018001800180018601C6007C0092
:1021000000000000000000000000CF07060186006C
:1021100046004600260036003E006E00E600C6007F
:10212000C6018601060306078F0F000000000000AD
:10213000000000000000000000000F000600060084
:10214000060006000600060006000600060006005F
:102150000600060406040602FF030000000000005B
:10216000000000000000000000000F0F0E070E0727
:102170000E079A069A069A069A065A06720672067A
:102180007206720622062206270F000000000000D9
:1021900000000000000000000000070E0E040E0406
:1021A0001A041A04320462046204C204C2048205DE
:1021B00002070207020602060704000000000000F2
:1021C00000000000000000000000F00098010C0377
:1021D0000C0206060606060606060606060606069D
:1021E00006060C020C039801F0000000000000003D
:1021F00000000000000000000000FF0106030606CA
:1022000006060606060606060603FE01060006008A
:1022100006000600060006000F0000000000000097
:1022200000000000000000000000F00098010C0316
:102230000C0206060606060606060606060606063C
:1022400076064C028C038801F00180070003000031
:1022500000000000000000000000FF010603060669
:102260000606060606060603FE006600C600C60051
:1022700086018601060306030F0E00000000000021
:1022800000000000000000000000F8040C07060435
:10229000060406000E003C00F000C0030003000628
:1022A0000206020606060E03F2010000000000000E
:1022B00000000000000000000000FE07620461084A
:1022C0006108600060006000600060006000600005
:1022D0006000600060006000F0000000000000008E
:1022E000000000000000000000000F0E06040604BD
:1022F000060406040604060406040604060406048E
:102300000604060406040C02F801000000000000A8
:10231000000000000000000000001F0F0E060C026D
:102320000C020C020C011801180118011801B00070
:10233000B000B000F000600060000000000000008D
:1023400000000000000000000000EF0E66046604BC
:1023500066026602E602EC02EC02DC01DC01DC0152
:10236000DC019C018800880088000000000000005B
:10237000000000000000000000009E070C03180190
:1023800018019800B000700060006000E000D0000C
:10239000D001980188010C039E0700000000000096
:1023A000000000000000000000001F0F0E060C02DD
:1023B0000C0118011801B000B0007000600060004E
:1023C0006000600060006000F80100000000000094
:1023D00000000000000000000000FC07040382036E
:1023E0008001C001C000C00060006000300030000B
:1023F000180018041C040C02FE030000000000007A
:1024000000000000E0072000200020002000200045
:1024100020002000200020002000200020002000BC
:10242000200020002000200020002000E007000005
:102430000000000000000000040008000800080080
:10244000100010002000200020004000400080000C
:102450008000800000010001000200020002000470
:1024600000000000FC0080008000800080008000F0
:10247000800080008000800080008000800080005C
:10248000800080008000800080008000FC00000050
:1024900000000000E000B0010802000000000000A1
:1024A000000000000000000000000000000000002C
:1024B000000000000000000000000000000000001C
:1024C000000000000000000000000000000000000C
:1024D00000000000000000000000000000000000FC
:1024E0000000000000000000000000000000FF0FDE
:1024F0000000000018006000000000000000000064
:1025000000000000000000000000000000000000CB
:1025100000000000000000000000000000000000BB
:1025200000000000000000000000000000000000AB
:1025300000000000F0010C030C03E00338030C035F
:102540000603060306038E0B7C0F0000000000004C
:10255000000000000000000008000E000C000C004D
:102560000C000C00CC013C031C060C060C060C06EF
:102570000C060C060C021C03F40100000000000015
:10258000000000000000000000000000000000004B
:1025900000000000F0008C018C018601060006009E
:1025A000060006020C020C01F00000000000000012
:1025B0000000000000000000000280030003000390
:1025C0000003000378038C030C03060306030603D1
:1025D0000603060304038C077801000000000000D6
:1025E00000000000000000000000000000000000EB
:1025F00000000000E001180308060C06FC070C00B0
:102600000C000C0018043802E0010000000000007B
:1026100000000000000000000000C003600630065B
:1026200030003000FE033000300030003000300059
:102630003000300030003000FC01000000000000DD
:10264000000000000000000000000000000000008A
:1026500000000000F00E98090C030C030C03980115
:10266000F8000C007C00F803060606060E07F801C9
:10267000000000000000000008000E000C000C002C
:102680000C000C00EC011C030C030C030C030C03EA
:102690000C030C030C030C039E0700000000000059
:1026A000000000000000000000006000600000006A
:1026B000000000007C0060006000600060006000BE
:1026C0006000600060006000FC030000000000008B
:1026D00000000000000000000000800180010000F8
:1026E00000000000F0018001800180018001800174
:1026F000800180018001800180018001CC007C008C
:10270000000000000000000008000E000C000C009B
:102710000C000C00CC038C00CC004C006C007C0046
:10272000DC00CC008C018C019E0700000000000042
:10273000000000000000000040007C00600060001D
:102740006000600060006000600060006000600089
:102750006000600060006000FC03000000000000FA
:102760000000000000000000000000000000000069
:10277000000000007707EE06660666066606660637
:102780006606660666066606EF0E0000000000009C
:102790000000000000000000000000000000000039
:1027A00000000000CE013C030C030C030C030C03DF
:1027B0000C030C030C030C039E0700000000000038
:1027C0000000000000000000000000000000000009
:1027D00000000000F00098010C030606060606063D
:1027E000060606060C030C03F000000000000000C3
:1027F00000000000000000000000000000000000D9
:1028000000000000EE011C030C060C060C060C0672
:102810000C060C060C031C03EC010C000C003E0023
:1028200000000000000000000000000000000000A8
:102830000000000078028C030C0306030603060365
:102840000603060304038C03780300030003C00798
:102850000000000000000000000000000000000078
:10286000000000009F0758063800180018001800E4
:102870001800180018001800FF00000000000000F9
:102880000000000000000000000000000000000048
:1028900000000000F00718060C040C003800F001DE
:1028A0008003040604060C03FC0100000000000085
:1028B00000000000000000000000000020002000D8
:1028C00030003000FE0130003000300030003000B9
:1028D0003000300030023002E00100000000000053
:1028E00000000000000000000000000000000000E8
:1028F000000008028E030C030C030C030C030C03F2
:102900000C030C030C039C0778010000000000007E
:1029100000000000000000000000000000000000B7
:10292000000000003E0F1C061802180230013001A2
:102930003001E000E000E000400000000000000086
:102940000000000000000000000000000000000087
:1029500000000000EF0DC604C604E604EC04AC035E
:102960009C039C039C030801080100000000000078
:102970000000000000000000000000000000000057
:1029800000000000BE0718019801B0007000600050
:10299000E000D00098018803DE070000000000007E
:1029A0000000000000000000000000000000000027
:1029B00000000000BE071C0118011801B000B000A3
:1029C000B0006000600040002000200014001C00E7
:1029D00000000000000000000000000000000000F7
:1029E00000000000FC038401C401C000E00060009E
:1029F0007000300438041806FC03000000000000DA
:102A00000000000000038001800080008000800042
:102A1000800080008000C0002000C0008000800096
:102A200080008000800080008000800100030000A2
:102A30004000400040004000400040004000400096
:102A40004000400040004000400040004000400086
:102A50004000400040004000400040004000400076
:102A6000000000000C001800100010001000100002
:102A70001000100010003000400030001000100066
:102A80001000100010001000100018000C000000D2
:102A900000001C002400420882040007000000001F
:102AA0000000000000000000000000000000000026
:102AB0000000000000000000000000000000000016
:102AC0002DE9F0439FB081462698DFF8F48B8DF80E
:102AD0003B00174600201E4602910B900FF2701427
:102AE0004FF0FF350AE017F8011B0298C84700288D
:102AF000029000F09A800B98401C0B90387850B1EF
:102B00002528F0D10020002105900691079008911A
:102B100009900A9103E00B989EE041F0010117F83B
:102B2000010F2028F9D023280DD02B2804D02D28E0
:102B300006D030280AD07AE041F0020189B2EEE7EF
:102B400041F00401FAE741F00801F7E741F0100114
:102B5000F4E700200D9009E00D98404505DA00EB00
:102B6000800302EB4302303A0D927F1C3A78A2F1C7
:102B700030000A28F0D33A782E2A18BF0C9523D1BA
:102B800017F8010F2A2807D1306830607F1C50F8F1
:102B9000042B30600C9217E02D280CBF17F8010BA6
:102BA000002000220C920AE040B90C9A424505DA56
:102BB00002EB820203EB4203303B0C937F1C3B7819
:102BC000A3F130020A2AEFD3ADF838102046397845
:102BD00000F060FF08B117F8010B8DF83A009DF87E
:102BE0003A00682804BF3978682903D162208DF83B
:102BF0003A0007E06C2804BF38786C2803D17121B3
:102C00008DF83A107F1C10A80490324617F8013B4B
:102C10006946484600F060F838B910AA6946484647
:102C200000F0C2F900287FF569AF284614E02A2891
:102C30008FD13068306050F8042B3060002A0D923C
:102C400004D5524241F004010D9289B27F1C92E7F3
:102C5000686A6C747A4C00001FB0BDE8F08362288B
:102C600020D0682811D06A2803D06C2827D071287A
:102C700025D10868C01D20F007000860D0E90023B6
:102C800008300860194610467047002A0A680A6032
:102C9000106803D0121D0A6000B217E0121D0A600E
:102CA00080B217E0002A0A680A60106803D0121D7B
:102CB0000A6040B20AE0121D0A60C0B20AE0002AAF
:102CC0000A680A60106803D0121D0A60C1177047B5
:102CD000121D0A60002170477CB50D4611461C4646
:102CE0002E69B4F1250200F04D811C3A00F0868077
:102CF000121F022A40F282800E3A00F00781521F12
:102D00005AD0093A7AD0921E16D0521E35D0521E91
:102D1000022A73D9121F30D0521F00F09A80521E1F
:102D20004AD0521E00F0E480D21E00F0FD80921EB8
:102D300042D0D21E40D02BE195F83A206C2A09D01F
:102D40006869421C6A610A680A6052F8043B0A60BA
:102D5000335427E10A680A6052F8043B0A600021F4
:102D6000009301914FF0FF322A6329466A4600F032
:102D7000A2F9002840F1168101E195F83A000122FC
:102D8000FFF76DFFC5E900010023994204DA686985
:102D9000411C69612D210DE0288F810704D56869E8
:102DA000411C69612B2105E0C00722D56869411CDF
:102DB0006961202131541CE095F83A000022FFF7A8
:102DC0004EFFC5E9000195F83800010711D5D5E996
:102DD00000230020834208BF82420AD044F0200032
:102DE000782806D1686930213154401C411C696142
:102DF0003454214668693044E86083E00868C01DA7
:102E000020F007000860D0E9002308300860C5E919
:102E10000023D5E90001C80F04D06869411C69612D
:102E20002D210DE0288F810704D56869411C696157
:102E30002B2105E0C00704D56869411C6961202188
:102E4000315468693044E8602146284600F040FA71
:102E5000A8E005F13A02507820B14FF0FF340FF6A8
:102E6000383070E01078622808D0682824D06A28AA
:102E700012D06C282ED071280ED02BE00A680A6080
:102E800052F8040B0A6020B94FF0FF340FF62030DF
:102E900059E0E96A017085E00A680A6052F8040B9B
:102EA0000A6020B94FF0FF340FF604304BE0EA6AB5
:102EB000D317C0E9002375E00A680A6052F8040BD2
:102EC0000A6020B94FF0FF340FF6E4203BE0E96AD6
:102ED000018067E00A680A6052F8040B0A6020B9B2
:102EE0004FF0FF340FF6C8202DE0E96A016059E089
:102EF0000A680A6052F8040B0A600021C5E9000163
:102F0000EE607821284600F035F94BE06C2285F818
:102F10003A200B680B6053F8042B0B6052BB4FF048
:102F2000FF340FF6C0200EE095F83A206C2AF0D05E
:102F30000868086050F8044B0860EC603CB94FF03A
:102F4000FF340FF6842000F0BDFD201A76BD2E6BF5
:102F5000002E04D5204600F0D7FD044608E0324696
:102F60000021204600F0F4FD002814BF041B344665
:102F7000AC6117E0294600F09EF8002812D54FF00A
:102F8000FF3076BD6869411C69612521315409E033
:102F90006869411C696125223254200002D0481C16
:102FA00068617454002076BD2DE9F0410F4682B06F
:102FB0000646796B7869BC6A091A386A091AB869D1
:102FC000091A786A091AF869091A97F838000C1B67
:102FD000410790460FD42021002C8DF800100ADD07
:102FE000254601236A463946304600F0BDFC0028DC
:102FF0005DD16D1EF5D17B6942463946304600F001
:10300000B3FC002853D130208DF800003D6A002D1C
:1030100009DD01236A463946304600F0A5FC002848
:1030200045D16D1EF5D1BB69FA683946304600F0CE
:103030009BFC00283BD130208DF800007D6A002DDC
:1030400008DD01236A463946304600F08DFC70BB2E
:103050006D1EF6D1F868B969FB69421839463046E9
:1030600000F082FC18BB30208DF80000BD6A002DF6
:1030700008DD01236A463946304600F075FCB0B9D8
:103080006D1EF6D197F8380041070DD52021002C90
:103090008DF8001008DD01236A463946304600F0FD
:1030A00063FC20B9641EF6D10020BDE8F6814FF024
:1030B000FF30BDE8F6812DE9F0470E46A4B0356B30
:1030C000002D8146904648BF6FF0004500F06CFD32
:1030D000716B40180FF628118128D1E90023CDE942
:1030E000012328BF4FF0FF303ED20024002D2FDDFA
:1030F000D8F8001001AA684600F064FD0746002FCA
:1031000035D4D8F8000008B97F1E30D4BD421FDB8B
:103110007069381881280AD30020706303AA3146E9
:103120004846FFF741FF040012D40020706103A855
:10313000D6F814A03A466946504400F04BFDBA4414
:10314000C6F814A058F8040B002818BFED1BCDD109
:103150002CB903AA31464846FFF726FF044614B9A6
:10316000002070617063204624B0BDE8F0874FF006
:10317000FF34F8E72DE9FC4B06468B463469BBF17A
:103180006F0F08BF082505D04BF02001782914BF28
:103190000A2510253C27D6E90023BBF1640F18BF90
:1031A000BBF1690F9046994606D100218B4203DAA4
:1031B000D8F1000869EB49090020814508BF804526
:1031C0001FD1306BE8B9082D4ED196F838000107B1
:1031D0004AD530203B2784F83B0045E000280ED537
:1031E00096F8380000F01400102808D1726B70694E
:1031F000121A306A121A511A0029C8BF3162BDE88A
:10320000F38B01968DF800B0404649462A46EB17ED
:1032100000F034FD30327F1ED2B23A2A04DB9DF832
:103220000000A0F151018A18E255404649462A465D
:10323000EB1700F023FD894600228046914508BF28
:10324000904504D00198C168E0198142DCD3082D73
:10325000019E09D196F83800010705D5E15D3029B6
:1032600002D07F1E3020E055E019F060C7F13C012C
:10327000306BB1618142B1DA411A31624FF6EF70C1
:10328000318F01403187BDE8F38B2DE9D0430646ED
:103290000F4614464FF00008DFF8289412E0E007CC
:1032A00007D542464B463046394600F05FFD06469C
:1032B0000F464046494642464B4600F057FD6410D3
:1032C00080468946002CEAD130463946BDE8D08395
:1032D0002DE9F04705468A468EB0D5E900894AF0C7
:1032E0002000612802AF00900AD0286B002802D588
:1032F0000620286304E001BF0098672801212963A4
:10330000D5E9006460004015401C0DD121030BD0AD
:10331000AAF1610103201A29A86102D20FF2E86123
:1033200010E00FF2E8610DE060004015401C0ED186
:1033300021030CD1AAF1610103201A29A86116D337
:103340000FF2D061E868032200F044FCCAE124F0E7
:103350000043B3F5801F26F0000211D20020834203
:1033600008BF8242019005D13046214612E00FF29B
:10337000A061E7E701AA3046214600F0C9FD09E057
:10338000D148D24900EB1350019004EA0102D04920
:1033900030461143C5E90001009A612A0DD1E86861
:1033A00030210170811CE960BAF1610F0CBF7821F6
:1033B000582141706869801C6861D5E90023CDE916
:1033C0000C23DDE90C0121F0004100220023994289
:1033D00004BF9042002000F04D810098612840F029
:1033E0009C80286B00284CBF2120401C0090404648
:1033F000009E761C4946DDE90C8900F0C1FD01986C
:103400008DF8082038BF89F00049001F0190002E78
:103410000DF1090040F33C81074640464946002231
:10342000002300F0C5FD80F032814800400D00F11E
:103430001C0211D0002A0FDD40F2FF70824205DB32
:10344000A44909F000400143002012E06FF31E512F
:1034500041EA025140460CE029F0004128F000000A
:10346000994208BF98420FBF49461C22494600F0C6
:10347000B7FD8046894600F051FEF61F002E044637
:1034800009DD00F069FE02460B464046494600F061
:1034900075FE80468946F81D072104E004F00F02FE
:1034A00000F8012D2411002C01DD491EF6D5491E1E
:1034B0005CBF002200F8012DF9D5E4E00020194698
:1034C00002AA0A4400E05B1E12F80149491E844228
:1034D000F9D00F2804D10DF10900425C521C42546E
:1034E000002904D50198001D02AF5B1C0190581EF5
:1034F0000CD43918AAF13A040A783032D2B2392AF7
:10350000C8BFA218401E01F80129F5D5286B002874
:1035100040F1AF80591E2963ABE04046494600F0B8
:103520002FFD019938BF89F0004947F29750414378
:10353000694A91FBF2F20192D2F1070204DD4046A2
:103540004946FFF7A2FE0AE0524200206349FFF716
:103550009CFE02460B464046494600F081FE8046EE
:1035600000985F4E6628286B06BF019C0A3406242B
:103570002418142CC8BF142430208DF80800894664
:103580000DF1090000E03846002C34DD07464046C6
:10359000494600F089FF01460A4607F10803042066
:1035A0000A27B2FBF7F707EB870EA2EB4E02303289
:1035B00003F8012C0A22B7FBF2F202EB820EA7EB12
:1035C0004E073037401E03F8027DE9D1083C002C3D
:1035D00003F10807D7DD084600F07AFF02460B46E4
:1035E0004046494600F0CAFD0022334600F0BEFBCB
:1035F00080468946CBE70DF10901401A0DF1090714
:1036000004E00199491E401E01917F1C3978302940
:10361000F7D0009A662A02D10199491C03E0652A75
:103620000CBF012100212B6BCB189842B8BF431E61
:10363000002B1ED4834204DAF85C3528A8BF392059
:1036400000DA302019467A1E02EB010800E05B1E0A
:1036500018F80199491E8145F9D0392802D1785CC2
:10366000401C7854002904D50198401C17465B1C67
:103670000190019800B200901BB23A46514628468C
:1036800000F033F82EE0C71D002E3FF7C6AE3846D7
:103690000DF10901401A009903468842C8BF0B4644
:1036A000002B0DF109073FF531AF8342BFF606AF9E
:1036B0000DF10900C05C07287FF700AF0F20FEE680
:1036C000CBCCCC0C0000244002FCFFFFFFFF0F809E
:1036D0000000E03F0000F07FA08601000000F03F06
:1036E00084D797410EB0BDE8F0872DE9F04F83B045
:1036F00006468B469246994600F066FAB9F1000FED
:10370000406AD6F83080077803DC4FF001090FF2E9
:10371000083ABDF930504BF02000662808BF6D1CF8
:1037200017D0672840F0878015F1040FC0F2898018
:10373000454580F2868096F838006D1C010702D45A
:10374000C145B8BFC8462DB2B8EB050848BF4FF019
:1037500000082DB2F068B169002D27DC4A1C302327
:103760004354B8F1000F03DC96F83800010702D586
:10377000F0688754521C18EB050FB8BFC8F100055C
:103780002DB2A8446842C845B8BFC146B261706254
:103790000FFA89F4F461F068B3692246514618447F
:1037A00000F018FAA8EB0400B062C6E02A46914582
:1037B000084418DA4A46514600F00CFAB069484409
:1037C000B061A5EB0901B8F1000F716203DC96F856
:1037D00038100A0704D5F1680F54F069401CF061F5
:1037E000C6F82880A9E0514600F0F4F9B06928181D
:1037F000B8F1000FA9EB050303DC96F838100A07AF
:1038000002D5F1680F54401CB0610FFA83F9C84526
:10381000B8BFC146F068B3690FFA89F422460AEBD3
:103820000501184400F0D6F9B0692044B061A8EB56
:103830000400706281E0BBF1610F16D14FF0700B94
:1038400018E0C14504DA96F838100A0758BFC84690
:10385000B8F1010848BF4FF00008BBF1670F14BF73
:103860004FF0450B4FF0650B04E0BBF1410F08BF73
:103870004FF0500BB169F368481CB061B8F1000F0C
:103880001AF8012B5A5403DC96F838100A0719D598
:10389000F168431CB3610F54B8F1000F12DDA9F1B8
:1038A00001073FB2B845B8BF4746F0683FB23A4655
:1038B0005146184400F08EF9B0693818B061A8EB91
:1038C00007007062F068B1690844002D80F800B00C
:1038D00003D42B214170811C03E02D2141706D42E6
:1038E000811C00206A460AE02B460A2493FBF4F56B
:1038F00005EB8504A3EB440302F8013B401C2DB209
:10390000002DF1DC012806DC4BF02002652A04BF03
:10391000302201F8012B48B9302001F8010B07E0F3
:10392000401E1DF80020303201F8012B0028F7DC82
:10393000F068B2691044091AF16196F8380000F095
:10394000140010280DD17169B0694118706A4118CE
:10395000F0694118B06A4118706B8142BCBF411ACE
:10396000316203B0BDE8F08FF8B505460E46174644
:103970001C46002074B117F8011BB068A847B0605E
:1039800030B1F06A401CF0620020641EF3D1F2BD39
:103990004FF0FF30F2BD00007072696E74665F73A5
:1039A0003A20256E20646973616C6C6F77656400E2
:1039B0007072696E74663A2062616420256E2061BF
:1039C0007267756D656E74007072696E74665F7390
:1039D0003A2062616420257320617267756D656E9F
:1039E000740000007072696E74665F733A206261E1
:1039F0006420256C7320617267756D656E740000BC
:103A000000000000000000006E616E004E414E009C
:103A1000696E6600494E46003000F0B402461068F8
:103A200095681318506803EB5004C00721D54D4426
:103A30001FE0F0BC02F10C00704713F8017B05F8A1
:103A4000017B491EF9D1A0B1B60813F8011B06F09D
:103A50000306032E08BF13F8016B01EB0621494250
:103A6000801C294405D011F8016B05F8016B401E3C
:103A7000F9D1A342DDD013F8016B16F0030104BFA6
:103A800013F8011BC91C30090F28DAD113F8010BF8
:103A90000F30D6E70278C9B28A421AB11CBF10F8BB
:103AA000012FF9E718BF002070478268521C82601E
:103AB000426832B10268531C036011704168491EAC
:103AC0004160704780B508B90FF21C0005490B68CA
:103AD0001BB122220021984701E000F006FD2220C0
:103AE00002BD0000EC5C0020636F6E73747261694C
:103AF0006E742068616E646C65723A206261642045
:103B00006D6573736167650000F10103810704D07F
:103B100010F8011B89B18107FAD10268B2F10131B5
:103B2000914311F0803F04BF50F8042FF6E710F8DE
:103B3000011B11B110F8011BFBE7C01A7047B1F56A
:103B4000807F02D34FF0FF30704701700120704733
:103B5000C9B2830706D0521E22D310F8013B994206
:103B6000F7D11FE0083A13D302F1040241EA012120
:103B700041EA014150F8043B121F21BF4B40A3F121
:103B8000013C2CEA030C1CF0803FF3D0C9B2001FAB
:103B9000083210F8013B521E28BF91EA030FF8D8F3
:103BA00018BF0120401E704780B500F007F8006C78
:103BB00002BD0268531C03601170704703487047D0
:103BC000DA6B1047014BFBE70148704738010020D2
:103BD0000001002062B38B0708D0521E11F8013B90
:103BE00000F8013B00F024808B07F6D1830740F0FA
:103BF000208000BF103A07D330B4B1E83810103A33
:103C0000A0E83810F9D230BC530724BFB1E808103F
:103C1000A0E8081044BF51F8043B40F8043BD20729
:103C200024BF31F8022B20F8022B44BF0B7803701D
:103C30007047121F17D35B0009D151F8043B20F8DD
:103C4000023B1B0C121F20F8023BF6D20BE051F88E
:103C5000043B00F8013B1B0A20F8023B1B0C121F1F
:103C600000F8013BF3D238BF121D521E24BF11F8D9
:103C7000013B00F8013BF8D8704708001B4213D104
:103C8000094236D12AB18446B0FBF2F002FB10C2E1
:103C9000704700F02DBCFCD30022002370470B00BE
:103CA0000200002100207047904271EB030CF6D314
:103CB00070B5B1FA81F4B3FA83F52C1BA340C4F1BB
:103CC000200532FA05F63343A2405FF00046E64095
:103CD00002E05B085FEA3202841A71EB030524BF3D
:103CE000204629467641F4D302000B003000002123
:103CF00070BD012ACFD970B5140C20D0B1FA81F46F
:103D0000B2FA82F5C4F120046419B4F12006D6D3C6
:103D1000B2405FF00044F440002502E052085FEA40
:103D20003303C61A71EB020E24BF3046714664415C
:103D30006D41F3D302000B002000290070BD0C463A
:103D4000B1FBF2F102FB11452D0445EA1045B5FB2C
:103D5000F2F402FB145580B240EA0545B5FBF2F0DF
:103D600002FB105240EA044070BD0000B0B581EA89
:103D7000030C0CF0004C40F2FF7515EA11541DBF06
:103D800015EA1357AC42AF4239E0E41923EA455330
:103D900043F48013C90241F0004141EA505EC7027A
:103DA0001100A7FB020200284FF00000EEFB0120EB
:103DB0004FF00001E3FB072118BF42F00102401859
:103DC00000214941E3FB0E01A4F580640F0302D2F8
:103DD00052004041494154F101046CDD470872F141
:103DE000004250F1000051EB0451A1F580115CBF7D
:103DF00041EA0C01B0BD4CEA05510020B0BD05EA16
:103E00001357AC4214BFAF4241E050EA410E1CBF11
:103E100052EA430E02E061460020B0BD24423C4419
:103E20001BD15FEA070EF6D0090302BF014600204E
:103E3000AEF1140EB1FA81F7AEEB070401FA07FEFA
:103E40000C37C7F1200100FA07F7C8404EEA000E10
:103E500023EA455343F48013A2E733F00043B3FA57
:103E600083F704BFB2FA82FE77440B3FE41BB7F13D
:103E7000200E2FBF02FA0EF3BB40C7F1200E22FA2C
:103E80000EFE38BF43EA0E03BA40641C82E750EAD4
:103E9000410E14BF52EA430E6FF000014FF40017B9
:103EA00017EB430F8ABF194617EB410FB5E74CEAF2
:103EB00005510020B0BDD4F10104B4F120070FDAA0
:103EC000C4F12007520828BF42F0010210FA07F59A
:103ED00001FA07F7E1BF2A43E0403843E1400FE031
:103EE000352C98DCC7F1200452EA400220FA07F290
:103EF00018BF42F0010231FA07F0A1400A43002145
:103F000072F1004250F1000051EB0C01B0BD000015
:103F100010B5144600F002F8226010BDC1F30A5338
:103F200043B14A0012F5001F28D2A3F2FE32A1EBE2
:103F30000251704750EA410C20D001F0004C31EAA8
:103F40000C01B1FA81F204BFB0FA80F3D2180B3A37
:103F5000B2F120032CBF00FA03F1914041EA0C01B9
:103F60003EBFC2F1200C20FA0CF31943904052429C
:103F700040F2FD33D21A01EB035170470022704723
:103F80004FF4001C1CEB410F94BF1CEB430F09E0E6
:103F900041EA030C50EA4C0C52EA0C0C03D2994251
:103FA00008BF9042704714BF8B42824270470000A6
:103FB0004FF4001C1CEB410F94BF1CEB430F09E0B6
:103FC00041EA030C50EA4C0C52EA0C0C03D28B422F
:103FD00008BF8242704714BF994290427047000068
:103FE000124254D440F2FF7C1CEA11530FD06345B7
:103FF00031D09B1863453CBF01EB0251704701F083
:10400000004141EA0C510020AFF30080704750EAB4
:10401000410320D001F0004C91EA0C011CD0B1FA10
:1040200081F30B3B9A420DD9D21A994051EA0C0107
:10403000C3F1200C20FA0CFC61449840531C40F260
:10404000FF7CD7E7914041EA0C01C2F1200C20FA35
:104050000CF3194390407047B0FA80F31533202BCE
:10406000E0D3202AEED3203A203B9A4209D9D21A33
:1040700000FA03F141EA0C010020531C40F2FF7CDE
:10408000B8E700FA02F141EA0C0100207047524201
:1040900040F2FF7C1CEA11530DD06345DBD0B2EB3C
:1040A000030C3CBFA1EB025170470CF1010221EA65
:1040B000035141F4801150EA410CCCD001F0004C86
:1040C000352A27DC30B481EA0C01B2F1200309DA89
:1040D000C2F12003044601FA03F5D0402843D14041
:1040E0009C400CE0C3F12002450020FA03F418BF05
:1040F00044F0010421FA03F091400C43002174F1D3
:10410000004550F1000051EB0C01244230BC7FF41B
:104110007BAF70476146002076E70000C1F30A5389
:1041200040F2FE329B1A14DDD3F120034FEAE17214
:1041300008DDC90241EA505141F00040D8408018E2
:104140005040704703F2E13010B1D24382F000409A
:104150007047002070470000C11768B14840401AFE
:10416000B0FA80F29040D21CC907C2F5846241EADD
:10417000025202EBD02140057047000070B44FF0AE
:10418000004591EA030F40F1BD816B40841A71EB49
:10419000030603D2001BB141121973414FF4001CF6
:1041A0001CEB410F34BF7CEB430442E00C0DA4EB4D
:1041B0001356352E4FDC45EAC323DB0A45EAC121FD
:1041C000C912B6F120050DDD63FA05F6EB4086EA6B
:1041D0000305124218BF45F00105C01851F1000156
:1041E0000CD213E062FA06F5F2405540F3415A4012
:1041F000B340F3405A408018594107D349085FEA59
:1042000030005FEA350528BF45F0010501F5801152
:10421000420875F1004250F1000041EB04514E009C
:1042200016F5001F70BC38BF70470020090D090546
:1042300070471CEB410F10D252EA43060BD0BCEB87
:10424000410F05D80C0DAB43661E342EB6DD02E0DF
:10425000AB438018594170BC704770BC7047000078
:10426000F0B540F2FF7581EA030C0CF0004C15EA42
:1042700011541DBF15EA1357AC42AF42E5E0BC41F3
:10428000C1F31301C3F31303801A994143F480135C
:1042900004D2641E4000494180185941C90241EAD4
:1042A0005051B1FBF3F603FB1611A2FB0675D7EBD9
:1042B000C020A94102D2761E80185941C90241EAA4
:1042C0005051B1FBF3FE03FB1E11A2FB0E75D7EBA1
:1042D000C020A94103D2AEF1010E801859418902D4
:1042E00041EA9051760546EA8E2EB1FBF3F603FBC8
:1042F0001611A2FB0675D7EB8020A94102D2761ECB
:1043000080185941C90241EA50514EEA060EB1FBEC
:10431000F3F603FB1611A2FB0675D7EBC020A941EB
:1043200002D2761E80185941C90241EA5051B1FBB0
:10433000F3F703FB1711A2FB0735D3EBC020A9410C
:1043400067F100070CBF004247F0010766F3D5276D
:104350004FEA1E31B80814F5806412DDBD0775F10F
:10436000004250EB0E5051EB045111F5801F5CBF21
:1043700041EA0C01F0BD4CF07F6141F0E0410020CA
:10438000F0BDBD076D0840EA0E5041F48011D4F134
:104390000104B4F120060ADAC4F120060200E0406C
:1043A00001FA06F3E1401843B24015430EE0342C05
:1043B00013DCC6F1200445EA40056D0820FA06F238
:1043C000154321FA06F0A1400D43002175F100428A
:1043D00050F1000051EB0C01F0BD00205FEA0C0130
:1043E000F0BDCFB992185B41B3FA83F704BFB2FABC
:1043F00082F6BF190B3FB7F120062FBF02FA06F372
:10440000BB40C7F1200622FA06F638BF3343BA4054
:104410001CB1E419641E33E77F4231F00041B1FA68
:1044200081F404BFB0FA80F6A4190B3CB4F1200665
:104430002FBF00FA06F1A140C4F1200620FA06F6CB
:1044400038BF3143A0403C1B1AE7AC421ABF05EA13
:104450001357AF4212E050EA41061CBF52EA43062E
:10446000BFE750EA4107304661461CBF41EA0551AB
:10447000F0BD52EA430C08BFC143F0BD00204FF429
:10448000001616EB410F98BF16EB430F08BF16EB53
:10449000410F24BFC14305E016EB430F0CBF61463B
:1044A0004CEA0551F0BD0000400D491840EA81205A
:1044B0000CD2490DA1F58061491C40F0004005DB9C
:1044C000D1F11F0154BFC840C0177047002070478A
:1044D000014648B1B0FA80F18840C91CC1F5846139
:1044E000090501EBD02140057047012000F0BEB85E
:1044F0007047000070B44FF0004591EA030F7FF55C
:1045000045AE6B40841A71EB030604D26E40001B6B
:10451000B141121973414FF4001C1CEB410F34BF21
:104520007CEB430682E00C0DA4EB1356362E7BDCAD
:10453000012E45EAC32341DC43EA525312BFD202A3
:1045400092025B08240545EAC12141EA5051D2EBB1
:10455000C020994125D407D1B0FA80F610FA06F1AF
:1045600062D00020203608E0B1FA81F6B140C6F1F1
:10457000200220FA02F21143B0404FEAF474B4EB87
:10458000465434F001064FEA74040AD8D6F50016F2
:10459000760D04F00044F04061FA06F25040F1401C
:1045A0004840C00A40EA415021F0004128BF5FEA7C
:1045B000500550F1000044EBD12135E0DB0A45EA1B
:1045C000C121C90AB6F120050EDD42EA0242120CF1
:1045D000C5F1200603FA06F6EB4042EA06056D42F5
:1045E000984161F100010DE062FA06F5F240554094
:1045F00063FA06FC82EA0C02F3405A406D42904195
:1046000061EB030111F4801F05D1641E620502D025
:104610006D004041494121F48011430875F1004388
:1046200050F1000041EB045170BC70471CEB410F8E
:1046300015D223F0004352EA43060BD04FEA4C0C4C
:10464000BCEB410F04D80C0D661E342EB7DDEBE732
:10465000801A994150EA410608BF0021E4E708BFEB
:104660001CEB430F28BF6FF00001DDE780B5AFF30F
:104670000080024A11001820ABBEFBE726000200B2
:1046800081B0DFF8881B09680143DFF8802B1160D7
:10469000DFF8781B096801400091009901B070476C
:1046A000C1F30F2202617047C1F30F2242617047CC
:1046B00000B585B06846142100F048FF0420FFF7DC
:1046C000DFFF0820FFF7DCFFDFF8440B009001203C
:1046D0000190032002900420039001200490694679
:1046E000DFF8A40C00F091FF41F210000090694641
:1046F000DFF8980C00F089FF00200390DFF8900CA1
:1047000000906946DFF8840C00F07FFFDFF8801C22
:10471000DFF8780CFFF7C8FF05B000BD82B00021BC
:104720000091009981420ED200210191019942F23B
:104730001072914203D20199491C0191F6E7009948
:10474000491C0091EDE702B0704710B5040041F23A
:104750001001DFF8380CFFF7A7FF2000C0B201F00E
:1047600008F841F21001DFF8240CFFF799FF10BDA3
:1047700010B504002000C0B2FFF7E7FF10BD10B570
:104780000400200080B2000AC0B2FFF7DEFF200064
:10479000C0B2FFF7DAFF10BD10B5040040F20221ED
:1047A000DFF8E40BFFF780FF2000C0B2FFF7CDFF7A
:1047B00040F20221DFF8D00BFFF772FF10BDF8B511
:1047C00004000D0016001F002A20FFF7E5FF20005F
:1047D00080B2FFF7D4FF300080B2FFF7D0FF2B206C
:1047E000FFF7DAFF280080B2FFF7C9FF380080B278
:1047F000FFF7C5FF2C20FFF7CFFFF1BD80B500F01C
:1048000072FFFFF755FFDFF88C1BDFF87C0BFFF71B
:104810004BFF6420FFF782FFDFF8781BDFF8680B9F
:10482000FFF73EFF6420FFF779FFDFF8641BDFF836
:104830005C0BFFF735FF6420FFF770FF1120FFF7D7
:10484000ABFF6420FFF76AFF3620FFF7A5FF70205B
:10485000FFF78EFF3A20FFF79FFF0520FFF788FF45
:10486000B220FFF799FF0C20FFF782FF0C20FFF723
:104870007FFF0020FFF77CFF3320FFF779FF332015
:10488000FFF776FFB720FFF787FF3520FFF770FFB0
:10489000BB20FFF781FF3520FFF76AFFC020FFF73D
:1048A0007BFF2C20FFF764FFC220FFF775FF01207C
:1048B000FFF75EFFC320FFF76FFF1320FFF758FFDE
:1048C000C420FFF769FF2020FFF752FFC620FFF743
:1048D00063FF0F20FFF74CFFCA20FFF75DFF0F209B
:1048E000FFF746FFC820FFF757FF0820FFF740FFFC
:1048F0005520FFF751FF9020FFF73AFFD020FFF738
:104900004BFFA420FFF734FFA120FFF731FFE02089
:10491000FFF742FFD020FFF72BFF0020FFF728FF13
:104920000620FFF725FF0920FFF722FF0B20FFF7E6
:104930001FFF2A20FFF71CFF3C20FFF719FF55201F
:10494000FFF716FF4B20FFF713FF0820FFF710FFBC
:104950001620FFF70DFF1420FFF70AFF1920FFF7BD
:1049600007FF2020FFF704FFE120FFF715FFD0200D
:10497000FFF7FEFE0020FFF7FBFE0620FFF7F8FE24
:104980000920FFF7F5FE0B20FFF7F2FE2920FFF7C5
:10499000EFFE3620FFF7ECFE5420FFF7E9FE4B2038
:1049A000FFF7E6FE0D20FFF7E3FE1620FFF7E0FE1F
:1049B0001420FFF7DDFE2120FFF7DAFE2020FFF7AD
:1049C000D7FE2920FFF7E8FE01BDF8B50400002559
:1049D0000027EF2340F23F1200210020FFF7EFFEF7
:1049E0000026B6B2B6F5A07F0CDA00200700BFB2F1
:1049F000F02F05DA200080B2FFF7C1FE7F1CF6E73A
:104A0000761CEEE7F1BD70B504000D0016002B001A
:104A10009BB2220092B2290089B2200080B2FFF737
:104A2000CEFE300080B2FFF7AAFE70BD2DE9FF4F29
:104A300083B000250026BDF81410BDF80C00091A3B
:104A40000091BDF81800BDF81040041BBDF80C70B3
:104A5000BDF810800098012802DB5FF001090AE030
:104A60000098002802D15FF0000904E05FF0FF39F0
:104A7000009840420090012C02DB5FF0010A07E041
:104A8000002C02D15FF0000A02E05FF0FF3A6442BE
:104A90000098844202DA0098019000E001945FF0EF
:104AA000000B1FFA8BFB0198401C83451CDABDF8F4
:104AB00040204046010089B2380080B2FFF7A3FFD2
:104AC00000984519A6190198A84203DA01982D1AF1
:104AD00019EB07070198B04203DA0198361A1AEB6E
:104AE00008081BF1010BDCE707B0BDE8F08F2DE9EA
:104AF000F04182B005000E0017009846089C200087
:104B000080B2009033009BB23A0092B2310089B279
:104B1000280080B2FFF78AFF200080B20090434651
:104B20009BB22A0092B2310089B2280080B2FFF70E
:104B30007DFF200080B2009043469BB23A0092B2C3
:104B4000414689B2280080B2FFF770FF200080B292
:104B5000009043469BB23A0092B2310089B23800CD
:104B600080B2FFF763FFBDE8F3812DE9F84304004D
:104B70000D0016001F005FF00008F6B2B146C145F7
:104B80005EDB3A0092B2B5EB080189B2B4EB0900E2
:104B900080B2FFF738FF3A0092B2B5EB080189B254
:104BA00019EB040080B2FFF72EFF3A0092B219EB26
:104BB000050189B2B4EB080080B2FFF724FF3A0088
:104BC00092B2B5EB090189B2B4EB080080B2FFF7ED
:104BD0001AFF3A0092B218EB050189B219EB0400F2
:104BE00080B2FFF710FF3A0092B2B5EB090189B22B
:104BF00018EB040080B2FFF706FF3A0092B219EBFF
:104C0000050189B218EB040080B2FFF7FCFE3A0000
:104C100092B218EB050189B2B4EB090080B2FFF73C
:104C2000F2FE18F10108F6B2F6B206FB06F009FB37
:104C300009F108FB08118842A1DAB9F101099EE7E0
:104C4000BDE8F1832DE9FF4F81B00E980F9D002440
:104C5000EDB2022195FBF1F8EDB20C2D02D15FF01F
:104C60000C0912E0EDB2102D02D15FF010090CE03A
:104C7000EDB2182D02D15FF0300906E0EDB2202D23
:104C800002D15FF0400900E087E0B0F1200BBDF8F1
:104C90000800EDB22818431E9BB2BDF80410EDB217
:104CA000022095FBF0F041184A1E92B2BDF80810A0
:104CB000BDF80400FFF783FD5FF0000A5046494647
:104CC00080B289B2884268D2EDB20C2D0DD1DFF8E6
:104CD000C8065FFA8BFB0C2101FB0BF108441FFA9D
:104CE0008AFA10F80A00060030E0EDB2102D0CD15F
:104CF000DFF8A8065FFA8BFB5FEA0B1108441FFA86
:104D00008AFA10F80A00060020E0EDB2182D0DD145
:104D1000DFF88C065FFA8BFB302101FB0BF10844B6
:104D20001FFA8AFA10F80A0006000FE0EDB2202DF3
:104D30000CD1DFF870065FFA8BFB402101FB0BF111
:104D400008441FFA8AFA10F80A000600002007003B
:104D5000BFB2082F1EDA0121B9403000C0B20842AC
:104D600004D0BDF80C00FFF70AFD03E0BDF8100009
:104D7000FFF705FD641CA4B220001FFA88F890FB21
:104D8000F8F108FB1100002802D10020040001E026
:104D90007F1CDDE71AF1010A90E705B0BDE8F08F4E
:104DA0002DE9F74F06000F009B460D9D0024ADF83E
:104DB0000060EDB22800082190FBF1F201FB120027
:104DC000002801D0012000E00020EDB2082195FB71
:104DD000F1F14018EDB26843ADF802000520ADF8DE
:104DE00004005FF0000A5046BDF8041080B288420B
:104DF00080F09280DFF8B0051FFA8AFA1A2101FBD1
:104E00000AF1405C02990978884240F08280DFF81C
:104E100098051FFA8AFA1A2101FB0AF10844407822
:104E200002994978884274D1EDB2E819431E9BB2C9
:104E3000EDB2A819421E92B2390089B2300080B298
:104E4000FFF7BDFC002080464046C0B2BDF802100E
:104E500080B288425DD2002081465FFA89F9B9F1BB
:104E6000080F53DA9DF83800002826D1DFF83805FE
:104E70001FFA8AFA1A2101FB0AF108445FFA88F83E
:104E800040448078012111FA09F1084204D05846C3
:104E900080B2FFF774FC03E0BDF83000FFF76FFC51
:104EA000641CE4B22000EDB290FBF5F105FB1100AB
:104EB000002828D10020040028E0DFF8EC041FFAC5
:104EC0008AFA1A2101FB0AF108445FFA88F8404483
:104ED0008078012111FA09F1084207D05A4692B2AE
:104EE000390089B2300080B2FFF78DFD761CB6B272
:104EF000BDF80000301AEDB2A84204D1BDF80000A0
:104F000006007F1C02E019F10109A6E718F101086B
:104F10009AE71AF1010A66E7BDE8F78F2DE9F74F26
:104F200006000F009B460D9D0024ADF80060EDB219
:104F30002800082190FBF1F201FB1200002801D0AB
:104F4000012000E00020EDB2082195FBF1F14018AE
:104F5000EDB26843ADF802002B20ADF804005FF01D
:104F6000000A5046BDF8041080B2884280F092805A
:104F7000DFF838041FFA8AFA222101FB0AF1405CAB
:104F800002990978884240F08280DFF820041FFAF5
:104F90008AFA222101FB0AF10844407802994978F3
:104FA000884274D1EDB2E819431E9BB2EDB2A81944
:104FB000421E92B2390089B2300080B2FFF7FFFB87
:104FC000002080464046C0B2BDF8021080B2884240
:104FD0005DD2002081465FFA89F9B9F1080F53DAF2
:104FE0009DF83800002826D1DFF8C0031FFA8AFA9E
:104FF000222101FB0AF108445FFA88F840448078D6
:10500000012111FA09F1084204D0584680B2FFF795
:10501000B6FB03E0BDF83000FFF7B1FB641CE4B25F
:105020002000EDB290FBF5F105FB1100002828D11E
:105030000020040028E0DFF874031FFA8AFA222116
:1050400001FB0AF108445FFA88F8404480780121A6
:1050500011FA09F1084207D05A4692B2390089B2D2
:10506000300080B2FFF7CFFC761CB6B2BDF800006E
:10507000301AEDB2A84204D1BDF8000006007F1C32
:1050800002E019F10109A6E718F101089AE71AF1FF
:10509000010A66E7BDE8F78F2DE9F74F06000F001C
:1050A0009B460D9D0024ADF80060EDB2280008215C
:1050B00090FBF1F201FB1200002801D0012000E07A
:1050C0000020EDB2082195FBF1F14018EDB26843E4
:1050D000ADF802002E20ADF804005FF0000A504643
:1050E000BDF8041080B2884280F08E80B0481FFA6C
:1050F0008AFA4A2101FB0AF1405C02990978884248
:1051000040F07F80AA481FFA8AFA4A2101FB0AF17F
:105110000844407802994978884272D1EDB2E81982
:10512000431E9BB2EDB2A819421E92B2390089B259
:10513000300080B2FFF743FB002080464046C0B2FB
:10514000BDF8021080B288425BD2002081465FFA2F
:1051500089F9B9F1080F51DA9DF83800002825D1F6
:1051600093481FFA8AFA4A2101FB0AF108445FFAC0
:1051700088F840448078012111FA09F1084204D0EE
:10518000584680B2FFF7FBFA03E0BDF83000FFF7A6
:10519000F6FA641CE4B22000EDB290FBF5F105FBD9
:1051A0001100002827D10020040027E080481FFAC2
:1051B0008AFA4A2101FB0AF108445FFA88F8404460
:1051C0008078012111FA09F1084207D05A4692B2BB
:1051D000390089B2300080B2FFF715FC761CB6B2F8
:1051E000BDF80000301AEDB2A84204D1BDF80000AD
:1051F00006007F1C02E019F10109A8E718F1010877
:105200009CE71AF1010A6AE7BDE8F78F181002401F
:10521000420240042DE9F74F06000F009B460D9D0A
:105220000024ADF80060EDB22800082190FBF1F2F7
:1052300001FB1200002801D0012000E00020EDB2A7
:10524000082195FBF1F14018EDB26843ADF802007A
:105250000520ADF804005FF0000A5046BDF80410C8
:1052600080B2884280F08E8052481FFA8AFA8221EA
:1052700001FB0AF1405C02990978884240F07F8086
:105280004C481FFA8AFA822101FB0AF1084440784F
:1052900002994978884272D1EDB2E819431E9BB257
:1052A000EDB2A819421E92B2390089B2300080B224
:1052B000FFF785FA002080464046C0B2BDF80210D4
:1052C00080B288425BD2002081465FFA89F9B9F149
:1052D000080F51DA9DF83800002825D135481FFA0B
:1052E0008AFA822101FB0AF108445FFA88F84044F7
:1052F0008078012111FA09F1084204D0584680B2A1
:10530000FFF73DFA03E0BDF83000FFF738FA641C00
:10531000E4B22000EDB290FBF5F105FB110000288E
:1053200027D10020040027E022481FFA8AFA8221B0
:1053300001FB0AF108445FFA88F8404480780121B3
:1053400011FA09F1084207D05A4692B2390089B2DF
:10535000300080B2FFF757FB761CB6B2BDF80000F4
:10536000301AEDB2A84204D1BDF8000006007F1C3F
:1053700002E019F10109A8E718F101089CE71AF108
:10538000010A6AE7BDE8F78F000C01400008014000
:10539000100010044000400430F00008B8D90008A4
:1053A000F018000830010008300A0108A8DF0008E2
:1053B0006458000840FA00082DE9F04F85B0070056
:1053C000884691469A460E9C0F9D109EADF80C7033
:1053D0000020A4B20C2C09D0A4B2102C06D0A4B288
:1053E000182C03D0A4B2202C40F0AC805FF0000B4E
:1053F0005846514680B289B2884280F0A38099F81D
:105400000000002800F09E8099F80000802834DA1F
:10541000A4B2022094FBF0F0D0F5A070BFB2B84265
:1054200006DBA4B2D4F1F0001FFA88F8404500DA98
:1054300088E099F800000D2807D114EB0808BDF8A2
:105440000C00070019F1010914E02000C0B201901E
:1054500099F80000009033009BB22A0092B24146B6
:1054600089B2380080B2FFF7EDFBA4B2022094FBB2
:10547000F0F0C71919F10109BAE7A4B2D4F5A07088
:10548000BFB2B84206DBA4B2D4F1F0001FFA88F82C
:10549000404500DA56E0A4B20C2C11D10020029055
:1054A0002000C0B20190300080B200902B009BB26F
:1054B0004A46414689B2380080B2FFF771FC3DE0B0
:1054C000A4B2102C11D1002002902000C0B2019093
:1054D000300080B200902B009BB24A46414689B210
:1054E000380080B2FFF71AFD28E0A4B2182C11D1C1
:1054F000002002902000C0B20190300080B20090E5
:105500002B009BB24A46414689B2380080B2FFF771
:10551000C3FD13E0A4B2202C10D100200290200083
:10552000C0B20190300080B200902B009BB24A467E
:10553000414689B2380080B2FFF76CFE19F10209CA
:10554000E71955E705B0BDE8F08F0000002200F034
:105550002DB90000F0B410EB116491FAA1F3B3FA85
:1055600083F391FAA1F5B5FA85F526680F27DBB22A
:105570009B009F40BE43EDB2AB0012FA03F31E4303
:105580002660F0BC7047F0B410EB116491FAA1F3FF
:10559000B3FA83F391FAA1F5B5FA85F526680327E6
:1055A000DBB29B009F40BE43EDB2AB0012FA03F3A7
:1055B0001E432660F0BC7047F0B410EB116491FA02
:1055C000A1F3B3FA83F391FAA1F5B5FA85F526684C
:1055D0000427DBB29B009F40BE43EDB2AB0012FA42
:1055E00003F31E432660F0BC704710B4C36833EA6F
:1055F00011230C00240A94FAA4F4B4FA84F412FAE5
:1056000004F42343C36010BC70472DE9F04104004B
:105610000D002F683F023F0C97FAA7F0B0FA80F810
:10562000380030FA08F0002832D0380030FA08F09C
:10563000C0072AD5B8F1080F05D240F2011010FAC0
:1056400008F0060007E05FF001114046083881408D
:1056500051F080610E006A6831002000FFF77AFF88
:105660002A6931002000FFF7C0FF6868012802D0D6
:105670006868092809D1AA6831002000FFF783FF74
:10568000EA6831002000FFF797FF18F10108C7E72B
:105690000120BDE8F081000081B041490968014363
:1056A0003F4A11603E49096801400091009901B0EC
:1056B0007047016851F0400101607047806810F048
:1056C000010070478068400810F001007047C06812
:1056D000C0B27047C9B2C160704710B50400200065
:1056E000FFF7ECFF10BD00B58FB005A82821FFF72C
:1056F0002DFF68461421FFF729FF4FF48050FFF774
:10570000CBFF0420FFF7C8FF4AF2A0000090092059
:105710000190032002900020039069462148FFF782
:1057200074FF44F2400000900420019069461D4837
:10573000FFF76BFF002005904FF482700690002069
:10574000079002200890012009904FF400700A9001
:1057500000200B9000200C9000200D9007200E9050
:1057600005A9114800F045F80F48FFF7A2FF0FB058
:1057700000BD38B5040000250B48FFF7A3FF002843
:10578000FAD02100C9B20848FFF7A4FF0648FFF786
:10579000A4FF0028FAD00448FFF799FFC0B232BD39
:1057A00018100240000801400030014000B500BF61
:1057B000130096469446103928BFA0E80C50FAD83A
:1057C0005FEA417C28BF0CC048BF40F8042BC907E2
:1057D00028BF20F8022B48BF00F8012B00BD0000B5
:1057E0000068800910F0010070470A0092B202615F
:1057F000704770B504000D0000262000FFF7F0FF91
:10580000002826D1216816480140286801436868AD
:105810000143A8680143E8680143286901436869B6
:105820000143A8690143E8690143286A01432160F3
:10583000606830F00400696950EA11406060286ACD
:10584000B0F5005F03D1696A2000FFF7CEFF0120A9
:105850000600E06930F40060E0613000C0B270BD65
:105860004000FFFFCEC20000000000000800003032
:10587000FE0F20020420020480020440FE074602BC
:10588000044C020448020420FE07200000A0000887
:1058900020FF1F1091081E910818910818910818F0
:1058A0009108189108189168E06E17000000D1B9AE
:1058B000000000000000000018F0FF3F3000003042
:1058C00030003030003030003030003030003030C8
:1058D00000B0FF0F303000303000103001103002C7
:1058E00010300610300C083004083000043030E46A
:1058F000CF0F020000000000C1F700000000100000
:1059000000600010401020FF3F6020000020008059
:1059100010028208048C040C48FE0B480008202664
:10592000062026022026021026021E260218220227
:1059300018222218232218212298207E602000009D
:105940000000CAAA00000000000008000810FE1FA6
:1059500030060820060880060842FE0F4C0608584C
:10596000060848FE0F209600201001A010311011EB
:10597000311813191C120918160508120308100112
:105980000C1001081031C0EF0E000000D2BB000067
:105990000000000000000000000000000000000007
:1059A000000000000000000000000000000038FCC3
:1059B000FF7F000000000000000000000000000069
:1059C00000000000000000000000000000000000D7
:1059D000000000000000CCE5000000400000C0C056
:1059E0000040400040400060400020403030FF7FD9
:1059F00030600128700128500124580222480220FA
:105A0000440420460C204218204134A0FE3F604050
:105A10000020400020400020400020400000000006
:105A2000BCE000000000000000C300104100106155
:105A30000010611810A107102100101101101102AF
:105A4000100906100504000104000100100004F014
:105A5000FF071062041062041062041062041062F6
:105A600024FEFF3F000000000000B2E20000000042
:105A70000000880030907F10B06110A06112806536
:105A800012826D12CC6D12C86D12A86D12A06D122B
:105A9000A06D12A06D129065129065129C251218CF
:105AA0000412181A1018221018611098401C600077
:105AB00018000000D2C7000000000000C01100C0A4
:105AC000200040600060C00020400C20000C30042A
:105AD00004300406280802280802241001221001BC
